:100000000C94AA000C94D2000C94D2000C94D20050
:100010000C94D2000C94D2000C94D2000C94D20018
:100020000C94D2000C94D2000C94D2000C94D20008
:100030000C94D2000C94D2000C94D2000C94D200F8
:100040000C9442050C94D2000C9410050C94EA0414
:100050000C94D2000C94D2000C94D2000C94D200D8
:100060000C94D2000C94D2000C94D2000C94D200C8
:100070000C94D2000C94D2000C94D2000C94D200B8
:100080000C94D2000C94D2000C94D2000C94D200A8
:100090000C94D2000C94D2000C94D2000C94D20098
:1000A0000C948C050C94D2000C94D2000C94D200C9
:1000B0000C94D20058025B024E0252027C027C0277
:1000C0005F02630269026D027C0273027702B7026B
:1000D000BC02C102CB0214031403D502DD02E50207
:1000E000EF021403FA0209030A0D0E0900030200CD
:1000F00000040508000000000000000000000000EF
:1001000000000000000000250028002B002E000049
:10011000000000240027002A002D00040404040429
:1001200004040402020202020203030303030302A3
:1001300002030505050501020408102040800102A4
:10014000040810200102040810204080400102042D
:100150000800BA0611241FBECFEFD8E0DEBFCDBF26
:1001600022E0A8E3B1E001C01D92A63DB207E1F78D
:1001700011E0A0E0B1E0E0EDF7E102C005900D92E2
:10018000A833B107D9F710E0CAEAD0E004C021973C
:10019000FE010E94BA0AC93AD107C9F70E940507B1
:1001A0000C94E60B0C94000090E0FC01EA5CFE4F1E
:1001B0002491FC01E55EFE4F8491882399F090E044
:1001C000880F991FFC01E15FFE4FA591B491FC01DE
:1001D000ED5FFE4F859194918FB7F894EC91E22BEF
:1001E000EC938FBF0895CF92DF92EF92FF920F931F
:1001F0001F93CF93DF936C017A018B01C0E0D0E0B5
:10020000CE15DF0581F0D8016D918D01D601ED91FC
:10021000FC910190F081E02DC6010995892B11F028
:100220002196EECF7E01C701DF91CF911F910F91F3
:10023000FF90EF90DF90CF900895E091D501F0917D
:10024000D601309729F01092CC011092CB0109947D
:100250000895CF93DF93AC01E091D301F091D401E5
:100260003097F1F09091CE018091CD019817C0F0B8
:1002700090E0292F30E02617370754F4D901A85C05
:10028000BE4FEA01C20FD31F28812C939F5FF1CF8D
:100290001092CE016093CD01CB01DF91CF910994F3
:1002A000DF91CF9108950895FC01918D828D98176B
:1002B00061F0828DDF01A80FB11D5D968C91928D4A
:1002C0009F5F9F73928F90E008958FEF9FEF089547
:1002D000FC01918D828D981731F0828DE80FF11D10
:1002E000858D90E008958FEF9FEF0895FC01918D2B
:1002F000228D892F90E0805C9F4F821B91098F7324
:100300009927089581EE91E00E94760121E0892BE2
:1003100009F420E0822F0895FC01848DDF01A80FED
:10032000B11DA35ABF4F2C91848D90E001968F731D
:100330009927848FA689B7892C93A089B1898C913C
:1003400080648C93938D848D981306C00288F38902
:10035000E02D80818F7D80830895EF92FF920F932F
:100360001F93CF93DF93EC0181E0888F9B8D8C8D61
:10037000981305C0E889F989808185FD24C0F62E8F
:100380000B8D10E00F5F1F4F0F731127E02E8C8D28
:10039000E8120CC00FB607FCFACFE889F989808112
:1003A00085FFF5CFCE010E948C01F1CF8B8DFE0130
:1003B000E80FF11DE35AFF4FF0820B8FEA89FB89AA
:1003C0008081806207C0EE89FF896083E889F989AE
:1003D00080818064808381E090E0DF91CF911F91E4
:1003E0000F91FF90EF900895CF93DF93EC01888DEC
:1003F0008823C9F0EA89FB89808185FD05C0A88929
:10040000B9898C9186FD0FC00FB607FCF5CF8081AE
:1004100085FFF2CFA889B9898C9185FFEDCFCE01F8
:100420000E948C01E7CFDF91CF91089580E090E0AA
:10043000892B21F00E94820181110DC080E090E0A3
:10044000892B71F080E090E0892B51F00E94000030
:10045000811104C008950E940000F0CF0C940000A8
:100460000895362F90E0FC01E851FF4F4491FC01C4
:10047000EA5CFE4F2491FC01E55EFE4F84918823E7
:1004800009F44EC04423C1F150E0FA013297ED3037
:10049000F10590F5E65AFF4F0C94BA0A909180004E
:1004A0009F7703C0909180009F7D9093800024C02F
:1004B00094B59F7702C094B59F7D94BD1DC0909167
:1004C000B0009F7703C09091B0009F7D9093B000E3
:1004D00013C0909190009F7703C0909190009F7DF2
:1004E0009093900009C09091A0009F7703C09091D5
:1004F000A0009F7D9093A000E82FF0E0EE0FFF1F7B
:10050000ED5FFE4FA591B4919FB7F894311104C0EF
:100510008C912095282302C0EC912E2B2C939FBF09
:1005200008951F93CF93DF93182FEB010E94D400FF
:10053000209711F460E004C0CF3FD10539F461E0A9
:10054000812FDF91CF911F910C943102E12FF0E0C8
:10055000E851FF4FE4918E2F90E0FC013297ED308F
:10056000F10508F061C0E959FF4F0C94BA0A84B54F
:10057000806884BDC7BD5DC084B5806284BDC8BDD0
:1005800058C080918000806880938000D09389005B
:10059000C09388004EC0809180008062809380006C
:1005A000D0938B00C0938A0044C08091B0008068D3
:1005B0008093B000C093B3003CC08091B0008062D3
:1005C0008093B000C093B40034C0809190008068E4
:1005D00080939000D0939900C09398002AC05A9AB3
:1005E00080919000806280939000D0939B00C09394
:1005F0009A001FC08091A00080688093A000809125
:10060000A0008F7B8093A000D093A900C093A80086
:1006100010C05A9A8091A00080628093A000D0936D
:10062000AB00C093AA0005C0C038D1050CF087CF3D
:1006300081CFDF91CF911F9108952FB7F8946091EA
:10064000C4017091C5018091C6019091C7012FBF6F
:10065000089585ED8093DC008091DC0084FDFCCF63
:100660001092CA010895613298F42091CA01243091
:1006700089F460937801282FA8E5B1E0FC018E2F62
:10068000821B861718F481918D93F9CF80E008952D
:1006900081E0089582E00895E091CE018091CD013E
:1006A000E81730F4F0E0E85CFE4F808190E00895B8
:1006B0008FEF9FEF08959091CE018091CD01981713
:1006C00050F4E92FF0E0E85CFE4F208130E09F5FBE
:1006D0009093CE0102C02FEF3FEFC90108958091A2
:1006E000CD0190E02091CE01821B91090895CF9316
:1006F000DF93CB01EA01642F0E943303CE01DF9127
:10070000CF910895CF93DF931F92CDB7DEB7698362
:1007100061E0CE0101960E94330381E090E00F90EA
:10072000DF91CF910895E091DF01F091E0016685BE
:1007300086EC92E00C9482030F931F93CF93DF9388
:10074000EC018B018B85882329F060E08A810E946F
:1007500031021B866D817E81060F171F01308FEFDE
:1007600018074CF00F3F110519F014F00FEF10E0CF
:1007700017FF0FC002C001E01FEF81E08C8361E032
:1007800089810E94310266277727601B710B6B837A
:1007900010C01C8260E089810115110529F00E94BA
:1007A00031020B83B80105C00E9431021B8260E058
:1007B00070E08881DF91CF911F910F910C9491028D
:1007C000CF93DF93222379F0EC0181E09FEF9E83AA
:1007D0008D8361E08A810E94310281E08B8760E035
:1007E00070E0CE0110C0262F30E0442319F04FEF07
:1007F0005FEF02C041E050E0429FB001439F700DA7
:10080000529F700D1124DF91CF910C949C03EF92B5
:10081000FF920F931F93CF93DF93EC01862F688392
:1008200049832A831B821C821E821D82EF82F886E6
:1008300009871A871B860E94D40089810E94D400F0
:100840008A810E94D40060E070E0CE01DF91CF91F8
:100850001F910F91FF90EF900C949C03FC01138269
:100860001282678581E06827678784810C94310252
:10087000CF93DF93EC0186EC92E00E945B03992713
:100880008330910509F449C034F48130910559F061
:10089000029729F18FC08430910509F45AC0069758
:1008A00009F472C087C0249709F084C086EC92E0F6
:1008B0000E945B03C82F86EC92E00E945B03D82F56
:1008C00086EC92E00E945B0321E0019709F020E0B2
:1008D0004D2F6C2F8091DD019091DE011BC024977C
:1008E00009F068C086EC92E00E945B03C82F86EC9A
:1008F00092E00E945B03D82F86EC92E00E945B039B
:1009000021E0019709F020E04D2F6C2F8091DB0151
:100910009091DC010E94E0034DC0249709F04AC089
:1009200086EC92E00E945B03C82F86EC92E00E9466
:100930005B03D82F86EC92E00E945B0321E00197D5
:1009400009F020E04D2F6C2F8091D9019091DA01B0
:10095000E1CF249779F586EC92E00E945B03C82FE3
:1009600086EC92E00E945B03D82F86EC92E00E9416
:100970005B0321E0019709F020E04D2F6C2F80915F
:10098000D7019091D801C6CF2297A1F486EC92E0CE
:100990000E945B03E091DF01F091E001892B21F4DB
:1009A0008785882339F003C08785811103C0CF0173
:1009B0000E942E049091CD018091CE01981729F0CC
:1009C00086EC92E00E945B03F5CFDF91CF91089512
:1009D0000E94E10B1F920F920FB60F9211242F93DA
:1009E0003F934F935F936F937F938F939F93AF93B7
:1009F000BF93EF93FF9381EE91E00E948C01FF91F2
:100A0000EF91BF91AF919F918F917F916F915F9186
:100A10004F913F912F910F900FBE0F901F901895FF
:100A20001F920F920FB60F9211242F938F939F93C3
:100A3000EF93FF93E091F101F091F2018081E09159
:100A4000F701F091F80182FD12C090818091FA01C6
:100A50008F5F8F732091FB01821751F0E091FA01B3
:100A6000F0E0EF51FE4F958F8093FA0101C0808135
:100A7000FF91EF919F918F912F910F900FBE0F904B
:100A80001F9018951F920F920FB60F9211242F935B
:100A90003F938F939F93AF93BF938091C4019091A5
:100AA000C501A091C601B091C7013091C30123E0F7
:100AB000230F2D3720F40196A11DB11D05C026E896
:100AC000230F0296A11DB11D2093C3018093C40181
:100AD0009093C501A093C601B093C7018091BF0157
:100AE0009091C001A091C101B091C2010196A11DD8
:100AF000B11D8093BF019093C001A093C101B09339
:100B0000C201BF91AF919F918F913F912F910F9013
:100B10000FBE0F901F9018951F920F920FB60F9255
:100B200011242F933F934F935F936F937F938F93F2
:100B30009F93AF93BF93EF93FF938091D900887FEA
:100B4000803609F49CC068F5883209F45BC090F4E3
:100B5000803109F454C038F4882309F4F6C0883091
:100B600009F44DC0F6C0883109F44CC0803209F454
:100B70005DC0EFC0803409F468C048F4803309F4E4
:100B800055C0883309F0E5C080939B01D8C08035FB
:100B900009F44FC0883509F45DC0883409F0D9C024
:100BA000D6C0883909F4C7C0A8F4883709F467C0EB
:100BB00038F4883609F463C0803709F460C0C9C0CE
:100BC000883809F4B8C0803909F45FC0803809F06A
:100BD000C0C05BC0803B09F486C038F4803A09F499
:100BE00066C0883A09F47FC0B4C0803C09F4A7C04D
:100BF000883C09F4A4C0883B09F48AC0AAC080914B
:100C0000BE0110C09091BD018091BC01981770F594
:100C1000E091BD0181E08E0F8093BD01F0E0E456CC
:100C2000FE4F80818093DB0085EC86C080939B0122
:100C30008EC0E091BD0181E08E0F8093BD01809157
:100C4000DB00F0E0E456FE4F80839091BD0180917F
:100C5000BC016EC0E091BD0181E08E0F8093BD01AB
:100C60008091DB00F0E0E456FE4F80838091C90163
:100C700081116DC081E08093C80184EA61C083E086
:100C80008093CA0110929A01CFCF80919A0180324D
:100C900008F051C0E0919A0181E08E0F80939A0193
:100CA0008091DB00F0E0E658FE4F8083BDCF85ECFD
:100CB0008093DC001092CA0180919A01803230F456
:100CC000E0919A01F0E0E658FE4F108260919A019F
:100CD00070E0E091CF01F091D0018AE791E00995B1
:100CE00010929A0136C084E08093CA011092790173
:100CF00010927801E091D101F091D2010995809193
:100D00007801811105C081E080937801109258012B
:100D1000E091790181E08E0F80937901F0E0E85A4B
:100D2000FE4F80818093DB00909179018091780162
:100D3000981708F479CF85E88093DC000AC085EC29
:100D40008093DC001092CA0104C010929B010E94A3
:100D50002903FF91EF91BF91AF919F918F917F9167
:100D60006F915F914F913F912F910F900FBE0F9018
:100D70001F901895E1EEF1E01382128288EE93E065
:100D8000A0E0B0E084839583A683B7832AE031E0B6
:100D90003183208325EC30E03587248724EC30E054
:100DA0003787268720EC30E0318B208B21EC30E038
:100DB000338B228B22EC30E0358B248B26EC30E019
:100DC000378B268B118E128E138E148EEEE7F2E087
:100DD000168217821086118612861386148615864F
:100DE00016861786108A118A128A138A148A158A1F
:100DF000E6ECF2E01382128284839583A683B783A4
:100E00008AE191E0918380830895789484B582602B
:100E100084BD84B5816084BD85B5826085BD85B59E
:100E2000816085BD80916E00816080936E0010921C
:100E30008100809181008260809381008091810097
:100E40008160809381008091800081608093800028
:100E50008091B10084608093B1008091B000816086
:100E60008093B00080919100826080939100809186
:100E700091008160809391008091900081608093C7
:100E800090008091A10082608093A1008091A100D8
:100E900081608093A1008091A00081608093A00078
:100EA00080917A00846080937A0080917A008260D9
:100EB00080937A0080917A00816080937A0080919B
:100EC0007A00806880937A001092C1001092C2026A
:100ED0001092C3021092C4021092C50210928002B6
:100EE0001092810210928202109283020E941D03CE
:100EF0006B017C014B015C0128EB820E2BE0921E02
:100F0000A11CB11C0E941D036C157D058E059F055B
:100F100028F086169706A806B906A0F781EE91E09C
:100F20009093C1028093C002E091F101F091F2012F
:100F300082E08083E091ED01F091EE011082E0917A
:100F4000EF01F091F00180E180831092F901E091CE
:100F5000F501F091F60186E08083E091F301F091D4
:100F6000F401808180618083E091F301F091F401CC
:100F7000808188608083E091F301F091F4018081A9
:100F800080688083E091F301F091F40180818F7D8E
:100F900080830E941D03609380027093810280937E
:100FA0008202909383028091C0029091C102DC0181
:100FB000ED91FC910280F381E02D41E150E066E289
:100FC00071E009950E941D036B017C014B015C01DE
:100FD000BAE08B0E911CA11CB11C0E941D036C1564
:100FE0007D058E059F0528F086169706A806B9068A
:100FF000A0F781E0809394029AE09093DA002DE1CB
:1010000031E03093D2012093D10129E231E03093D5
:10101000D0012093CF011092CE011092CD011092F9
:10102000CC011092CB011092CA018093C901109299
:10103000C80161E087E10E94310261E088E10E941D
:1010400031028091D9008E7F8093D9008091D900A0
:101050008D7F8093D90088E48093D80085E48093C5
:10106000DC0088E394E09093D4018093D30183E97A
:1010700093E09093D6018093D5018CE190E00E949B
:10108000C00AEC01198218828FEF9FEF9B838A833D
:1010900083E18C8382E18D831E821F8218861986EC
:1010A0008DEC9CECACE4BEE38A879B87AC87BD8764
:1010B0001E861F86188A198A1A8A1B8ACC24CA940B
:1010C000DC2C7601CC8ADD8AEE8AFF8A188E198E96
:1010D0001A8E1B8E0E941D03688B798B8A8B9B8BCB
:1010E000CC8ADD8AEE8AFF8A8C810E94D400CE01F0
:1010F0000E942E04D093E001C093DF018CE090E0C9
:101100000E94C00AEC01E12CF12C00EF11E42EE06A
:101110004FE069E00E940704D093DE01C093DD0137
:101120008CE090E00E94C00AEC01E12CF12C06E179
:1011300013E420E141E16AE00E940704D093DC015E
:10114000C093DB018CE090E00E94C00AEC01E12C2E
:10115000F12C07E813E42CE04DE06BE00E9407045B
:10116000D093DA01C093D9018CE090E00E94C00ACC
:10117000EC01E12CF12C870122E044E063E00E94C5
:101180000704D093D801C093D70183E10E94D40013
:1011900061E083E10E94310260E070E08091DD0156
:1011A0009091DE010E949C0360E070E08091DB0181
:1011B0009091DC010E949C03C091D901D091DA0189
:1011C00060E070E0CE010E949C036B8170E0CE0174
:1011D0000E949C0344244A94542C320111E0C09193
:1011E000DF01D091E0018C899D89AE89BF898F3F55
:1011F0002FEF9207A207B20749F40E941D03C88887
:10120000D988EA88FB88DC01CB0104C0C888D9886A
:10121000EA88FB888C199D09AE09BF09CE80DF8062
:10122000E884F984CD28CE28CF2839F024EFC22EC7
:10123000DD24D394E12CF12C03C0C12CD12C7601F8
:10124000C816D906EA06FB060CF068C09D819830E6
:1012500048F082EF890F8B3040F0993128F08DEE05
:10126000890F03C0892F01C08FEF8770806480933E
:101270007C0080917A00806480937A0080917A006B
:1012800086FDFCCF609178008091790070E0782B2A
:10129000798368838A819B818617970710F47B8303
:1012A0006A8380E090E00E9496096B017C016A816C
:1012B0007B8180E090E00E9496092A853B854C85E1
:1012C0005D850E94F7094B015C019B01AC01C701E0
:1012D000B6010E94910987FF0AC01E8784EF91E042
:1012E000A0E0B0E08E839F83A887B9870DC0A501D9
:1012F0009401C701B6010E94B50A18162CF41E8687
:101300001E821F82188619860E941D03688B798BA6
:101310008A8B9B8B4C8A5D8A6E8A7F8A0E9416021A
:101320005ECF0E94D30908F481E00895E89409C0D3
:1013300097FB3EF490958095709561957F4F8F4F08
:101340009F4F9923A9F0F92F96E9BB279395F6951E
:10135000879577956795B795F111F8CFFAF4BB0F9C
:1013600011F460FF1BC06F5F7F4F8F4F9F4F16C000
:10137000882311F096E911C0772321F09EE8872F8A
:10138000762F05C0662371F096E8862F70E060E046
:101390002AF09A95660F771F881FDAF7880F9695BF
:1013A000879597F90895990F0008550FAA0BE0E863
:1013B000FEEF16161706E807F907C0F01216130617
:1013C000E407F50798F0621B730B840B950B39F457
:1013D0000A2661F0232B242B252B21F408950A26BD
:1013E00009F4A140A6958FEF811D811D08950E94EB
:1013F0000A0A0C947B0A0E946D0A38F00E94740A53
:1014000020F0952311F00C94640A0C946A0A1124BC
:101410000C94AF0A0E948C0A70F3959FC1F3950F4C
:1014200050E0551F629FF001729FBB27F00DB11D68
:10143000639FAA27F00DB11DAA1F649F6627B00DF8
:10144000A11D661F829F2227B00DA11D621F739FE1
:10145000B00DA11D621F839FA00D611D221F749FEF
:101460003327A00D611D231F849F600D211D822F36
:10147000762F6A2F11249F5750409AF0F1F088235D
:101480004AF0EE0FFF1FBB1F661F771F881F91508A
:101490005040A9F79E3F510580F00C94640A0C94CB
:1014A000AF0A5F3FE4F3983ED4F38695779567954E
:1014B000B795F795E7959F5FC1F7FE2B880F911DB4
:1014C0009695879597F9089597F99F6780E870E05A
:1014D00060E008959FEF80EC089500240A941616AA
:1014E000170618060906089500240A941216130612
:1014F000140605060895092E0394000C11F48823A0
:1015000052F0BB0F40F4BF2B11F460FF04C06F5FBB
:101510007F4F8F4F9F4F089557FD9058440F551F91
:1015200059F05F3F71F04795880F97FB991F61F065
:101530009F3F79F087950895121613061406551FDC
:10154000F2CF4695F1DF08C0161617061806991F48
:10155000F1CF86957105610508940895E894BB273D
:1015600066277727CB0197F908950E94D30908F4DD
:101570008FEF0895EE0FFF1F0590F491E02D099471
:101580000F931F93CF93DF938230910510F482E085
:1015900090E0E091D402F091D50220E030E0A0E0AC
:1015A000B0E0309719F140815181028113814817D1
:1015B0005907C8F08417950769F4109731F012960F
:1015C0000C93129713961C9327C00093D402109388
:1015D000D50222C02115310519F04217530718F41E
:1015E0009A01BD01EF01DF01F801DBCF21153105C3
:1015F000F9F0281B390B2430310580F48A819B8156
:101600006115710521F0FB019383828304C09093DF
:10161000D5028093D402FE01329644C0FE01E20F4F
:10162000F31F8193919322503109398328833AC063
:101630002091D2023091D302232B41F42091020158
:10164000309103013093D3022093D2022091000104
:10165000309101012115310541F42DB73EB740917C
:10166000040150910501241B350BE091D202F09149
:10167000D302E217F307A0F42E1B3F0B28173907FC
:1016800078F0AC014E5F5F4F2417350748F04E0FDE
:101690005F1F5093D3024093D2028193919302C073
:1016A000E0E0F0E0CF01DF91CF911F910F9108951D
:1016B000CF93DF93009709F481C0FC013297138226
:1016C0001282A091D402B091D502109781F42081AA
:1016D0003181820F931F2091D2023091D3022817BB
:1016E000390751F5F093D302E093D20267C0ED01C0
:1016F00020E030E0CE17DF0740F44A815B819E0195
:1017000041155105F1F0EA01F5CFD383C283408141
:101710005181840F951FC817D90759F48881998181
:10172000840F951F0296918380838A819B81938386
:1017300082832115310529F4F093D502E093D40278
:101740003DC0E901FB83EA8349915991C40FD51F3C
:10175000EC17FD0761F480819181840F951F02963B
:10176000E90199838883828193819B838A83E0E066
:10177000F0E012968D919C911397009719F0FD015E
:10178000DC01F7CF8D919C9111979D012E5F3F4F0A
:10179000820F931F2091D2023091D302281739076C
:1017A00069F4309729F41092D5021092D40202C045
:1017B00013821282B093D302A093D202DF91CF9111
:1017C000089581E090E0F8940C94E60BF894FFCF34
:1017D0000000D602800000000000AD01F300760199
:1017E00054016801F40100000000820377036F03D5
:1017F0005B034C035301564D4450565F317C315FBF
:08180000564D4450560D0A003C
:0200000002C03C
:00000001FF