:1000000014C1000043C1000041C100003FC1000015
:100010003DC100003BC1000039C1000037C10000F4
:1000200035C1000033C1000031C100002FC1000004
:100030002DC100002BC1000029C1000027C1000014
:1000400025C1000023C1000021C100001FC1000024
:100050001DC100001BC1000019C100005FC40000E9
:1000600015C1000092C1000067C100000FC100006F
:100070000DC100000BC1000009C1000007C1000054
:1000800005C1000003C1000001C10000FFC0000065
:10009000FDC00000FBC00000F9C0000089C40000E2
:1000A000F5C00000F3C00000F1C00000EFC0000088
:1000B000EDC00000EBC00000E9C00000E7C0000098
:1000C000E5C00000E3C00000E1C00000DFC00000A8
:1000D000DDC00000DBC00000D9C00000D7C00000B8
:1000E000D5C000008B028E027D0281028702C5020C
:1000F000920296029C02A002A402AA02AE02B202DE
:10010000C502B802BC02C002000020002300260085
:1001100029002C002F00320000010000030106011D
:10012000090100002100240027002A002D003000D2
:10013000330001010000040107010A010000220050
:10014000250028002B002E003100340002010000A1
:10015000050108010B010505050507050808080844
:10016000020202020A0A080804040404010101014F
:10017000010101010303030303030303040707074A
:100180000C0C0C0C0C0C0C0C0202020206060606EF
:10019000060606060B0B0B0B0B0B0B0B01021020BC
:1001A00020080810204010204080020102010804AD
:1001B0000201010204081020408080402010080441
:1001C000020180040201804020100804020108049A
:1001D00002010102040810204080010204081020DE
:1001E000408000000A0B02090C0D0E0807030401F1
:1001F00000000000000000000000000000000000FF
:1002000000000000000000000000000000001211CB
:1002100010000000000000000000000000000000CE
:1002200000000000000000001C0F11241FBECFEFD3
:10023000D1E2DEBFCDBF00E00CBF27E0A2EEB5E00B
:1002400001C01D92A93BB207E1F715E0A0E0B2E0C2
:10025000E0E8F1E200E00BBF02C007900D92A23E81
:10026000B107D9F711E0C5E1D1E000E006C0219760
:100270000109802FFE010E94910FC431D10780E057
:100280000807A9F70E94F4090C94BE10B9CE85EABC
:1002900096E0E2D021E0892B09F420E0822F089536
:1002A000EF92FF920F931F93CF93DF93EC0181E0C6
:1002B000888F9B8D8C8D981305C0E889F989808182
:1002C00085FD25C0F62E0B8D10E00F5F1F4F0F73BD
:1002D0001127E02E8C8DE8120BC00FB607FCFACF69
:1002E000E889F989808185FFF5CFCE013DD2F2CF33
:1002F0008B8DFE01E80FF11DE35AFF4FF0829FB78F
:10030000F8940B8FEA89FB89808180620AC09FB7CD
:10031000F894EE89FF896083E889F9898081837088
:10032000806480839FBF81E090E0DF91CF911F9137
:100330000F91FF90EF9008951F920F920FB60F92BA
:1003400011240BB60F922F933F934F935F936F93AC
:100350007F938F939F93AF93BF93EF93FF9385EA20
:1003600096E002D2FF91EF91BF91AF919F918F9153
:100370007F916F915F914F913F912F910F900BBEA5
:100380000F900FBE0F901F9018951F920F920FB6EF
:100390000F9211240BB60F922F938F939F93EF938D
:1003A000FF93E091B506F091B6068081E091BB061F
:1003B000F091BC0682FD12C090818091BE068F5FD5
:1003C0008F732091BF06821751F0E091BE06F0E0D6
:1003D000EB55F94F958F8093BE0601C08081FF9148
:1003E000EF919F918F912F910F900BBE0F900FBEA9
:1003F0000F901F901895FC01538D448D252F30E0F0
:10040000842F90E0821B930B541710F0CF96089521
:1004100001970895FC01918D828D981761F0828D6E
:10042000DF01A80FB11D5D968C91928D9F5F9F7328
:10043000928F90E008958FEF9FEF0895FC01918DCA
:10044000828D981731F0828DE80FF11D858D90E037
:1004500008958FEF9FEF0895FC01918D228D892FD4
:1004600090E0805C9F4F821B91098F7399270895BC
:1004700080E090E0892B19F00ADF811125C080E02F
:1004800090E0892B41F080E090E0892B21F00E94E0
:10049000000081111CC080E090E0892B41F080E0D9
:1004A00090E0892B21F00E940000811113C080E0B0
:1004B00090E0892BA1F080E090E0892B81F00E94F0
:1004C000000081110AC008950E940000D8CF0E9448
:1004D0000000E1CF0E940000EACF0C9400000895D4
:1004E00090E0FC013197E231F10508F04EC0882719
:1004F000EE58FF4F8F4F0C94910F809180008F77B3
:1005000003C0809180008F7D80938000089580914A
:100510008000877FF9CF84B58F7702C084B58F7D47
:1005200084BD08958091B0008F7703C08091B000A2
:100530008F7D8093B0000895809190008F7707C0E1
:10054000809190008F7D03C080919000877F809381
:10055000900008958091A0008F7707C08091A0003F
:100560008F7D03C08091A000877F8093A0000895B5
:10057000809120018F7707C0809120018F7D03C07B
:1005800080912001877F80932001089585ED8093DD
:10059000BC008091BC0084FDFCCF109281060895C0
:1005A00040910906262F30E0240F311D21323105FC
:1005B000DCF4209181062430C9F4FC0180E090E055
:1005C000861758F4309109062191DC01A751BA4FE2
:1005D000A30FB11D2C930196F3CF80910906680FEC
:1005E0006093090680E0089581E0089582E008950F
:1005F000089508950895E0915A0680915906E817E4
:1006000030F4F0E0EB5CF94F808190E008958FEFDB
:100610009FEF089590915A0680915906981750F4CB
:10062000E92FF0E0EB5CF94F208130E09F5F909381
:100630005A0602C02FEF3FEFC90108958091590675
:1006400090E020915A06821B91090895CF92DF9283
:10065000EF92FF920F931F93CF93DF937C01CB0117
:100660008A0120918206222389F0EB016B01C40EDE
:10067000D51ECC15DD0561F06991D701ED91FC9196
:100680000190F081E02DC7011995F3CF642F88DF29
:10069000C801DF91CF911F910F91FF90EF90DF90F4
:1006A000CF900895CF93DF931F92CDB7DEB76983C4
:1006B000209182062223D1F02091A406203240F01E
:1006C00021E030E0FC013383228380E090E014C01D
:1006D00080918306E82FF0E0EC57F94F99819083E1
:1006E0008F5F809383068093A40604C061E0CE01EF
:1006F000019656DF81E090E00F90DF91CF91089551
:10070000089580E090E008950F931F93CF93DF93B7
:10071000EC012E8130E0F901EE51FE4F8491F90198
:10072000E456FE4F0491F901EA5AFE4F1491112349
:1007300089F08111D5DEE12FF0E0EE0FFF1FE85FB9
:10074000FE4FA591B491EC91E02381E090E021F47B
:1007500080E002C080E090E08887DF91CF911F9118
:100760000F9108950E94BA10FC01848DDF01A80F3B
:10077000B11DA35ABF4F2C91848D90E001968F73C9
:100780009927848FA689B7892C93A089B1898C91E8
:10079000837080648C93938D848D981306C0028837
:1007A000F389E02D80818F7D80830895CF93DF933F
:1007B000EC01888D8823C1F0EA89FB89808185FD61
:1007C00005C0A889B9898C9186FD0EC00FB607FCBB
:1007D000F5CF808185FFF2CFA889B9898C9185FFFB
:1007E000EDCFCE01C1DFE8CFDF91CF9108951F9308
:1007F000CF93DF93282F30E0F901EE51FE4F849123
:10080000F901E456FE4FD491F901EA5AFE4FC49122
:10081000CC23B9F0162F811163DEEC2FF0E0EE0F40
:10082000FF1FE45CFE4FA591B4919FB7F89411119E
:1008300004C08C91D095D82302C0EC91DE2BDC93C0
:100840009FBFDF91CF911F910895FC016087868142
:10085000CECFCF93DF9390E0FC01E456FE4F24917E
:10086000FC01EA5AFE4F8491882361F190E0880FE1
:10087000991FFC01EE5DFE4FC591D491FC01E45C33
:10088000FE4FA591B491611109C09FB7F89488817A
:10089000209582238883EC912E230BC0623061F473
:1008A0009FB7F8948881322F309583238883EC9109
:1008B0002E2B2C939FBF06C08FB7F894E8812E2B68
:1008C00028838FBFDF91CF910895FC0167838681D4
:1008D000C0CF3FB7F8948091310690913206A09135
:1008E0003306B091340626B5A89B05C02F3F19F0FA
:1008F0000196A11DB11D3FBFBA2FA92F982F8827A0
:10090000820F911DA11DB11DBC01CD0142E0660FFA
:10091000771F881F991F4A95D1F708951F920F924C
:100920000FB60F9211242F933F938F939F93AF9302
:10093000BF9380912D0690912E06A0912F06B09125
:10094000300630912C0623E0230F2D3720F401963A
:10095000A11DB11D05C026E8230F0296A11DB11DE2
:1009600020932C0680932D0690932E06A0932F069D
:10097000B09330068091310690913206A0913306F3
:10098000B09134060196A11DB11D8093310690935C
:100990003206A0933306B0933406BF91AF919F9176
:1009A0008F913F912F910F900FBE0F901F90189530
:1009B0001F920F920FB60F9211240BB60F922F9326
:1009C0003F934F935F936F937F938F939F93AF93D7
:1009D000BF93EF93FF938091B900887F803609F42D
:1009E0009CC068F5883209F45BC090F4803109F44A
:1009F00054C038F4882309F4F6C0883009F44DC097
:100A0000F5C0883109F44CC0803209F45DC0EEC0F5
:100A1000803409F468C048F4803309F455C0883341
:100A200009F0E4C080937F06D8C0803509F44FC038
:100A3000883509F45DC0883409F0D8C0D6C088393B
:100A400009F4C7C0A8F4883709F467C038F48836B9
:100A500009F463C0803709F460C0C8C0883809F45D
:100A6000B8C0803909F45FC0803809F0BFC05BC0EE
:100A7000803B09F486C038F4803A09F466C0883AAD
:100A800009F47FC0B3C0803C09F4A7C0883C09F4D6
:100A9000A4C0883B09F48AC0A9C080915C0610C03C
:100AA00090917E0680917D06981770F5E0917E0604
:100AB00081E08E0F80937E06F0E0E35AF94F80814B
:100AC0008093BB0085EC86C080937F068EC0E0914A
:100AD0007E0681E08E0F80937E068091BB00F0E061
:100AE000E35AF94F808390917E0680917D066EC017
:100AF000E0917E0681E08E0F80937E068091BB00A0
:100B0000F0E0E35AF94F80838091800681116DC037
:100B100081E080935B0684EA61C083E08093810674
:100B200010922B06CFCF80912B06803208F051C057
:100B3000E0912B0681E08E0F80932B068091BB0005
:100B4000F0E0E55FF94F8083BDCF85EC8093BC007A
:100B50001092810680912B06803230F4E0912B06B2
:100B6000F0E0E55FF94F108260912B0670E0E091B4
:100B70005506F09156068BE096E0199510922B06DB
:100B800035C084E08093810610920A06109209060F
:100B9000E0915706F0915806199580910906811148
:100BA00005C081E0809309061092E905E0910A06EC
:100BB00081E08E0F80930A06F0E0E751FA4F8081C2
:100BC0008093BB0090910A0680910906981708F45B
:100BD00079CF85E88093BC0009C085EC8093BC0088
:100BE0001092810603C010927F06D0DCFF91EF9136
:100BF000BF91AF919F918F917F916F915F914F9135
:100C00003F912F910F900BBE0F900FBE0F901F9032
:100C10001895CF92DF92EF92FF921F93CF93DF93BD
:100C2000182FEB017A01690189EE94E0B8D2C7016F
:100C3000B6D28CEE94E0B3D20D2C000CEE08FF0877
:100C4000F7FE0DC06DE285EA96E02ADB662777277E
:100C5000CB016C197D098E099F094AE003C04AE067
:100C6000C701B6019DD284EF94E099D21093E205BA
:100C700087EF94E094D2112349F0113051F01230F3
:100C800059F0133061F084EE94E00BC085ED94E0F0
:100C900008C08AED94E005C08FED94E002C080E7C3
:100CA00092E07DD289EF94E07AD2CE01DF91CF91AC
:100CB0001F91FF90EF90DF90CF9065C2FC012481DF
:100CC0003581428153816DEF74E081E0A2CFFC0158
:100CD000248135814281538165E275E081E099CFBD
:100CE0000895FC0124813581428153816DEF74E0C8
:100CF00081E08FCFFC01248135814281538162E5FF
:100D000075E081E086CFFC01718360832091E70567
:100D10003091E805A9014F5F5F4F5093E80540937C
:100D2000E7053383228308950F931F93FC01848189
:100D30009581A681B7818F3F2FEF9207A207B20757
:100D400059F42FB7F89480912D0690912E06A0911A
:100D50002F06B09130062FBF00811181228133818F
:100D6000BC01CD01601B710B820B930B1F910F9186
:100D700008952FB7F89440912D0650912E0660915A
:100D80002F06709130062FBFFC0140835183628390
:100D900073834FEF5FEFBA01448355836683778394
:100DA00008959F92AF92BF92CF92DF92EF92FF92FF
:100DB0000F931F93CF93DF93EC017C0127E1E20EA9
:100DC000F11CC701B1DF16161706180619060CF03C
:100DD0003BC08E8160E170E090E051D26E0137E05F
:100DE000C30ED11C00E010E09091590680915A0684
:100DF000981799F082E497E00DDC982E82E497E052
:100E000009DCB92CA12CF501E82BCF01F601819367
:100E100091936F010F5F1F4FE7CF012B41F42C819E
:100E20003D814A815B816EE775E082E0F2DEC701B9
:100E3000DF91CF911F910F91FF90EF90DF90CF90B6
:100E4000BF90AF909F9095CFDF91CF911F910F9161
:100E5000FF90EF90DF90CF90BF90AF909F9008955C
:100E6000EF92FF920F931F93CF93DF93EC017C01DE
:100E700087E1E80EF11CC70157DF161617061806A2
:100E80001906D4F58E8161E070E090E0F8D100E0C1
:100E900010E09091590680915A069817D9F082E493
:100EA00097E0B8DBFE01379620E030E09927AC01EF
:100EB000022E02C0559547950A94E2F741705527D6
:100EC000419351932F5F3F4F2830310581F70F5FDA
:100ED0001F4FDFCF012B41F42C813D814A815B8183
:100EE0006EE775E082E095DEC701DF91CF911F913B
:100EF0000F91FF90EF903DCFDF91CF911F910F9118
:100F0000FF90EF900895EF92FF920F931F93CF936E
:100F1000DF93EC017C0188E0E80EF11CC70104DFDF
:100F2000161617061806190654F58E8161E070E052
:100F300090E0A5D100E010E09091590680915A060A
:100F4000981759F082E497E065DB21E0892B09F4DA
:100F500020E02F830F5F1F4FEFCF012B41F42C8137
:100F60003D814A815B816EE775E082E052DEC70118
:100F7000DF91CF911F910F91FF90EF90FACEDF910B
:100F8000CF911F910F91FF90EF900895FC01108277
:100F90001182128213824FEF5FEFBA0144835583AF
:100FA000668377831086118612861386E2CE1F939E
:100FB000CF93DF93EC01142F0296A5DE84E192E03B
:100FC000998388831E832BD18CE292E09983888356
:100FD000FE01379680E1DF011D928A95E9F7CE0187
:100FE0004796DF91CF911F91D1CF1F93CF93DF937E
:100FF000EC01142F029687DE84E192E099838883C6
:101000001E830DD184E292E099838883FE01379696
:1010100080E1DF011D928A95E9F7CE014796DF91C5
:10102000CF911F91B3CF282F3091A406313208F011
:101030004AC0809181068111FCCF90915A0742E00D
:1010400040938106209380062FEF20937F06109215
:101050007E0630937D06E4E8F6E0ADE5B6E020E0FC
:10106000321721F041914D932F5FFACF10925C0619
:1010700020915C06990F922B90935C0690915B06F1
:10108000913061F410925B0690915C069093BB00E6
:101090009091BC0093FDF8CF95EC01C095EE909334
:1010A000BC00909181069230E1F390917F069F3FC2
:1010B00079F080917F06803241F080917F06803305
:1010C00031F084E005C081E003C082E001C083E02C
:1010D000109283061092A406109282060895CF9271
:1010E000DF92EF92FF920F931F93CF93DF936C01E8
:1010F0007A018B01C0E0D0E0CE15DF0581F0D80188
:101100006D918D01D601ED91FC910190F081E02D62
:10111000C6011995892B11F02196EECF7E01C701EA
:10112000DF91CF911F910F91FF90EF90DF90CF90C3
:101130000895CF93DF93EC0164ED74E00296E3DD54
:1011400084E392E0998388831E8281E08F831886EE
:1011500061E080E07EDB8EE392E099838883DF911B
:10116000CF910895009761F0FC0101900020E9F70C
:101170003197AF01481B590BBC0185EA96E0AFCF10
:1011800080E090E00895CF93DF93ECDFEC0182EDF7
:1011900094E0E8DF8C0F9D1FDF91CF910895E2CF9F
:1011A0008F929F92AF92BF920F931F93CF93DF9333
:1011B000CDB7DEB7A1970FB6F894DEBF0FBECDBF97
:1011C00019A2423008F44AE08E010F5D1F4F842EB1
:1011D000912CA12CB12CA501940181D6E62FB90147
:1011E000CA0101501109EA3014F4E05D01C0E95C64
:1011F000D801EC93232B242B252B69F7C801B2DFF0
:10120000A1960FB6F894DEBF0FBECDBFDF91CF9190
:101210001F910F91BF90AF909F908F900895109263
:101220005A0610925906109283061092A406109244
:10123000810681E08093800610925B0661E084E184
:10124000D6DA61E085E1D3DAE9EBF0E080818E7FE8
:10125000808380818D7F808388E48093B80085E4DB
:101260008093BC0088EF92E09093580680935706D5
:1012700089EF92E0909356068093550608959091D9
:1012800081069111FCCF613208F060E291E0909309
:101290008106909380062FEF20937F0610927E06A2
:1012A000260F20937D0690935C0690915C06880F34
:1012B000892B80935C0680915B06813061F41092EB
:1012C0005B0680915C068093BB008091BC0083FD2F
:1012D000F8CF85EC01C085EE8093BC00809181063B
:1012E0008130E1F380917E06861710F460917E06CE
:1012F000ADE5B6E0E5E3F6E080E0861721F09D91EC
:1013000091938F5FFACF10925A06809359060895F1
:10131000FF920F931F93CF93DF93CDB7DEB72C9738
:101320000FB6F894DEBF0FBECDBF8C01CE01019683
:101330002DDEF80124813581428153816BE975E00E
:1013400080E067DCFF24F394F8018681F092820646
:1013500080935A07109283061092A40681E063DE00
:1013600081112CC0CE010196DFDC693E73408105FE
:1013700091055CF0F801248135814281538163EB52
:1013800075E083E046DC80E023C0F801868191E0CF
:101390009093820680935A07109283061092A406B7
:1013A00081E041DE8111E6CFF8012481358142815F
:1013B00053816FEC75E02DDC81E00AC0CE0101960F
:1013C000B3DC683E7340810591050CF4BDCFCACFF4
:1013D0002C960FB6F894DEBF0FBECDBFDF91CF9134
:1013E0001F910F91FF900895789484B5826084BD19
:1013F00084B5816084BD85B5826085BD85B5816019
:1014000085BD80916E00816080936E001092810096
:101410008091810082608093810080918100816051
:101420008093810080918000816080938000809112
:10143000B10084608093B1008091B000816080939E
:10144000B000809191008260809391008091910022
:1014500081608093910080919000816080939000E2
:101460008091A10082608093A1008091A1008160A1
:101470008093A1008091A00081608093A000809162
:1014800021018260809321018091210181608093FC
:1014900021018091200181608093200180917A0058
:1014A000846080937A0080917A00826080937A00D1
:1014B00080917A00816080937A0080917A008068C0
:1014C00080937A001092C100E091B506F091B606C3
:1014D00082E08083E091B506F091B6061082E0913B
:1014E000B106F091B2061082E091B306F091B40615
:1014F00080E180831092BD06E091B906F091BA06B2
:1015000086E08083E091B706F091B8068081806123
:101510008083E091B706F091B8068081886080836F
:10152000E091B706F091B806808180688083E091F1
:10153000B706F091B80680818F7D808389E090E0C6
:10154000F8D4EC0165E772E00296DDDB84E392E01B
:10155000998388838DE08E8381E08F83188661E094
:101560008DE077D98AE092E099838883D093E6056D
:10157000C093E50580E892E006DEABD94B015C0143
:1015800050EDC52E57E0D52EE12CF12CA2D9DC016F
:10159000CB0188199909AA09BB09883E9340A10586
:1015A000B105A0F311E0C11AD108E108F10828EE55
:1015B000820E23E0921EA11CB11CC114D104E104CF
:1015C000F10421F787EA92E0DEDD84E190E0B1D416
:1015D000EC016FEB72E0029696DB84E192E0998376
:1015E000888385E08E831BDE8CE192E0998388837B
:1015F0001F82CE010896CADC8AE090E09AD4EC0102
:1016000069EC72E080DB83E290E093D48C0146E0E9
:1016100066ED72E0EADC1D830C8383E290E089D4FE
:101620008C0147E064EE72E0E0DC1F830E8383E20E
:1016300090E07FD48C0148E062EF72E0D6DC19873D
:1016400008878AE690E075D4EC0160E073E05BDB2C
:101650008AE090E06ED47C016AE073E054DB0FEF27
:1016600013E0D70115961C930E931497F701168279
:10167000178210861186FD82EC828AE090E059D4B0
:101680007C0161E173E03FDBD70115961C930E935B
:101690001497F7011682178210861186FF82EE8258
:1016A0008AE090E046D47C0168E173E02CDBD7014E
:1016B00015961C930E931497F701168217821086C5
:1016C0001186F986E8868AE090E033D47C016FE1E8
:1016D00073E019DBD70115961C930E931497F7014D
:1016E0001682178210861186FB86EA868AE090E0D1
:1016F00020D47C0166E273E006DBD70115961C93CB
:101700000E931497F7011682178210861186FD86B4
:10171000EC868AE090E00DD47C016DE273E0F3DAB0
:10172000D70115961C930E931497F7011682178212
:1017300010861186FF86EE868AE090E0FAD37C015F
:1017400064E373E0E0DAD70115961C930E931497C7
:10175000F7011682178210861186F98AE88A8AE0D4
:1017600090E0E7D37C016BE373E0CDDAD701159607
:101770001C930E931497F701168217821086118618
:10178000FB8AEA8A8AE090E0D4D37C0162E473E0C9
:10179000BADAD70115961C930E931497F7011682A7
:1017A000178210861186FD8AEC8A8AE090E0C1D308
:1017B0007C0169E473E0A7DAD70115961C930E93B8
:1017C0001497F7011682178210861186FF8AEE8A17
:1017D0008AE090E0AED37C0160E573E094DAD70153
:1017E00015961C930E931497F70116821782108694
:1017F0001186F98EE88E8AE090E09BD37C0168E543
:1018000073E081DAD70115961C930E931497F701B4
:101810001682178210861186FB8EEA8E8AE090E08F
:1018200088D37C0160E673E06EDAD70115961C93CD
:101830000E931497F7011682178210861186FD8E7B
:10184000EC8E8AE090E075D37C0168E673E05BDAA9
:10185000D70115961C930E931497F70116821782E1
:1018600010861186FF8EEE8E8AE090E062D37C01B6
:1018700060E773E048DAD70115961C930E9314972E
:10188000F7011682178210861186F9A2E8A28AE073
:1018900090E04FD37C0168E773E035DAD701159605
:1018A0001C930E931497F7011682178210861186E7
:1018B000FBA2EAA28AE090E03CD37C0160E873E0FE
:1018C00022DAD70115961C930E931497F70116820E
:1018D000178210861186FDA2ECA28AE090E029D33F
:1018E0007C0168E873E00FDAD70115961C930E931C
:1018F0001497F7011682178210861186FFA2EEA2B6
:101900008AE090E016D37C0160E973E0FCD9D7014E
:1019100015961C930E931497F70116821782108662
:101920001186F9A6E8A68AE090E003D37C0168E975
:1019300073E0E9D9D70115961C930E931497F7011C
:101940001682178210861186FBA6EAA68AE090E02E
:10195000F0D27C0160EA73E0D6D9D70115961C93CA
:101960000E931497F7011682178210861186FDA632
:10197000ECA68AE090E0DDD27C0168EA73E0C3D98E
:10198000D70115961C930E931497F70116821782B0
:1019900010861186FFA6EEA68AE090E0CAD27C01EE
:1019A00060EB73E0B0D9D70115961C930E93149792
:1019B000F7011682178210861186F9AAE8AA8AE032
:1019C00090E0B7D27C0168EB73E09DD9D701159602
:1019D0001C930E931497F7011682178210861186B6
:1019E000FBAAEAAA83E290E0A4D28C0142E060EC78
:1019F00073E0DDDA1DAB0CAB83E290E09AD28C0190
:101A000043E06BEC73E0D3DA1FAB0EAB83E290E004
:101A100090D28C0144E066ED73E0C9DA19AF08AFEB
:101A20008C819D819BAF8AAF8E819F819DAF8CAF52
:101A3000888599859FAF8EAFFE01E05CFF4F8A8558
:101A40009B859183808332968C859D85918380834D
:101A500032968E859F859183808332968889998975
:101A60009183808332968A899B8991838083329681
:101A70008C899D899183808332968E899F899183F9
:101A800080833296888D998D9183808332968A8D5A
:101A90009B8D9183808332968C8D9D8D91838083E5
:101AA00032968E8D9F8D91838083329688A199A1E5
:101AB0009183808332968AA19BA191838083329601
:101AC0008CA19DA19183808332968EA19FA1918349
:101AD0008083329688A599A59183808332968AA5C2
:101AE0009BA59183808332968CA59DA5918380834D
:101AF00032968EA59FA591838083329688A999A955
:101B00009183808332968AA99BA991838083D09305
:101B1000E405C093E30581EE93E035DBC091E30576
:101B2000D091E4052A813B81488159816EE074E0BF
:101B300080E06FD88CA99DA9EBDBF82E8EA99FA918
:101B4000E7DB082F88AD99ADE3DB182F2A813B81B5
:101B500048815981FF2021F0002311F0811141C0FB
:101B600066E274E083E055D8ECA9FDA982819381F7
:101B700016DB81EF94E013DBF11003C080E792E005
:101B800002C088E692E0FFDAEEA9FFA98281938184
:101B900006DB81EF94E003DB011103C080E792E0F4
:101BA00002C088E692E0EFDAE8ADF9AD8281938178
:101BB000F6DA81EF94E0F3DA111103C080E792E0E6
:101BC00002C088E692E0DFDAF11007C0011105C01B
:101BD000111103C082E594E002C08EE794E0D3DAED
:101BE00004C062EB74E080E014D88091E505909128
:101BF000E605DC01ED91FC910280F381E02D61E0CE
:101C000019958091E205833009F4D4C0C091E305B1
:101C1000D091E4058CA99DA9DC01ED91FC91028095
:101C2000F381E02D19958EA99FA9DC01ED91FC911E
:101C30000280F381E02D199588AD99ADDC01ED911D
:101C4000FC910280F381E02D19958C819D819BAFE1
:101C50008AAF8E819F819DAF8CAF888599859FAF1C
:101C60008EAFFE01E05CFF4F8A859B859183808368
:101C700032968C859D859183808332968E859F8553
:101C80009183808332968889998991838083329663
:101C90008A899B899183808332968C899D899183DF
:101CA000808332968E899F89918380833296888D36
:101CB000998D9183808332968A8D9B8D91838083C9
:101CC00032968C8D9D8D9183808332968E8D9F8DE3
:101CD00091838083329688A199A1918380833296E3
:101CE0008AA19BA19183808332968CA19DA191832F
:101CF000808332968EA19FA191838083329688A59E
:101D000099A59183808332968AA59BA59183808330
:101D100032968CA59DA59183808332968EA59FA532
:101D200091838083329688A999A991838083329682
:101D30008AA99BA991838083DE0120E030E0C9015C
:101D40002831310514F087E190E0883091051CF4CA
:101D5000ECA9FDA90AC08031910524F4EEA9FFA9E0
:101D6000089703C0E8ADF9AD4097880F991FE80FB9
:101D7000F91F47815085DA966D917C91DB97FB01C5
:101D800055834483C90101976D018F3FFFEF9F0782
:101D900099F1F60100AD11ADF2E0CF1AD108F801CA
:101DA000E480F580E416F50638F1F60115AF04AFCE
:101DB0000197EBCF8EE497E00E94940663337105A0
:101DC00081059105B4F08091E5059091E60561E00B
:101DD000DC0118962C91213009F460E0DC01ED91D2
:101DE000FC910280F381E02D19958EE497E00E942A
:101DF000B9060E94380205CFFC017E96EE0FFF1F48
:101E0000EC0FFD1F718360832F5F3F4F12962831C7
:101E1000310509F094CFE091E305F091E4050480E9
:101E2000F581E02D6481758180E090E04AE0B8D9C9
:101E300082ED94E097D9DDCFE5EAF6E013821282D5
:101E400088EE93E0A0E0B0E084839583A683B78317
:101E500028E432E03183208325EC30E03587248785
:101E600024EC30E03787268720EC30E0318B208B64
:101E700021EC30E0338B228B22EC30E0358B248B4D
:101E800026EC30E0378B268B118E128E138E148E3B
:101E9000EBE5F7E01682178210861186128613860C
:101EA0001486158616861786108A118A128A138A56
:101EB000148A158AE2E4F7E0138212828483958300
:101EC000A683B7838AE592E0918380838EE497E0CE
:101ED0005DD88CEA97E02DD983EA97E02AC9A1E280
:101EE0001A2EAA1BBB1BFD010DC0AA1FBB1FEE1F94
:101EF000FF1FA217B307E407F50720F0A21BB30BDF
:101F0000E40BF50B661F771F881F991F1A9469F75A
:101F100060957095809590959B01AC01BD01CF01B6
:101F20000895EE0FFF1F881F8BBF0790F691E02DDD
:101F300019940F931F93CF93DF938230910510F480
:101F400082E090E0E091B707F091B80720E030E040
:101F5000A0E0B0E0309719F14081518102811381F6
:101F600048175907C8F08417950769F4109731F09E
:101F700012960C93129713961C9327C00093B707E1
:101F80001093B80722C02115310519F042175307E5
:101F900018F49A01BD01EF01DF01F801DBCF211533
:101FA0003105F9F0281B390B2430310580F48A8182
:101FB0009B816115710521F0FB019383828304C02D
:101FC0009093B8078093B707FE01329644C0FE0194
:101FD000E20FF31F819391932250310939832883B3
:101FE0003AC02091B5073091B607232B41F42091D8
:101FF0000202309103023093B6072093B507209177
:102000000002309101022115310541F42DB73EB790
:102010004091040250910502241B350BE091B50755
:10202000F091B607E217F307A0F42E1B3F0B281719
:10203000390778F0AC014E5F5F4F2417350748F041
:102040004E0F5F1F5093B6074093B507819391934E
:1020500002C0E0E0F0E0CF01DF91CF911F910F913E
:102060000895CF93DF93009709F481C0FC01329764
:1020700013821282A091B707B091B807109781F42C
:1020800020813181820F931F2091B5073091B607CF
:102090002817390751F5F093B607E093B50767C0E5
:1020A000ED0120E030E0CE17DF0740F44A815B818C
:1020B0009E0141155105F1F0EA01F5CFD383C283AA
:1020C00040815181840F951FC817D90759F4888121
:1020D0009981840F951F0296918380838A819B81C9
:1020E000938382832115310529F4F093B807E09397
:1020F000B7073DC0E901FB83EA8349915991C40FB9
:10210000D51FEC17FD0761F480819181840F951F25
:102110000296E90199838883828193819B838A83D4
:10212000E0E0F0E012968D919C911397009719F0E2
:10213000FD01DC01F7CF8D919C9111979D012E5FE0
:102140003F4F820F931F2091B5073091B607281794
:10215000390769F4309729F41092B8071092B7073D
:1021600002C013821282B093B607A093B507DF9125
:10217000CF91089581E090E0F89400C0F894FFCFEB
:102180000000B907800000000000670625045E0615
:10219000000000008003B2030000000080038307FA
:1021A0000000000080033007000000008003D1061B
:1021B000000000008403250465040000000084037F
:1021C0007A0671060000000050016F08FB01D6037B
:1021D0002C020A021E0200000000520326038103A3
:1021E000FA021E030A03FB025355434345535300AF
:1021F0004641494C004C45445F537461747573000B
:1022000057616974696E6720666F7220636F6D70C5
:102210006C6574652073797374656D20706F776574
:102220007275702E2E2E00496E697469616C697A20
:10223000696E6720646576696365732E2E2E004C87
:102240006967687467617465004C69676874536591
:102250006E736F7273004C6967687453656E736F49
:10226000725F31004C6967687453656E736F725F9B
:1022700032004C6967687453656E736F725F330028
:10228000495253656E736F72730054534F505F30F1
:102290000054534F505F310054534F505F3200543D
:1022A000534F505F330054534F505F340054534FDB
:1022B000505F350054534F505F360054534F505FBA
:1022C000370054534F505F380054534F505F39001C
:1022D00054534F505F31300054534F505F313100F1
:1022E00054534F505F31320054534F505F313300DD
:1022F00054534F505F31340054534F505F313500C9
:1023000054534F505F31360054534F505F313700B4
:1023100054534F505F31380054534F505F313900A0
:1023200054534F505F32300054534F505F3231009E
:1023300054534F505F32320054534F505F3233008A
:10234000495253656E736F725F3100495253656E27
:10235000736F725F3200495253656E736F725F33F1
:1023600000496E697469616C7A6564206465766998
:102370006365732C20766572696679696E67206380
:102380006F6E6E656374696F6E732E2E2E004368D8
:1023900065636B696E6720636F6E6E656374696FEA
:1023A0006E732E2E2E0050726F626C656D207769F1
:1023B000746820636F6E6E656374696E6720746FF6
:1023C0002049522073656E736F7220617272617959
:1023D0007300506F737369626C6520697373756500
:1023E000207769746820636F6E6E656374696F6EC1
:1023F00020746F2074686520626F61726400506F92
:10240000737369626C65206973737565207769748D
:102410006820636F6E6E656374696F6E7320746F8E
:102420002049522073656E736F72206172726179F8
:102430007300436F6E6E65637465642077697468BA
:102440002049522073656E736F72206172726179D8
:1024500073000D0A00494E464F005741524E00434B
:10246000524954003F3F3F3F005B22002220284951
:10247000443A2000295D005B005D3A200043616E14
:102480006E6F74206368616E67652070696E206D81
:102490006F64652077697468207468697320646567
:1024A000766963650043616E6E6F74207265616466
:1024B0002061206469676974616C2076616C756560
:1024C000207769746820746869732064657669632D
:1024D000650043616E6E6F74207772697465206168
:1024E000206469676974616C2076616C756520741D
:1024F0006F2074686973206465766963650046615E
:10250000696C656420746F206765742073656E73F1
:102510006F722064617461212121005665726966C1
:1025200079696E6720636F6E6E656374696F6E2E76
:102530002E2E004661696C656420746F20636F6E97
:102540006E656374202874696D656F757429005613
:1025500065726966656420636F6E6E656374696F2A
:022560006E000B
:00000001FF
