:10000000F8FF022099010000792A0000312A00003F
:10001000312A0000312A0000312A0000312A000074
:10002000312A0000312A0000312A0000792A00001C
:10003000792A0000312A00009D3F0000A140000005
:10004000792A0000792A0000792A0000792A000024
:10005000792A0000792A0000792A0000792A000014
:10006000792A0000792A0000792A0000792A000004
:10007000792A0000792A0000792A0000792A0000F4
:10008000792A0000792A0000792A0000792A0000E4
:10009000792A0000792A0000792A0000792A0000D4
:1000A000D9280000E5280000792A0000792A0000FC
:1000B000792A0000792A0000792A0000B143000063
:1000C000792A0000DD440000792A0000094600007A
:1000D000792A000001470000792A0000792A0000EF
:1000E000792A0000792A0000792A0000792A000084
:1000F000792A0000792A0000792A0000792A000074
:10010000792A0000792A0000792A0000792A000063
:10011000792A0000992F0000792A0000792A00002E
:10012000792A0000792A0000792A0000792A000043
:10013000792A0000792A0000792A0000792A000033
:10014000792A0000792A0000F9470000792A000086
:10015000F1480000792A0000792A0000792A00007D
:10016000792A0000792A0000F1280000792A00008D
:10017000792A0000792A0000792A0000792A0000F3
:10018000792A0000792A0000792A0000792A0000E3
:10019000792A0000792A0000584B4CF2205210B501
:1001A0001A804DF628121A8000BF00BF02F068FCCA
:1001B000534B4FF030621A60524A9A60524ADA60EA
:1001C000524B4FF470021A60514A136813F4807353
:1001D00004D150490B604FF4A85313604E4B1A786A
:1001E000110703D51A7842F008021A704B4B4C499C
:1001F0002A221A704B4A4C4B8B4204D252F8040FFD
:1002000043F8040BF8E7494B494900228B4202D2DC
:1002100043F8042BFAE74749474A002352F82300E2
:1002200041F823000133662BF8D1444B444A802126
:1002300003F8011B9342FBD1424B3E4A1A60424BEA
:100240008A221A70A3F5805324225A70A0221A70B1
:100250009A799207FCD59A79D406FCD43B4A9379D3
:1002600003F00C03082B394BF9D103221A714622F3
:100270005A719A799006FCD5344A9179334B4906E4
:10028000FBD5334A4FF08271116009215160202261
:100290001A709A7902F00C020C2AFAD12D4B2E4AD0
:1002A0001A602E4B2E4A1A6000225A60072243F829
:1002B000042C2C4AC3F80C2D62B602F0FFFC154B3F
:1002C0001B68DA0705D5284802F05CFC274B284A52
:1002D0001A60284B1B785B0609D5244C244B2268F6
:1002E0009A4204D1204802F04DFC0023236004F020
:1002F000BBFB02F0CBFB03F0DBFEFEE70E2005406C
:1003000030800440823F04000100002B88ED00E0B3
:1003100010D0034014D0034002D0074000E0074053
:100320003C11FF1F045D0000F806FF1F3C11FF1F7A
:100330000C16FF1F0002FF1F0000000000E400E099
:1003400056E400E008ED00E00050064000400640A2
:100350004480044004800440C010050014E000E024
:10036000BFD40100000020202DA0185D1CE0034038
:10037000A5C3945A00F00740FFFFFFFFFFFFFFFFF8
:10038000FFFFFFFFFFFFFFFFFFFFFFFFFFFFFFFF7D
:10039000FFFFFFFFFFFFFFFFFFFFFFFFFFFFFFFF6D
:1003A000FFFFFFFFFFFFFFFFFFFFFFFFFFFFFFFF5D
:1003B000FFFFFFFFFFFFFFFFFFFFFFFFFFFFFFFF4D
:1003C000FFFFFFFFFFFFFFFFFFFFFFFFFFFFFFFF3D
:1003D000FFFFFFFFFFFFFFFFFFFFFFFFFFFFFFFF2D
:1003E000FFFFFFFFFFFFFFFFFFFFFFFFFFFFFFFF1D
:1003F000FFFFFFFFFFFFFFFFFFFFFFFFFFFFFFFF0D
:10040000FFFFFFFFFFFFFFFFFFFFFFFFDEF9FFFF23
:1004100010B5054C237833B9044B13B10448AFF33E
:1004200000800123237010BD3C11FF1F000000005D
:10043000085D0000084B10B51BB108490848AFF330
:1004400000800848036803B910BD074B002BFBD0A0
:10045000BDE81040184700BF000000004011FF1F1A
:10046000085D00003C11FF1F00000000704700BF46
:10047000704700BF836842680149012001F0BABE9D
:1004800040550000836842680149012001F0B2BE76
:100490006C55000008B5426883680349012001F0EB
:1004A000A9FE002008BD00BF945500008368426883
:1004B0000149012001F09EBE6C5500000346007BFF
:1004C000997302F071BB00BF10B50446007B02F0C7
:1004D00071FBE37BA073834201D0012804D000307C
:1004E00018BF0120E07310BD01460D2002F05CFB37
:1004F00023699847A07B003018BF0120E07310BD2E
:1005000010B50446007B02F055FBA07310BD00BF80
:100510000346007B597302F05BBB00BFF0B5426A33
:10052000036A511C08BF284A83B002BF12680092B8
:10053000009AD31A002B44DD244C017B054601238D
:100540002046102202F0BAF894F8391094F83830A6
:100550008B4218BF05F10C0619D124E094F838300D
:100560006FF0FF00E71899424FF0FF0288BF3A7E14
:1005700003F1010342EA000288BF84F8383026F80C
:10058000022F94F8391094F83830994211D09942DA
:1005900004EB0302E2D9013392F91820DBB284F8AC
:1005A00038301002DEE7AB686A680949022001F0C2
:1005B00021FE054B1B680193019B2B624FF0FF331B
:1005C0006B6203B0F0BD00BFA011FF1F6407FF1FE7
:1005D000C455000030B54FF47A7383B0013BFDD1B0
:1005E00042690369511C01BF204A12680092009AB7
:1005F000D31A002B31DD1E4C017B01231A46054620
:10060000204602F05BF894F8392094F83830934291
:100610000DD124E00A7E84F83830131C18BF012362
:100620006B7394F8392094F838309A420DD09A427E
:1006300004EB030103F10103ECD801236B7394F87D
:10064000392094F838309A42F1D1084B1B68019355
:10065000019B2B614FF0FF336B6103B030BDAB6882
:100660006A680449022001F0C5FDEEE7A011FF1FF2
:100670006407FF1FC455000070B5C2698369511C2F
:1006800008BF244A82B002BF12680092009AD31AAF
:10069000002B32DD204D017B01231A4606462846F9
:1006A00002F00CF895F8392095F838309A4218BFC6
:1006B00006F10C0026D09A4221D9EA180133127EA5
:1006C00085F83830144672750146002344FA03F267
:1006D000013302F00102082B01F8012FF6D195F841
:1006E000392095F838309A42E5D10A4B1B680193BE
:1006F000019BB3614FF0FF33F36102B070BDFF2483
:100700002246E0E7B36872680449022001F072FDF6
:10071000EBE700BFA011FF1F6407FF1FC4550000D7
:100720000C4B1B689A7B012A0AD01A680A48526847
:1007300082424FF001010AD1187B997302F034BA5A
:100740001A680548526882424FF00001F4D01846FA
:10075000104700BF6811FF1FBD0400002DE9F04FD6
:100760002DED028BC84BC94C1A78DFF898A3DFF83F
:100770009893C74DC74F9FEDC88AD34303F0010339
:100780005340C14AA7B01020137003F099FC2668AB
:10079000C24B436083464FF0010806EB08020D236D
:1007A000CBF8086000261846CBF800A08BF80C3078
:1007B0008BF80E6041468BF80D80226002F008FA3B
:1007C000B74BCBF80030B74BB748C3F800B0262181
:1007D00003F070FAB54803F075FC4FF4FA6002F0CC
:1007E0001FFA1721B24803F065FAB04803F06AFC1B
:1007F000142003F065FC83462068AE4ACBF800A0C5
:100800001B2300EB080E31468BF80D608BF80E6051
:10081000CBF80800CBF8042018468BF80C30C4F84D
:1008200000E002F0D5F9A44AA449A54B8BF80F606B
:10083000CBF80010CBF810301C20C2F800B003F049
:100840003FFC23689F49834605228BF80C20CBF898
:100850000830CBF804104344CBF800909A4801923A
:10086000236001F049FD2B680D930D9B9749CBF850
:1008700010304FF0FF3A964B8BF80D60CBF81860B4
:10088000CBF80010CBF814A01420C3F800B003F08C
:1008900017FC2168DFF874E2416003464144C3F865
:1008A00000E024202160009303F00AFC21688346C5
:1008B0008848CBF80810414421600621CBF800900D
:1008C000CBF804008BF80C107F4801F015FD58465A
:1008D000296840F80D7B009B10911099C3F808B06F
:1008E000CBF80D6046608BF81560CBF81CA0CBF8F8
:1008F0002060CBF81810242003F0E2FB2168834627
:100900007148CBF80810414421607349CBF80410BA
:100910000721CBF800908BF80C1001F0EDFC584645
:10092000296840F80D7B009B0F910F99C3F80CB01C
:10093000CBF80D604660CBF818108BF81560CBF83B
:100940001CA0CBF82060242003F0BAFB216883466A
:100950006248CBF80810414421600821CBF8009090
:10096000CBF804008BF80C10574801F0C5FC594631
:10097000286841F80D7B009B0E90594A0E9FCBF8DA
:100980000D60C3F810B04E60D4208BF81560CBF822
:100990001CA0CBF82060CBF81870136003F090FB1C
:1009A00023685049436083464344CBF8001010202D
:1009B000236003F085FB27684B49CBF8080003460A
:1009C00007EB08005F6040F2FF37206019601F816D
:1009D00083ED038A102003F073FB0346206843492C
:1009E000586040441F812060196083ED038ACBF872
:1009F0000C30102003F064FB034620683C4958602B
:100A000040441F812060196083ED038ACBF81030C9
:100A1000102003F055FB03462068364958604044D7
:100A20001F812060196083ED038ACBF814301020F9
:100A300003F046FB034620682F49586040441F815D
:100A40002060196083ED038ACBF81830102003F082
:100A500037FB034620682949586040441F812060C5
:100A6000196083ED038ACBF81C30102003F028FBBB
:100A7000034620682249586040441F812060196065
:100A800083ED038A44E000BF9C11FF1F6411FF1F28
:100A9000A011FF1F1855000000000000F4550000D1
:100AA000E45400006811FF1F005600004408FF1FB7
:100AB00028560000405600009411FF1FD05400003B
:100AC000F11E00004C5600006407FF1F085500008F
:100AD0008011FF1F685600007856000088560000FD
:100AE0006C11FF1F98560000A4560000AC56000081
:100AF000B4560000BC560000C4560000CC5600009E
:100B0000D4560000BC540000F854000058560000B1
:100B1000CBF82030102003F0D3FA03462068BB49FD
:100B2000586040441F812060196083ED038ACBF830
:100B30002430102003F0C4FA03462068B4495860FA
:100B400040441F812060196083ED038ACBF8283070
:100B5000102003F0B5FA03462068AE4958604044BF
:100B60001F812060196083ED038ACBF82C301020A0
:100B700003F0A6FA03462068A749586040441F8145
:100B80002060196083ED038ACBF83030102003F029
:100B900097FA03462068A149586040441F812060AD
:100BA000196083ED038ACBF83430102003F088FA03
:100BB000034620689A49586040441F8120601960AC
:100BC00083ED038ACBF83830102003F079FA03461E
:100BD00020689449586040441F812060196083ED6B
:100BE000038ACBF83C30102003F06AFA03462068F1
:100BF0008D49586040441F812060196083ED038A4D
:100C0000CBF84030102003F05BFA03462068874998
:100C1000586040441F812060196083ED038ACBF83F
:100C20004430102003F04CFA034620688049586095
:100C300040441F812060196083ED038ACBF848305F
:100C4000102003F03DFA034620687A49586040447A
:100C50001F812060196083ED038ACBF84C3010208F
:100C600003F02EFA034620687349586040441F8100
:100C70002060196083ED038ACBF85030102003F018
:100C80001FFA034620686D49586040441F81206068
:100C9000196083ED038ACBF85430102003F010FA6A
:100CA000034620686649586040441F8120601960EF
:100CB00083ED038ACBF85830102003F001FA034685
:100CC00020686049586040441F812060196083EDAE
:100CD000038ACBF85C30102003F0F2F90346206859
:100CE0005949586040441F812060196083ED038A90
:100CF000CBF86030102003F0E3F92168DFF860E101
:100D00000781034601EB080780ED038ACBF86430C6
:100D10005960C3F800E02C20276003F0D1F9236864
:100D20004A49074603EB080EBB600223C7F8009050
:100D300079603B734648C4F800E001F0DDFA3946BB
:100D40002868444B41F80E3B1390139BC7F80E6084
:100D5000CBF868704E608E60CE602C20C7F824A05F
:100D6000BE623B6203F0ACF921683B4B0746384852
:100D7000B960414421600321C7F800907B6039735A
:100D800001F0BAFA39462868324B41F80E3B12900E
:100D9000129BC7F80E60CBF86C704E608E60CE6010
:100DA0002C203B62C7F824A0BE6203F089F92168B9
:100DB0002A4B07462648B960414421600421C7F800
:100DC00000907B60397301F097FA3946214B41F866
:100DD0000E3B2868DBF80830DBF80C201190C7F8D0
:100DE0000E6011984E608E60CE60CBF87430DBF8E8
:100DF0001410DBF81030CBF87820DBF81820C7F897
:100E000024A0BE623862CBF870702BE0DC56000084
:100E1000E4560000EC560000F4560000FC560000BA
:100E2000045700000C570000145700001C57000026
:100E3000245700002C570000345700003C57000096
:100E4000445700004C5700005457000064570000FE
:100E50006407FF1F38550000705700007C570000E2
:100E60005C570000DBF81C00DBF82070CBF87C300E
:100E7000CBF88010DBF82830DBF82C10CBF884207E
:100E8000DBF82420CBF88800CBF88C70CBF89020CE
:100E9000CBF89810CBF89430DBF83030CBF89C309E
:100EA000DBF83410DBF84030DBF83870DBF83C203E
:100EB000CBF8A010CBF8AC30DBF84410DBF85030A6
:100EC000CBF8A470CBF8A820DBF84870DBF84C20F6
:100ED000CBF8B010CBF8BC30DBF85410DBF8603046
:100EE000CBF8B470CBF8B820DBF85870DBF85C2096
:100EF000CBF8C010CBF8CC30DBF86410C24BCBF889
:100F0000C470CBF8C820CBF8D0101020C3F800B0C4
:100F100003F0D6F82368BD49019ABD4F8246BD480B
:100F20008AF80C20CAF8009003EB0802CAF80410F3
:100F3000CAF80830226001F0DFF9B74BCAF8003078
:100F40002C21B648C7F800A002F0B4FEB448B14C5A
:100F500003F0B8F8B34BB449D3F800902B680C9366
:100F60003046D9F80830D9F804200C9E01F042F937
:100F700099F80C30A74884F85E805B00012184F862
:100F80003B3084F85D8001F00FFB002840F02E8399
:100F90002B680A930A9B9E1BB6F57A7F40F33E832B
:100FA000D9F80830D9F80420A049032001F022F92B
:100FB000002304933E682B6809937268B3689A49CA
:100FC000099F002001F016F94FF00108337B91488A
:100FD00084F85E805B00012184F83B3084F85D80FA
:100FE00001F0E2FA002840F0F4822B680793079B97
:100FF000DF1BB7F57A7F40F30683B36872688B49CD
:1010000000260320039601F0F5F80596884B8949E0
:101010001F68002097E80C0001F0ECF8BE68296812
:101020001C91B36872688049DDF87080002001F07F
:10103000E1F84FF00109337B764884F85E905B005D
:10104000012184F83B3084F85D9001F0ADFA00286E
:1010500040F0B1822B681A931A9BC8EB0308B8F5CD
:101060007A7F40F3F082B3687268704903204FF0D2
:10107000000901F0BFF8CDF80090FE682B681993C5
:101080007268B3686849DDF86480002001F0B2F846
:101090004FF0010A337B5F4884F85EA05B000121BA
:1010A00084F83B3084F85DA001F07EFA002840F01F
:1010B00074822B681793179BC8EB0308B8F57A7FE7
:1010C00040F3B682B368726858490026032001963F
:1010D00001F090F8B2463E692B6816937268B368C7
:1010E0005149DDF858B0002001F084F84FF00108B4
:1010F000337B484884F85E805B00012184F83B30F4
:1011000084F85D8001F050FA002840F038822B68A6
:101110001493149BCBEB030BBBF57A7F40F3A782B0
:10112000B36872684149032001F064F800239B46CC
:10113000414A127889EA020909F0200982EA09097C
:10114000019A82EA090808F0400889EA080883EA57
:10115000080323F07F0388EA0308374B83F80080F5
:10116000009B002B00F0CD82BAF1000F40F0A78267
:1011700097E80C003149032001F03CF8BB685E6839
:10118000304603F07DFF0146304602F093FD022118
:101190002B4802F08FFD2B48072102F08BFD2048E1
:1011A000DFF8A480274E02F08DFFFB68D3F804908F
:1011B000484603F065FF0146484602F07BFD0221E8
:1011C0001F4802F077FDBAF1000F0BBF0421072181
:1011D0004046304602F06EFD114802F073FF3B6955
:1011E0005F68384603F04CFF0146384602F062FD66
:1011F0000221134802F05EFDBBF1000F0BBF404619
:1012000030460421072121E05811FF1F88570000B4
:101210006011FF1F6407FF1F285500009057000052
:101220004408FF1F8011FF1FC0570000E458000052
:101230006C11FF1FD85700009C11FF1F4859000078
:10124000F0570000EC550000E455000002F032FDBC
:10125000B24802F037FF009B33B9BAF1000F03D157
:10126000BBF1000F00F07E823621AD4802F022FD76
:10127000AA4802F027FF4FF0000BAA4BAA49D3F867
:101280000080002098E80C0000F0B4FFD8F86860F7
:1012900029682591B3687268A449259F002000F051
:1012A000A9FF4FF00109337BA14884F85E905B00F1
:1012B000012184F83B3084F85D9001F075F9002835
:1012C00040F050812B682393239BDF1BB7F57A7F77
:1012D00040F3C381B3687268964903204FF0000A57
:1012E00000F088FFCDF804A0D8F86C602B6822933A
:1012F0007268B3688D49229F002000F07BFF4FF099
:101300000109337B8A4884F85E905B00012184F8F0
:101310003B3084F85D9001F047F9002840F0F08000
:101320002B682093209BDF1BB7F57A7F40F3B281B7
:10133000B36872687F4900260320029600F05AFFC6
:101340000096D8F870602B681F937268B36877496D
:101350001F9F002000F04EFF4FF00109337B7448BF
:1013600084F85E905B00012184F83B3084F85D9046
:1013700001F01AF9002840F0B6802B681D931D9BE0
:10138000DF1BB7F57A7F40F37C81B36872686949E7
:10139000032000F02FFF00231C46674A12788AEAD8
:1013A000020A0AF0020A82EA0A0A029A82EA0A0990
:1013B00009F004098AEA090983EA090303F008032A
:1013C00089EA03095C4B83F80090019B002B00F035
:1013D0008181009B002B40F0688198E80C00574900
:1013E000032000F007FFD8F868305D68284603F056
:1013F00047FE0146284602F05DFC0221504802F0FB
:1014000059FC5048072102F055FC44484E4E4D4DC2
:1014100002F058FED8F86C305F68384603F030FEB2
:101420000146384602F046FC0221454802F042FCE3
:10143000009B002B0BBF042107213046284602F0F9
:1014400039FC364802F03EFED8F870305F68384606
:1014500003F016FE0146384602F02CFC0221384803
:1014600002F028FC002C0BBF30462846042107213F
:1014700002F020FC294802F025FE019A22B9009BC7
:1014800013B9002C00F076813321304802F012FCB1
:10149000224802F017FE0024274B2D491A78039B9F
:1014A0000978534003F010035340234A0329137073
:1014B00000F03D812221274802F0FCFB174802F092
:1014C00001FE254B25491B681A6852688A4240F084
:1014D00059810121187B997301F066FB27B0BDEC9F
:1014E000028BBDE8F08F2B681E931E9B1C49DB1BF3
:1014F000B3F57A7FFFF632AF0B681D931D9B44E76F
:101500002B682193219B164ADB1BB3F57A7FFFF6EC
:10151000F8AE13682093209B0AE700BF4408FF1F22
:10152000205800005811FF1FD8570000C057000076
:101530006407FF1FE45800009C11FF1F785900004A
:10154000F0570000EC550000E45500007C58000006
:101550009D11FF1F245900006811FF1FBD040000EA
:10156000A011FF1F2B682493249B8A4ADB1BB3F531
:101570007A7FFFF698AE13682393239BAAE62B6825
:101580001593159B8349CBEB0303B3F57A7FFFF6E5
:10159000AFAD0B681493149BC2E52B681893189B8E
:1015A0007C4AC8EB0303B3F57A7FFFF673AD13688B
:1015B0001793179B86E52B681B931B9B754AC8EBFB
:1015C0000303B3F57A7FFFF636AD13681A931A9BBF
:1015D00049E52B680893089B6E4ADB1BB3F57A7FBD
:1015E000FFF6F4AC13680793079B06E52B680B9393
:1015F0000B9B684A9B1BB3F57A7FFFF6B9AC136867
:101600000A930A9BCCE4B3687268634900F0F2FD68
:10161000049B5B42039301230593F7E4D9F8083058
:10162000D9F804205C4900F0E5FD01230493C1E4EE
:10163000B3687268584900F0DDFD4FF0FF33019345
:101640004FF0010A47E5B3687268534900F0D2FDD4
:1016500001234FF0FF3900930FE5B36872684E49DC
:1016600000F0C8FD01234FF0FF3A01933CE6B36858
:101670007268494900F0BEFD4FF0010B4FF0FF3397
:1016800056E5B3687268444900F0B4FD01244FF098
:10169000FF3382E6B36872683F4900F0ABFD4FF05C
:1016A000FF330293012300934BE6002C3FF495AEE9
:1016B00098E80C003949002000F09CFDECE6BBF1F5
:1016C000000F3FF455AD97E80C003549002000F0BD
:1016D00091FDD2E598E80C003249032000F08AFD24
:1016E000D8F868305D68284603F0CAFC01462846F1
:1016F00002F0E0FA02212C4802F0DCFA04212B4827
:1017000081E697E80C002A49032000F073FDBB68CE
:101710005E68304603F0B4FC0146304602F0CAFA77
:101720000221214802F0C6FA0421204835E5049B35
:10173000002B3FF4BFAE059B002B3FF4BBAEBBF1CB
:10174000000F3FF4B7AE002C3FF4B4AE202119488F
:1017500002F0B0FA184802F0B5FC27B0BDEC028BDD
:10176000BDE8F08F2B21154802F0A4FA124802F0D0
:10177000A9FC82E52B21114802F09CFA0E4802F0E8
:10178000A1FC89E618460121904727B0BDEC028BE9
:10179000BDE8F08FA011FF1FD0580000B058000026
:1017A0005858000078590000F0570000E455000038
:1017B00048590000005900004408FF1FF45700007A
:1017C0000349044B0448054A08601A60FEF7C6BF87
:1017D0007011FF1F8411FF1F210700005521000019
:1017E000AE4BAF4A2DE9F0431D682B685B6893420E
:1017F0008FB040F0F3824FF47A73013BFDD16A69F8
:101800002B69541C01BFA74A12680092009AD31A90
:10181000002B1BDDA44C297B01231A46204600F037
:101820004DFF94F8392094F83830934240F05881B5
:10183000AB686A689D49022000F0DCFC994B1B688C
:101840000193019B2B614FF0FF336B61984B994ED5
:101850001D68AF683B685B68B34240F0BC82FA69C0
:10186000BB69501C01BF8F4A12680292029AD31AB8
:10187000002B33DD8C4C397B01231A46204600F0C7
:101880001DFF94F8392094F838309A4218BF07F1B8
:101890000C0E00F09282934280F03081E218013306
:1018A000127E84F8383010467A757146002340FA6B
:1018B00003F2013302F00102082B01F8012FF6D1E7
:1018C00094F8392094F838309A42E4D1754B1B686B
:1018D0000393039BBB614FF0FF33FB61EF683B68F1
:1018E0005B68B34240F07482FA69BB69511C01BF66
:1018F0006C4A12680492049AD31A002B33DD6A4CA6
:10190000397B01231A46204600F0D8FE94F839208E
:1019100094F83830934218BF07F10C0E00F046825D
:101920009A4240F2E880E2180133127E84F838309F
:1019300010467A757146002340FA03F2013302F033
:101940000102082B01F8012FF6D194F8392094F800
:1019500038309A42E4D1534B1B680593059BBB6119
:101960004FF0FF33FB612F693B685B68B34240F087
:101970002B82FA69BB69541C01BF4A4A126806925D
:10198000069AD31A002B34DD474C397B01231A46C3
:10199000204600F093FE94F8392094F838309342B2
:1019A00018BF07F10C0600F0FA81934280F0A08086
:1019B000E2180133127E84F8383010467A753146C9
:1019C000002340FA03F2013302F00102082B01F870
:1019D000012FF6D194F8392094F838309A42E4D1A6
:1019E000304B1B680793079BBB614FF0FF33FB61D4
:1019F0002F69314BA9681E68EA68304B787D497DB4
:101A0000527DB76E987019705A703B682C4D5B68A8
:101A1000AB4276D17A6A3B6A501C01BF214A1268F8
:101A20000892089AD31A002B6DDD1F4C397B0123D5
:101A30002046102200F042FE94F8391094F8383015
:101A4000994218BF07F10C0E1CD17BE194F8383095
:101A50006FF0FF0004EB030C99424FF0FF0288BFC8
:101A60009CF8182003F1010342EA000288BF84F8C1
:101A700038302EF8022F94F8391094F83830994203
:101A800000F06681994204EB0302DFD9013392F939
:101A90001820DBB284F838301002DBE78011FF1F1A
:101AA000D5050000A011FF1F6407FF1FC4550000EB
:101AB0006C11FF1F790600005811FF1F9811FF1FBE
:101AC0001D0500000A7E84F83830131C18BF01235E
:101AD0006B7394F8392094F838309A423FF4AEAEE4
:101AE0009A4204EB030103F10103EBD80123EFE772
:101AF000FF22104662E7FF2210461AE7FF22104637
:101B0000D2E638469847F76E3B685B68AB4243D1F4
:101B10007A6A3B6A511C01BFB24A12680A920A9A59
:101B2000D31A002B3ADDB04C397B0123204610221A
:101B300000F0C4FD94F8391094F838308B4218BF87
:101B400007F10C0E1CD10CE194F838306FF0FF0057
:101B500004EB030C99424FF0FF0288BF9CF8182059
:101B600003F1010342EA000288BF84F838302EF8FE
:101B7000022F94F8391094F83830994200F0F78029
:101B8000994204EB0302DFD9013392F91820DBB24A
:101B900084F838301002DBE738469847376F3B68E7
:101BA0005B68AB4243D17A6A3B6A541C01BF8D4AE1
:101BB00012680C920C9AD31A002B3ADD8A4C397BAE
:101BC00001232046102200F079FD94F8391094F892
:101BD0003830994218BF07F10C051CD1D0E094F8B9
:101BE00038306FF0FF0004EB030E99424FF0FF0214
:101BF00088BF9EF8182003F1010342EA000288BF63
:101C000084F8383025F8022F94F8391094F83830D9
:101C1000994200F0BB80994204EB0302DFD9013303
:101C200092F91820DBB284F838301002DBE738462E
:101C3000984706F10C012EC9F267B26AF469306A5E
:101C4000B167C6F88030716AF36AC6F89420326CC6
:101C5000D6F808C0C6F88450C6F88840356B746B57
:101C6000C6F88C00C6F89010B06BF16BC6F89830CF
:101C7000C6F8AC20736CC6F8A04006F14802C6F85E
:101C8000A400C6F8A810C6F874C0C6F89C50C6F8E0
:101C9000B0302CCAF16D746DB06DC6F8B420C6F8C2
:101CA000B830326E736EC6F8C810C6F8BC50C6F8AD
:101CB000C040C6F8C400C6F8CC20C6F8D03006F143
:101CC000780806F1700E4FF0FF37002101E058F858
:101CD00004CB072928DCB36E03EB4103B3F80E9065
:101CE000ACF80890781C3B4610D0DEF80020108934
:101CF00048450BD374464046013B40F8042D5A1C1E
:101D000004D054F8042D15894D45F5D206EB830314
:101D100001311829C3F878C007F101070EF1040E4C
:101D2000D5D10FB0BDE8F0830F2905DD336F03EB8C
:101D3000410333F8129CD3E7F36E03EB410333F80E
:101D4000029CCDE7BB687A682849022000F052FA6D
:101D5000244B1B680993099B3B624FF0FF337B6266
:101D6000D1E6BB687A682149022000F043FA1D4B96
:101D70001B680B930B9B3B624FF0FF337B620DE7BD
:101D8000BB687A681949022000F034FA154B1B68C9
:101D90000D930D9B3B624FF0FF337B6249E7BB68BD
:101DA0007A681249022000F025FA19E6BB687A68C1
:101DB0000E49022000F01EFACDE5BB687A680B4997
:101DC000022000F017FA81E5384698472F6910E69F
:101DD00038469847C7E5384698477FE528469847EC
:101DE00034E500BFA011FF1F6407FF1FC4550000AA
:101DF00070B5114D114C2B68114EDB6E2046198BBE
:101E000002F0B0F93046022101F054FF2B68DB6E7E
:101E10002046598B02F0A6F93046022101F04AFF14
:101E20002B68DB6E2046998B02F09CF92046BDE8BA
:101E3000704002F047B900BF5811FF1F4408FF1F50
:101E4000A459000070B5084D084C4FF47A73002671
:101E5000AB602E7300F0C2FE642368602673A3603B
:101E600000F0BCFE606070BD7011FF1F8411FF1F89
:101E700038B51A4B1A491B681A481A685268002468
:101E80008A42047026D10121187B997300F08CFEE0
:101E9000154B164C1B681B7B01255B00204605215A
:101EA00084F83B3084F85E5084F85D5000F010FAFE
:101EB0002046002100F00CFA2946204600F008FADE
:101EC0002946204600F004FA29462046BDE838405D
:101ED00000F06ABB184601219047D9E76811FF1F3F
:101EE000BD0400005C11FF1F6011FF1F6407FF1F8E
:101EF0000B4B197871B90B4A0B48126830B414684F
:101F00006468012584421D7006D19173107B30BC3A
:101F100000F04ABEFFF7ACBF2346104630BC18475E
:101F20005C11FF1F6811FF1FBD04000030B589B0B0
:101F300006E001F059FE8DF81C0007A800F0CEF86D
:101F400001F08EFE0028F4D15C4B1B7813BB5C4B78
:101F50001B78032B76D05B4B5B4A1C6823681B689D
:101F6000934261D1207B00F025FEE37BA073834286
:101F700002D0012800F09180003018BF0120E073EA
:101F8000FFF72EFC514B1B78002B33D0FFF730FFAF
:101F900009B030BDFFF724FC4C4B1B78002B74D1EB
:101FA0004B4C237B002B68D14A4B1B68059305984B
:101FB0006268A368464D801A984238D2464C00F0B9
:101FC0000DFE237B6060002B5AD1424B1B680493AB
:101FD000049BA268404D181A9042D9D32B689847A9
:101FE0002B7B002B46D13B4B1B6807930798606007
:101FF00009B030BD384C00F0F1FD237B6060002B50
:1020000046D1344B1B680093009BA268324D181ACE
:102010009042BDD32B6898472B7B002B2AD12D4BA8
:102020001B6801930198E2E720469847A8E72B68D0
:1020300098472B7B002B3DD1264B1B6806930698B7
:102040006060BBE7244C00F0C9FD237B606063BB8C
:10205000204B1B680293029BA2681F4D1B1A9342E0
:1020600096D32B6898472B7B23B91A4B1B68039395
:102070000398BCE700F0B2FDB9E700F0AFFD97E7C9
:1020800000F0ACFD03466068A3E7FFF7F1FE87E7C9
:1020900000F0A4FD03466068B7E701460D2000F09C
:1020A00083FD23699847A07B66E700F097FD034610
:1020B0006068D1E700F092FDC2E700BF9B11FF1FEF
:1020C0009D11FF1F9411FF1FC90400005C11FF1F29
:1020D0008411FF1FA011FF1F7011FF1F70B504783E
:1020E000A62C2FD0A72C06D0A52C00D070BD174B46
:1020F00001221A7070BDA02001F060FE204601246C
:1021000001F05CFE124D264603E00134E4B27F2C60
:1021100013D0630001210E4885F85E6085F85D608C
:1021200085F83B3000F040FA0028EED1204601341B
:10213000E4B201F043FE7F2CEBD1A120BDE870405A
:1021400001F03CBE014B00221A7070BD9B11FF1FB5
:102150006407FF1F08B5A02001F030FE002001F049
:102160002DFE044B187801F029FEA120BDE808409F
:1021700001F024BE9C11FF1F38B5154B04460D46D7
:1021800014481C70012101F095FDDCB1012C1BD01D
:10219000022C1BD0104B1148032C08BF18460421F9
:1021A00001F088FD03210E4801F084FD284602F06D
:1021B00067FF0146284601F07DFD0A48BDE838402A
:1021C00001F080BF0848EAE70848E8E70848E6E782
:1021D0009D11FF1FC8590000E4550000C0590000C0
:1021E000CC5900004408FF1FB0590000A859000056
:1021F000B8590000F8B5144605460E460E480221AF
:102200001F4601F057FD204602F03AFF01462046E6
:1022100001F050FD0721094801F04CFD39460848FE
:1022200001F0A0FF0221074801F044FD3146284695
:10223000BDE8F840FFF7A0BFD0590000D459000016
:102240004408FF1FDC5900000020704790F8392037
:1022500090F83800101A704790F8383090F839200C
:102260009A4205D95A1C034480F83820187E7047DA
:102270004FF0FF30704700BF90F8383090F83920A9
:102280009A4286BF1B18187E4FF0FF30704700BF80
:10229000704700BF38B50546B0F85E0090B195F8BC
:1022A0005D301446C3F1210294420CD805F13B0085
:1022B0001844224600F022FB95F85D30234485F84F
:1022C0005D30204638BD012014462871EEE700BF7E
:1022D000B0F85E306BB190F85D30202B07D8C21893
:1022E000013380F85D30012082F83B1070470123F4
:1022F00003710020704700BF0023426980F8383026
:1023000080F8393080F85C3080F85D3080F85E30DD
:1023100080F85F3006CA30B40D68046943662A430A
:1023200083660A60A370426990F8613016491468A8
:1023300013441D7A5B7B01EBC5051B026D6803F43A
:10234000E06343F064032B6090F8623013449D7C9B
:10235000DB7D01EBC5011B02496803F4E06343F038
:1023600064030B6021685368194205D003692C226D
:102370005A70036904229A71036920225A71036911
:1023800080229A7030BC7047645A000038B50269E8
:10239000D478E4B2E106054624D51023D370630651
:1023A0001FD504F0040404F0FF03002C5AD0424966
:1023B0006A6E00230B7085F85D30002A66D0904766
:1023C00095F85D30002B61D02B69D0229A702B6973
:1023D00095F83B201A712B69012285F85C200222B6
:1023E000DA7038BD04F0400303F0FF00002BD8D1B1
:1023F0009379DBB203F0600160294ED0937803F04B
:10240000100303F0FF01B3B114F0010437D195F8C4
:102410005C3095F85D1099424BD9591C2B4485F8D6
:102420005C1093F83B3013712B69D0229A702B69A2
:102430000222DA70D5E785F86010937943F0200323
:1024400093712B6995F839101A791F29D2B2C6D821
:10245000194800780028C2D06818013185F8391071
:102460000276BCE72A6985F83930C02393702B695E
:10247000114A1979012111700222DA70B1E7C023E3
:1024800093702B691A790222DA70AAE701220023DD
:1024900085F85D2085F83B3096E703F0DF03937104
:1024A000AB6E23B185F8380095F8390098472A6952
:1024B000A4E71471B8E700BF9E11FF1F2DE9F04794
:1024C000374FDFF8E0903B68026982B00646009320
:1024D000DDF800800021C825D3789B065BD53B68DA
:1024E0000193019BC8EB03030F2BF5D949B1102BC6
:1024F000F2D000209070336980229A7002B0BDE85B
:10250000F087726996F8613013440521187A00F05B
:102510005FFB726996F861301344012193F812A0B1
:10252000504600F055FB09240021504600F03CFBCA
:102530002B46013BFDD10121504600F035FB2B46D7
:10254000013BFDD1013CEFD1706996F86110014467
:102550004FF4C8720C7A4B7B09EBC4011B0249682B
:1025600003F4E06343F064030B6096F862300344C5
:10257000997CDB7D09EBC1011B02496803F4E06330
:1025800043F064030B60013AFDD13269D3789B06B6
:102590004FF00101A3D4012002B0BDE8F08700BFD5
:1025A000A011FF1F645A0000F0B503691222DA700F
:1025B0000269937803F0200385B004460D46002B92
:1025C0005ED0B42393703C4922690B680093009E4F
:1025D00005E00B680193019B9B1B042B42D8D37829
:1025E00003F0200303F0FF00002BF2D094F85D30DD
:1025F000002B31D04FF0000E4FF0020C04EB0E0315
:1026000093F83B3013710B680393039F206907E035
:102610009B060DD50B680293029BDB1B052B28D86C
:10262000C378DBB203F0020202F0FF06002AEFD00B
:1026300080F803C02669F378DBB2DF0632462DD47A
:102640009F062BD5DB0731D40EF1010E94F85D30D7
:102650005FFA8EFE7345D1D800201DBB002384F89D
:102660005E3004E09070236980229A70042005B0E7
:10267000F0BD86702369802204209A7005B0F0BDF9
:1026800003F0FF06FFF71AFF10B9042005B0F0BDF4
:10269000236984F85F60B0229A7094E78023B37056
:1026A0000420DAE726698023B370D7E7BEF1000F74
:1026B0000CBF02200320F6E7A011FF1F2DE9F04117
:1026C00006690025122780F8385080F83950F770D5
:1026D000D0F810C09CF802E00EF0200E88B004463E
:1026E000884615461E46BEF1000F49D0B4238CF82B
:1026F0000230784B21691A680092DDF800E006E0AC
:102700001A6801920198CEEB0000042830D8C878EE
:1027100000F0200000F0FF070028F1D04FEA480247
:1027200042F00102D2B20A711A680292DDF808E0A2
:10273000206906E01A6803920399CEEB010105298E
:102740002AD8C17801F0020101F0FF070029F1D079
:102750004FF0020C80F803C02269D17811F0110704
:1027600022D12DBB002E0CBFA0238023937003E049
:102770008F70236980229A70384608B0BDE8F081D6
:102780000EF0FF07FFF79AFE0028F5D0236984F8C2
:102790005F70B0229A70ACE7877023698022384658
:1027A0009A7008B0BDE8F081802393700027E3E7BA
:1027B000012D75D0A021917021690A79BE46674626
:1027C0004FF0A80C1A680492049805E01A68059264
:1027D000059A121A052A4AD8CA7802F0020202F0B3
:1027E000FF08002AF2D0CF702169CA78D2B212F065
:1027F000100F08465AD1920658D5013DEDB2012D71
:1028000049D0BEF11F0F3BD90A79012DDAD11A68E0
:102810000692069D05E01A680792079A521B052A40
:1028200046D8C27802F0020202F0FF01002AF2D07C
:102830000223C3702269D378DBB2D9063AD49B064F
:1028400034D5B023BEF11F0F93703FD8226904EB3B
:102850000E0312791A760EF1010E5FFA8EFE16B192
:10286000236980229A7084F839E0774684E781F8FA
:102870000280236980229A70774684F839E07BE7EA
:1028800004EB0E0291F8048082F818800EF1010E1C
:102890005FFA8EFEB9E781F802C021690846B0E709
:1028A000A82191702069BE460279B0E7774663E7B8
:1028B0008170DEE71021C823D170013BFDD1226970
:1028C000937803F0F7037746937055E723691B79F4
:1028D000C5E700BFA011FF1F0148FFF757BD00BFAC
:1028E0006407FF1F0148FFF751BD00BFD007FF1F5E
:1028F0000148FFF74BBD00BFF806FF1F844641EAC1
:10290000000313F003036DD1403A41D351F8043B67
:1029100040F8043B51F8043B40F8043B51F8043BB9
:1029200040F8043B51F8043B40F8043B51F8043BA9
:1029300040F8043B51F8043B40F8043B51F8043B99
:1029400040F8043B51F8043B40F8043B51F8043B89
:1029500040F8043B51F8043B40F8043B51F8043B79
:1029600040F8043B51F8043B40F8043B51F8043B69
:1029700040F8043B51F8043B40F8043B51F8043B59
:1029800040F8043B51F8043B40F8043B403ABDD2C8
:10299000303211D351F8043B40F8043B51F8043B6A
:1029A00040F8043B51F8043B40F8043B51F8043B29
:1029B00040F8043B103AEDD20C3205D351F8043BF9
:1029C00040F8043B043AF9D2043208D0D2071CBFC5
:1029D00011F8013B00F8013B01D30B8803806046EE
:1029E000704700BF082A13D38B078DD010F0030364
:1029F0008AD0C3F10403D21ADB071CBF11F8013BD4
:102A000000F8013B80D331F8023B20F8023B7BE722
:102A1000043AD9D3013A11F8013B00F8013BF9D24D
:102A20000B7803704B7843708B78837060467047E7
:102A300008B5104C08E0236859050DD423681A0521
:102A40000FD42368DB0411D423685803F3D500F0B6
:102A5000A3FA23685905F1D501F0AAFC23681A05E9
:102A6000EFD501F03BFD2368DB04EDD501F0CCFD93
:102A7000EAE700BF3480044008B5FFF7D9FF00BF84
:102A8000014B10221A80704700200540704700BF9C
:102A9000094908B50B6830B16A461844A2F50052DE
:102AA000904202D20860184608BD01F0D7FF0C23FF
:102AB00003604FF0FF3008BD3C08FF1FFEE700BF7A
:102AC00010B4114B53F8302092F8804234B10123F6
:102AD00079B182F880305DF8044B704703EBC00396
:102AE0005B681A6851B922F002021A605DF8044B63
:102AF000704782F800315DF8044B704742F00302E2
:102B00001A605DF8044B7047645A00001C4A02EBDF
:102B1000C00301295B6811D004291BD052F8300092
:102B2000002280F8802229B1022920D0032922D056
:102B30001A6070474FF480721A60704752F8300084
:102B40004FF4A27280F880121A601A6822F02002F4
:102B50001A60704752F830104FF4A272012081F8C9
:102B600080021A601A6842F020021A60704740F230
:102B700003121A6070474FF481721A60704700BFE9
:102B8000645A000030B4054B054D064C002210215C
:102B90001A602A602060196030BC704714D003406E
:102BA00004D0034000D003403F2801D8FFF788BF7E
:102BB000704700BF3F2806D8044B53F8303093F8D5
:102BC0000002C0B270470020704700BF645A000086
:102BD0003F2801D8FFF79ABF704700BF72B60C4973
:102BE0000C4B0D4A1B680868126862B6520102D588
:102BF000322B88BF01300949C3F5EA334FF47A72AA
:102C0000BF33A1FB031302FB00F000EB93107047EE
:102C1000A011FF1F18E000E004ED00E0898888881B
:102C20002DE9F843054672B6204F214B214A1B6817
:102C30003C68126862B6520102D5322B88BF01345B
:102C400095B3C3F5EA331C4EDFF86490DFF8648077
:102C5000BF334FF47A72A6FB031302FB04F404EBB8
:102C6000931472B6D9F800103A68D8F800E062B64A
:102C7000C1F5EA33BF33A6FB03031EF0806FC4EB3C
:102C800093134FF47A7002D0322988BF013200FBCF
:102C90000233B3F57A7F04D3013D05D004F57A748D
:102CA000DFE701F07DFADCE7BDE8F883A011FF1F44
:102CB00018E000E004ED00E089888888F8B53E4B14
:102CC0003E49DFF818C13E4E3E4ADFF814E13E4D62
:102CD0003E4C3F4F4FF0006018604FF0805018603E
:102CE0004FF0005018604FF0804018604FF00040E7
:102CF00018600020086028234EF6FF71CCF8001001
:102D0000CEF8003033600EF5012E13602B60236087
:102D100005F500253B6004F50024B36207F50027A4
:102D2000936206F5012602F501220EF1100E05F65A
:102D3000E87504F6E87407F57F67103220362B60DB
:102D40002360CEF800303B6013603360214EBB61DE
:102D5000936109223260A7F5002706F58056203FCF
:102D6000083638603160BB60F36047F8042C06F524
:102D7000FD2607F5FE2706F2FC7604373060396041
:102D8000B360FB6046F8042C0836C7F8FC0F06F663
:102D9000FC76114831602B602360026001F062FA1A
:102DA0001920FFF73DFF00F05FFE40F21310BDE871
:102DB000F840FFF735BF00BF04E100E004800340A6
:102DC000148003401C800340248003402C80034077
:102DD000348003400080034000900B400880034093
:102DE0000C800340431E032B14D872B60A4951F8D5
:102DF000230068B170B4094C058834F81320466884
:102E000041F82360521B24F8132062B670BC70474F
:102E100062B6704700207047FC11FF1FF415FF1FBA
:102E2000013803280BD872B6074B53F8203043B152
:102E300000205B680130002BFBD162B67047002098
:102E400070471846F9E700BF5012FF1F30B472B642
:102E50002B4A13781D0706D52A4B196A002936D04C
:102E6000996A002941D053781C0706D5254B196C67
:102E700000293ED0996C002939D09378190705D5DF
:102E8000204B196E002936D0996E89B1D3781B0773
:102E900007D51C4BD3F880207AB3D3F888201121B2
:102EA0003AB162B6184B00221A7030BC00F076BE00
:102EB0000D21154C154D227843F8315003EBC10319
:102EC0000830013A5860227062B630BC7047042264
:102ED0000D4C0F4D217843F8325003EBC2030830FC
:102EE0004A1E5860227062B6EFE70521E1E709212A
:102EF000DFE70822ECE70C22EAE71022E8E700BF50
:102F0000905C00000000FF1F7912FF1FC800400006
:102F100088004000431E032B1DD81B4A400140F08F
:102F2000100030B4104472B6184CE25C032A1BD86F
:102F3000DFE802F00212151703220D88E25410F0A8
:102F4000080F14BFC823882343EA054308310360F0
:102F5000416062B630BC704708300222EDE70522BE
:102F6000EBE708300422E8E7094A52F8230038B1B9
:102F7000084A52F82300416042F8231062B6E9E79C
:102F800042F82310034AF7E70000FF1F8812FF1FD3
:102F90005012FF1F6012FF1F2DE9F04FDFF80CB336
:102FA000DFF80CA387B044E0AB4F4FEA930807EB80
:102FB000C809013ED9F8042003F00803F6B2A2F1D3
:102FC000080003F0FF04002B40F0028157F838306E
:102FD0001B0C99B222F8081C002B00F0F0809F4BCC
:102FE00022F8064C42F8044C53F82620002A00F040
:102FF000C5829B4D55F8263058609A4C45F82600FE
:1030000034F81630194424F8161000F0A7FD0028F3
:1030100000F0AD82944A954B19F0080F00F10800BA
:1030200018BF1346C9F8040047F8383008238BF856
:1030300000309BF80040E4B261071AD58C4B1B7836
:10304000A3B18C490A7802F0FF0322B1013BDBB245
:103050000B7003B900BE88490A7802F0FF032AB159
:10306000013BDBB20B70002B00F0578204238BF87E
:10307000003004F0080303F0FF02002B00F0CC80C6
:103080009AF80030DBB21E098ED19C08DFF8C89197
:1030900059F8342009EBC401C2F38302013A4968AC
:1030A0000C2A00F28880DFE802F07C7C8686868627
:1030B00086864786868607000868704D4A68704F86
:1030C000704E286081B240F28160674B6A604FF0B9
:1030D000010E0022814249F834303A60C9F81020CC
:1030E000C9F8182086F800E05B4C00F2E380B1F5E7
:1030F000D06F80F04683B1F5817F00F0FC8200F252
:103100008D82802900F07783822940F0FA82A98895
:1031100001F07F01042900F2F4825B485B4C8900D6
:103120000844227062700278930740F1588484F852
:1031300000E04FF0020E42E3514F3A6832B3544B75
:10314000504E5449188834780D784028864645F00A
:10315000020828BF4FF0400E002C84F001043470A8
:10316000CEEB00000CBF8824C82409EBC80680B24F
:1031700085F0010544EA0E447260188049F8384031
:1031800072440D70002800F045813A603B4B1A886C
:10319000B2F5A06F0FD100219A7859703E4B1A708A
:1031A00009E0364A108842F22102904200F037814D
:1031B0002D4A49F83420394A0123137036E72A4A48
:1031C0002A4B19F0080F18BF134647F838302DE77F
:1031D00000F0E4FC324A334952F82630002B00F06C
:1031E000D18158688C5D42F8260003F10802C9F8C5
:1031F0000420032C05D8DFE804F02C022926022243
:103200008A551A8819F0080F0CBF8823C82343EA8F
:10321000024347F8383009E7E00700F181812106D1
:1032200000F1F281A20706D51F4A20491378022037
:10323000DBB213700870E30602D51C4B10221A7023
:1032400007B0BDE8F08F04228A55DAE705228A55D7
:10325000D7E703228A55D4E70000FF1FFC11FF1FA8
:10326000A811FF1FF415FF1FC80040008800400090
:103270008412FF1F0D12FF1F8C12FF1F7012FF1F01
:10328000A411FF1F0C12FF1FC02007407C12FF1F5C
:10329000B811FF1F7812FF1F9820074094200740A5
:1032A0005012FF1F8812FF1F882007408020074010
:1032B0009020074042F22100814200F02A8100F272
:1032C000D880B1F5086F00F07682B1F5106F40F04C
:1032D0001882226AB349A8780870120600F13A836E
:1032E000D9F82820B049130600F10C83D9F8302012
:1032F000AD49150600F10183D9F83820AA49140612
:1033000000F1F682D9F84020A749100600F14A835F
:10331000D9F84820A449120600F13F83D9F850207B
:10332000A149130600F13483D9F858209E491506A7
:1033300000F12983D9F860209B49140600F11E830F
:10334000D9F868209849100600F11383D9F8702045
:103350009549120600F10883D9F87820924913069E
:1033600000F1FD82D9F880208F49150600F13183E4
:10337000D9F888208C49140600F12583D9F89020CB
:103380008949100600F11983D9F898208649120658
:1033900000F10D838548864A864901908648874D0D
:1033A000874C049700230596029580460F461646E3
:1033B0001D460394306828B1446800F0EFFB2046B6
:1033C000002CF9D100233360029B38681A46002391
:1033D00042F8253028B1446800F0E0FB2046002C7C
:1033E000F9D100223A60019A98F800301146002283
:1033F00041F8042B039A0191023B4FF0000122F89F
:103400001510032B00F22B81DFE813F0700125016A
:1034100070012501BEF1400F18BF0022B5E6694AD0
:103420000D784878157050708D78C8789570D07088
:1034300010680D79157186284D79897955719171CA
:1034400000F09B816049614E0A78307882F0010576
:10345000002842F002020D700CBF8821C82149F8F3
:10346000321009EBC20280F001000021307051607F
:103470009EE642F22120814240F0CB81544B554CD4
:103480005549A8781D682560CDF804E00870002033
:1034900002908046844604464B490D7845F0020E62
:1034A00009EBCE030393019B002B039B5C600CBFD5
:1034B0008824C82444EA080385F0010449F83E3012
:1034C00032700C70DFF8E0E0404BDFF8FC80002841
:1034D00040F01E81BCF1400F1BD144F0020C09EBFF
:1034E000CC03029CDFF8C0E05C60002A40F026813B
:1034F000020442F088029DF804304EF83C20044457
:1035000033700D702346402803D10020334A3B60BE
:103510001080334A012313704DE600F0ABFCA5E5A3
:10352000214B2F4828491A614FF0020E80F800E025
:103530002C4F0A702C49196099602C4E2C4D2D4C43
:103540009A610D213970FF213170DFF8B8E02970E0
:103550002270294D294A8EF800109F27012406F871
:10356000047C5D600470DA6007B0BDE8F08F244A27
:1035700047F8380013780133137057E543F82600F5
:103580000E4D3AE58B5D032B00F2F08001A252F85C
:1035900023F000BF2D3000002D3000005136000018
:1035A0004B3600008412FF1F0000FF1F6012FF1F38
:1035B000FC11FF1F5012FF1F8812FF1FA811FF1FD1
:1035C000F415FF1FFC15FF1F7812FF1F0C12FF1FC1
:1035D000A011FF1F0416FF1F9C12FF1FB811FF1F31
:1035E00094200740C0200740880040008820074002
:1035F0008020074098200740BC11FF1F1012FF1FBA
:103600007912FF1F8C200740C149C24B80220D2038
:1036100008701A70A2077FF50EAE05E640F202327E
:10362000914240F0EE80A98801F07F01042968D81A
:103630006A88002A65D1B648CDF804E089000844BC
:10364000017841F00201017021E701238B55EDE47F
:1036500000238B55EAE44FF0010388F80030013570
:10366000042D06F1040607F1040708F101087FF4B0
:10367000A1AEA94CA94B2278A94D049F059E00211B
:1036800029701A70130700F105816278A549DFF8E7
:10369000A0820A7010074FF00001C9F83010C9F875
:1036A000381000F1E080A049A2780A700021C9F822
:1036B0005010C9F858101107DFF8748200F1018129
:1036C000E2789A499A4C0A7000211207C9F87010E2
:1036D000C9F8781000F1B08033780193002183F0AD
:1036E0000102C9F89010C9F89810D0E64FF0000315
:1036F00088F80030B3E7A98801F07F01042940F27F
:103700008D80834A0F2313708A4A0123137052E578
:1037100040287FF6E2AE44F002040EEBC401029EA4
:103720004E60BAB19DF80410834A19703346403890
:1037300088F8005040334EF83420E7E69DF8043016
:1037400033700204029B0D7042F0C80203444EF82D
:103750003C20D8E69DF804101970029B774A88F83F
:103760000050403840334EF83420CFE619F0080FAF
:103770000CBF022303238B5558E4714A0F211170AB
:1037800060E6704A5468002CBBD06888B5F804E045
:1037900003E00C325468002CB3D013888342F8D174
:1037A00053887345F5D1000A03280CBF94F800E054
:1037B000B2F808E003E0644A644C12782270E888AA
:1037C000704580F03F8162490D784028844645F07D
:1037D000020E28BF4FF0400C04EB0C0309EBCE02A5
:1037E000029301235460CCEB00004FEA0C48002206
:1037F0000193C8245EE6554C4FF0020E22706270B1
:10380000DDE7B1F5A06F7FF47CAF012300220193C7
:103810003DE642F221329142F7D072E76A88002AEF
:103820007FF46FAF3A48CDF804E08900084401788E
:1038300021F0020101702AE600F090F9002800F062
:10384000EF8008303D4AC4F88400C4F8802000F0BE
:1038500085F9002800F0DE800830374AC9F88C006E
:10386000C9F8882038E700F079F9002800F0C08016
:103870000830324AC8F84400C8F8402000F06EF919
:10388000002800F0AF8008302B4AC9F84C00C9F876
:10389000482008E700F062F9002800F0CD800830E9
:1038A000264AC9F82400C9F8202000F057F900285A
:1038B00000F0BC800830204AC9F82C00C9F8282044
:1038C000E3E600F04BF9002800F09E8008301B4A28
:1038D000C8F86400C8F8602000F040F9002800F043
:1038E0008D800830144AC9F86C00C9F86820E7E6F2
:1038F000C86B083800F052F904E5486B083800F04E
:103900004DF9F9E4C86A083800F048F9EEE400BF60
:10391000C020074080200740905C0000C420074082
:103920007912FF1FC8200740CC200740D020074055
:103930000000FF1F94200740C8004000880040009E
:103940000D12FF1F945C00008412FF1F7C12FF1FEA
:103950007812FF1F606A083800F020F9C0E4C86FD1
:10396000083800F01BF9FDE4486F083800F016F93C
:10397000F2E4C86E083800F011F9E7E4486E083840
:1039800000F00CF9DCE4C86D083800F007F9D1E468
:10399000486D083800F002F9C6E4C86C083800F039
:1039A000FDF8BBE4486C083800F0F8F8B0E4D1F852
:1039B0009C00083800F0F2F8ECE4D1F894000838E4
:1039C00000F0ECF8E0E4D1F88C00083800F0E6F8FC
:1039D000D4E4D1F88400083800F0E0F8C8E44FF0EF
:1039E000020EECE62A78C9F8480001322A705AE63D
:1039F0002A78C8F8400001322A703FE72A78C9F8CF
:103A0000680001322A705BE62A78C8F8600001324B
:103A10002A7061E72A78C9F8880001322A705BE6CB
:103A20002A78C4F8800001322A7010E72A78C9F891
:103A3000280001322A7028E62A78C9F820000132CD
:103A40002A7032E7BEF1400FF44628BF4FF0400C19
:103A500004EB0C0302930123CCEB0E004FEA0C485D
:103A60000022019318E500BF2DE9F04100F0ACFF02
:103A70002F4C304B3048DFF8D880304F304D314E2E
:103A8000DFF8D0C0DFF8D0E000221A605A609A60F8
:103A9000DA601A615A619A61DA611A625A629A624C
:103AA000DA621A635A639A63DA631A645A649A642C
:103AB000DA641A655A659A65DA651A665A669A660C
:103AC000DA661A675A679A67DA67C3F8802021684E
:103AD000C3F8842041F480212160016841F04071E5
:103AE0000160C3F3072188F8001004F52834C3F3FC
:103AF00007411B0E3970CC342B7000F12040FF239E
:103B00008CF80030104D8EF8003000F60410337041
:103B10000E49012308F8083C702622704FF4001467
:103B2000102207F82C3C2E7004600A70BDE8F0816A
:103B3000348004400000FF1F00D80040B020074040
:103B4000B42007401020074035E400E0082107407A
:103B50009C200740802007408820074072B60D480F
:103B60000268B2FA82F30B2B10DC4FF00041D9400F
:103B700022EA0102026062B6074803EBC303DB00DE
:103B8000C2180021C15010465160704762B6002033
:103B9000704700BF4008FF1F9803FF1F0D4B0E4AE0
:103BA000C31AA2FB03231B090B2B0CD80B4A127858
:103BB00052B972B60A484FF00041026821FA03F385
:103BC0001A43026062B67047064A1278002AF0D0A3
:103BD000FFF73CB99803FF1F398EE3387912FF1FB6
:103BE0004008FF1F8412FF1F38B50F4D286878B1B9
:103BF00043880288C118013393420C7A02D2438071
:103C0000204638BDFFF7CAFF002320462B6038BD91
:103C1000064B1B782BB10320FFF7E4F8286000283F
:103C2000E6D14FF0FF3038BD9812FF1F8412FF1FFE
:103C300010B5094C206818B143881844007A10BDAB
:103C4000064B1B782BB10320FFF7CCF8206000282F
:103C5000F2D14FF0FF3010BD9812FF1F8412FF1FEA
:103C6000044B054A1B6890881BB11A885B88D31ADD
:103C7000184470479812FF1FF415FF1F0B4B1B7859
:103C80009BB110B50A4C206848B1FFF787FF0023AD
:103C900003202360FFF7A6F830B1FFF77FFF032072
:103CA000FFF7A0F80028F8D110BD70478412FF1F5D
:103CB0009812FF1F2DE9F04FDFF8F89083B0012232
:103CC00089F80020019169B3DFF8EC80364F019E3E
:103CD0008346D8F80000B0B3344D4488C4F14001A5
:103CE000B14228BF314604EB010E00221FFA8EFEBE
:103CF0002A70761AA0F802E000F1080251B1013CE6
:103D0000224459441BF8014B02F8014F8B45F9D16D
:103D1000B0F802E0BEF13F0F0BD8254A0521117023
:103D2000002ED6D10198002389F8003003B0BDE8F9
:103D3000F08F4022028001460420FFF7EBF80022BA
:103D4000C8F80020E9E73A782AB3184D4DF2E904A3
:103D50004FF0010A07E0013C16D02A78A2B900F022
:103D60001FFA3A78BAB10420FFF75AF80728F2D8B8
:103D700089F800A0FFF7F2FEC8F800000028ACD1D7
:103D80000C4B013C1870E8D101234FF0FF302B7031
:103D900003B0BDE8F08F00234FF0FF3089F800300A
:103DA00003B0BDE8F08F00BF8412FF1F9412FF1F05
:103DB0008C12FF1F8D12FF1F9012FF1F00B583B0E2
:103DC00002AB012103F8010D1846FFF773FF03B0A2
:103DD0005DF804FB38B50E4D0E4C286801232370A6
:103DE00028B1408800232370C0F1400038BD0A4B41
:103DF0001B7813B90020207038BD0420FFF710F89D
:103E00000728F7D8FFF7AAFE28600028E9D1F1E7D4
:103E10009012FF1F8D12FF1F8412FF1FF8B5114B68
:103E20001B788BB1104E114D346801272F7064B18F
:103E30000F4A638800271770214623800420FFF76C
:103E400069F8376000232B70F8BDFFF787FE084B39
:103E500028B1014604201C70FFF75CF8F2E71F70E0
:103E6000F0E700BF8412FF1F9012FF1F8D12FF1F8B
:103E70008C12FF1F38B50E4B1B7873B90D4C21689F
:103E800061B103F0FF054B880B800420FFF742F877
:103E9000256038BD084B01221A7038BDFFF75EFE61
:103EA0000028F7D00146BDE838400420FFF732B8BB
:103EB0008D12FF1F9012FF1F8C12FF1F10B4EFF323
:103EC000108272B6437F33B9017F012908D00329DC
:103ED00010D00123437702B962B65DF8044B7047F6
:103EE000114C2168A1B1114943610B6883610860DD
:103EF0005861EEE70E4C216881B10E4943610B68B1
:103F00008361086058610C4B4FF080511960E0E705
:103F1000064B4161816120601860DAE7054B416121
:103F2000816120601860EEE7B012FF1FAC12FF1F26
:103F3000A012FF1FA412FF1F04ED00E010B4047FC5
:103F40004160022CC26003D05DF8044BFFF7B6BF9E
:103F500083685DF8044B184770B5EFF3108272B6B2
:103F60000C4C206880B10C4E00254369236073B16E
:103F70009D6102B962B6457783689847EFF3108276
:103F800072B620680028F0D102B962B670BD336005
:103F9000EFE700BFA012FF1FA412FF1FFFF7DCBF57
:103FA000184A30B41468002C27D0036821688B426B
:103FB0000ED2CB1A00218460C1602360E0601060E3
:103FC0000223037530BC704711688B42144608D336
:103FD000A2685B1A0360002AF6D18260C460A06008
:103FE000EEE7D268C2608460E060C568CB1A022246
:103FF000A8602360027530BC70478460C4601060A4
:10400000DEE700BFA812FF1FF8B5224E34682CB3BC
:104010002368002B3AD1204F1D4604E03468ECB1F0
:104020002368002B32D1A36803B1DD6020693360BF
:10403000036825751B68BB4221D1037F4560022BB5
:10404000C46020D0FFF73AFF6368002BE6D02360FE
:104050002046FFF7A5FF3468002CE1D1EFF3108371
:1040600072B60E4A00211068116003B962B628B119
:104070008468FFF795FF20460028F9D1F8BD224655
:1040800000219847E0E783689847DDE7013B23601C
:10409000E4E700BFA812FF1F3D3F0000B812FF1F5A
:1040A000024A136801331360FFF7AEBFA011FF1F70
:1040B00008B5FDF785FBFDF739FF00F071F8FAE769
:1040C00000F0FABC00B5064A036812885B6883B04A
:1040D00001A9ADF804200222984703B05DF804FB63
:1040E000645C0000F0B507468BB0002A33D0012A8B
:1040F00008BF0A2251B3212400E0F4B2B1FBF2F56B
:1041000002FB1511C8B2092900F1300198BFC8B2ED
:104110000AA988BF3730214488BFC0B201F8240CF7
:10412000661E2946002DE8D133B1013CE4B20AAB4A
:1041300023442D2203F8242C3B6801AA11195B6843
:104140003846C4F1220298470BB0F0BD30228DF8FA
:1041500025202124E8E70368C9B21B6898470BB003
:10416000F0BD00BF0029BABF49422D2300230A2217
:10417000FFF7B8BFFFF782BDFFF75ABDFFF734BDA9
:10418000FFF76EBDFFF74ABEFFF724BE0846114693
:10419000FFF790BD0846FFF711BE00BF704700BF94
:1041A00038B52C4C237803B138BD01232370FFF7B9
:1041B00057FD002842D100F0EBF800283BD100F079
:1041C0007DF9002834D100F00FFA70BB00F088FAB6
:1041D00040BB00F001FB10BB00F07AFBE0B900230C
:1041E0002370EFF30583002BDED1EFF3108172B65D
:1041F000194B186828B3194C227812BB45691D6009
:10420000012323700DB3AA6101B962B60025457779
:10421000836898472570C7E700F01EFCDFE700F0D1
:1042200019FCD9E700F014FCD3E700F00FFCCDE750
:1042300000F00AFCC7E700F005FCC0E7FFF7AEFF9F
:10424000B9E70029B0D162B638BD054B1D60002921
:10425000DCD1DAE7BC12FF1FB012FF1FB412FF1F40
:10426000AC12FF1F30B42948294A2A4B2A4D60243A
:10427000E121047011701B78284C082B30D00A2BD8
:104280002748284937D00C2B0CBF35225D2212233A
:104290002A60236002600B60234B24491B78244A68
:1042A000BBB101230B601360224B23491B78234AC7
:1042B000012B26D9042B0FD9082B1ED9102B94BF04
:1042C000862387230B6013601D4B01221A7030BCBC
:1042D00070470B601360E7E784230B601360F3E71C
:1042E00000F58E200F490830212213232A60236015
:1042F00002600B60D0E73922F7E785230B6013607B
:10430000E2E780230B601360DEE700BF0040074058
:10431000014007405408FF1F08B003400CB00340A1
:1043200008B00B400CB00B40BE12FF1F20B0034082
:1043300020B00B405508FF1F24B0034024B00B40B1
:10434000BD12FF1FF0B44D1E2E46002400E00134C4
:10435000B0FBF2F302FB1300092800F130078ABF1B
:104360003730F8B2C0B206F8010F1846002BEED174
:104370000A1953704CB1107815F8016F2870013389
:10438000E01A834202F80169F5DB0846F0BC704789
:10439000054A064B10781B78C0B2DBB2984238BF92
:1043A0004030C01A704700BFC412FF1FC512FF1F64
:1043B000F0B4384B1A7912F0300F2CD072B6997DC8
:1043C00001F0FF0200293DD062B6334F33493878FF
:1043D0000D78334E1C46C0B2EDB2431C402BE17940
:1043E00028BF0023AB4202F1FF32C9B21CBFF15417
:1043F000184612F0FF02F0D12A4B1B68C2B23A7085
:104400004BB1A84236BFC5F14005401B40192728D3
:10441000C4BF01221A701F49CA78D2B2150616D439
:1044200052060DD51B4B1B795B0609D51E4B1F4948
:104430001B6800220A7003B11A70164B3C22DA7016
:10444000F0BC70474022D9795A7462B6E3E70B7921
:104450001C06E5D5164B174E1C783378E4B2DBB258
:104460009C420ED0144D01E0A3420AD00133402BF0
:1044700028BF00230879E85CC0B2C871087D07280E
:10448000F2D9DBB2034933700B79180644BF7C23A1
:10449000CB70C5E700A00640C412FF1FC512FF1F66
:1044A0000813FF1FC012FF1F4C13FF1F4813FF1FED
:1044B0005013FF1F4913FF1FC812FF1F054A064B69
:1044C00010781B78C0B2DBB2984238BF4030C01AB7
:1044D000704700BFC413FF1F5913FF1FF0B4384BC0
:1044E0001A7912F0300F2CD072B6997D01F0FF02CC
:1044F00000293DD062B6334F334938780D78334EBA
:104500001C46C0B2EDB2431C402BE17928BF00230A
:10451000AB4202F1FF32C9B21CBFF154184612F08F
:10452000FF02F0D12A4B1B68C2B23A704BB1A842CD
:1045300036BFC5F14005401B40192728C4BF0122E2
:104540001A701F49CA78D2B2150616D452060DD574
:104550001B4B1B795B0609D51E4B1F491B680022AC
:104560000A7003B11A70164B3C22DA70F0BC704727
:104570004022D9795A7462B6E3E70B791C06E5D577
:10458000164B174E1C783378E4B2DBB29C420ED047
:10459000144D01E0A3420AD00133282B28BF002389
:1045A0000879E85CC0B2C871087D0728F2D9DBB28F
:1045B000034933700B79180644BF7C23CB70C5E7E1
:1045C00000B00640C413FF1F5913FF1F8413FF1FC1
:1045D0005413FF1FC813FF1F5813FF1FCC13FF1FD7
:1045E000C513FF1F5C13FF1F054A064B10781B788D
:1045F000C0B2DBB2984238BF4030C01A704700BF2B
:10460000D413FF1FD513FF1F30B42B4B1A79940618
:104610001FD52A48DA790378294901333F2B0978D5
:10462000C8BF00238B42D2B203D0264CD9B2E25489
:104630000170254A116861B1244A1278D2B29342BE
:1046400036BFC2F140029B1A9B18272BC4BF01231F
:104650000B70194AD378DBB2180611D45A060DD55F
:10466000154B1B795B0609D5194B1A491B680022AB
:104670000A7003B11A70104B2C22DA7030BC7047EC
:1046800011790906EAD5144910480C780178C9B2A5
:104690008C420DD04A1C272A84BF00210A460F4DA8
:1046A000054C98BFD1B2AA5CD2B2E2710170D5E7D5
:1046B0006C21D170D2E700BF00C00640D413FF1FA9
:1046C000D513FF1F0014FF1FD013FF1F4114FF1F3E
:1046D0004414FF1F4014FF1F4814FF1FD813FF1F6F
:1046E000054A064B10781B78C0B2DBB2984238BF3F
:1046F0004030C01A704700BF5014FF1F5114FF1FF5
:1047000030B42B4B1A7994061FD52A48DA790378EE
:10471000294901333F2B0978C8BF00238B42D2B20D
:1047200003D0264CD9B2E2540170254A116861B118
:10473000244A1278D2B2934236BFC2F140029B1A89
:104740009B18272BC4BF01230B70194AD378DBB207
:10475000180611D45A060DD5154B1B795B0609D5E1
:10476000194B1A491B6800220A7003B11A70104BCA
:104770002C22DA7030BC704711790906EAD5144949
:1047800010480C780178C9B28C420DD04A1C272AF7
:1047900084BF00210A460F4D054C98BFD1B2AA5CD8
:1047A000D2B2E2710170D5E76C21D170D2E700BFBF
:1047B00000D006405014FF1F5114FF1F7C14FF1F30
:1047C0004C14FF1FBD14FF1FC014FF1FBC14FF1F9C
:1047D000C414FF1F5414FF1F054A064B10781B78A2
:1047E000C0B2DBB2984238BF4030C01A704700BF39
:1047F000CC14FF1FCD14FF1F30B42B4B1A79940635
:104800001FD52A48DA790378294901333F2B0978E3
:10481000C8BF00238B42D2B203D0264CD9B2E25497
:104820000170254A116861B1244A1278D2B29342CC
:1048300036BFC2F140029B1A9B18272BC4BF01232D
:104840000B70194AD378DBB2180611D45A060DD56D
:10485000154B1B795B0609D5194B1A491B680022B9
:104860000A7003B11A70104B2C22DA7030BC7047FA
:1048700011790906EAD5144910480C780178C9B2B3
:104880008C420DD04A1C272A84BF00210A460F4DB6
:10489000054C98BFD1B2AA5CD2B2E2710170D5E7E3
:1048A0006C21D170D2E700BF00A00E40CC14FF1FD6
:1048B000CD14FF1FF814FF1FC814FF1F3915FF1F69
:1048C0003C15FF1F3815FF1F4015FF1FD014FF1F99
:1048D000054A064B10781B78C0B2DBB2984238BF4D
:1048E0004030C01A704700BF4815FF1F4915FF1F11
:1048F00030B42B4B1A7994061FD52A48DA790378FD
:10490000294901333F2B0978C8BF00238B42D2B21B
:1049100003D0264CD9B2E2540170254A116861B126
:10492000244A1278D2B2934236BFC2F140029B1A97
:104930009B18272BC4BF01230B70194AD378DBB215
:10494000180611D45A060DD5154B1B795B0609D5EF
:10495000194B1A491B6800220A7003B11A70104BD8
:104960002C22DA7030BC704711790906EAD5144957
:1049700010480C780178C9B28C420DD04A1C272A05
:1049800084BF00210A460F4D054C98BFD1B2AA5CE6
:10499000D2B2E2710170D5E76C21D170D2E700BFCD
:1049A00000B00E404815FF1F4915FF1F7415FF1F6B
:1049B0004415FF1FB515FF1FB815FF1FB415FF1FC6
:1049C000BC15FF1F4C15FF1F72B6184A184B19492A
:1049D0001160702280211A701A46197013781B0614
:1049E000FCD510B5144B84B0186862B6134B144C48
:1049F000984298BF00EB800001A998BF40000A22AE
:104A0000FFF7A0FC01A92046002311F8012B013378
:104A10003AB10A2B20F8022FF7D11623237004B0E5
:104A200010BD5B00DBB2237004B010BD0400024077
:104A300000000240000007410C0002407F969800F1
:104A4000E408FF1F704700BF704700BF704700BFFA
:104A5000704700BF704700BF704700BF014B186828
:104A6000704700BF280DFF1F70B50F4E0F4D761B0E
:104A7000B61018BF002405D0013455F8043B984700
:104A8000A642F9D10A4E0B4D761B01F02FF9B61054
:104A900018BF002406D0013455F8043B9847A642BD
:104AA000F9D170BD70BD00BFF85C0000F85C00007B
:104AB000045D0000F85C0000024B0146186800F03D
:104AC00003B800BF280DFF1F2DE9F04F01F10B05C2
:104AD000162D83B0064640F29F8035F0070500F1A1
:104AE000BF80A94200F2BC8000F0A6FAB5F5FC7FB9
:104AF000C0F09C826B0A00F0BA80042B00F2838124
:104B0000A80900F1390E4FEA4E033830C44F07EBC5
:104B10008303A3F108015C68A14207D1ACE0002A3D
:104B200080F2AC80E468A14200F0A680636823F0C4
:104B300003035A1B0F2AF2DDB9493C6901F1080E43
:104B4000744500F0B381636823F003035A1B0F2AF6
:104B500000F39981002AC1F814E0C1F810E080F256
:104B60009E80B3F5007F80F06781DB0803F1010CC4
:104B700001229B1002FA03F34A6851F83C80C4F802
:104B8000088001EBCC091A43A9F10803E3604A60ED
:104B900041F83C40C8F80C40831001249C409442EA
:104BA00000F28A80144206D120F00300640014420F
:104BB00000F10400FAD007EBC009CC468046DCF8CF
:104BC0000C108C4507D173E1002A80F28181C968FD
:104BD0008C4500F06D814B6823F003035A1B0F2AAC
:104BE000F2DD0C46D1F80CC054F8088F4B1945F093
:104BF00001054D6042F00101C8F80CC03046CCF808
:104C000008807B613B61C3F80CE0C3F808E05960A1
:104C10009A5000F013FA1FE0102921D800F00CFA86
:104C20001025062302207E4F07EB8303A3F1080221
:104C30005C68944200F045816368E168A56823F0F0
:104C40000303234430465A68E96042F001028D6054
:104C50005A6000F0F3F90834204603B0BDE8F08F45
:104C600000240C232046336003B0BDE8F08F80237E
:104C70004FF0400E3F2049E770465DE72344E1686E
:104C80005A68A56842F00102E96030468D605A60BA
:104C900000F0D4F90834204603B0BDE8F08F234477
:104CA00030465A6842F001025A6000F0C7F90834F1
:104CB000204603B0BDE8F08FBC68636823F00308AA
:104CC000A84504D3C5EB08030F2B00F38C80554B8C
:104CD000DFF860911A68D9F8003001332A4404EBF8
:104CE000080A00F0608102F580520F3222F47F62E0
:104CF00022F00F0211463046019200F0A1F9B0F106
:104D0000FF3F8346019A00F05881824500F2FC8003
:104D1000454B1968DA451144196000F05381D9F800
:104D20000000DFF810E101301BBFCAEB0B0A514451
:104D3000CEF800B019601BF0070100F01781C1F137
:104D40000800C1F58051834408315A44C2F30B0274
:104D5000C2EB010949463046019300F071F9431C4A
:104D6000019B00F03F81CBEB00024A4442F001027C
:104D70001968C7F808B04944BC42CBF80420196050
:104D8000DFF8A49016D0B8F10F0F40F2FD806268F2
:104D9000A8F10C0323F00703E01802F001024FF022
:104DA000050E1A430F2B6260C0F804E0C0F808E05B
:104DB00000F21C811D4BBC681A68914288BF1960C3
:104DC0001B4B1A689142626888BF196022F0030287
:104DD0009542A2EB050301D80F2B04DC304600F00E
:104DE0002DF9002438E7621943F0010345F001056D
:104DF00065603046BA60536000F020F90834204600
:104E000003B0BDE8F08F142B71D9542B00F2A480AD
:104E1000280B00F16F0E4FEA4E036E3076E600BFAE
:104E20002C0DFF1FC815FF1FCC15FF1FC415FF1F3A
:104E3000C015FF1F3811FF1F5A0A042A5ED9142A11
:104E400000F2B38002F15C0149005B3207EB810C98
:104E500057F82110DFF8DC81ACF1080C8C4500F02C
:104E600088804A6822F00302934202D289688C4506
:104E7000F7D1D1F80CC07A68C4F80CC0A160CCF8A6
:104E80000840CC6088E6631942F0010745F001054F
:104E9000656030464B610B61C3F80CE0C3F808E075
:104EA0005F609A50083400F0C9F8D5E64A6873E6A6
:104EB00008F1010818F0030F0CF1080C7FF47FAE25
:104EC00030E0DC68A34208BF02303FF435AEB3E601
:104ED0000B440C465A68C96854F8085F42F0010256
:104EE0005A603046E9608D6000F0A8F8B4E603F13E
:104EF0005C0E03F15B004FEA4E0307E69A0902F1EC
:104F0000390149003832A1E7BC424A4B3FF400AFB7
:104F10009C68626822F003025AE759F808399945FB
:104F200040F0828010F0030F00F1FF30F5D17B6874
:104F300023EA04037B6064009C423FF6BDAE002C74
:104F40003FF4BAAE1C4240467FF435AE64001C42CA
:104F500000F10400FAD02EE6B3F5AA7F18D8E80BCA
:104F600000F1780E4FEA4E037730CFE54FF48051D1
:104F7000EBE60121D8F80430921001FA02F21A434C
:104F8000C8F80420614677E70123CBF8043025E711
:104F900040F25452934220D8A80C00F17D0E4FEA03
:104FA0004E037C30B2E51032A4E6542A26D81A0B00
:104FB00002F16F0149006E3248E7BC68626822F076
:104FC000030205E7CAF30B0000287FF4A8AE4244B1
:104FD000BB6842F001025A60ECE6FE234FF07F0E00
:104FE0007E2093E501224FF00009C1E604F108019B
:104FF000304600F025F9D9F80010DBE6B2F5AA7FBB
:1050000005D8DA0B02F17801490077321EE740F249
:1050100054518A4205D89A0C02F17D0149007C3234
:1050200014E7FE217E2211E77B6884E7E808431C31
:105030005B00F8E52C0DFF1F704700BF704700BFF5
:1050400038B5074C0023054608462360FDF720FDD0
:10505000431C00D038BD2368002BFBD02B6038BD2B
:105060000816FF1FFFFFFFFFFFFFFFFFFFFFFFFF10
:10507000FFFFFFFFFFFFFFFFFFFFFFFFFFFFFFFF40
:1050800090F800F06DE9024520F007016FF0000C88
:1050900010F0070491F820F040F049804FF0000430
:1050A0006FF00700D1E9002391F840F000F108000B
:1050B00082FA4CF2A4FA8CF283FA4CF3A2FA8CF343
:1050C0004BBBD1E9022382FA4CF200F10800A4FAAA
:1050D0008CF283FA4CF3A2FA8CF3E3B9D1E90423FE
:1050E00082FA4CF200F10800A4FA8CF283FA4CF335
:1050F000A2FA8CF37BB9D1E9062301F1200182FAEF
:105100004CF200F10800A4FA8CF283FA4CF3A2FAF4
:105110008CF3002BC6D0002A04BF04301A4612BA02
:10512000B2FA82F2FDE8024500EBD2007047D1E905
:10513000002304F00305C4F100004FEAC50514F094
:10514000040F91F840F00CFA05F562EA05021CBF65
:1051500063EA050362464FF00004A9E7024B13B16E
:10516000024800F005B87047000000007D510000C3
:10517000002301461A46184600F04AB938B5074DD3
:10518000074C2C1BA41005D0013C55F8043D984752
:10519000002CF9D1BDE8384000F0B4BD000000009B
:1051A00000000000F8B5234F0C460646FFF744FF09
:1051B000BB685D6825F00305291B01F6EF7121F43A
:1051C0007F6121F00F01A1F58054B4F5805F07DB0A
:1051D00000213046FFF734FFBB682B44984204D0CF
:1051E0003046FFF72BFF0020F8BD61423046FFF745
:1051F00027FF01300DD0104BBA6819682D1B45F000
:1052000001053046091B55601960FFF717FF0120A3
:10521000F8BD00213046FFF713FFBA68831A0F2B41
:10522000DEDD064C0449246843F00103001B536093
:105230000860D5E72C0DFF1FCC15FF1F3811FF1F8D
:10524000002945D02DE9F0410D468046FFF7F4FED8
:1052500055F8047C6A4927F00103A5F10804E21817
:105260008E685068B24220F0030062D0FE075060A2
:105270000BD455F8087CE41B01F1080EA5687545B0
:105280003B446FD0E768EF60BD6015186D68ED07AF
:1052900042D543F001026260E350B3F5007F18D2BB
:1052A000DB085A1C4D6851F83270A76001209B1032
:1052B00000FA03F301EBC2001D430838E0604D60C3
:1052C00041F83240FC604046BDE8F041FFF7B6BE11
:1052D00070475A0A042A53D89A0902F139077F0005
:1052E00002F1380501EB870051F8272044490838BE
:1052F00090424DD0516821F003018B4202D2926856
:105300009042F7D1D068E060A2608460D4604046EB
:10531000BDE8F041FFF792BE95683A4FBD420344A5
:105320003FD0D068E86043F0010285606260E350DE
:10533000B3E7FF07034407D455F8082CA41A134415
:10534000A068E268C26090602F4A126843F00100D2
:10535000934260608C60B6D32C4B40461968FFF7CF
:1053600021FFB0E711184968C90744D49168D26891
:10537000CA60034443F0010091606060E350A2E71B
:10538000142A17D802F15C077F0002F15B05A9E738
:10539000AA104B68012505FA02F213434B6002463E
:1053A000B1E743F001024C610C61E560A560626009
:1053B000E35088E7542A06D81A0B02F16F077F00E2
:1053C00002F16E058EE7B2F5AA7F06D8DA0B02F17C
:1053D00078077F0002F1770584E740F2545082425B
:1053E00006D89A0C02F17D077F0002F17C0579E76F
:1053F000FE277E2576E743F001026260E35062E714
:105400002C0DFF1F340DFF1F3411FF1FC815FF1F88
:105410002DE9F047254C2568D5F8484106468846D1
:1054200092469946C4B360681F2817DC431C76B1C6
:1054300004EB80050122C5F888A0D4F888118240C9
:105440001143022EC4F88811C5F808911ED002300D
:10545000636044F820800020BDE8F087144B03B35C
:105460004FF4C870FFF728FB0446D0B1D5F8483197
:10547000002780E88800C5F8484138460123C4F871
:105480008871C4F88C71002EE1D0D1E7D4F88C116A
:105490000A43C4F88C21DAE705F5A674C5F848413B
:1054A000C1E74FF0FF30BDE8F08700BFE85C0000C7
:1054B000B94A0000000000000000000001050000E3
:1054C000BD04000011050000000000000000000005
:1054D000C904000075040000AD04000000000000D5
:1054E0000000000095040000BD04000085040000D9
:1054F00000000000000000006D040000BD2A000054
:1055000000000000000000006D040000D505000050
:1055100000000000000000006D040000790600009B
:1055200000000000000000006D0400007104000095
:1055300000000000000000006D0400001D050000D8
:1055400043616E6E6F7420777269746520612064A8
:1055500069676974616C2076616C756520746F2071
:1055600074686973206465766963650043616E6E73
:105570006F74206368616E67652070696E206D6F5F
:10558000646520776974682074686973206465763F
:105590006963650043616E6E6F742072656164209B
:1055A00061206469676974616C2076616C7565203F
:1055B00077697468207468697320646576696365C7
:1055C000000000004661696C656420746F206765A7
:1055D000742073656E736F72206461746121212180
:1055E000000000004641494C000000005355434371
:1055F000455353004C45445F537461747573000008
:1056000057616974696E6720666F7220636F6D7091
:105610006C6574652073797374656D20706F776540
:105620007275702E2E2E0000496E697469616C6966
:105630007A696E6720646576696365732E2E2E0025
:105640005374617274427574746F6E004C6967684C
:1056500074676174650000004C6967687453656E17
:10566000736F7273000000004C6967687453656E55
:10567000736F725F310000004C6967687453656E28
:10568000736F725F320000004C6967687453656E17
:10569000736F725F33000000495253656E736F720F
:1056A0007300000054534F505F30000054534F506C
:1056B0005F31000054534F505F32000054534F503D
:1056C0005F33000054534F505F34000054534F5029
:1056D0005F35000054534F505F36000054534F5015
:1056E0005F37000054534F505F38000054534F5001
:1056F0005F39000054534F505F31300054534F50C6
:105700005F31310054534F505F31320054534F508A
:105710005F31330054534F505F31340054534F5076
:105720005F31350054534F505F31360054534F5062
:105730005F31370054534F505F31380054534F504E
:105740005F31390054534F505F32300054534F5043
:105750005F32310054534F505F32320054534F5038
:105760005F323300495253656E736F725F310000D0
:10577000495253656E736F725F3200004952536530
:105780006E736F725F3300004D6F746F7273000041
:10579000496E697469616C7A6564206465766963D1
:1057A00065732C20766572696679696E6720636F10
:1057B0006E6E656374696F6E732E2E2E000000008E
:1057C000566572696679696E6720636F6E6E656390
:1057D00074696F6E2E2E2E00436865636B696E6769
:1057E00020636F6E6E656374696F6E732E2E2E006C
:1057F0003A200000506F737369626C65206973739F
:105800007565207769746820636F6E6E656374696F
:105810006F6E20746F2074686520626F617264001F
:10582000506F737369626C65206973737565207757
:1058300069746820636F6E6E656374696F6E732040
:10584000746F206C696768742073656E736F722063
:105850006172726179730000436F6E6E6563746587
:10586000642077697468206C696768742073656E5A
:10587000736F72206172726179730000506F73737D
:1058800069626C6520697373756520776974682037
:10589000636F6E6E656374696F6E7320746F2049F9
:1058A000522073656E736F7220617272617973003A
:1058B000436F6E6E65637465642077697468204910
:1058C000522073656E736F7220617272617973001A
:1058D0005665726966656420636F6E6E6563746990
:1058E0006F6E00004661696C656420746F20636FA1
:1058F0006E6E656374202874696D656F7574290018
:10590000566572696669636174696F6E20636F6E54
:105910006E656374696F6E73206661696C6564217E
:1059200000000000566572696669636174696F6E94
:1059300020636F6E6E656374696F6E7320636F6D45
:10594000706C65746564000050726F626C656D20E8
:105950007769746820636F6E6E656374696E672023
:10596000746F206C696768742073656E736F722042
:10597000617272617973000050726F626C656D20A4
:105980007769746820636F6E6E656374696E6720F3
:10599000746F2049522073656E736F72206172724A
:1059A000617973002C2000FF5741524E0000000027
:1059B000494E464F00000000435249540000000089
:1059C0003F3F3F3F000000005B0000005D3A2000C9
:1059D0005B22000022202849443A2000295D000073
:1059E00034800440400000001211220830020205F9
:1059F0000702131021072F020205070218000000FA
:105A00003480044080000000263AFFFFFF020600B9
:105A10000000253BFFFFFF02060000001900000008
:105A2000288004404000000004FFFFFFFF05000045
:105A30000000031AFFFFFF05050000004A000000F8
:105A40000000000000000000D122000095220000AC
:105A500049220000912200004D220000592200003E
:105A6000792200004008FE4340A004404408FE4361
:105A700044A004400018FE4300C004403000FE4330
:105A8000309004403400FE43349004401C18FE4320
:105A90001CC004401018FE4310C004400818FE4308
:105AA00008C004400C18FE430CC004400C10FE4318
:105AB0000CB004401010FE4310B004401810FE4318
:105AC00018B004401C10FE431CB004401410FE43E8
:105AD00014B004400418FE4304C004400010FE4308
