:10000000F8FF022099010000853400003D34000013
:100010003D3400003D3400003D3400003D3400001C
:100020003D3400003D3400003D34000085340000C4
:10003000853400003D340000E5490000E94A000035
:1000400085340000853400008534000085340000CC
:1000500085340000853400008534000085340000BC
:1000600085340000853400008534000085340000AC
:10007000853400008534000085340000853400009C
:10008000853400008534000085340000853400008C
:10009000853400008534000085340000853400007C
:1000A000E5320000F13200008534000085340000A4
:1000B0008534000085340000853400008558000038
:1000C00085340000F55F000085340000896500007C
:1000D000853400008166000085340000853400000E
:1000E000853400008534000085340000853400002C
:1000F000853400008534000085340000853400001C
:10010000853400008534000085340000853400000B
:1001100085340000E139000085340000853400009A
:1001200085340000853400008534000085340000EB
:1001300085340000853400008534000085340000DB
:1001400085340000853400007967000085340000A4
:10015000716800008534000085340000853400009B
:100160008534000085340000FD3200008534000035
:10017000853400008534000085340000853400009B
:10018000853400008534000085340000853400008B
:100190008534000085340000584B4CF2205210B5D5
:1001A0001A804DF628121A8000BF00BF03F06EF9C6
:1001B000534B4FF030621A60524A9A60524ADA60EA
:1001C000524B4FF470021A60514A136813F4807353
:1001D00004D150490B604FF4A85313604E4B1A786A
:1001E000110703D51A7842F008021A704B4B4C499C
:1001F0002A221A704B4A4C4B8B4204D252F8040FFD
:1002000043F8040BF8E7494B494900228B4202D2DC
:1002100043F8042BFAE74749474A002352F82300E2
:1002200041F823000133662BF8D1444B444A802126
:1002300003F8011B9342FBD1424B3E4A1A60424BEA
:100240008A221A70A3F5805324225A70A0221A70B1
:100250009A799207FCD59A79D406FCD43B4A9379D3
:1002600003F00C03082B394BF9D103221A714622F3
:100270005A719A799006FCD5344A9179334B4906E4
:10028000FBD5334A4FF08271116009215160202261
:100290001A709A7902F00C020C2AFAD12D4B2E4AD0
:1002A0001A602E4B2E4A1A6000225A60072243F829
:1002B000042C2C4AC3F80C2D62B603F023FA154B1C
:1002C0001B68DA0705D5284803F080F9274B284A30
:1002D0001A60284B1B785B0609D5244C244B2268F6
:1002E0009A4204D1204803F071F90023236007F0FB
:1002F000D7FA03F0D1F804F0C1FDFEE70E20054067
:1003000030800440823F04000100002B88ED00E0B3
:1003100010D0034014D0034002D0074000E0074053
:100320006C11FF1F5C8E0000F806FF1F6C11FF1F91
:100330005016FF1F0002FF1F0000000000E400E055
:1003400056E400E008ED00E00050064000400640A2
:100350004480044004800440C010050014E000E024
:10036000BFD40100000020204E421B5D1CE0034072
:10037000A5C3945A00F00740FFFFFFFFFFFFFFFFF8
:10038000FFFFFFFFFFFFFFFFFFFFFFFFFFFFFFFF7D
:10039000FFFFFFFFFFFFFFFFFFFFFFFFFFFFFFFF6D
:1003A000FFFFFFFFFFFFFFFFFFFFFFFFFFFFFFFF5D
:1003B000FFFFFFFFFFFFFFFFFFFFFFFFFFFFFFFF4D
:1003C000FFFFFFFFFFFFFFFFFFFFFFFFFFFFFFFF3D
:1003D000FFFFFFFFFFFFFFFFFFFFFFFFFFFFFFFF2D
:1003E000FFFFFFFFFFFFFFFFFFFFFFFFFFFFFFFF1D
:1003F000FFFFFFFFFFFFFFFFFFFFFFFFFFFFFFFF0D
:10040000FFFFFFFFFFFFFFFFFFFFFFFFDEF9FFFF23
:1004100010B5054C237833B9044B13B10448AFF33E
:1004200000800123237010BD6C11FF1F000000002D
:10043000608E0000084B10B51BB108490848AFF3A7
:1004400000800848036803B910BD074B002BFBD0A0
:10045000BDE81040184700BF000000007011FF1FEA
:10046000608E00006C11FF1F00000000704700BF8D
:10047000836842680149012002F0B6BAC8840000CE
:10048000836842680149012002F0AEBAF48400009A
:1004900008B5426883680349012002F0A5FA0020EC
:1004A00008BD00BF1C850000836842680149012027
:1004B00002F09ABAF48400000346007B997303F0BB
:1004C00097B800BF10B50446007B03F097F8E37BB4
:1004D000A073834201D0012804D0003018BF01204E
:1004E000E07310BD01460D2003F082F823699847A0
:1004F000A07B003018BF0120E07310BD10B504468A
:10050000007B03F07BF8A07310BD00BF0346007BA7
:10051000597303F081B800BF30B54FF47A7383B0DC
:10052000013BFDD142690369511C01BF204A126899
:100530000092009AD31A002B31DD1E4C017B01235F
:100540001A460546204602F0BFFD94F8392094F87B
:10055000383093420DD124E00A7E84F83830131CE1
:1005600018BF01236B7394F8392094F838309A42FD
:100570000DD09A4204EB030103F10103ECD80123EF
:100580006B7394F8392094F838309A42F1D1084BC3
:100590001B680193019B2B614FF0FF336B6103B02C
:1005A00030BDAB686A680449022002F01DFAEEE72C
:1005B000E011FF1F6407FF1F4C850000F0B5426A81
:1005C000036A511C08BF284A83B002BF1268009218
:1005D000009AD31A002B44DD244C017B05460123ED
:1005E0002046102202F070FD94F8391094F838304B
:1005F0008B4218BF05F10C0619D124E094F838306D
:100600006FF0FF00E71899424FF0FF0288BF3A7E73
:1006100003F1010342EA000288BF84F8383026F86B
:10062000022F94F8391094F83830994211D0994239
:1006300004EB0302E2D9013392F91820DBB284F80B
:1006400038301002DEE7AB686A680949022002F020
:10065000CBF9054B1B680193019B2B624FF0FF33D5
:100660006B6203B0F0BD00BFE011FF1F6407FF1F06
:100670004C85000070B5C2698369511C08BF244ACB
:1006800082B002BF12680092009AD31A002B32DDAA
:10069000204D017B01231A460646284602F014FD30
:1006A00095F8392095F838309A4218BF06F10C00B9
:1006B00026D09A4221D9EA180133127E85F83830C3
:1006C000144672750146002344FA03F2013302F026
:1006D0000102082B01F8012FF6D195F8392095F881
:1006E00038309A42E5D10A4B1B680193019BB361F4
:1006F0004FF0FF33F36102B070BDFF242246E0E704
:10070000B36872680449022002F06EF9EBE700BF9B
:10071000E011FF1F6407FF1F4C850000704700BFFA
:100720000C4B1B689A7B012A0AD01A680A48526847
:1007300082424FF001010AD1187B997302F058BF31
:100740001A680548526882424FF00001F4D01846FA
:10075000104700BFA411FF1FB90400000D4B1B6818
:10076000B3F90E2012B9B3F910205AB100220121B9
:100770009A73DA731A745A749A74DA74197583F85E
:1007800024107047B3F91220002AEFD11A7D002AF5
:10079000F7D1EBE79011FF1F0D4B0E491B680E4878
:1007A0001A68526810B58A424FF00004047008D1EC
:1007B0000121187B997302F01BFFBDE81040FFF781
:1007C000CDBF184601219047BDE81040FFF7C6BFD6
:1007D000A411FF1FB90400008C11FF1F0B4B1978E7
:1007E00071B90B4A0B48126830B41468646801256B
:1007F00084421D7006D19173107B30BC02F0F8BEAC
:10080000FFF7CABF2346104630BC18478C11FF1FA4
:10081000A411FF1FB90400000E4B1B68B3F90E2092
:100820001AB9B3F91020462A0CD000224620012123
:100830009A73DA735A74DA7418749874197583F8A1
:1008400024107047B3F91220462AEED11A7D002AEF
:10085000F7D1EAE79011FF1F70B5084D084C4FF42F
:100860007A730026AB602E7302F0DCFE64236860AE
:100870002673A36002F0D6FE606070BDB011FF1F4A
:100880009411FF1F30B5026CC36B511C08BF374A6F
:100890008DB002BF12680292029AD31A002B5BDD60
:1008A000044603A92C3001F065FF0A9B0898099DB6
:1008B000A3612061656106F0AFFCCDE90001284627
:1008C00006F0AAFC9DED001B41EC100B06F080F831
:1008D00051EC100B06F08EFFD4ED0A7ADFED246A9E
:1008E000DFED245A07EE100A77EE277AF5EEC07A8C
:1008F000F1EE10FA44BF9FED207A77EE877A9FEDF4
:100900001E7AF4EEC77AF1EE10FAC8BF77EEC77A16
:1009100094ED097A67EEA67A87EEA56A76EE477AB5
:1009200084ED076AF4EEE67AF1EE10FAA4BF9FEDCB
:10093000137A77EEC77A9FED127AC4ED087AF4EE57
:10094000C77AF1EE10FA09D9084B1B680393039B91
:10095000E3634FF0FF3323640DB030BD9FED077AA2
:1009600077EE877AC4ED087AEEE700BFE011FF1F4B
:1009700000003443DB0F4940DB0FC9400000B443A3
:10098000000034C32DE9F04F2DED028BD24BD34C38
:100990001A78DFF898A3DFF89893D14DD14FD3435D
:1009A00003F001035340CC4ABDB01020137004F093
:1009B0006DFA2168CC4B436001238046CE180D228E
:1009C00026600026104688F80C20C8F80810C8F8E1
:1009D00000A0194688F80D3088F80E6002F01CFE61
:1009E000C24BC8F80030C24BC248C3F80080262171
:1009F00003F084FEC04804F063FA4FF4FA6002F09A
:100A000033FE1721BD4803F079FEBB4804F058FAC5
:100A1000142004F03BFA2268C0F800A08046DFF8FA
:100A200014E3C8F804E01B23501CC8F80820314622
:100A300088F80C3088F80D6088F80E602060184641
:100A400002F0EAFDAE4AAF4BC8F81030C8F800908B
:100A500088F80F601420C2F8008004F017FA2268AA
:100A6000DFF8D4E2C0F800A080461A2302F1010C9E
:100A700082604673867331461846C8F804E088F8E9
:100A80000C30C4F800C002F0C7FD9F49DFF8ACE2AB
:100A9000C8F810E03346C8F800900822C1F800807A
:100AA00088F80F6007212AA802F056F81C2004F0ED
:100AB000EDF9D4F800C02A681292804646610CF124
:100AC0000101DFF87CE2129AC8F804C02AA84FF0AE
:100AD000FF3AC8F800E0C8F80C20C8F8080088F809
:100AE000186088F819602160C8F810A04FF41651FA
:100AF00002F078F8854B3820C3F8008004F0C6F97E
:100B000023688349804619228248C8F80830C8F80B
:100B10000410013388F80C20C8F80070236008F135
:100B20001C0902F0EFF800237B4AC8F81030C8F81F
:100B30001430C8F81830C8F8002048464DF231414A
:100B400001F08CFD2B681193119BC8F830A048462A
:100B5000C8F83460C8F82C3001F09EFE38B9D8F8D7
:100B60000830D8F804206D49032001F03DFF6C4B9C
:100B70009FED6C8AC3F80080D42004F087F92368C5
:100B8000694A026006465A1C73601020226004F015
:100B90007DF92268DFF8ACE1B060034640F2FF382F
:100BA000511CC3F800E05A60A3F8088083ED038A63
:100BB0001020216004F06AF92268DFF88CE1A0F8C7
:100BC00008800346511CF360C3F800E05A6083EDCF
:100BD000038A1020216004F059F92268DFF86CE1E3
:100BE000A0F808800346511C3361C3F800E05A6046
:100BF00083ED038A1020216004F048F92268DFF8B1
:100C000050E1A0F808800346511C7361C3F800E06E
:100C10005A6083ED038A1020216004F037F92268BE
:100C2000DFF830E1A0F808800346511CB361C3F837
:100C300000E05A6083ED038A1020216004F026F959
:100C40002268DFF814E1A0F808800346511CF36124
:100C5000C3F800E05A6083ED038A1020216004F09D
:100C600015F92268DFF8F4E0A0F808800346511C6B
:100C70003362C3F800E05A6083ED038A10202160DC
:100C800004F004F92268DFF8D8E0A0F808800346F1
:100C9000511C7362C3F800E05A6083ED038A102090
:100CA000216004F0F3F82268DFF8B8E0A0F80880CB
:100CB0000346511CB362C3F800E05A6083ED038A17
:100CC0001020216004F0E2F82268DFF89CE0A0F830
:100CD00008800346511C49E0DC11FF1FC411FF1FAF
:100CE000E011FF1F608400007C8500004C84000040
:100CF000A411FF1F888500007408FF1FB085000045
:100D0000D411FF1FDD070000A811FF1FD011FF1F26
:100D1000E88500006407FF1F70840000F88500006C
:100D2000C811FF1F0000000014860000248400008A
:100D300038840000C8850000D48500001D0700002D
:100D4000E085000020860000288600003086000034
:100D5000388600004086000048860000508600006B
:100D6000588600006086000068860000F362C3F8C1
:100D700000E05A6083ED038A1020216004F086F8B9
:100D80002268DFF840E5A0F808800346511C336371
:100D9000C3F800E05A6083ED038A1020216004F05C
:100DA00075F82268DFF820E5A0F808800346511C9A
:100DB0007363C3F800E05A6083ED038A102021605A
:100DC00004F064F82268DFF804E5A0F80880034620
:100DD000511CB363C3F800E05A6083ED038A10200E
:100DE000216004F053F82268DFF8E4E4A0F80880FA
:100DF0000346511CF363C3F800E05A6083ED038A95
:100E00001020216004F042F82268DFF8C8E4A0F85E
:100E100008800346511C3364C3F800E05A6083ED38
:100E2000038A1020216004F031F82268DFF8A8E47A
:100E3000A0F808800346511C7364C3F800E05A60B0
:100E400083ED038A1020216004F020F82268DFF887
:100E50008CE4A0F808800346511CB364C3F800E09A
:100E60005A6083ED038A1020216004F00FF8226895
:100E7000DFF86CE4A0F808800346511CF364C3F863
:100E800000E05A6083ED038A1020216003F0FEFF2A
:100E90002268DFF850E4A0F808800346511C33654F
:100EA000C3F800E05A6083ED038A1020216003F04C
:100EB000EDFF2268DFF830E4A0F808800346511CFB
:100EC0007365C3F800E05A6083ED038A1020216047
:100ED00003F0DCFF2268DFF814E4A0F80880034682
:100EE000511CB365C3F800E05A6083ED038A1020FB
:100EF000216003F0CBFF2268DFF8F4E3A0F808805C
:100F00000346511CF365C3F800E05A6083ED038A81
:100F10001020216003F0BAFF2268DFF8D8E3A0F8C0
:100F200008800346511C3366C3F800E05A6083ED25
:100F3000038A1020216003F0A9FF2268DFF8B8E3DC
:100F4000A0F808800346511C7366C3F800E05A609D
:100F500083ED038A2C20216003F098FF2368DFF8DB
:100F60009CE3DFF89CB381460221C9F804E05A1CD7
:100F700089F80C10C9F80830C448C9F8007022601C
:100F800001F0C0FE4A462B6842F80EBB15934FF0A5
:100F9000000A4FF0FF381599C9F80EA0C6F86890FE
:100FA000C2F804A0C2F808A0C2F80CA02C20C9F80E
:100FB0002010C9F828A0C9F8248003F067FF8146F3
:100FC0002268B34BC9F804304FF0030389F80C30A2
:100FD000511CC9F80820AD48C9F80070216001F023
:100FE00091FE4A46296842F80EBB14911499C9F83B
:100FF0000EA0C6F86C90C2F804A0C2F808A0C2F80F
:101000000CA02C20C9F82010C9F82480C9F828A009
:1010100003F03CFF22689F4981464FF0040E89F897
:101020000CE0C9F80410C9F80820511C9748C9F809
:101030000070216001F066FE4946F3682A68B367D4
:10104000336941F80EBB1392F367B268B369139822
:101050007267C6F884307269736AC9F80EA0C6F860
:101060008020C1F804A0C1F808A0C1F80CA0F26A61
:10107000F169C9F82000C6F89030306AB36AC6F842
:101080007090C6F88810C6F88C00C6F89430C9F87D
:101090002480C9F828A0C6F89820326BB36BC6F834
:1010A000A430F36BC6F8A830B36C716BC6F8B430DB
:1010B000F36CC6F89C20C6F8A010326C716CC6F8B0
:1010C000B830B36DC6F8AC20C6F8B010326D716D93
:1010D000C6F8C430F36DC6F8BC20C6F8C010326E36
:1010E000716EC6F8C8306C4BC6F8CC20C6F8D0106C
:1010F0001C201E6003F0CAFE2268684BDFF80492D1
:1011000006464FF0050E86F80CE0511C7360B26085
:101110005E483760216001F0F5FD2A681092604B4F
:101120006049109A3160326186F80DA0C6F81480CB
:10113000C6F818A014201E6003F0A8FE22685A49C1
:1011400001608346511CCBF804202420216003F069
:101150009DFE064622685549716006213173B260D2
:10116000511C4A483760216001F0CCFD31462A68A5
:1011700041F80D9B1892189ACBF80860C6F80DA09C
:101180002420C1F804A0B26186F815A0C6F81C801E
:10119000C6F820A003F07AFE2168454A4260072283
:1011A0000646027381604A1C07603848226001F0DD
:1011B000A9FD31462A6841F80D9B1792179ACBF882
:1011C0000C60C6F80DA02420C1F804A0B26186F816
:1011D00015A0C6F81C80C6F820A003F057FE2168B1
:1011E000344A426008220646027381604A1C076046
:1011F0002648226001F086FD3246296842F80D9BA0
:1012000016911699DFF80091CBF81060C6F80DA082
:101210004820C2F804A0B16186F815A0C6F81C8069
:10122000C6F820A0C9F800B003F030FE06462268D8
:10123000214971601E2115483173B260511C37601D
:10124000216006F12C0B01F05DFD1C4A1C49316048
:10125000B26286ED048A86ED058A86ED068A86ED01
:10126000078A86ED088A86ED098A584643F23901D5
:1012700001F0F4F92A680F920F9AC6F84080584698
:10128000C6F844A0F26301F007FB43E06407FF1FC8
:10129000EC860000F88600008811FF1F048700001C
:1012A000C011FF1F8084000010870000208700000D
:1012B00030870000408700005087000039E4603E1E
:1012C000A084000070860000788600008086000000
:1012D000888600009086000098860000A0860000A6
:1012E000A8860000B0860000B8860000C086000016
:1012F000C8860000D0860000D8860000E086000086
:10130000C084000090840000AC11FF1F0000344333
:10131000DB0F4940002800F0198433A9584601F03A
:1013200029FA3A9B3898DDF8E480B3613061C6F859
:10133000148005F071FFCDE90001404605F06CFF17
:101340009DED001B41EC100B05F042FB51EC100B26
:1013500006F050FAD6ED0A7A1FED147A5FED146AA2
:1013600006EE100A76EE277A67EE877A87EEA67A7F
:1013700086ED097ABF4BDFF834831E60282003F026
:1013800085FD2368BC4A06460521376072603173CB
:101390005A1CB360B948226001F0B4FC2B680E936C
:1013A000B74A0E9B326000274FF0FF32F261B36103
:1013B0002C21376286F82470B248C8F8006003F028
:1013C0009DF9B148AD4C03F07BFDB04BB0491E68B0
:1013D0002B680D933846B36872680D9F01F004FBCB
:1013E0004FF0010A337BA54884F85EA05B00012121
:1013F00084F83B3084F85DA001F0DCFD002840F06B
:1014000033832B680B930B9BDF1BB7F57A7F40F37D
:101410004383B36872689F49032001F0E5FA002313
:101420000693D8F800602B680A937268B3689849ED
:101430000A9F002001F0D8FA4FF00108337B8F4853
:1014400084F85E805B00012184F83B3084F85D8085
:1014500001F0B0FD002840F0FA822B680893089B49
:10146000DF1BB7F57A7F40F30C83B3687268894954
:1014700000260320059601F0B7FA0796D9F8007008
:10148000854997E80C00002001F0AEFABE68296893
:101490002191B36872687E49DDF88480002001F0F4
:1014A000A3FA4FF00109337B744884F85E905B0027
:1014B000012184F83B3084F85D9001F07BFD002829
:1014C00040F0B7822B681F931F9BC8EB0308B8F549
:1014D0007A7F40F3F482B36872686E4903204FF05C
:1014E000000901F081FACDF80090FE682B681E9388
:1014F0007268B3686649DDF87880002001F074FAFC
:101500004FF0010A337B5D4884F85EA05B00012147
:1015100084F83B3084F85DA001F04CFD002840F0D9
:101520007A822B681C931C9BC8EB0308B8F57A7F62
:1015300040F3BA82B36872685649002603200396C6
:1015400001F052FAB2463E692B681B937268B36889
:101550004F49DDF86CB0002001F046FA4FF0010869
:10156000337B464884F85E805B00012184F83B3081
:1015700084F85D8001F01EFD002840F03E822B685B
:101580001993199BCBEB030BBBF57A7F40F3AB822E
:10159000B36872683F49032001F026FA00239B4696
:1015A0003E4A127889EA020909F0200982EA09090B
:1015B000039A82EA090808F0400889EA080883EAE1
:1015C000080323F07F0388EA0308344B83F8008084
:1015D000009B002B00F0D882BAF1000F40F0A182EE
:1015E00097E80C002E49032001F0FEF9BB685E6805
:1015F000304606F0C5FC0146304603F07FF8022174
:10160000284803F07BF82848072103F077F81E48A4
:10161000DFF89C80244E03F053FCFB68D3F8049061
:10162000484606F0ADFC0146484603F067F8022143
:101630001C4803F063F8BAF1000F0BBF0421072127
:101640004046304603F05AF80F4803F039FC3B6936
:101650005F68384606F094FC0146384603F04EF8C1
:101660000221104803F04AF8BBF1000F08BF4046C2
:1016700020E000BFCC11FF1F588700006407FF1F48
:10168000B0840000608700007408FF1FC011FF1FB6
:1016900090870000F8850000A8870000DC11FF1F7C
:1016A000FC880000C08700006C8500009011FF1FBF
:1016B0007485000016BF30460421072103F01EF890
:1016C000B44803F0FDFB009B33B9BAF1000F03D11E
:1016D000BBF1000F00F085823621AF4803F00EF811
:1016E000AC4803F0EDFB4FF0000BAC4BAC49D3F82A
:1016F0000080002098E80C0001F076F9D8F86860C6
:101700002968B368726833910020A649339F01F0BD
:101710006BF94FF00109337BA34884F85E905B00BE
:10172000012184F83B3084F85D9001F043FC0028EF
:1017300040F056812B682893289BDF1BB7F57A7FF2
:1017400040F3C781B3687268984903204FF0000ADC
:1017500001F04AF9CDF80CA0D8F86C602B682793FB
:101760007268B3688F49279F002001F03DF94FF060
:101770000109337B8C4884F85E905B00012184F87A
:101780003B3084F85D9001F015FC002840F0F580B6
:101790002B682593259BDF1BB7F57A7F40F3B68135
:1017A000B3687268814900260320049601F01CF991
:1017B0000096D8F870602B6824937268B3687949F2
:1017C000249F002001F010F94FF00109337B764887
:1017D00084F85E905B00012184F83B3084F85D90D2
:1017E00001F0E8FB002840F0BB802B682293229B8D
:1017F000DF1BB7F57A7F40F38081B36872686B496D
:10180000032001F0F1F800231C46694A12788AEAA5
:10181000020A0AF0020A82EA0A0A049A82EA0A0919
:1018200009F004098AEA090983EA090303F00803B5
:1018300089EA03095E4B83F80090039B002B00F0BC
:101840008C81009B002B40F0778198E80C0059496F
:10185000032001F0C9F8D8F868305D68284606F022
:101860008FFB0146284602F049FF0221524802F050
:1018700045FF5248072102F041FF4648504E4F4D68
:1018800003F01EFBD8F86C305F68384606F078FB32
:101890000146384602F032FF0221474802F02EFF8F
:1018A000009B002B0BBF042107213046284602F085
:1018B00025FF384803F004FBD8F870305F683846DD
:1018C00006F05EFB0146384602F018FF02213A4856
:1018D00002F014FF002C0BBF3046284604210721DC
:1018E00002F00CFF2B4803F0EBFA039A22B9009B9D
:1018F00013B9002C00F07D813321324802F0FEFE46
:10190000244803F0DDFA0024294B2F491A78059B5F
:101910000978534003F010035340254A03291370FC
:1019200000F048812221294802F0E8FE194803F01E
:10193000C7FA274B27491B681A6852688A4240F049
:1019400060810121187B997301F052FE224B2A938A
:101950002AA801F067F93DB0BDEC028BBDE8F08F1D
:101960002B682393239B1D49DB1BB3F57A7FFFF67E
:101970002DAF0B682293229B3FE72B682693269B73
:10198000164ADB1BB3F57A7FFFF6F3AE1368259397
:10199000259B05E77408FF1FF08700008811FF1FD3
:1019A000A8870000908700006407FF1FF8850000EB
:1019B000DC11FF1F2C890000C08700006C8500002F
:1019C000748500004C880000DD11FF1FD8880000DE
:1019D000A411FF1FB9040000BC890000E011FF1F23
:1019E0002B682993299B894ADB1BB3F57A7FFFF685
:1019F00092AE13682893289BA4E62B681A931A9B2F
:101A00008249CBEB0303B3F57A7FFFF6A9AD0B68F0
:101A10001993199BBCE52B681D931D9B7B4AC8EB52
:101A20000303B3F57A7FFFF66DAD13681C931C9B1F
:101A300080E52B682093209B744AC8EB0303B3F521
:101A40007A7FFFF630AD13681F931F9B43E52B6829
:101A50000993099B6D4ADB1BB3F57A7FFFF6EEAC69
:101A600013680893089B00E52B680C930C9B674A4E
:101A7000DB1BB3F57A7FFFF6B5AC13680B930B9BBA
:101A8000C7E4B3687268624900F0AEFF069B5B4230
:101A9000059301230793F1E4B36872685C4900F091
:101AA000A3FF01230693BCE4B3687268584900F0B1
:101AB0009BFF4FF0FF3303934FF0010A43E5B368F8
:101AC0007268534900F090FF01234FF0FF390093F3
:101AD0000BE5B36872684E4900F086FF01234FF0B2
:101AE000FF3A039338E6B3687268494900F07CFF17
:101AF0004FF0010B4FF0FF3352E5B3687268444971
:101B000000F072FF01244FF0FF337EE6B368726885
:101B10003F4900F069FF4FF0FF3304930123009326
:101B200047E6BBF1000F3FF45BAD97E80C00394985
:101B3000002000F059FFD8E5002C3FF486AE98E86D
:101B40000C003549002000F04FFFDDE60320B368AC
:101B50007268324900F048FF0CE498E80C00304904
:101B6000032000F041FFD8F868305D68284606F091
:101B700007FA0146284602F0C1FD0221294802F079
:101B8000BDFD0421284876E697E80C00274903208C
:101B900000F02AFFBB685E68304606F0F1F90146A6
:101BA000304602F0ABFD02211E4802F0A7FD0421E1
:101BB0001D482AE5069B002B3FF4B4AE079B002B83
:101BC0003FF4B0AEBBF1000F3FF4ACAE002C3FF4DD
:101BD000A9AE2021164802F091FD164803F070F9D5
:101BE000B4E62B21144802F089FD124803F068F98D
:101BF0007BE52B21104802F081FD0E4803F060F9CF
:101C000082E6184601219047A0E600BFE011FF1FC1
:101C1000A08800002888000080880000F885000067
:101C20002C890000C087000074850000FC8800003B
:101C3000B48800007408FF1FC48700000349044BE8
:101C40000448054A08601A60FEF79CBEB011FF1FE9
:101C50009411FF1F210700004129000010B5026BFD
:101C6000C36A511C08BF0F4A8CB002BF12680192B0
:101C7000019AD31A002B12DD044603A91C3000F090
:101C800079FD084B08981B680293029B09990A9AF0
:101C9000E3624FF0FF3320616161A26123630CB006
:101CA00010BD00BFE011FF1F2DE9F047C269836935
:101CB000511C08BF2B4A82B002BF12680092009AE2
:101CC000D31A002B4ADD90F82430002B46D0264C46
:101CD000037BB0F90E90B0F91080B0F9127090F853
:101CE00014A05B00054601261521204684F83B30F0
:101CF00084F85E6084F85D6000F0F0FFC9F30721AE
:101D0000204600F0EBFF5FFA89F1204600F0E6FF85
:101D1000C8F30721204600F0E1FF5FFA88F1204672
:101D200000F0DCFFC7F30721204600F0D7FFF9B22F
:101D3000204600F0D3FF5146204600F0CFFF314649
:101D4000204601F037F9074B1B680193019BAB61FB
:101D500000224FF0FF3385F82420EB6102B0BDE88C
:101D6000F08700BFE011FF1F6407FF1FAE4BAF4AB3
:101D70002DE9F0471D682B685B68934290B040F0F6
:101D800052834FF47A73013BFDD16A692B69541C6D
:101D900001BFA74A12680092009AD31A002B1BDDDC
:101DA000A44C297B01231A46204601F08DF994F8B2
:101DB000392094F83830934240F05881AB686A6813
:101DC0009D49022000F010FE994B1B680193019B76
:101DD0002B614FF0FF336B61984B994E1D68AF68D4
:101DE0003B685B68B34240F02D83FA69BB69501CC5
:101DF00001BF8F4A12680292029AD31A002B33DD78
:101E00008C4C397B01231A46204601F05DF994F889
:101E1000392094F838309A4218BF07F10C0E00F0C0
:101E2000FB82934280F03081E2180133127E84F805
:101E3000383010467A757146002340FA03F20133B8
:101E400002F00102082B01F8012FF6D194F8392095
:101E500094F838309A42E4D1754B1B680393039B86
:101E6000BB614FF0FF33FB61EF683B685B68B342D7
:101E700040F0DC82FA69BB69511C01BF6C4A1268F0
:101E80000492049AD31A002B33DD6A4C397B012368
:101E90001A46204601F018F994F8392094F83830A1
:101EA0009A4218BF07F10C0E00F0AF829A4240F23E
:101EB000E880E2180133127E84F8383010467A75D3
:101EC0007146002340FA03F2013302F00102082BAD
:101ED00001F8012FF6D194F8392094F838309A425D
:101EE000E4D1534B1B680593059BBB614FF0FF3357
:101EF000FB612F693B685B68B34240F09F82FA69DF
:101F0000BB69541C01BF4A4A12680692069AD31A4A
:101F1000002B34DD474C397B01231A46204601F063
:101F2000D3F894F8392094F83830934218BF07F169
:101F30000C0600F063829A4240F2A080E21801335E
:101F4000127E84F8383010467A753146002340FA04
:101F500003F2013302F00102082B01F8012FF6D140
:101F600094F8392094F838309A42E4D1304B1B6809
:101F70000793079BBB614FF0FF33FB612F69314B28
:101F8000A9681E68EA68304B787D497D527DB76E3E
:101F9000987019705A703B682C4D5B68AB4276D1D3
:101FA0007A6A3B6A501C01BF214A12680892089A5B
:101FB000D31A002B6DDD1F4C397B012320461022E4
:101FC00001F082F894F8391094F83830994218BF2B
:101FD00007F10C0E1CD1D9E194F838306FF0FF00F6
:101FE00004EB030C99424FF0FF0288BF9CF81820C5
:101FF00003F1010342EA000288BF84F838302EF86A
:10200000022F94F8391094F83830994200F0C481C6
:102010008B4204EB0302DFD2013392F91820DBB2CA
:1020200084F838301002DBE7C011FF1F19050000EB
:10203000E011FF1F6407FF1F4C850000AC11FF1F5C
:10204000750600008811FF1FD811FF1FBD05000095
:102050000A7E84F83830131C18BF01236B7394F880
:10206000392094F838309A423FF4AEAE9A4204EBED
:10207000030103F10103EBD80123EFE7FF22104630
:1020800062E7FF2210461AE7FF221046D2E63846E2
:102090009847F76E3B685B68AB4243D17A6A3B6A0C
:1020A000511C01BFC14A12680A920A9AD31A002B26
:1020B0003ADDBF4C397B01232046102201F004F8A1
:1020C00094F8391094F83830994218BF07F10C0E83
:1020D0001CD175E194F838306FF0FF0004EB030C6D
:1020E00099424FF0FF0288BF9CF8182003F10103CA
:1020F00042EA000288BF84F838302EF8022F94F8A4
:10210000391094F83830994200F060818B4204EB2A
:102110000302DFD2013392F91820DBB284F83830A1
:102120001002DBE738469847376F3B685B68AB4285
:1021300043D17A6A3B6A541C01BF9C4A12680C92D4
:102140000C9AD31A002B3ADD994C397B0123204697
:10215000102200F0B9FF94F8391094F83830994201
:1021600018BF07F10C051CD139E194F838306FF035
:10217000FF0004EB030E99424FF0FF0288BF9EF868
:10218000182003F1010342EA000288BF84F83830C6
:1021900025F8022F94F8391094F83830994200F05D
:1021A0002481994204EB0302DFD9013392F918200C
:1021B000DBB284F838301002DBE73846984706F186
:1021C0000C012EC9F267B26AF469306AB167C6F8C9
:1021D0008030716AF36AC6F89420326CD6F808C071
:1021E000C6F88450C6F88840356B746BC6F88C000E
:1021F000C6F89010B06BF16BC6F89830C6F8AC20FA
:10220000736CC6F8A04006F14802C6F8A400C6F8F0
:10221000A810C6F874C0C6F89C50C6F8B0302CCAD6
:10222000F16D746DB06DC6F8B420C6F8B830326E7A
:10223000736EC6F8C810C6F8BC50C6F8C040C6F8E1
:10224000C400C6F8CC20C6F8D03006F1780806F1F4
:10225000700E4FF0FF37002101E058F804CB07293A
:1022600000F38680B36E03EB4103B3F80E90ACF835
:102270000890781C3B4610D0DEF8002010894845B5
:102280000BD374464046013B40F8042D5A1C04D041
:1022900054F8042D15894D45F5D206EB8303013121
:1022A0001829C3F878C007F101070EF1040ED4D144
:1022B000404B414A1C6823685B68934240F0C580EC
:1022C000E269A369511C01BF384A12680E920E9A46
:1022D000D31A002B49DD94F82430002B45D0344D1F
:1022E000237BB4F90E90B4F91080B4F9127094F80D
:1022F00014A05B0001261521284685F83B3085F89F
:102300005E6085F85D6000F0E9FCC9F307212846AE
:1023100000F0E4FC5FFA89F1284600F0DFFCC8F326
:102320000721284600F0DAFC5FFA88F1284600F021
:10233000D5FCC7F30721284600F0D0FCF9B22846A7
:1023400000F0CCFC5146284600F0C8FC3146284637
:1023500000F030FE154B1B680F930F9BA36100220A
:102360004FF0FF3384F82420E36110B0BDE8F0871C
:102370000F2905DD336F03EB410333F8129C76E739
:10238000F36E03EB410333F8029C70E7BB687A6895
:102390000A49022000F028FB044B1B680993099BA3
:1023A0003B624FF0FF337B6273E600BFE011FF1F1B
:1023B0006407FF1F9011FF1FA91C00004C8500003F
:1023C000BB687A682349022000F00EFB224B1B6891
:1023D0000B930B9B3B624FF0FF337B62A4E6BB6821
:1023E0007A681C49022000F0FFFA1B4B1B680D9312
:1023F0000D9B3B624FF0FF337B62E0E6BB687A687F
:102400001449022000F0F0FAB0E5BB687A6811497F
:10241000022000F0E9FA64E5BB687A680D49022001
:1024200000F0E2FA18E528469847D5E43846984780
:102430002F693B685B68B3423FF461AD384698470B
:102440002F699CE5384698470EE52046984710B01E
:10245000BDE8F0874C850000E011FF1F30B589B062
:1024600006E002F0E5F88DF81C0007A800F02CFA51
:1024700002F01AF90028F4D15C4B1B7813BB5C4BBB
:102480001B78032B76D05B4B5B4A1C6823681B6868
:10249000934261D1207B01F0B1F8E37BA0738342CA
:1024A00002D0012800F09180003018BF0120E073B5
:1024B000FFF75CFC514B1B78002B33D0FEF7ACF9D7
:1024C00009B030BDFFF752FC4C4B1B78002B74D188
:1024D0004B4C237B002B68D14A4B1B680593059816
:1024E0006268A368464D801A984238D2464C01F083
:1024F00099F8237B6060002B5AD1424B1B680493F0
:10250000049BA268404D181A9042D9D32B68984773
:102510002B7B002B46D13B4B1B68079307986060D1
:1025200009B030BD384C01F07DF8237B6060002B92
:1025300046D1344B1B680093009BA268324D181A99
:102540009042BDD32B6898472B7B002B2AD12D4B73
:102550001B6801930198E2E720469847A8E72B689B
:1025600098472B7B002B3DD1264B1B680693069882
:102570006060BBE7244C01F055F8237B606063BBCF
:10258000204B1B680293029BA2681F4D1B1A9342AB
:1025900096D32B6898472B7B23B91A4B1B68039360
:1025A0000398BCE701F03EF8B9E701F03BF897E784
:1025B00001F038F803466068A3E7FEF7EDF887E717
:1025C00001F030F803466068B7E701460D2001F0DE
:1025D0000FF823699847A07B66E701F023F80346CC
:1025E0006068D1E701F01EF8C2E700BFDB11FF1FF2
:1025F000DD11FF1FD411FF1FC50400008C11FF1F48
:102600009411FF1FE011FF1FB011FF1F704700BFA3
:10261000704700BF38B528220C4605460846002101
:1026200005F02EFC0B220849204605F017FD00217D
:10263000E172EA682261002301226162E260626164
:10264000A361E361236238BD5889000010B51021F1
:10265000044602F01DFC204610BD00BF002210B44D
:10266000044C0460C160C280028142815DF8044B69
:10267000704700BF68890000F8B53D4C3223012641
:10268000A8210546204684F83B3084F85E6084F833
:102690005D6000F023FB3146204600F08BFC3346A2
:1026A00006221921204600F00FFD94F8391094F805
:1026B00038208B1A052BFDDD91423DD9561CA318FD
:1026C000F6B28E42187E84F83860294B3CD21E4404
:1026D000941C367EE4B240EA06208C4240F30B1094
:1026E00083F838403CD2D61CF6B21C448E42277E7A
:1026F00083F838602CD21E44141D367EE4B247EABB
:1027000006278C4247F30B1783F838402CD2561D0E
:10271000F6B21C448E42247E83F838601CD21E44DC
:102720000632317E83F8382044EA012343F30B1349
:10273000E8802F816B81F8BD4FF0FF3007460346DC
:10274000E8802F816B81F8BD60F0FF000011FF274A
:1027500067F0FF073F11FF2464F0FF031B11E7E759
:102760004FF0FF373B46E3E74FF0FF33E0E700BFB2
:102770006407FF1F70B524260C46054682B032461A
:102780000846002105F07CFB2846FFF775FFB5F9E8
:1027900006309FED196ADFED196AEA68626007EE9C
:1027A000103AB8EEC77A164B266027EE067A1B68F9
:1027B000019327EE267A019B84ED057AB5F908206E
:1027C000236107EE102AB8EEC77A012027EE067AB9
:1027D000A06027EE267A84ED067AB5F90A3007EE76
:1027E000903AB8EEE77A67EE067A67EEA67AC4ED1D
:1027F000077A02B070BD00BF6F12833A0AE81C412D
:10280000E011FF1FF8B50C4C1E4601254F00204675
:10281000114684F83B7084F85E5084F85D5000F0F7
:102820005DFA3146204600F059FA29462046BDE8B7
:10283000F84000F0BFBB00BF6407FF1F70B5154C28
:102840004B0001250E462046114684F83B3084F8A3
:102850005E5084F85D5000F041FA2946204600F0B1
:10286000A9FB2B462A463146204600F02DFC94F861
:10287000383094F839209A420AD9E2182B44157E50
:1028800084F838300121034800F094FB284670BDDD
:10289000FF25F7E76407FF1F10B50446094800F05D
:1028A00031FA2046572320221921FFF7ABFF20469B
:1028B00020221921FFF7C2FFA0F15700B0FA80F0E3
:1028C000400910BD6407FF1F70B50478A62C2FD0F7
:1028D000A72C06D0A52C00D070BD174B01221A7072
:1028E00070BDA02001F08EFF2046012401F08AFF78
:1028F000124D264603E00134E4B27F2C13D063006E
:1029000001210E4885F85E6085F85D6085F83B30F2
:1029100000F050FB0028EED120460134E4B201F073
:1029200071FF7F2CEBD1A120BDE8704001F06ABFA0
:10293000014B00221A7070BDDB11FF1F6407FF1FDF
:1029400008B5A02001F05EFF002001F05BFF044B02
:10295000187801F057FFA120BDE8084001F052BFF0
:10296000DC11FF1F174A38B51378032B18BF034635
:1029700004460D4614481370012101F0BFFEDCB17E
:10298000012C1BD0022C1BD0104B1148032C08BF6C
:102990001846042101F0B2FE03210E4801F0AEFEFC
:1029A000284605F0EDFA0146284601F0A7FE0A4840
:1029B000BDE8384002F084BA0848EAE70848E8E78A
:1029C0000848E6E7DD11FF1F9C89000074850000C0
:1029D00094890000A08900007408FF1F848900000A
:1029E0007C8900008C890000F8B5144605460E4627
:1029F0000E4802211F4601F081FE204605F0C0FA74
:102A00000146204601F07AFE0721094801F076FED2
:102A10003946084802F0A4FA0221074801F06EFE88
:102A200031462846BDE8F840FFF79CBFA489000066
:102A3000A88900007408FF1FB089000000207047BB
:102A4000006910B10368DB6818477047006910B16E
:102A500003681B6918477047006910B103689B69D8
:102A600018474FF0FF307047006910B103685B6989
:102A700018474FF0FF3070472DE9F04106460F46EA
:102A800000F0D0FD306928B1036839461B68BDE805
:102A9000F04118477369002B55D02C492C4A0B681C
:102AA00043F080730B60136843F001031360746993
:102AB00072B6A1F55D41F839B3690A681870086803
:102AC000A3181B1AB3F5BE7F07D9A4F5B47062B67C
:102AD0000B689B1A9842FBD872B61E490B689B1A6A
:102AE0009C42FBD81B484FF0080E01210F42B369EE
:102AF00014BF012500251D70756903682C44D31A85
:102B00002344B3F5BE7F07D9A4F5B47562B6036854
:102B10009B1A9D42FBD872B603689B1A9C42FBD855
:102B20004900BEF1010EC9B2E0D1B36901211970AB
:102B300062B6736907491C440B689B1A9C42FBD818
:102B40000120BDE8F0811846BDE8F081FCED00E011
:102B5000001000E0041000E0F8B504464FF47A736A
:102B60001B48A3600023164620602371237384F85A
:102B700020300D46D9B9012A27D00027012130463F
:102B8000276100F049FD0221284600F045FD114B68
:102B900084F8216084F8225053F83620A26153F85B
:102BA0003530676103F50073E3612046F8BD0929FC
:102BB00004D10A2AE1D1084B2361F6E70729DCD1C9
:102BC000082ADAD1054B2361EFE7054B2361ECE7D7
:102BD000BC8900005C8A00005408FF1F6408FF1FC6
:102BE0004408FF1F03691BB11A681846D3691847C8
:102BF0000A46094930B45308084D094C1944B1FB41
:102C0000F2F141612B6843F080732B60236843F03D
:102C10000103236030BC7047000E2707FCED00E085
:102C2000001000E038B50569044645B12B68284618
:102C30005B6A9847002323610023636138BD2946FE
:102C400090F8210000F0E8FC294694F8220000F0FA
:102C5000E3FC0023636138BD90F8392090F8380018
:102C6000101A704790F8383090F839209A4205D9F8
:102C70005A1C034480F83820187E70474FF0FF300C
:102C8000704700BF90F8383090F839209A4286BFDC
:102C90001B18187E4FF0FF30704700BF704700BF11
:102CA00038B50546B0F85E0090B195F85D30144631
:102CB000C3F1210294420CD805F13B00184422468E
:102CC00000F022FB95F85D30234485F85D30204606
:102CD00038BD012014462871EEE700BFB0F85E3021
:102CE0006BB190F85D30202B07D8C218013380F803
:102CF0005D30012082F83B107047012303710020F2
:102D0000704700BF0023426980F8383080F83930BE
:102D100080F85C3080F85D3080F85E3080F85F309D
:102D200006CA30B40D68046943662A4383660A60A4
:102D3000A370426990F861301649146813441D7AF3
:102D40005B7B01EBC5051B026D6803F4E06343F098
:102D500064032B6090F8623013449D7CDB7D01EBB3
:102D6000C5011B02496803F4E06343F064030B6090
:102D700021685368194205D003692C225A700369EF
:102D800004229A71036920225A71036980229A7081
:102D900030BC70475C8A000038B50269D478E4B270
:102DA000E106054624D51023D37063061FD504F031
:102DB000040404F0FF03002C5AD042496A6E002339
:102DC0000B7085F85D30002A66D0904795F85D302D
:102DD000002B61D02B69D0229A702B6995F83B208B
:102DE0001A712B69012285F85C200222DA7038BD45
:102DF00004F0400303F0FF00002BD8D19379DBB23D
:102E000003F0600160294ED0937803F0100303F0C3
:102E1000FF01B3B114F0010437D195F85C3095F897
:102E20005D1099424BD9591C2B4485F85C1093F8DE
:102E30003B3013712B69D0229A702B690222DA7011
:102E4000D5E785F86010937943F0200393712B69DF
:102E500095F839101A791F29D2B2C6D819480078C6
:102E60000028C2D06818013185F839100276BCE715
:102E70002A6985F83930C02393702B69114A197972
:102E8000012111700222DA70B1E7C02393702B691F
:102E90001A790222DA70AAE70122002385F85D2060
:102EA00085F83B3096E703F0DF039371AB6E23B1F7
:102EB00085F8380095F8390098472A69A4E7147115
:102EC000B8E700BFDE11FF1F2DE9F047374FDFF8ED
:102ED000E0903B68026982B006460093DDF800800E
:102EE0000021C825D3789B065BD53B680193019BE5
:102EF000C8EB03030F2BF5D949B1102BF2D00020FA
:102F00009070336980229A7002B0BDE8F0877269D0
:102F100096F8613013440521187A00F07DFB726940
:102F200096F861301344012193F812A0504600F046
:102F300073FB09240021504600F05AFB2B46013B4D
:102F4000FDD10121504600F053FB2B46013BFDD142
:102F5000013CEFD1706996F8611001444FF4C872DA
:102F60000C7A4B7B09EBC4011B02496803F4E06354
:102F700043F064030B6096F862300344997CDB7D78
:102F800009EBC1011B02496803F4E06343F06403E9
:102F90000B60013AFDD13269D3789B064FF00101F5
:102FA000A3D4012002B0BDE8F08700BFE011FF1FED
:102FB0005C8A0000F0B503691222DA700269937826
:102FC00003F0200385B004460D46002B5ED0B423E9
:102FD00093703C4922690B680093009E05E00B68E2
:102FE0000193019B9B1B042B42D8D37803F0200351
:102FF00003F0FF00002BF2D094F85D30002B31D0AD
:103000004FF0000E4FF0020C04EB0E0393F83B3030
:1030100013710B680393039F206907E09B060DD58E
:103020000B680293029BDB1B052B28D8C378DBB20D
:1030300003F0020202F0FF06002AEFD080F803C07E
:103040002669F378DBB2DF0632462DD49F062BD5F6
:10305000DB0731D40EF1010E94F85D305FFA8EFE7D
:103060007345D1D800201DBB002384F85E3004E0F6
:103070009070236980229A70042005B0F0BD86709C
:103080002369802204209A7005B0F0BD03F0FF068A
:10309000FFF71AFF10B9042005B0F0BD236984F8CA
:1030A0005F60B0229A7094E78023B3700420DAE75F
:1030B00026698023B370D7E7BEF1000F0CBF022052
:1030C0000320F6E7E011FF1F2DE9F0410669002516
:1030D000122780F8385080F83950F770D0F810C0B7
:1030E0009CF802E00EF0200E88B004468846154693
:1030F0001E46BEF1000F49D0B4238CF80230784B45
:1031000021691A680092DDF800E006E01A68019271
:103110000198CEEB0000042830D8C87800F02000D9
:1031200000F0FF070028F1D04FEA480242F0010208
:10313000D2B20A711A680292DDF808E0206906E04E
:103140001A6803920399CEEB010105292AD8C178A8
:1031500001F0020101F0FF070029F1D04FF0020C4D
:1031600080F803C02269D17811F0110722D12DBB5C
:10317000002E0CBFA0238023937003E08F7023697F
:1031800080229A70384608B0BDE8F0810EF0FF0743
:10319000FFF79AFE0028F5D0236984F85F70B0220B
:1031A0009A70ACE787702369802238469A7008B01D
:1031B000BDE8F081802393700027E3E7012D75D0EF
:1031C000A021917021690A79BE4667464FF0A80C8C
:1031D0001A680492049805E01A680592059A121A72
:1031E000052A4AD8CA7802F0020202F0FF08002A33
:1031F000F2D0CF702169CA78D2B212F0100F08460F
:103200005AD1920658D5013DEDB2012D49D0BEF1FB
:103210001F0F3BD90A79012DDAD11A680692069D53
:1032200005E01A680792079A521B052A46D8C27809
:1032300002F0020202F0FF01002AF2D00223C37062
:103240002269D378DBB2D9063AD49B0634D5B023B1
:10325000BEF11F0F93703FD8226904EB0E03127961
:103260001A760EF1010E5FFA8EFE16B123698022E6
:103270009A7084F839E0774684E781F80280236900
:1032800080229A70774684F839E07BE704EB0E02DF
:1032900091F8048082F818800EF1010E5FFA8EFE1C
:1032A000B9E781F802C021690846B0E7A82191700A
:1032B0002069BE460279B0E7774663E78170DEE7B2
:1032C0001021C823D170013BFDD12269937803F00E
:1032D000F7037746937055E723691B79C5E700BF6D
:1032E000E011FF1F0148FFF757BD00BF6407FF1F34
:1032F0000148FFF751BD00BFD007FF1F0148FFF78E
:103300004BBD00BFF806FF1F844641EA000313F0DF
:1033100003036DD1403A41D351F8043B40F8043BDC
:1033200051F8043B40F8043B51F8043B40F8043B9F
:1033300051F8043B40F8043B51F8043B40F8043B8F
:1033400051F8043B40F8043B51F8043B40F8043B7F
:1033500051F8043B40F8043B51F8043B40F8043B6F
:1033600051F8043B40F8043B51F8043B40F8043B5F
:1033700051F8043B40F8043B51F8043B40F8043B4F
:1033800051F8043B40F8043B51F8043B40F8043B3F
:1033900051F8043B40F8043B403ABDD2303211D3DF
:1033A00051F8043B40F8043B51F8043B40F8043B1F
:1033B00051F8043B40F8043B51F8043B40F8043B0F
:1033C000103AEDD20C3205D351F8043B40F8043BDF
:1033D000043AF9D2043208D0D2071CBF11F8013BDD
:1033E00000F8013B01D30B8803806046704700BFA3
:1033F000082A13D38B078DD010F003038AD0C3F1B2
:103400000403D21ADB071CBF11F8013B00F8013B93
:1034100080D331F8023B20F8023B7BE7043AD9D352
:10342000013A11F8013B00F8013BF9D20B78037027
:103430004B7843708B7883706046704708B5104CAA
:1034400008E0236859050DD423681A050FD42368B2
:10345000DB0411D423685803F3D500F0C1FA2368C4
:103460005905F1D502F00EFA23681A05EFD502F0DE
:10347000C1FD2368DB04EDD503F086F8EAE700BF61
:103480003480044008B5FFF7D9FF00BF014B10227C
:103490001A80704700200540704700BF094908B5F1
:1034A0000B6830B16A461844A2F50052904202D22D
:1034B0000860184608BD04F0EDF90C2303604FF0D6
:1034C000FF3008BD3C08FF1FFEE700BFEFF313808D
:1034D00070B9EFF310836BB9EFF305825AB94FF46B
:1034E0008070EFF311832BB1984228BF18467047C4
:1034F0004FF0FF3070470F2A01D81846F1E7014B13
:10350000D05CEEE7F0E300E010B4114B53F830204C
:1035100092F8804234B1012379B182F880305DF8AD
:10352000044B704703EBC0035B681A6851B922F083
:1035300002021A605DF8044B704782F800315DF8B2
:10354000044B704742F003021A605DF8044B704769
:103550005C8A00001C4A02EBC00301295B6811D0A1
:1035600004291BD052F83000002280F8802229B1B3
:10357000022920D0032922D01A6070474FF48072AC
:103580001A60704752F830004FF4A27280F880122F
:103590001A601A6822F020021A60704752F8301040
:1035A0004FF4A272012081F880021A601A6842F07A
:1035B00020021A60704740F203121A6070474FF4FD
:1035C00081721A60704700BF5C8A000030B4054BFE
:1035D000054D064C002210211A602A6020601960F7
:1035E00030BC704714D0034004D0034000D00340E7
:1035F0003F2801D8FFF788BF704700BF3F2806D893
:10360000044B53F8303093F80002C0B270470020EA
:10361000704700BF5C8A00003F2801D8FFF79ABFBF
:10362000704700BF72B60C490C4B0D4A1B68086806
:10363000126862B6520102D5322B88BF01300949A7
:10364000C3F5EA334FF47A72BF33A1FB031302FBD5
:1036500000F000EB93107047E011FF1F18E000E04E
:1036600004ED00E0898888882DE9F843054672B6A4
:10367000204F214B214A1B683C68126862B65201F8
:1036800002D5322B88BF013495B3C3F5EA331C4E03
:10369000DFF86490DFF86480BF334FF47A72A6FBE2
:1036A000031302FB04F404EB931472B6D9F8001070
:1036B0003A68D8F800E062B6C1F5EA33BF33A6FB3A
:1036C00003031EF0806FC4EB93134FF47A7002D0A3
:1036D000322988BF013200FB0233B3F57A7F04D36D
:1036E000013D05D004F57A74DFE701F057FCDCE713
:1036F000BDE8F883E011FF1F18E000E004ED00E0F2
:1037000089888888F8B53E4B3E49DFF818C13E4E9F
:103710003E4ADFF814E13E4D3E4C3F4F4FF0006013
:1037200018604FF0805018604FF0005018604FF054
:10373000804018604FF00040186000200860282387
:103740004EF6FF71CCF80010CEF8003033600EF565
:10375000012E13602B60236005F500253B6004F506
:103760000024B36207F50027936206F5012602F5EF
:1037700001220EF1100E05F6E87504F6E87407F55F
:103780007F67103220362B602360CEF800303B601C
:1037900013603360214EBB61936109223260A7F54B
:1037A000002706F58056203F083638603160BB6040
:1037B000F36047F8042C06F5FD2607F5FE2706F210
:1037C000FC76043730603960B360FB6046F8042C47
:1037D0000836C7F8FC0F06F6FC76114831602B60FE
:1037E0002360026001F03CFC1920FFF73DFF00F070
:1037F0005FFE40F21310BDE8F840FFF735BF00BF91
:1038000004E100E004800340148003401C80034076
:10381000248003402C800340348003400080034018
:1038200000900B40088003400C800340431E032B94
:1038300014D872B60A4951F8230068B170B4094C23
:10384000058834F81320466841F82360521B24F899
:10385000132062B670BC704762B670470020704794
:103860003C12FF1F3816FF1F013803280BD872B611
:10387000074B53F8203043B100205B680130002B28
:10388000FBD162B67047002070471846F9E700BFC9
:103890009012FF1F30B472B62B4A13781D0706D55D
:1038A0002A4B196A002936D0996A002941D05378E9
:1038B0001C0706D5254B196C00293ED0996C0029B0
:1038C00039D09378190705D5204B196E002936D0C9
:1038D000996E89B1D3781B0707D51C4BD3F880208C
:1038E0007AB3D3F8882011213AB162B6184B00227E
:1038F0001A7030BC00F076BE0D21154C154D2278A3
:1039000043F8315003EBC1030830013A586022708C
:1039100062B630BC704704220D4C0F4D217843F83D
:10392000325003EBC20308304A1E5860227062B660
:10393000EFE70521E1E70921DFE70822ECE70C22A8
:10394000EAE71022E8E700BFA88D00000000FF1F93
:10395000B912FF1FC800400088004000431E032B1F
:103960001DD81B4A400140F0100030B4104472B61C
:10397000184CE25C032A1BD8DFE802F0021215178C
:1039800003220D88E25410F0080F14BFC8238823C7
:1039900043EA054308310360416062B630BC7047BA
:1039A00008300222EDE70522EBE708300422E8E7C1
:1039B000094A52F8230038B1084A52F823004160FE
:1039C00042F8231062B6E9E742F82310034AF7E70A
:1039D0000000FF1FC812FF1F9012FF1FA012FF1F41
:1039E0002DE9F04FDFF80CB3DFF80CA387B044E00B
:1039F000AB4F4FEA930807EBC809013ED9F8042002
:103A000003F00803F6B2A2F1080003F0FF04002B54
:103A100040F0028157F838301B0C99B222F8081C8C
:103A2000002B00F0F0809F4B22F8064C42F8044C2B
:103A300053F82620002A00F0C5829B4D55F8263009
:103A400058609A4C45F8260034F81630194424F88A
:103A5000161000F0A7FD002800F0AD82944A954BA7
:103A600019F0080F00F1080018BF1346C9F8040048
:103A700047F8383008238BF800309BF80040E4B258
:103A800061071AD58C4B1B78A3B18C490A7802F0D8
:103A9000FF0322B1013BDBB20B7003B900BE8849C2
:103AA0000A7802F0FF032AB1013BDBB20B70002B56
:103AB00000F0578204238BF8003004F0080303F071
:103AC000FF02002B00F0CC809AF80030DBB21E0918
:103AD0008ED19C08DFF8C89159F8342009EBC40155
:103AE000C2F38302013A49680C2A00F28880DFE8B9
:103AF00002F07C7C868686868686478686860700D8
:103B00000868704D4A68704F704E286081B240F26C
:103B10008160674B6A604FF0010E0022814249F8D4
:103B200034303A60C9F81020C9F8182086F800E04F
:103B30005B4C00F2E380B1F5D06F80F04683B1F5C5
:103B4000817F00F0FC8200F28D82802900F0778373
:103B5000822940F0FA82A98801F07F01042900F24D
:103B6000F4825B485B4C89000844227062700278E2
:103B7000930740F1588484F800E04FF0020E42E3CE
:103B8000514F3A6832B3544B504E544918883478E8
:103B90000D784028864645F0020828BF4FF0400EB9
:103BA000002C84F001043470CEEB00000CBF88249C
:103BB000C82409EBC80680B285F0010544EA0E442A
:103BC0007260188049F8384072440D70002800F087
:103BD00045813A603B4B1A88B2F5A06F0FD10021A6
:103BE0009A7859703E4B1A7009E0364A108842F2B2
:103BF0002102904200F037812D4A49F83420394A99
:103C00000123137036E72A4A2A4B19F0080F18BF10
:103C1000134647F838302DE700F0E4FC324A3349C8
:103C200052F82630002B00F0D18158688C5D42F8A4
:103C3000260003F10802C9F80420032C05D8DFE8A8
:103C400004F02C02292602228A551A8819F0080F3E
:103C50000CBF8823C82343EA024347F8383009E7FA
:103C6000E00700F18181210600F1F281A20706D56B
:103C70001F4A204913780220DBB213700870E30654
:103C800002D51C4B10221A7007B0BDE8F08F042239
:103C90008A55DAE705228A55D7E703228A55D4E701
:103CA0000000FF1F3C12FF1FE811FF1F3816FF1F07
:103CB000C800400088004000C412FF1F4D12FF1FC3
:103CC000CC12FF1FB012FF1FE411FF1F4C12FF1F89
:103CD000C0200740BC12FF1FF811FF1FB812FF1FC2
:103CE00098200740942007409012FF1FC812FF1F22
:103CF00088200740802007409020074042F22100A2
:103D0000814200F02A8100F2D880B1F5086F00F0FE
:103D10007682B1F5106F40F01882226AB349A87814
:103D20000870120600F13A83D9F82820B04913062A
:103D300000F10C83D9F83020AD49150600F101835C
:103D4000D9F83820AA49140600F1F682D9F84020A3
:103D5000A749100600F14A83D9F84820A449120661
:103D600000F13F83D9F85020A149130600F13483B4
:103D7000D9F858209E49150600F12983D9F860200A
:103D80009B49140600F11E83D9F868209849100653
:103D900000F11383D9F870209549120600F10883C9
:103DA000D9F878209249130600F1FD82D9F88020D5
:103DB0008F49150600F13183D9F888208C49140603
:103DC00000F12583D9F890208949100600F1198364
:103DD000D9F898208649120600F10D838548864A55
:103DE000864901908648874D874C049700230596A5
:103DF000029580460F4616461D460394306828B14A
:103E0000446800F0EFFB2046002CF9D1002333601A
:103E1000029B38681A46002342F8253028B14468CE
:103E200000F0E0FB2046002CF9D100223A60019A14
:103E300098F800301146002241F8042B039A0191B2
:103E4000023B4FF0000122F81510032B00F22B81EA
:103E5000DFE813F07001250170012501BEF1400F6C
:103E600018BF0022B5E6694A0D7848781570507081
:103E70008D78C8789570D07010680D791571862886
:103E80004D7989795571917100F09B816049614E3E
:103E90000A78307882F00105002842F002020D70A5
:103EA0000CBF8821C82149F8321009EBC20280F00A
:103EB00001000021307051609EE642F221208142D3
:103EC00040F0CB81544B554C5549A8781D6825606E
:103ED000CDF804E008700020029080468446044635
:103EE0004B490D7845F0020E09EBCE030393019B7D
:103EF000002B039B5C600CBF8824C82444EA0803A1
:103F000085F0010449F83E3032700C70DFF8E0E0D3
:103F1000404BDFF8FC80002840F01E81BCF1400FD0
:103F20001BD144F0020C09EBCC03029CDFF8C0E08B
:103F30005C60002A40F02681020442F088029DF86D
:103F400004304EF83C20044433700D702346402862
:103F500003D10020334A3B601080334A01231370A1
:103F60004DE600F0ABFCA5E5214B2F4828491A612E
:103F70004FF0020E80F800E02C4F0A702C491960B7
:103F800099602C4E2C4D2D4C9A610D213970FF21DA
:103F90003170DFF8B8E029702270294D294A8EF877
:103FA00000109F27012406F8047C5D600470DA602D
:103FB00007B0BDE8F08F244A47F838001378013382
:103FC000137057E543F826000E4D3AE58B5D032B41
:103FD00000F2F08001A252F823F000BF753A000011
:103FE000753A00009940000093400000C412FF1F82
:103FF0000000FF1FA012FF1F3C12FF1F9012FF1FA7
:10400000C812FF1FE811FF1F3816FF1F4016FF1FC1
:10401000B812FF1F4C12FF1FE011FF1F4816FF1FB1
:10402000DC12FF1FF811FF1F94200740C02007403B
:1040300088004000882007408020074098200740E3
:10404000FC11FF1F5012FF1FB912FF1F8C200740E9
:10405000C149C24B80220D2008701A70A2077FF55B
:104060000EAE05E640F20232914240F0EE80A988A1
:1040700001F07F01042968D86A88002A65D1B64812
:10408000CDF804E089000844017841F00201017094
:1040900021E701238B55EDE400238B55EAE44FF033
:1040A000010388F800300135042D06F1040607F1FC
:1040B000040708F101087FF4A1AEA94CA94B2278AE
:1040C000A94D049F059E002129701A70130700F165
:1040D00005816278A549DFF8A0820A7010074FF0C9
:1040E0000001C9F83010C9F8381000F1E080A0498B
:1040F000A2780A700021C9F85010C9F858101107A9
:10410000DFF8748200F10181E2789A499A4C0A70D2
:1041100000211207C9F87010C9F8781000F1B080BA
:1041200033780193002183F00102C9F89010C9F897
:104130009810D0E64FF0000388F80030B3E7A98864
:1041400001F07F01042940F28D80834A0F23137010
:104150008A4A0123137052E540287FF6E2AE44F00C
:1041600002040EEBC401029E4E60BAB19DF8041029
:10417000834A19703346403888F8005040334EF86F
:104180003420E7E69DF8043033700204029B0D7082
:1041900042F0C80203444EF83C20D8E69DF80410D3
:1041A0001970029B774A88F80050403840334EF827
:1041B0003420CFE619F0080F0CBF022303238B55E0
:1041C00058E4714A0F21117060E6704A5468002C5F
:1041D000BBD06888B5F804E003E00C325468002CCA
:1041E000B3D013888342F8D153887345F5D1000AC0
:1041F00003280CBF94F800E0B2F808E003E0644A3A
:10420000644C12782270E888704580F03F816249E2
:104210000D784028844645F0020E28BF4FF0400C30
:1042200004EB0C0309EBCE02029301235460CCEBA8
:1042300000004FEA0C4800220193C8245EE6554C6A
:104240004FF0020E22706270DDE7B1F5A06F7FF4CF
:104250007CAF0123002201933DE642F221329142DC
:10426000F7D072E76A88002A7FF46FAF3A48CDF83A
:1042700004E089000844017821F0020101702AE677
:1042800000F090F9002800F0EF8008303D4AC4F8B3
:104290008400C4F8802000F085F9002800F0DE805A
:1042A0000830374AC9F88C00C9F8882038E700F090
:1042B00079F9002800F0C0800830324AC8F844007C
:1042C000C8F8402000F06EF9002800F0AF800830F8
:1042D0002B4AC9F84C00C9F8482008E700F062F9F9
:1042E000002800F0CD800830264AC9F82400C9F81B
:1042F000202000F057F9002800F0BC800830204A48
:10430000C9F82C00C9F82820E3E600F04BF9002892
:1043100000F09E8008301B4AC8F86400C8F860208E
:1043200000F040F9002800F08D800830144AC9F8E8
:104330006C00C9F86820E7E6C86B083800F052F94D
:1043400004E5486B083800F04DF9F9E4C86A08380C
:1043500000F048F9EEE400BFC0200740802007408D
:10436000A88D0000C4200740B912FF1FC8200740D5
:10437000CC200740D02007400000FF1F94200740BA
:10438000C8004000880040004D12FF1FAC8D0000A7
:10439000C412FF1FBC12FF1FB812FF1F606A08384B
:1043A00000F020F9C0E4C86F083800F01BF9FDE404
:1043B000486F083800F016F9F2E4C86E083800F0CB
:1043C00011F9E7E4486E083800F00CF9DCE4C86D38
:1043D000083800F007F9D1E4486D083800F002F918
:1043E000C6E4C86C083800F0FDF8BBE4486C083837
:1043F00000F0F8F8B0E4D1F89C00083800F0F2F8CA
:10440000ECE4D1F89400083800F0ECF8E0E4D1F8DE
:104410008C00083800F0E6F8D4E4D1F884000838BD
:1044200000F0E0F8C8E44FF0020EECE62A78C9F894
:10443000480001322A705AE62A78C8F84000013252
:104440002A703FE72A78C9F8680001322A705BE6D3
:104450002A78C8F8600001322A7061E72A78C9F822
:10446000880001322A705BE62A78C4F880000132A5
:104470002A7010E72A78C9F8280001322A7028E645
:104480002A78C9F8200001322A7032E7BEF1400FC5
:10449000F44628BF4FF0400C04EB0C0302930123B9
:1044A000CCEB0E004FEA0C480022019318E500BF48
:1044B0002DE9F04102F048FA2F4C304B3048DFF83C
:1044C000D880304F304D314EDFF8D0C0DFF8D0E02B
:1044D00000221A605A609A60DA601A615A619A6121
:1044E000DA611A625A629A62DA621A635A639A63EA
:1044F000DA631A645A649A64DA641A655A659A65CA
:10450000DA651A665A669A66DA661A675A679A67A9
:10451000DA67C3F880202168C3F8842041F4802141
:104520002160016841F040710160C3F3072188F800
:10453000001004F52834C3F307411B0E3970CC3446
:104540002B7000F12040FF238CF80030104D8EF8C6
:10455000003000F6041033700E49012308F8083CBF
:10456000702622704FF40014102207F82C3C2E7095
:1045700004600A70BDE8F081348004400000FF1F31
:1045800000D80040B0200740B4200740102007406A
:1045900035E400E0082107409C20074080200740C8
:1045A0008820074072B60D480268B2FA82F30B2BDE
:1045B00010DC4FF00041D94022EA0102026062B6ED
:1045C000074803EBC303DB00C2180021C1501046AB
:1045D0005160704762B60020704700BF4008FF1F5F
:1045E0009803FF1F0D4B0E4AC31AA2FB03231B099E
:1045F0000B2B0CD80B4A127852B972B60A484FF0FE
:104600000041026821FA03F31A43026062B6704760
:10461000064A1278002AF0D0FFF73CB99803FF1F32
:10462000398EE338B912FF1F4008FF1FC412FF1F65
:1046300038B50F4D286878B143880288C118013316
:1046400093420C7A02D24380204638BDFFF7CAFF5E
:10465000002320462B6038BD064B1B782BB103206E
:10466000FFF7E4F828600028E6D14FF0FF3038BDAE
:10467000D812FF1FC412FF1F10B5094C206818B1D3
:1046800043881844007A10BD064B1B782BB10320D9
:10469000FFF7CCF820600028F2D14FF0FF3010BDBA
:1046A000D812FF1FC412FF1F044B054A1B689088D5
:1046B0001BB11A885B88D31A18447047D812FF1FA1
:1046C0003816FF1F0B4B1B789BB110B50A4C2068A6
:1046D00048B1FFF787FF002303202360FFF7A6F808
:1046E00030B1FFF77FFF0320FFF7A0F80028F8D1D3
:1046F00010BD7047C412FF1FD812FF1F2DE9F04FE5
:10470000DFF8F89083B0012289F80020019169B3A5
:10471000DFF8EC80364F019E8346D8F80000B0B336
:10472000344D4488C4F14001B14228BF314604EB06
:10473000010E00221FFA8EFE2A70761AA0F802E0FF
:1047400000F1080251B1013C224459441BF8014BCD
:1047500002F8014F8B45F9D1B0F802E0BEF13F0FEE
:104760000BD8254A05211170002ED6D101980023BF
:1047700089F8003003B0BDE8F08F40220280014686
:104780000420FFF7EBF80022C8F80020E9E73A78A8
:104790002AB3184D4DF2E9044FF0010A07E0013C3D
:1047A00016D02A78A2B900F0F9FB3A78BAB1042001
:1047B000FFF75AF80728F2D889F800A0FFF7F2FEB1
:1047C000C8F800000028ACD10C4B013C1870E8D1AF
:1047D00001234FF0FF302B7003B0BDE8F08F0023B2
:1047E0004FF0FF3089F8003003B0BDE8F08F00BF14
:1047F000C412FF1FD412FF1FCC12FF1FCD12FF1FC8
:10480000D012FF1F00B583B002AB012103F8010DE8
:104810001846FFF773FF03B05DF804FB38B50E4D83
:104820000E4C28680123237028B140880023237090
:10483000C0F1400038BD0A4B1B7813B9002020702E
:1048400038BD0420FFF710F80728F7D8FFF7AAFEB5
:1048500028600028E9D1F1E7D012FF1FCD12FF1F19
:10486000C412FF1FF8B5114B1B788BB1104E114DC0
:10487000346801272F7064B10F4A638800271770CE
:10488000214623800420FFF769F8376000232B704E
:10489000F8BDFFF787FE084B28B1014604201C70C5
:1048A000FFF75CF8F2E71F70F0E700BFC412FF1FCC
:1048B000D012FF1FCD12FF1FCC12FF1F38B50E4BB9
:1048C0001B7873B90D4C216861B103F0FF054B886B
:1048D0000B800420FFF742F8256038BD084B012209
:1048E0001A7038BDFFF75EFE0028F7D00146BDE81C
:1048F00038400420FFF732B8CD12FF1FD012FF1F3F
:10490000CC12FF1F10B4EFF3108272B6437F33B99D
:10491000017F012908D0032910D00123437702B970
:1049200062B65DF8044B7047114C2168A1B1114982
:1049300043610B68836108605861EEE70E4C2168A3
:1049400081B10E4943610B688361086058610C4B6B
:104950004FF080511960E0E7064B416181612060B2
:104960001860DAE7054B4161816120601860EEE76D
:10497000F012FF1FEC12FF1FE012FF1FE412FF1FD7
:1049800004ED00E010B4047F4160022CC26003D04B
:104990005DF8044BFFF7B6BF83685DF8044B18471A
:1049A00070B5EFF3108272B60C4C206880B10C4EDB
:1049B00000254369236073B19D6102B962B64577F2
:1049C00083689847EFF3108272B620680028F0D110
:1049D00002B962B670BD3360EFE700BFE012FF1F9F
:1049E000E412FF1FFFF7DCBF184A30B41468002C34
:1049F00027D0036821688B420ED2CB1A0021846035
:104A0000C1602360E06010600223037530BC704712
:104A100011688B42144608D3A2685B1A0360002A0F
:104A2000F6D18260C460A060EEE7D268C2608460A4
:104A3000E060C568CB1A0222A8602360027530BC12
:104A400070478460C4601060DEE700BFE812FF1F9B
:104A5000F8B5224E34682CB32368002B3AD1204F8E
:104A60001D4604E03468ECB12368002B32D1A36802
:104A700003B1DD6020693360036825751B68BB42A4
:104A800021D1037F4560022BC46020D0FFF73AFF9D
:104A90006368002BE6D023602046FFF7A5FF34684B
:104AA000002CE1D1EFF3108372B60E4A002110689A
:104AB000116003B962B628B18468FFF795FF2046FC
:104AC0000028F9D1F8BD224600219847E0E7836825
:104AD0009847DDE7013B2360E4E700BFE812FF1FD2
:104AE00085490000F812FF1F024A13680133136062
:104AF000FFF7AEBFE011FF1F0368C9B21B6818477C
:104B00000368C9B21B6818470368C9B21B68184715
:104B10000368C9B21B68184708B5084600F0A4FD31
:104B2000012008BD08B5084600F09EFD012008BD23
:104B300038B508460D4603F023FA044601462846D8
:104B400000F09CFD204638BD10B5084614461146BD
:104B500000F094FD204610BD00F06EBE08B508467A
:104B600000F05AFD003018BF012008BD08B5084606
:104B700000F030FD003018BF012008BD0846114686
:104B800000F0A4BC084600F0EBBC00BF084600F0F3
:104B900081BC00BF00F00ABC034B03EB5100B0FB2B
:104BA000F1F000F045BB00BF001C4E0E10B5064BE7
:104BB000144603EB5100B0FBF1F000F039FB204646
:104BC000BDE8104000F0BCBB001C4E0E00F01CBE47
:104BD00000F0E6BD00F0D4BD00F0B4BD00F0BEBDF5
:104BE000704700BF08B5084601F0A8F8012008BDCD
:104BF00008B5084601F0A2F8012008BD38B50846FE
:104C00000D4603F0BDF904460146284601F0EEF8D2
:104C1000204638BD10B508461446114601F0E6F8A6
:104C2000204610BD01F0C0B908B5084601F05EF895
:104C3000003018BF012008BD08B5084601F034F85F
:104C4000003018BF012008BD0846114600F0C4BF5F
:104C5000084600F0FBBF00BF084600F0A1BF00BF40
:104C600000F040BF034B03EB5100B0FBF1F000F04C
:104C70008FBE00BF001C4E0E10B5064B144603EB52
:104C80005100B0FBF1F000F083FE2046BDE810407B
:104C900000F0F2BE001C4E0E01F06EB901F038B902
:104CA00001F026B901F006B901F010B90368064A0F
:104CB0001B68934205D110B5C8B201F03FF801203E
:104CC00010BDC9B2184700BFF14B00000368064A87
:104CD0001B68934205D110B5C8B201F02FF801202E
:104CE00010BDC9B2184700BFF14B00000368064A67
:104CF0001B68934205D110B5C8B201F01FF801201E
:104D000010BDC9B2184700BFF14B00000368064A46
:104D10001B68934205D110B5C8B201F00FF801200D
:104D200010BDC9B2184700BFF14B0000704700BF6B
:104D300008B5084601F07CFB012008BD08B508460F
:104D400001F076FB012008BD38B508460D4603F09A
:104D500017F904460146284601F074FB204638BD89
:104D600010B508461446114601F06CFB204610BDF4
:104D700001F0F8BB08B5084601F03AFB003018BF57
:104D8000012008BD08B5084601F010FB003018BF2F
:104D9000012008BD0846114601F0DCBA084601F0C2
:104DA00003BB00BF084601F0B9BA00BF01F07EBAEC
:104DB000034B03EB5100B0FBF1F001F0F3B900BF7E
:104DC000000E270710B5064B144603EB5100B0FB4D
:104DD000F1F001F0E7F92046BDE8104001F030BAEB
:104DE000000E270701F0A6BB01F070BB01F05EBB0F
:104DF00001F03EBB01F048BB0368064A1B689342C2
:104E000005D110B5C8B201F013FB012010BDC9B225
:104E1000184700BF3D4D00000368064A1B689342D7
:104E200005D110B5C8B201F003FB012010BDC9B215
:104E3000184700BF3D4D00000368064A1B689342B7
:104E400005D110B5C8B201F0F3FA012010BDC9B206
:104E5000184700BF3D4D00000368064A1B68934297
:104E600005D110B5C8B201F0E3FA012010BDC9B2F6
:104E7000184700BF3D4D0000704700BF08B5FCF764
:104E8000DDFEFDF7EBFA00F089F8FAE702F030BD3D
:104E900002F036BDF8B50E4671B17AB10746144638
:104EA00000253B6816F8011B1B6838469847013CF3
:104EB0000544F6D12846F8BD0846F8BD1046F8BDB1
:104EC00000B5064A036812885B6883B001A9ADF893
:104ED00004200222984703B05DF804FB7C8D00009B
:104EE000F0B507468BB0002A33D0012A08BF0A224A
:104EF00051B3212400E0F4B2B1FBF2F502FB15112D
:104F0000C8B2092900F1300198BFC8B20AA988BF08
:104F10003730214488BFC0B201F8240C661E2946F0
:104F2000002DE8D133B1013CE4B20AAB23442D2279
:104F300003F8242C3B6801AA11195B683846C4F1B8
:104F4000220298470BB0F0BD30228DF82520212495
:104F5000E8E70368C9B21B6898470BB0F0BD00BF13
:104F60000029BABF49422D2300230A22FFF7B8BF08
:104F7000FFF7A8BBFFF780BBFFF75ABBFFF794BB57
:104F8000FFF770BCFFF74ABC08461146FFF7B6BBF7
:104F90000846FFF737BC00BF704700BF38B52C4C40
:104FA000237803B138BD01232370FFF77DFB002870
:104FB00042D100F0E5FB00283BD100F099FF00282A
:104FC00034D101F073FA70BB01F04AFB40BB01F031
:104FD000C3FB10BB01F03CFCE0B900232370EFF3EE
:104FE0000583002BDED1EFF3108172B6194B1868E0
:104FF00028B3194C227812BB45691D600123237028
:105000000DB3AA6101B962B6002545778368984758
:105010002570C7E701F0DAFCDFE701F0D5FCD9E73E
:1050200001F0D0FCD3E7FFF727FFCDE7FFF77EFEC7
:10503000C7E7FFF7D5FDC0E7FFF7AEFFB9E70029E7
:10504000B0D162B638BD054B1D600029DCD1DAE76E
:10505000FC12FF1FF012FF1FF412FF1FEC12FF1FC4
:1050600030B42948294A2A4B2A4D6024E121047092
:1050700011701B78284C082B30D00A2B2748284960
:1050800037D00C2B0CBF35225D2212232A602360FF
:1050900002600B60234B24491B78244ABBB10123D7
:1050A0000B601360224B23491B78234A012B26D91E
:1050B000042B0FD9082B1ED9102B94BF86238723CE
:1050C0000B6013601D4B01221A7030BC70470B60DF
:1050D0001360E7E784230B601360F3E700F58E208D
:1050E0000F490830212213232A60236002600B60DD
:1050F000D0E73922F7E785230B601360E2E78023CE
:105100000B601360DEE700BF00400740014007402E
:105110008408FF1F08B003400CB0034008B00B40E8
:105120000CB00B40FE12FF1F20B0034020B00B401C
:105130008508FF1F24B0034024B00B40FD12FF1F61
:10514000F0B44D1E2E46002400E00134B0FBF2F313
:1051500002FB1300092800F130078ABF3730F8B28C
:10516000C0B206F8010F1846002BEED10A19537091
:105170004CB1107815F8016F28700133E01A8342A2
:1051800002F80169F5DB0846F0BC70472DE9F84FDD
:10519000214B1B6807460BB101221A70DFF888907B
:1051A0001E4D99F80040DFF884801D4E01343F2CDD
:1051B0008ABF4FF0000A5FFA84FA5446AB462B7858
:1051C000A34216D1FEF782F940281FDC33791B0673
:1051D000F5D59BF8003001333F2B86BF00221346E4
:1051E000DAB218F80330DBB2F3712A702B78A342DD
:1051F000E8D00C490A4BFFB208F804700120BC2229
:10520000087089F800A0DA70BDE8F88FFF28D6DDB5
:10521000FFF7C4FED3E700BF9013FF1F8D13FF1FDE
:1052200000A006408C13FF1F9413FF1F0813FF1FDD
:10523000324A33491368F0B543F4806313600A7847
:10524000304F314E314D324C32490023152A3B70DC
:1052500033702B7023700B7045D01B2A3ED082B365
:105260002D4B1B78052B34D01A2B41D0012B1BD092
:105270001F281FD8002002460125284B284C1A70F1
:1052800028495D7004224FF0020E88273C264025F5
:1052900098729A704FF0004083F813E05A751F74AB
:1052A000DE7025700860F0BD1F4B4FF451721F284F
:1052B0001A60DFD9C0F34432C0F3471500F01F0075
:1052C000DBE71A4B40F213321A60134B1B78052BA5
:1052D000CAD1174B4FF451721A60C9E7154B40F20F
:1052E00013321A60BCE7144B40F213321A60B7E76E
:1052F000124B4FF451721A60BAE700BF3480044079
:105300004813FF1F0413FF1F0513FF1F9413FF1FF4
:105310008D13FF1F8C13FF1F8608FF1F00A0064080
:105320001FE400E000E100E044A0044040A004408D
:105330001CC004403C90044018C004403890044015
:10534000194B19499B7803F0EC0200F00303134357
:10535000420700F00F0248BF43F01003042A8B708D
:105360001CD0114B104A5B79C10603F0EF0348BF14
:1053700043F0100353719379820603F0EF030A4A56
:1053800048BF43F010039371C30506D553781178D5
:10539000DBB241F020011170537070478B7943F0FC
:1053A00040038B71DDE700BF00A006402A4B1B685D
:1053B0005B0536D510B5294C237823B1FFF7EEFDF8
:1053C0002378002BFAD12648264A274B4FF0004479
:1053D00000210460D1701B78152B23D01B2B35D0F6
:1053E0001BB9224B40F203121A60214B1B7803F0C9
:1053F0007F03052B20D01A2B23D0012B03D11D4B6B
:1054000040F203121A601C4A164B1C481C491268D1
:105410001C79DB79002303700B700AB10123137030
:1054200010BD7047174B40F203121A60104B1B78E7
:1054300003F07F03052BDED1134B40F203121A60F9
:10544000E1E7124B40F203121A60DCE7104B40F226
:1054500003121A60C9E700BF348004408C13FF1F99
:1054600080E100E000A006404813FF1F40A0044078
:105470008608FF1F44A004400013FF1F0413FF1FF2
:105480000513FF1F18C004401CC00440389004409E
:105490003C9004400A4A38B50546137803F0FF04EF
:1054A000002BFAD101212846FEF7B6F821462846FE
:1054B000FEF79EF8034A044B52F835201A6038BDB7
:1054C0008C13FF1F5C8A00009013FF1F09B140F08E
:1054D00080001E4A137898421BD010B41C4C2468DC
:1054E000640513D503F07F03052B2AD01A2B24D093
:1054F000012B14D0002900F07F0114BF6023442346
:10550000052915D01A290ED0012903D010705DF895
:10551000044B70470F4943F440730B60F6E70D4BA3
:1055200000241C60E6E70C4943F440730B60EDE790
:105530000A4943F440730B60E8E7074B00241C6002
:10554000D8E7064B00241C60D4E700BF8608FF1F85
:105550003480044044A00440389004401CC00440FF
:10556000174A137883420ED016490968490509D5B0
:10557000152B20D01B2B1AD05BB115280DD01B2862
:1055800010D008B1107070470F4B40F21331196002
:10559000F8E70D4915280B60F1D10C4B40F213319F
:1055A0001960EFE70A4B40F213311960EAE7084B44
:1055B00000211960E1E7054B00211960DDE700BF1C
:1055C0004813FF1F3480044040A0044018C004402A
:1055D0003C9004400D4B1B6813F4806305D03F28BA
:1055E00005D90B4B00201860704718467047094BCF
:1055F00010B5074C53F8303023600121FEF70CF84A
:10560000236800221A70012010BD00BF34800440BE
:105610000013FF1F5C8A00000F4B1B6813F48063AC
:1056200008D0122808D0142811D00C4A537B03F05C
:10563000FE03537300207047094B40F202321A6098
:10564000064A537B43F00103537301207047054B17
:1056500040F202321A60F3E73480044000A00640B2
:105660000CA0044014C00440034B1B685B0501D52B
:10567000FFF78CBD704700BF348004402DE9F84F20
:10568000294B1B685A0548D5284B1B6805460BB1AA
:1056900001221A7005EB010A554540D2DFF89C80C3
:1056A000234CDFF89C90234F0AE015F8012B09F8F2
:1056B0000B20214A0123AA45137088F800602ED0E0
:1056C00098F80030227803F1010BBBF13F0F86BF41
:1056D0000026B3465FFA8BF69345E6D1BC22FA70FA
:1056E00005E03A7913060BD422789345DDD1FDF716
:1056F000EDFE4028F5DDFF28F6DDFFF74FFCF3E770
:10570000227801323F2A86BF00210A46D1B219F819
:105710000220D2B2FA712170E6E7BDE8F88F054B9E
:10572000BC22DA70BDE8F88F348004409013FF1F6C
:105730008D13FF1F00A006408C13FF1F9413FF1F43
:105740000813FF1F10B5044C237823B1FFF726FC84
:105750002378002BFAD110BD8C13FF1F064A074B8C
:105760001B781078DBB2C0B283422CBF3F3000F10F
:10577000FF30C01A704700BF8D13FF1F9413FF1F27
:10578000054A064B10781B78C0B2DBB2984238BF8E
:105790004030C01A704700BF0413FF1F0513FF1FDE
:1057A00030B4154B154C1A782378D2B2DBB29A423A
:1057B0001ED001333F2B0ED91149124B08781968BE
:1057C0000023C0B2237021B1D31A1A2B01DC0023AD
:1057D0000B7030BC70470A480A49C05C0968DDB2EA
:1057E000C0B225700029F4D09A4238BF4032EBE7AE
:1057F0004FF0FF30EDE700BF0413FF1F0513FF1F3D
:105800004C13FF1F0013FF1F084A094B12781B7827
:10581000DBB29A4207D00133402B28BF0023054A50
:10582000D05CC0B270474FF0FF3070470413FF1FC9
:105830000513FF1F4C13FF1F0D4B1B685B0516D58F
:1058400030B40C4B0C4CDA780C480D4902F0CB020A
:105850004025DA705D74DA7842F03402DA70237829
:105860000268DBB20B700AB10023137030BC7047C2
:105870003480044000A006400513FF1F0013FF1FE3
:105880000413FF1FF0B4384B1A7912F0300F2CD0EC
:1058900072B6997D01F0FF0200293DD062B6334F08
:1058A000334938780D78334E1C46C0B2EDB2431CF4
:1058B000402BE17928BF0023AB4202F1FF32C9B28D
:1058C0001CBFF154184612F0FF02F0D12A4B1B689E
:1058D000C2B23A704BB1A84236BFC5F14005401B79
:1058E00040192728C4BF01221A701F49CA78D2B2B2
:1058F000150616D452060DD51B4B1B795B0609D530
:105900001E4B1F491B6800220A7003B11A70164B08
:105910003C22DA70F0BC70474022D9795A7462B6E2
:10592000E3E70B791C06E5D5164B174E1C78337848
:10593000E4B2DBB29C420ED0144D01E0A3420AD087
:105940000133402B28BF00230879E85CC0B2C8713E
:10595000087D0728F2D9DBB2034933700B791806AA
:1059600044BF7C23CB70C5E700A006400413FF1F93
:105970000513FF1F4C13FF1F0013FF1F9013FF1F82
:105980008C13FF1F9413FF1F8D13FF1F0813FF1F9E
:105990002A4A2B491368F0B443F4006313600A7871
:1059A000284F294E294D2A4C2A490023092A3B70A9
:1059B00033702B7023700B703AD03B2A1ED0264BCD
:1059C0001B780A2B22D03A2B2DD01F2824D8002058
:1059D00002460126214B224D1A70224C5E70042192
:1059E0009872022288273C2640209970DA745975F3
:1059F0001F74DE7028702260F0BC70471A4B40F2B2
:105A000013321A60144B1B780A2BDCD1174B4FF45E
:105A100051721F281A60DAD9C0F34432C0F3471616
:105A200000F01F00D6E7124B4FF451721A60CCE71A
:105A3000104B40F213321A60C1E700BF34800440BB
:105A40008708FF1F0814FF1F9D13FF1F1014FF1F5F
:105A50000914FF1F9C13FF1F8808FF1F00B006409A
:105A600021E400E004E100E004D0044010B0044070
:105A700000D004400CB00440194B19499B7803F046
:105A8000EC0200F003031343420700F00F0248BF8B
:105A900043F01003042A8B701CD0114B104A5B7921
:105AA000C10603F0EF0348BF43F01003537193792D
:105AB000820603F0EF030A4A48BF43F010039371D4
:105AC000C30506D553781178DBB241F0200111707F
:105AD000537070478B7943F040038B71DDE700BF53
