:10000000F8FF02209901000035370000ED360000AE
:10001000ED360000ED360000ED360000ED36000054
:10002000ED360000ED360000ED36000035370000FB
:1000300035370000ED360000DD510000E1520000D0
:100040003537000035370000353700003537000000
:1000500035370000353700003537000035370000F0
:1000600035370000353700003537000035370000E0
:1000700035370000353700003537000035370000D0
:1000800035370000353700003537000035370000C0
:1000900035370000353700003537000035370000B0
:1000A00095350000A13500003537000035370000D8
:1000B0003537000035370000353700007961000022
:1000C00035370000E9680000353700007D6E00001C
:1000D000353700004D3F0000353700003537000050
:1000E0003537000035370000353700003537000060
:1000F0003537000035370000353700003537000050
:10010000353700003537000035370000353700003F
:1001100035370000D9410000353700003537000081
:10012000353700003537000035370000353700001F
:10013000353700003537000035370000353700000F
:100140003537000035370000756F00003537000087
:100150006D7000003537000035370000353700007E
:100160003537000035370000AD3500003537000069
:1001700035370000353700003537000035370000CF
:1001800035370000353700003537000035370000BF
:100190003537000035370000584B4CF2205210B56F
:1001A0001A804DF628121A8000BF00BF03F0C6FA6D
:1001B000534B4FF030621A60524A9A60524ADA60EA
:1001C000524B4FF470021A60514A136813F4807353
:1001D00004D150490B604FF4A85313604E4B1A786A
:1001E000110703D51A7842F008021A704B4B4C499C
:1001F0002A221A704B4A4C4B8B4204D252F8040FFD
:1002000043F8040BF8E7494B494900228B4202D2DC
:1002100043F8042BFAE74749474A002352F82300E2
:1002200041F823000133662BF8D1444B444A802126
:1002300003F8011B9342FBD1424B3E4A1A60424BEA
:100240008A221A70A3F5805324225A70A0221A70B1
:100250009A799207FCD59A79D406FCD43B4A9379D3
:1002600003F00C03082B394BF9D103221A714622F3
:100270005A719A799006FCD5344A9179334B4906E4
:10028000FBD5334A4FF08271116009215160202261
:100290001A709A7902F00C020C2AFAD12D4B2E4AD0
:1002A0001A602E4B2E4A1A6000225A60072243F829
:1002B000042C2C4AC3F80C2D62B603F0FFFC154B3E
:1002C0001B68DA0705D5284803F0D8FA274B284AD7
:1002D0001A60284B1B785B0609D5244C244B2268F6
:1002E0009A4204D1204803F0C9FA0023236007F0A2
:1002F000D3FE03F029FA05F0BDF9FEE70E20054014
:1003000030800440823F04000100002B88ED00E0B3
:1003100010D0034014D0034002D0074000E0074053
:100320007411FF1F34960000F806FF1F7411FF1FA1
:100330007416FF1F0002FF1F0000000000E400E031
:1003400056E400E008ED00E00050064000400640A2
:100350004480044004800440C010050014E000E024
:10036000BFD40100000020207B961C5D1CE00340F0
:10037000A5C3945A00F00740FFFFFFFFFFFFFFFFF8
:10038000FFFFFFFFFFFFFFFFFFFFFFFFFFFFFFFF7D
:10039000FFFFFFFFFFFFFFFFFFFFFFFFFFFFFFFF6D
:1003A000FFFFFFFFFFFFFFFFFFFFFFFFFFFFFFFF5D
:1003B000FFFFFFFFFFFFFFFFFFFFFFFFFFFFFFFF4D
:1003C000FFFFFFFFFFFFFFFFFFFFFFFFFFFFFFFF3D
:1003D000FFFFFFFFFFFFFFFFFFFFFFFFFFFFFFFF2D
:1003E000FFFFFFFFFFFFFFFFFFFFFFFFFFFFFFFF1D
:1003F000FFFFFFFFFFFFFFFFFFFFFFFFFFFFFFFF0D
:10040000FFFFFFFFFFFFFFFFFFFFFFFFDEF9FFFF23
:1004100010B5054C237833B9044B13B10448AFF33E
:1004200000800123237010BD7411FF1F0000000025
:1004300038960000084B10B51BB108490848AFF3C7
:1004400000800848036803B910BD074B002BFBD0A0
:10045000BDE81040184700BF000000007811FF1FE2
:10046000389600007411FF1F00000000704700BFA5
:10047000836842680149012002F00EBC888C0000AC
:10048000836842680149012002F006BCB48C000078
:1004900008B5426883680349012002F0FDFB002093
:1004A00008BD00BFDC8C0000836842680149012060
:1004B00002F0F2BBB48C00000346007B997303F09A
:1004C00073BB00BF10B50446007B03F073FBE37BF6
:1004D000A073834201D0012804D0003018BF01204E
:1004E000E07310BD01460D2003F05EFB23699847C1
:1004F000A07B003018BF0120E07310BD10B504468A
:10050000007B03F057FBA07310BD00BF0346007BC8
:10051000597303F05DBB00BF30B54FF47A7383B0FD
:10052000013BFDD142690369511C01BF204A126899
:100530000092009AD31A002B31DD1E4C017B01235F
:100540001A460546204602F017FF94F8392094F821
:10055000383093420DD124E00A7E84F83830131CE1
:1005600018BF01236B7394F8392094F838309A42FD
:100570000DD09A4204EB030103F10103ECD80123EF
:100580006B7394F8392094F838309A42F1D1084BC3
:100590001B680193019B2B614FF0FF336B6103B02C
:1005A00030BDAB686A680449022002F075FBEEE7D3
:1005B0000012FF1F6407FF1F0C8D0000F0B5426A98
:1005C000036A511C08BF284A83B002BF1268009218
:1005D000009AD31A002B44DD244C017B05460123ED
:1005E0002046102202F0C8FE94F8391094F83830F2
:1005F0008B4218BF05F10C0619D124E094F838306D
:100600006FF0FF00E71899424FF0FF0288BF3A7E73
:1006100003F1010342EA000288BF84F8383026F86B
:10062000022F94F8391094F83830994211D0994239
:1006300004EB0302E2D9013392F91820DBB284F80B
:1006400038301002DEE7AB686A680949022002F020
:1006500023FB054B1B680193019B2B624FF0FF337B
:100660006B6203B0F0BD00BF0012FF1F6407FF1FE5
:100670000C8D000070B5C2698369511C08BF244A03
:1006800082B002BF12680092009AD31A002B32DDAA
:10069000204D017B01231A460646284602F06CFED7
:1006A00095F8392095F838309A4218BF06F10C00B9
:1006B00026D09A4221D9EA180133127E85F83830C3
:1006C000144672750146002344FA03F2013302F026
:1006D0000102082B01F8012FF6D195F8392095F881
:1006E00038309A42E5D10A4B1B680193019BB361F4
:1006F0004FF0FF33F36102B070BDFF242246E0E704
:10070000B36872680449022002F0C6FAEBE700BF42
:100710000012FF1F6407FF1F0C8D0000704700BF11
:100720000C4B1B689A7B012A0AD01A680A48526847
:1007300082424FF001010AD1187B997303F034BA59
:100740001A680548526882424FF00001F4D01846FA
:10075000104700BFB811FF1FB9040000114B1B6800
:10076000B3F90E2082B012B9B3F9102052B10022B1
:100770000121DA811A825A825A75197583F8241078
:1007800002B07047B3F91220002AF0D101218DF890
:1007900007208DF80610BDF806109A8A9142E6D11E
:1007A000EEE700BFA411FF1F0D4B0E491B680E485A
:1007B0001A68526810B58A424FF00004047008D1DC
:1007C0000121187B997303F0EFF9BDE81040FFF7A2
:1007D000C5BF184601219047BDE81040FFF7BEBFD6
:1007E000B811FF1FB9040000A011FF1F30B5134B53
:1007F000197883B0D1B9124A124812681468646833
:10080000012584421D7015D1107B917303F0CCF942
:100810000D4A0E4B1268019201990D4A19604FF072
:10082000FF3000215860117003B030BDFFF7BCFFEE
:1008300003B030BD1046A047EAE700BFA011FF1F7C
:10084000B811FF1FB90400000012FF1F9011FF1F15
:10085000F011FF1F70B50E4E0E4D82B000244FF404
:100860007A73B360347303F0B9F96423AB607060DA
:100870002C7303F0B3F9084A084B12680192019AED
:1008800068604FF0FF319C6059601A6002B070BD23
:10089000C411FF1FA811FF1F0012FF1F9011FF1F9F
:1008A00030B5026CC36B511C08BF374A8DB002BF14
:1008B00012680292029AD31A002B5BDD044603A948
:1008C0002C3002F0AFF80A9B0898099DA3612061C3
:1008D000656107F09DF8CDE90001284607F098F81A
:1008E0009DED001B41EC100B06F070FC51EC100B61
:1008F00007F07CFBD4ED0A7ADFED246ADFED245AA1
:1009000007EE100A77EE277AF5EEC07AF1EE10FACC
:1009100044BF9FED207A77EE877A9FED1E7AF4EE42
:10092000C77AF1EE10FAC8BF77EEC77A94ED097A6C
:1009300067EEA67A87EEA56A76EE477A84ED076AB7
:10094000F4EEE67AF1EE10FAA4BF9FED137A77EE9B
:10095000C77A9FED127AC4ED087AF4EEC77AF1EE09
:1009600010FA09D9084B1B680393039BE3634FF00C
:10097000FF3323640DB030BD9FED077A77EE877AA1
:10098000C4ED087AEEE700BF0012FF1F00003443F9
:10099000DB0F4940DB0FC9400000B443000034C303
:1009A0002DE9F04F2DED028BCC4BCD4C1A78DFF8B2
:1009B00094A3CC4DD34303F001035340C74ABFB0C7
:1009C0001020137004F05EFE2268C74B4360074698
:1009D00000264FF001080D2302EB080E4146BA60D5
:1009E0001846C7F800A03B7387F80D80BE73C4F8A3
:1009F00000E003F0EDF8BD4B3B60BD4B28201F60CD
:100A000004F040FE2B68139307462068DDF84CE0A5
:100A10002B68149300EB08020A234FF0FF3978602B
:100A20004FF00C0B1498B34922604FF47A72C7F858
:100A300008E07A8487F820303960786141461846AA
:100A40003E61FE6187F8246087F82560C7F80C9046
:100A5000C7F8189087F821B0009303F0B9F8414621
:100A6000584603F0B5F84146584603F09DF8009B00
:100A70004146184603F098F89F4BA0481F60262176
:100A800004F038FA9E4804F017FE4FF4FA6003F0C1
:100A9000C7F817219B4804F02DFA994804F00CFE82
:100AA000142004F0EFFD07462068974AC7F800A01D
:100AB0001B2300EB080E3146B8607A6018463B7382
:100AC0007E73BE73C4F800E003F082F88F4B904A47
:100AD0003B61904B3B60FE731420176004F0D2FD25
:100AE0002268DFF864E2C0F800A007461A2302EB90
:100AF000080C1846BA60C7F804E03B7331467E73B1
:100B0000BE73C4F800C003F063F8DFF840C2DFF83A
:100B100040E2804BC7F810E03B60082233460721D3
:100B2000FE732CA8CCF8007002F06EF91C2004F0C3
:100B3000A9FD2A68236812928046C0F81090DFF859
:100B400014C2129AC8F800C02CA803F1010EC8F80C
:100B50000C204FF41651C8F80800C8F80430C8F843
:100B6000146088F8186088F81960C4F800E002F092
:100B700091F9694B694FC3F80080142004F082FD9D
:100B80002368674A06748046591CC8F80020C8F8D4
:100B9000043041F66A00216003F024F9614B3820EB
:100BA000C3F8008004F06EFD23685F498046192277
:100BB0005E48C8F80830C8F80410013388F80C20E3
:100BC000C8F80070236008F11C0A02F0F3F9002352
:100BD000574AC8F81030C8F81430C8F81830C8F8A8
:100BE000002050464DF2314101F090FE2B681193E8
:100BF000119BC8F830905046C8F83460C8F82C30C3
:100C000001F0A2FF38B9D8F80830D8F804204949D3
:100C1000032002F041F8484B9FED488AC3F800805A
:100C2000D42004F02FFD2368454A026006465A1C72
:100C300073601020226004F025FD2268DFF818E1BF
:100C4000B060034640F2FF38511CC3F800E05A6020
:100C5000A3F8088083ED038A1020216004F012FDC0
:100C60002268DFF8F8E0A0F808800346511CF36022
:100C7000C3F800E05A6083ED038A1020216004F07D
:100C800001FD2268DFF8D8E0A0F808800346511C77
:100C90003361C3F800E05A6083ED038A10202160BD
:100CA00004F0F0FC2268DFF8BCE0A0F808800346FE
:100CB000511C7361C3F800E05A6083ED038A102071
:100CC000216004F0DFFC2268DFF89CE0A0F80880D7
:100CD0000346511CB361C3F800E047E0FC11FF1F5D
:100CE000D811FF1F0012FF1F3C8D00000C8C00006C
:100CF000B811FF1F488D0000E811FF1F508D000044
:100D00007808FF1F788D0000908D0000ED0700002F
:100D1000F411FF1FF88B0000E411FF1F208C00006E
:100D2000B08D0000EC11FF1FB88D00006407FF1F9D
:100D3000308C0000C88D0000DC11FF1F0000000097
:100D4000E48D0000E48B00009C8D0000BC11FF1FAF
:100D50001D070000A88D0000F08D0000F88D000038
:100D6000008E0000088E0000108E00005A6083ED97
:100D7000038A1020216004F085FC2268DFF8E8E592
:100D8000A0F808800346511CF361C3F800E05A60E4
:100D900083ED038A1020216004F074FC2268DFF8E0
:100DA000CCE5A0F808800346511C3362C3F800E08C
:100DB0005A6083ED038A1020216004F063FC2268EE
:100DC000DFF8ACE5A0F808800346511C7362C3F855
:100DD00000E05A6083ED038A1020216004F052FC89
:100DE0002268DFF890E5A0F808800346511CB36242
:100DF000C3F800E05A6083ED038A1020216004F0FC
:100E000041FC2268DFF870E5A0F808800346511C19
:100E1000F362C3F800E05A6083ED038A102021607A
:100E200004F030FC2268DFF854E5A0F8088003469F
:100E3000511C3363C3F800E05A6083ED038A10202D
:100E4000216004F01FFC2268DFF834E5A0F8088078
:100E50000346511C7363C3F800E05A6083ED038AB4
:100E60001020216004F00EFC2268DFF818E5A0F8DD
:100E700008800346511CB363C3F800E05A6083ED59
:100E8000038A1020216004F0FDFB2268DFF8F8E4FB
:100E9000A0F808800346511CF363C3F800E05A60D1
:100EA00083ED038A1020216004F0ECFB2268DFF858
:100EB000DCE4A0F808800346511C3364C3F800E06A
:100EC0005A6083ED038A1020216004F0DBFB226866
:100ED000DFF8BCE4A0F808800346511C7364C3F833
:100EE00000E05A6083ED038A1020216004F0CAFB01
:100EF0002268DFF8A0E4A0F808800346511CB36420
:100F0000C3F800E05A6083ED038A1020216004F0EA
:100F1000B9FB2268DFF880E4A0F808800346511C82
:100F2000F364C3F800E05A6083ED038A1020216067
:100F300004F0A8FB2268DFF864E4A0F80880034608
:100F4000511C3365C3F800E05A6083ED038A10201A
:100F5000216004F097FB2268DFF844E4A0F80880E1
:100F60000346511C7365C3F800E05A6083ED038AA1
:100F70001020216004F086FB2268DFF828E4A0F846
:100F800008800346511CB365C3F800E05A6083ED46
:100F9000038A1020216004F075FB2268DFF808E462
:100FA000A0F808800346511CF365C3F800E05A60BE
:100FB00083ED038A1020216004F064FB2268DFF8CF
:100FC000ECE3A0F808800346511C3366C3F800E048
:100FD0005A6083ED038A1020216004F053FB2268DD
:100FE000DFF8CCE3A0F808800346511C7366C3F811
:100FF00000E05A6083ED038A2C20216004F042FB5C
:101000002368DFF8B0E3DFF8B0B381460221C9F806
:1010100004E05A1C89F80C10C9F80830C448C9F813
:101020000070226001F0C6FF4A462B6842F80EBBF2
:1010300017934FF0000A4FF0FF381799C9F80EA028
:10104000C6F86890C2F804A0C2F808A0C2F80CA0C4
:101050002C20C9F82010C9F828A0C9F8248004F071
:1010600011FB81462268B34BC9F804304FF00303EB
:1010700089F80C30511CC9F80820AD48C9F8007037
:10108000216001F097FF4A46296842F80EBB16918D
:101090001699C9F80EA0C6F86C90C2F804A0C2F860
:1010A00008A0C2F80CA02C20C9F82010C9F8248090
:1010B000C9F828A004F0E6FA22689F4981464FF05B
:1010C000040E89F80CE0C9F80410C9F80820511C76
:1010D0009748C9F80070216001F06CFF4946F36839
:1010E0002A68B367336941F80EBB1592F367B2689B
:1010F000B36915987267C6F884307269736AC9F863
:101100000EA0C6F88020C1F804A0C1F808A0C1F85C
:101110000CA0F26AF169C9F82000C6F89030306A74
:10112000B36AC6F87090C6F88810C6F88C00C6F886
:101130009430C9F82480C9F828A0C6F89820326BEA
:10114000B36BC6F8A430F36BC6F8A830B36C716B00
:10115000C6F8B430F36CC6F89C20C6F8A010326C08
:10116000716CC6F8B830B36DC6F8AC20C6F8B010D4
:10117000326D716DC6F8C430F36DC6F8BC20C6F888
:10118000C010326E716EC6F8C8306C4BC6F8CC20F9
:10119000C6F8D0101C201E6004F074FA2268684B58
:1011A000DFF8189206464FF0050E86F80CE0511C49
:1011B0007360B2605E483760216001F0FBFE2A6810
:1011C0001092604B6049109A3160326186F80DA030
:1011D000C6F81480C6F818A014201E6004F052FA55
:1011E00022685A4901608346511CCBF80420242010
:1011F000216004F047FA06462268554971600621CD
:101200003173B260511C4A483760216001F0D2FE50
:1012100031462A6841F80D9B1A921A9ACBF8086059
:10122000C6F80DA02420C1F804A0B26186F815A06C
:10123000C6F81C80C6F820A004F024FA2168454AAC
:10124000426007220646027381604A1C07603848E4
:10125000226001F0AFFE31462A6841F80D9B1992D9
:10126000199ACBF80C60C6F80DA02420C1F804A090
:10127000B26186F815A0C6F81C80C6F820A004F05C
:1012800001FA2168344A42600822064602738160EE
:101290004A1C07602648226001F08CFE324629680D
:1012A00042F80D9B18911899DFF81491CBF8106053
:1012B000C6F80DA04820C2F804A0B16186F815A0B8
:1012C000C6F81C80C6F820A0C9F800B004F0DAF90E
:1012D00006462268214971601E2115483173B260AB
:1012E000511C3760216006F12C0B01F063FE1C4A93
:1012F0001C493160B26286ED048A86ED058A86ED6E
:10130000068A86ED078A86ED088A86ED098A5846A0
:1013100043F2390101F0FAFA2A680F920F9AC6F8DF
:1013200040805846C6F844A0F26301F00DFC4DE041
:101330006407FF1FBC8E0000C88E00009C11FF1FB9
:10134000D48E0000D411FF1F408C0000E08E0000FE
:10135000F08E0000008F0000108F0000208F000032
:1013600039E4603E608C0000188E0000208E000082
:10137000288E0000308E0000388E0000408E000065
:10138000488E0000508E0000588E0000608E0000D5
:10139000688E0000708E0000788E0000808E000045
:1013A000888E0000908E0000988E0000A08E0000B5
:1013B000A88E0000B08E0000808C0000508C0000D1
:1013C000C011FF1F00003443DB0F4940002800F02C
:1013D000198435A9584601F025FB3C9B3A98DDF865
:1013E000EC80B3613061C6F8148006F011FBCDE9E2
:1013F0000001404606F00CFB9DED001B41EC100B7C
:1014000005F0E4FE51EC100B06F0F0FDD6ED0A7A83
:101410001FED147A5FED146A06EE100A76EE277A55
:1014200067EE877A87EEA67A86ED097ABF4BDFF8FA
:1014300034831E60282004F025F92368BC4A064640
:1014400005213760726031735A1CB360B94822605D
:1014500001F0B0FD2B680E93B74A0E9B3260002757
:101460004FF0FF32F261B3612C21376286F82470AD
:10147000B248C8F8006003F03DFDB148AD4C04F03F
:101480001BF9B04BB0491E682B680D933846B36802
:1014900072680D9F01F000FC4FF0010A337BA548F4
:1014A00084F85EA05B00012184F83B3084F85DA0E5
:1014B00001F0D8FE002840F033832B680B930B9B80
:1014C000DF1BB7F57A7F40F34383B36872689F49A7
:1014D000032001F0E1FB00230693D8F800602B689D
:1014E0000A937268B36898490A9F002001F0D4FB00
:1014F0004FF00108337B8F4884F85E805B00012148
:1015000084F83B3084F85D8001F0ACFE002840F0A8
:10151000FA822B680893089BDF1BB7F57A7F40F3AC
:101520000C83B3687268894900260320059601F090
:10153000B3FB0796D9F80070854997E80C000020A6
:1015400001F0AAFBBE6829682391B36872687E49DE
:10155000DDF88C80002001F09FFB4FF00109337B08
:10156000744884F85E905B00012184F83B3084F875
:101570005D9001F077FE002840F0B7822B68219340
:10158000219BC8EB0308B8F57A7F40F3F482B36877
:1015900072686E4903204FF0000901F07DFBCDF821
:1015A0000090FE682B6820937268B3686649DDF886
:1015B0008080002001F070FB4FF0010A337B5D4812
:1015C00084F85EA05B00012184F83B3084F85DA0C4
:1015D00001F048FE002840F07A822B681E931E9B83
:1015E000C8EB0308B8F57A7F40F3BA82B368726833
:1015F000564900260320039601F04EFBB2463E6991
:101600002B681D937268B3684F49DDF874B00020F1
:1016100001F042FB4FF00108337B464884F85E80BE
:101620005B00012184F83B3084F85D8001F01AFEF4
:10163000002840F03E822B681B931B9BCBEB030BD7
:10164000BBF57A7F40F3AB82B36872683F490320F1
:1016500001F022FB00239B463E4A127889EA0209E8
:1016600009F0200982EA0909039A82EA090808F0C8
:10167000400889EA080883EA080323F07F0388EA20
:101680000308344B83F80080009B002B00F0D882C5
:10169000BAF1000F40F0A18297E80C002E49032018
:1016A00001F0FAFABB685E68304607F049F8014677
:1016B000304603F01FFC0221284803F01BFC284899
:1016C000072103F017FC1E48DFF89C80244E03F02E
:1016D000F3FFFB68D3F80490484607F031F8014661
:1016E000484603F007FC02211C4803F003FCBAF152
:1016F000000F0BBF042107214046304603F0FAFBE0
:101700000F4803F0D9FF3B695F68384607F018F8C7
:101710000146384603F0EEFB0221104803F0EAFBD5
:10172000BBF1000F08BF404620E000BFE011FF1FE3
:10173000288F00006407FF1F708C0000308F0000AE
:101740007808FF1FD411FF1F608F0000C88D0000B4
:10175000788F0000FC11FF1FCC900000908F0000DC
:101760002C8D0000A411FF1F348D000016BF3046E1
:101770000421072103F0BEFBB44803F09DFF009B4A
:1017800033B9BAF1000F03D1BBF1000F00F085822D
:101790003621AF4803F0AEFBAC4803F08DFF4FF0AD
:1017A000000BAC4BAC49D3F80080002098E80C004B
:1017B00001F072FAD8F868602968B36872683591E8
:1017C0000020A649359F01F067FA4FF00109337BED
:1017D000A34884F85E905B00012184F83B3084F8D4
:1017E0005D9001F03FFD002840F056812B682A9360
:1017F0002A9BDF1BB7F57A7F40F3C781B368726815
:10180000984903204FF0000A01F046FACDF80CA0E9
:10181000D8F86C602B6829937268B3688F49299F48
:10182000002001F039FA4FF00109337B8C4884F82D
:101830005E905B00012184F83B3084F85D9001F0FC
:1018400011FD002840F0F5802B682793279BDF1BB4
:10185000B7F57A7F40F3B681B36872688149002694
:101860000320049601F018FA0096D8F870602B68EF
:1018700026937268B3687949269F002001F00CFA1C
:101880004FF00109337B764884F85E905B000121BC
:1018900084F83B3084F85D9001F0E4FC002840F0CF
:1018A000BB802B682493249BDF1BB7F57A7F40F322
:1018B0008081B36872686B49032001F0EDF9002361
:1018C0001C46694A12788AEA020A0AF0020A82EA87
:1018D0000A0A049A82EA0A0909F004098AEA09094B
:1018E00083EA090303F0080389EA03095E4B83F8DE
:1018F0000090039B002B00F08C81009B002B40F09C
:10190000778198E80C005949032001F0C5F9D8F80F
:1019100068305D68284606F013FF0146284603F04C
:10192000E9FA0221524803F0E5FA5248072103F090
:10193000E1FA4648504E4F4D03F0BEFED8F86C30E9
:101940005F68384606F0FCFE0146384603F0D2FADE
:101950000221474803F0CEFA009B002B0BBF042165
:1019600007213046284603F0C5FA384803F0A4FEA4
:10197000D8F870305F68384606F0E2FE0146384617
:1019800003F0B8FA02213A4803F0B4FA002C0BBF76
:10199000304628460421072103F0ACFA2B4803F017
:1019A0008BFE039A22B9009B13B9002C00F07D81B5
:1019B0003321324803F09EFA244803F07DFE0024D0
:1019C000294B2F491A78059B0978534003F01003DF
:1019D0005340254A0329137000F0488122212948E9
:1019E00003F088FA194803F067FE274B27491B6864
:1019F0001A6852688A4240F060810121187B99730D
:101A000002F0D2F8224B2C932CA801F063FA3FB0DD
:101A1000BDEC028BBDE8F08F2B682593259B1D49FB
:101A2000DB1BB3F57A7FFFF62DAF0B682493249B65
:101A30003FE72B682893289B164ADB1BB3F57A7F78
:101A4000FFF6F3AE13682793279B05E77808FF1F7F
:101A5000C08F00009C11FF1F788F0000608F000076
:101A60006407FF1FC88D0000FC11FF1FFC900000E1
:101A7000908F00002C8D0000348D00001C90000021
:101A8000FD11FF1FA8900000B811FF1FB90400004E
:101A9000949100000012FF1F2B682B932B9B894A07
:101AA000DB1BB3F57A7FFFF692AE13682A932A9B6D
:101AB000A4E62B681C931C9B8249CBEB0303B3F574
:101AC0007A7FFFF6A9AD0B681B931B9BBCE52B68C7
:101AD0001F931F9B7B4AC8EB0303B3F57A7FFFF686
:101AE0006DAD13681E931E9B80E52B682293229B8D
:101AF000744AC8EB0303B3F57A7FFFF630AD136881
:101B00002193219B43E52B680993099B6D4ADB1BBD
:101B1000B3F57A7FFFF6EEAC13680893089B00E5F7
:101B20002B680C930C9B674ADB1BB3F57A7FFFF69F
:101B3000B5AC13680B930B9BC7E4B368726862493A
:101B400001F0AAF8069B5B42059301230793F1E499
:101B5000B36872685C4901F09FF801230693BCE406
:101B6000B3687268584901F097F84FF0FF33039358
:101B70004FF0010A43E5B3687268534901F08CF8ED
:101B800001234FF0FF3900930BE5B36872684E49AB
:101B900001F082F801234FF0FF3A039338E6B3686F
:101BA0007268494901F078F84FF0010B4FF0FF33AC
:101BB00052E5B3687268444901F06EF801244FF0B1
:101BC000FF337EE6B36872683F4901F065F84FF075
:101BD000FF3304930123009347E6BBF1000F3FF46A
:101BE0005BAD97E80C003949002001F055F8D8E5C5
:101BF000002C3FF486AE98E80C003549002001F037
:101C00004BF8DDE60320B3687268324901F044F80E
:101C10000CE498E80C003049032001F03DF8D8F8B6
:101C200068305D68284606F08BFD0146284603F0C3
:101C300061F90221294803F05DF90421284876E67C
:101C400097E80C002749032001F026F8BB685E687E
:101C5000304606F075FD0146304603F04BF902218F
:101C60001E4803F047F904211D482AE5069B002B76
:101C70003FF4B4AE079B002B3FF4B0AEBBF1000FB6
:101C80003FF4ACAE002C3FF4A9AE2021164803F07F
:101C900031F9164803F010FDB4E62B21144803F087
:101CA00029F9124803F008FD7BE52B21104803F0C9
:101CB00021F90E4803F000FD82E618460121904705
:101CC000A0E600BF0012FF1F70900000F88F000018
:101CD00050900000C88D0000FC900000908F000024
:101CE000348D0000CC900000849000007808FF1F25
:101CF000948F00000349044B0448054A08601A60A9
:101D0000FEF74EBEC411FF1FA811FF1F21070000E0
:101D1000F12B000010B5026BC36A511C08BF0F4ABB
:101D20008CB002BF12680192019AD31A002B12DD07
:101D3000044603A91C3000F075FE084B08981B6888
:101D40000293029B09990A9AE3624FF0FF332061E4
:101D50006161A26123630CB010BD00BF0012FF1FC0
:101D60002DE9F04FC2698369511C08BF2E4A83B028
:101D700002BF12680092009AD31A002B50DD90F82F
:101D80002430002B4CD0294C037BB0F90E90B0F9D5
:101D90001080B0F9127090F814B090F815A05B00A4
:101DA000054601261521204684F83B3084F85E6004
:101DB00084F85D6001F0EAF8C9F30721204601F0DC
:101DC000E5F85FFA89F1204601F0E0F8C8F3072151
:101DD000204601F0DBF85FFA88F1204601F0D6F8E2
:101DE000C7F30721204601F0D1F8F9B2204601F0EF
:101DF000CDF85946204601F0C9F85146204601F079
:101E0000C5F83146204601F02DFA074B1B680193B7
:101E1000019BAB6100224FF0FF3385F82420EB617A
:101E200003B0BDE8F08F00BF0012FF1F6407FF1F63
:101E3000AE4BAF4A2DE9F04F1D682B685B689342AB
:101E40009BB040F04B844FF47A73013BFDD16A693B
:101E50002B69541C01BFA74A12680092009AD31A3A
:101E6000002B1BDDA44C297B01231A46204601F0E0
:101E700083FA94F8392094F83830934240F058812E
:101E8000AB686A689D49022000F006FF994B1B6809
:101E90000193019B2B614FF0FF336B61984B994E7F
:101EA0001D68AF683B685B68B34240F00384FA6921
:101EB000BB69501C01BF8F4A12680292029AD31A62
:101EC000002B33DD8C4C397B01231A46204601F070
:101ED00053FA94F8392094F838309A4218BF07F131
:101EE0000C0E00F08B839A4240F23081E2180133ED
:101EF000127E84F8383010467A757146002340FA15
:101F000003F2013302F00102082B01F8012FF6D190
:101F100094F8392094F838309A42E4D1754B1B6814
:101F20000393039BBB614FF0FF33FB61EF683B689A
:101F30005B68B34240F0C683FA69BB69511C01BFBC
:101F40006C4A12680492049AD31A002B33DD6A4C4F
:101F5000397B01231A46204601F00EFA94F8392005
:101F600094F83830934218BF07F10C0E00F03F830D
:101F70009A4240F2E880E2180133127E84F8383049
:101F800010467A757146002340FA03F2013302F0DD
:101F90000102082B01F8012FF6D194F8392094F8AA
:101FA00038309A42E4D1534B1B680593059BBB61C3
:101FB0004FF0FF33FB612F693B685B68B34240F031
:101FC0008983FA69BB69561C01BF4A4A12680692A6
:101FD000069AD31A002B34DD474C397B01231A466D
:101FE000204601F0C9F994F8392094F8383093422A
:101FF00018BF07F10C0600F0F3829A4240F2A0806D
:10200000E2180133127E84F8383010467A75314672
:10201000002340FA03F2013302F00102082B01F819
:10202000012FF6D194F8392094F838309A42E4D14F
:10203000304B1B680793079BBB614FF0FF33FB617D
:102040002F69314BA9681E68EA68304B787D497D5D
:10205000527DB76E987019705A703B682C4D5B6852
:10206000AB4276D17A6A3B6A541C01BF214A12689E
:102070000892089AD31A002B6DDD1F4C397B01237F
:102080002046102201F078F994F8391094F838308D
:10209000994218BF07F10C0E1CD1DDE194F83830DD
:1020A0006FF0FF0004EB030C99424FF0FF0288BF72
:1020B0009CF8182003F1010342EA000288BF84F86B
:1020C00038302EF8022F94F8391094F838309942AD
:1020D00000F0C8818B4204EB0302DFD2013392F996
:1020E0001820DBB284F838301002DBE7D411FF1F70
:1020F000190500000012FF1F6407FF1F0C8D000070
:10210000C011FF1F750600009C11FF1FF811FF1F73
:10211000BD0500000A7E84F83830131C18BF012367
:102120006B7394F8392094F838309A423FF4AEAE8D
:10213000934204EB030103F10103EBD30123EFE727
:10214000FF22104662E7FF2210461AE7FF221046E0
:10215000D2E638469847F76E3B685B68AB4243D19E
:102160007A6A3B6A501C01BFB54A12680A920A9A01
:10217000D31A002B3ADDB34C397B012320461022C1
:1021800001F0FAF894F8391094F83830994218BFF1
:1021900007F10C0E1CD16EE194F838306FF0FF009F
:1021A00004EB030C99424FF0FF0288BF9CF8182003
:1021B00003F1010342EA000288BF84F838302EF8A8
:1021C000022F94F8391094F83830994200F0598170
:1021D000994204EB0302DFD9013392F91820DBB2F4
:1021E00084F838301002DBE738469847376F3B6891
:1021F0005B68AB4243D17A6A3B6A511C01BF904A8B
:1022000012680C920C9AD31A002B3ADD8D4C397B54
:1022100001232046102201F0AFF894F8391094F809
:102220003830994218BF07F10C051CD132E194F8FF
:1022300038306FF0FF0004EB030E99424FF0FF02BD
:1022400088BF9EF8182003F1010342EA000288BF0C
:1022500084F8383025F8022F94F8391094F8383083
:10226000994200F01D818B4204EB0302DFD201335F
:1022700092F91820DBB284F838301002DBE73846D8
:10228000984706F10C012EC9F267B26AF469306A08
:10229000B167C6F88030716AF36AC6F89420326C70
:1022A000D6F808C0C6F88450C6F88840356B746B01
:1022B000C6F88C00C6F89010B06BF16BC6F8983079
:1022C000C6F8AC20736CC6F8A04006F14802C6F808
:1022D000A400C6F8A810C6F874C0C6F89C50C6F88A
:1022E000B0302CCAF16D746DB06DC6F8B420C6F86C
:1022F000B830326E736EC6F8C810C6F8BC50C6F857
:10230000C040C6F8C400C6F8CC20C6F8D03006F1EC
:10231000780806F1700E4FF0FF37002101E058F801
:1023200004CB07297EDCB36E03EB4103B3F80E90B8
:10233000ACF808907A1C3B4610D0DEF800201089DB
:1023400048450BD374464046013B40F8042D5A1CC7
:1023500004D054F8042D15894D45F5D206EB8303BE
:1023600001311829C3F878C007F101070EF1040EF6
:10237000D5D1354B354A1C6823685B68934240F0E1
:102380009681E269A369551C01BF2D4A12680E921D
:102390000E9AD31A002B04DD94F82430002B40F061
:1023A000A5802B4B1C6801F08DFD092800F3F180FE
:1023B000284B1C68E168A368481C00F02681628CE9
:1023C000CB1A934275DAA2696369511C01BF1C4A9A
:1023D00012681092109AD31A022B20DD94F825204F
:1023E00094F8241094F82000002A0CBF0123FF2346
:1023F0001944C9B24B1EDBB2FD2B88BF82F001022B
:1024000084F8241088BF84F8252001F049FA0C4B89
:102410001B681993199B63614FF0FF33A3611BB0D5
:10242000BDE8F08F0F2905DD336F03EB410333F86F
:10243000129C7DE7F36E03EB410333F8029C77E7D0
:102440000012FF1F6407FF1FA411FF1F611D000082
:10245000EC11FF1FE811FF1FBB687A68A449022036
:1024600000F01AFCA34B1B680993099B3B624FF0D9
:10247000FF337B626FE6BB687A689D49022000F0FB
:102480000BFC9C4B1B680B930B9B3B624FF0FF3389
:102490007B62ABE6BB687A689549022000F0FCFBE2
:1024A000944B1B680D930D9B3B624FF0FF337B6297
:1024B000E7E602F132018B4212DD02F164018B4248
:1024C00040F3EF8002F196018B4209DD02F1C80171
:1024D0008B4240F3E68002F1FA018B4200F3CD809B
:1024E000002194F8210001F05FFB6CE7824D237B13
:1024F000B4F90E90B4F91080B4F9127094F814B0D5
:1025000094F815A05B0001261521284685F83B307C
:1025100085F85E6085F85D6000F038FDC9F307213D
:10252000284600F033FD5FFA89F1284600F02EFDC1
:10253000C8F30721284600F029FD5FFA88F12846F4
:1025400000F024FDC7F30721284600F01FFDF9B273
:10255000284600F01BFD5946284600F017FD51465D
:10256000284600F013FD3146284600F07BFE614B03
:102570001B680F930F9BA3614FF0FF33E3610022B1
:102580005E4B84F824201C6801F09CFC09287FF72E
:102590000FAF04215A4802F0ADFC5A4803F08CF802
:1025A00001F0A0FCC5287FF403AF012501F09AFCDF
:1025B0005FFA80F801F096FCC7B201F093FCC6B256
:1025C00001F090FC012DC0B200F08C80022D84F847
:1025D0000C806773A673E0733FF4EAAE0135E5E75C
:1025E000BB687A684249022000F056FB20E5BB68D0
:1025F0007A683F49022000F04FFBD4E4BB687A6858
:102600003B49022000F048FB88E43A49628C0868A4
:1026100018901898C01A9042FFF6D5AE0868179027
:10262000179D02F13200ED1A85427FF759AF086815
:102630001690169D02F16400ED1A854231DD08689E
:102640001590159D02F19600ED1A85427FF748AF6F
:1026500008681490149D02F1C800ED1A854220DD2F
:1026600008681390139D02F1FA00ED1A85427FF776
:1026700037AF096812911299CB1A02F596729A42F5
:102680000FDA1C4B1B681193119BA3604FF0FF33B3
:10269000E36041F288314FF47A7003F0B3F860845C
:1026A00091E6012194F8210001F07EFA8BE62046A4
:1026B000984776E638469847EF683B685B68B342D0
:1026C0003FF43AAC384698472F693B685B68B342A1
:1026D0003FF477AC384698472F69B2E428469847CC
:1026E000FFF7DCBB84F808806772A672E07275E7BA
:1026F0000C8D00000012FF1F6407FF1FEC11FF1F6D
:10270000289100007808FF1F30B589B006E002F07C
:102710008BFB8DF81C0007A800F02EFA02F0C0FB1E
:102720000028F4D15D4B1B7803BB5D4B1B78032B5A
:1027300078D05C4B5C4A1C6823681B68934245D187
:10274000207B01F037FAE37BA073834202D001289B
:1027500000F08980003018BF0120E073FFF768FBAC
:10276000524B1B78002B39D009B030BDFFF760FB0E
:102770004E4B1B78002B73D14D4C237B002B67D124
:102780004C4B1B68059305986268A368484D801AF6
:1027900098423CD2484C01F021FA237B6060002B28
:1027A00059D1444B1B680493049BA268424D181AEC
:1027B0009042D9D32B6898472B7B002B45D13D4BBA
:1027C0001B6807930798606009B030BD20469847A2
:1027D000FFF72EFB354B1B78002BC5D1364C01F093
:1027E000FDF9237B6060002B4AD1324B1B680093BC
:1027F000009BA268304D1B1A9342B5D32B689847B3
:102800002B7B13BB2B4B1B6801930198DBE72B68D9
:1028100098472B7B002B3DD1264B1B6806930698CF
:102820006060B7E7244C01F0D9F9237B606063BB9B
:10283000204B1B680293029BA2681F4D1B1A9342F8
:1028400092D32B6898472B7BABB101F0C7F9BAE75D
:1028500001F0C4F998E701F0C1F903466068A4E704
:10286000FDF7A2FF88E701460D2001F09DF92369DD
:102870009847A07B6EE70F4B1B6803930398A2E772
:1028800001F0ACF903466068B3E701F0A7F903462D
:102890006068D1E701F0A2F9C2E700BFFB11FF1F9A
:1028A000FD11FF1FF411FF1FC5040000A011FF1F41
:1028B000A811FF1F0012FF1FC411FF1F704700BFA8
:1028C000704700BF38B528220C460546084600214F
:1028D00005F0D2FE0B220849204605F09FFF00219B
:1028E000E172EA682261002301226162E2606261B2
:1028F000A361E361236238BD3091000010B510215F
:10290000044602F0C1FE204610BD00BF002210B4F4
:10291000044C0460C160C280028142815DF8044BB6
:10292000704700BF40910000F8B53D4C32230126AE
:10293000A8210546204684F83B3084F85E6084F880
:102940005D6000F023FB3146204600F08BFC3346EF
:1029500006221921204600F00FFD94F8391094F852
:1029600038208B1A052BFDDD91423DD9561CA3184A
:10297000F6B28E42187E84F83860294B3CD21E4451
:10298000941C367EE4B240EA06208C4240F30B10E1
:1029900083F838403CD2D61CF6B21C448E42277EC7
:1029A00083F838602CD21E44141D367EE4B247EA08
:1029B00006278C4247F30B1783F838402CD2561D5C
:1029C000F6B21C448E42247E83F838601CD21E442A
:1029D0000632317E83F8382044EA012343F30B1397
:1029E000E8802F816B81F8BD4FF0FF30074603462A
:1029F000E8802F816B81F8BD60F0FF000011FF2798
:102A000067F0FF073F11FF2464F0FF031B11E7E7A6
:102A10004FF0FF373B46E3E74FF0FF33E0E700BFFF
:102A20006407FF1F70B524260C46054682B0324667
:102A30000846002105F020FE2846FFF775FFB5F98E
:102A400006309FED196ADFED196AEA68626007EEE9
:102A5000103AB8EEC77A164B266027EE067A1B6846
:102A6000019327EE267A019B84ED057AB5F90820BB
:102A7000236107EE102AB8EEC77A012027EE067A06
:102A8000A06027EE267A84ED067AB5F90A3007EEC3
:102A9000903AB8EEE77A67EE067A67EEA67AC4ED6A
:102AA000077A02B070BD00BF6F12833A0AE81C417A
:102AB0000012FF1FF8B50C4C1E4601254F002046A2
:102AC000114684F83B7084F85E5084F85D5000F045
:102AD0005DFA3146204600F059FA29462046BDE805
:102AE000F84000F0BFBB00BF6407FF1F70B5154C76
:102AF0004B0001250E462046114684F83B3084F8F1
:102B00005E5084F85D5000F041FA2946204600F0FE
:102B1000A9FB2B462A463146204600F02DFC94F8AE
:102B2000383094F839209A420AD9E2182B44157E9D
:102B300084F838300121034800F094FB284670BD2A
:102B4000FF25F7E76407FF1F10B50446094800F0AA
:102B500031FA2046572320221921FFF7ABFF2046E8
:102B600020221921FFF7C2FFA0F15700B0FA80F030
:102B7000400910BD6407FF1F70B50478A62C2FD044
:102B8000A72C06D0A52C00D070BD174B01221A70BF
:102B900070BDA02002F032FA2046012402F02EFA85
:102BA000124D264603E00134E4B27F2C13D06300BB
:102BB00001210E4885F85E6085F85D6085F83B3040
:102BC00000F050FB0028EED120460134E4B202F0C0
:102BD00015FA7F2CEBD1A120BDE8704002F00EBAAF
:102BE000014B00221A7070BDFB11FF1F6407FF1F0D
:102BF00008B5A02002F002FA002002F0FFF9044B11
:102C0000187802F0FBF9A120BDE8084002F0F6B9FF
:102C1000FC11FF1F174A38B51378032B18BF034662
:102C200004460D4614481370012102F063F9DCB12B
:102C3000012C1BD0022C1BD0104B1148032C08BFB9
:102C40001846042102F056F903210E4802F052F909
:102C5000284605F075FD0146284602F04BF90A4862
:102C6000BDE8384002F028BD0848EAE70848E8E730
:102C70000848E6E7FD11FF1F74910000348D000045
:102C80006C910000789100007808FF1F5C910000B3
:102C90005491000064910000F8B5144605460E46B4
:102CA0000E4802211F4602F025F9204605F048FD96
:102CB0000146204602F01EF90721094802F01AF9E0
:102CC0003946084802F048FD0221074802F012F98F
:102CD00031462846BDE8F840FFF79CBF7C910000D4
:102CE000809100007808FF1F889100000020704745
:102CF000006910B10368DB6818477047006910B1BC
:102D000003681B6918477047006910B103689B6925
:102D100018474FF0FF307047006910B103685B69D6
:102D200018474FF0FF3070472DE9F04106460F4637
:102D300000F054FF306928B1036839461B68BDE8CC
:102D4000F04118477369002B55D02C492C4A0B6869
:102D500043F080730B60136843F0010313607469E0
:102D600072B6A1F55D41F839B3690A681870086850
:102D7000A3181B1AB3F5BE7F07D9A4F5B47062B6C9
:102D80000B689B1A9842FBD872B61E490B689B1AB7
:102D90009C42FBD81B484FF0080E01210F42B3693B
:102DA00014BF012500251D70756903682C44D31AD2
:102DB0002344B3F5BE7F07D9A4F5B47562B60368A2
:102DC0009B1A9D42FBD872B603689B1A9C42FBD8A3
:102DD0004900BEF1010EC9B2E0D1B36901211970F9
:102DE00062B6736907491C440B689B1A9C42FBD866
:102DF0000120BDE8F0811846BDE8F081FCED00E05F
:102E0000001000E0041000E0F8B504464FF47A73B7
:102E10001B48A3600023164620602371237384F8A7
:102E200020300D46D9B9012A27D00027012130468C
:102E3000276100F0CDFE0221284600F0C9FE114BAB
:102E400084F8216084F8225053F83620A26153F8A8
:102E50003530676103F50073E3612046F8BD092949
:102E600004D10A2AE1D1084B2361F6E70729DCD116
:102E7000082ADAD1054B2361EFE7054B2361ECE724
:102E800094910000349200005808FF1F6808FF1F4B
:102E90004808FF1F03691BB11A681846D369184711
:102EA0000A46094930B45308084D094C1944B1FB8E
:102EB000F2F141612B6843F080732B60236843F08B
:102EC0000103236030BC7047000E2707FCED00E0D3
:102ED000001000E038B50569044645B12B68284666
:102EE0005B6A9847002323610023636138BD29464C
:102EF00090F8210000F06CFE294694F8220000F0C2
:102F000067FE0023636138BD90F8392090F83800DF
:102F1000101A704790F8383090F839209A4205D945
:102F20005A1C034480F83820187E70474FF0FF3059
:102F3000704700BF90F8383090F839209A4286BF29
:102F40001B18187E4FF0FF30704700BF704700BF5E
:102F500038B50546B0F85E0090B195F85D3014467E
:102F6000C3F1210294420CD805F13B0018442246DB
:102F700000F022FB95F85D30234485F85D30204653
:102F800038BD012014462871EEE700BFB0F85E306E
:102F90006BB190F85D30202B07D8C218013380F850
:102FA0005D30012082F83B1070470123037100203F
:102FB000704700BF0023426980F8383080F839300C
:102FC00080F85C3080F85D3080F85E3080F85F30EB
:102FD00006CA30B40D68046943662A4383660A60F2
:102FE000A370426990F861301649146813441D7A41
:102FF0005B7B01EBC5051B026D6803F4E06343F0E6
:1030000064032B6090F8623013449D7CDB7D01EB00
:10301000C5011B02496803F4E06343F064030B60DD
:1030200021685368194205D003692C225A7003693C
:1030300004229A71036920225A71036980229A70CE
:1030400030BC70473492000038B50269D478E4B2DD
:10305000E106054624D51023D37063061FD504F07E
:10306000040404F0FF03002C5AD042496A6E002386
:103070000B7085F85D30002A66D0904795F85D307A
:10308000002B61D02B69D0229A702B6995F83B20D8
:103090001A712B69012285F85C200222DA7038BD92
:1030A00004F0400303F0FF00002BD8D19379DBB28A
:1030B00003F0600160294ED0937803F0100303F011
:1030C000FF01B3B114F0010437D195F85C3095F8E5
:1030D0005D1099424BD9591C2B4485F85C1093F82C
:1030E0003B3013712B69D0229A702B690222DA705F
:1030F000D5E785F86010937943F0200393712B692D
:1031000095F839101A791F29D2B2C6D81948007813
:103110000028C2D06818013185F839100276BCE762
:103120002A6985F83930C02393702B69114A1979BF
:10313000012111700222DA70B1E7C02393702B696C
:103140001A790222DA70AAE70122002385F85D20AD
:1031500085F83B3096E703F0DF039371AB6E23B144
:1031600085F8380095F8390098472A69A4E7147162
:10317000B8E700BFFE11FF1F2DE9F047374FDFF81A
:10318000E0903B68026982B006460093DDF800805B
:103190000021C825D3789B065BD53B680193019B32
:1031A000C8EB03030F2BF5D949B1102BF2D0002047
:1031B0009070336980229A7002B0BDE8F08772691E
:1031C00096F8613013440521187A00F001FD726908
:1031D00096F861301344012193F812A0504600F094
:1031E000F7FC09240021504600F0DEFC2B46013B91
:1031F000FDD10121504600F0D7FC2B46013BFDD10B
:10320000013CEFD1706996F8611001444FF4C87227
:103210000C7A4B7B09EBC4011B02496803F4E063A1
:1032200043F064030B6096F862300344997CDB7DC5
:1032300009EBC1011B02496803F4E06343F0640336
:103240000B60013AFDD13269D3789B064FF0010142
:10325000A3D4012002B0BDE8F08700BF0012FF1F19
:1032600034920000F0B503691222DA700269937893
:1032700003F0200385B004460D46002B5ED0B42336
:1032800093703C4922690B680093009E05E00B682F
:103290000193019B9B1B042B42D8D37803F020039E
:1032A00003F0FF00002BF2D094F85D30002B31D0FA
:1032B0004FF0000E4FF0020C04EB0E0393F83B307E
:1032C00013710B680393039F206907E09B060DD5DC
:1032D0000B680293029BDB1B052B28D8C378DBB25B
:1032E00003F0020202F0FF06002AEFD080F803C0CC
:1032F0002669F378DBB2DF0632462DD49F062BD544
:10330000DB0731D40EF1010E94F85D305FFA8EFECA
:103310007345D1D800201DBB002384F85E3004E043
:103320009070236980229A70042005B0F0BD8670E9
:103330002369802204209A7005B0F0BD03F0FF06D7
:10334000FFF71AFF10B9042005B0F0BD236984F817
:103350005F60B0229A7094E78023B3700420DAE7AC
:1033600026698023B370D7E7BEF1000F0CBF02209F
:103370000320F6E70012FF1F2DE9F0410669002542
:10338000122780F8385080F83950F770D0F810C004
:103390009CF802E00EF0200E88B0044688461546E0
:1033A0001E46BEF1000F49D0B4238CF80230784B92
:1033B00021691A680092DDF800E006E01A680192BF
:1033C0000198CEEB0000042830D8C87800F0200027
:1033D00000F0FF070028F1D04FEA480242F0010256
:1033E000D2B20A711A680292DDF808E0206906E09C
:1033F0001A6803920399CEEB010105292AD8C178F6
:1034000001F0020101F0FF070029F1D04FF0020C9A
:1034100080F803C02269D17811F0110722D12DBBA9
:10342000002E0CBFA0238023937003E08F702369CC
:1034300080229A70384608B0BDE8F0810EF0FF0790
:10344000FFF79AFE0028F5D0236984F85F70B02258
:103450009A70ACE787702369802238469A7008B06A
:10346000BDE8F081802393700027E3E7012D75D03C
:10347000A021917021690A79BE4667464FF0A80CD9
:103480001A680492049805E01A680592059A121ABF
:10349000052A4AD8CA7802F0020202F0FF08002A80
:1034A000F2D0CF702169CA78D2B212F0100F08465C
:1034B0005AD1920658D5013DEDB2012D49D0BEF149
:1034C0001F0F3BD90A79012DDAD11A680692069DA1
:1034D00005E01A680792079A521B052A46D8C27857
:1034E00002F0020202F0FF01002AF2D00223C370B0
:1034F0002269D378DBB2D9063AD49B0634D5B023FF
:10350000BEF11F0F93703FD8226904EB0E031279AE
:103510001A760EF1010E5FFA8EFE16B12369802233
:103520009A7084F839E0774684E781F8028023694D
:1035300080229A70774684F839E07BE704EB0E022C
:1035400091F8048082F818800EF1010E5FFA8EFE69
:10355000B9E781F802C021690846B0E7A821917057
:103560002069BE460279B0E7774663E78170DEE7FF
:103570001021C823D170013BFDD12269937803F05B
:10358000F7037746937055E723691B79C5E700BFBA
:103590000012FF1F0148FFF757BD00BF6407FF1F60
:1035A0000148FFF751BD00BFD007FF1F0148FFF7DB
:1035B0004BBD00BFF806FF1F844641EA000313F02D
:1035C00003036DD1403A41D351F8043B40F8043B2A
:1035D00051F8043B40F8043B51F8043B40F8043BED
:1035E00051F8043B40F8043B51F8043B40F8043BDD
:1035F00051F8043B40F8043B51F8043B40F8043BCD
:1036000051F8043B40F8043B51F8043B40F8043BBC
:1036100051F8043B40F8043B51F8043B40F8043BAC
:1036200051F8043B40F8043B51F8043B40F8043B9C
:1036300051F8043B40F8043B51F8043B40F8043B8C
:1036400051F8043B40F8043B403ABDD2303211D32C
:1036500051F8043B40F8043B51F8043B40F8043B6C
:1036600051F8043B40F8043B51F8043B40F8043B5C
:10367000103AEDD20C3205D351F8043B40F8043B2C
:10368000043AF9D2043208D0D2071CBF11F8013B2A
:1036900000F8013B01D30B8803806046704700BFF0
:1036A000082A13D38B078DD010F003038AD0C3F1FF
:1036B0000403D21ADB071CBF11F8013B00F8013BE1
:1036C00080D331F8023B20F8023B7BE7043AD9D3A0
:1036D000013A11F8013B00F8013BF9D20B78037075
:1036E0004B7843708B7883706046704708B5104CF8
:1036F00008E0236859050DD423681A050FD4236800
:10370000DB0411D423685803F3D500F065FD23686A
:103710005905F1D502F030FD23681A05EFD503F005
:10372000E3F82368DB04EDD503F0A8FBEAE700BF6C
:103730003480044008B5FFF7D9FF00BF014B1022C9
:103740001A80704700200540704700BF094908B53E
:103750000B6830B16A461844A2F50052904202D27A
:103760000860184608BD04F091FC0C2303604FF07C
:10377000FF3008BD3C08FF1FFEE700BFEFF31380DA
:1037800070B9EFF310836BB9EFF305825AB94FF4B8
:103790008070EFF311832BB1984228BF1846704711
:1037A0004FF0FF3070470F2A01D81846F1E7014B60
:1037B000D05CEEE7F0E300E010B4114B53F830209A
:1037C00092F8804234B1012379B182F880305DF8FB
:1037D000044B704703EBC0035B681A6851B922F0D1
:1037E00002021A605DF8044B704782F800315DF800
:1037F000044B704742F003021A605DF8044B7047B7
:10380000349200001C4A02EBC00301295B6811D00E
:1038100004291BD052F83000002280F8802229B100
:10382000022920D0032922D01A6070474FF48072F9
:103830001A60704752F830004FF4A27280F880127C
:103840001A601A6822F020021A60704752F830108D
:103850004FF4A272012081F880021A601A6842F0C7
:1038600020021A60704740F203121A6070474FF44A
:1038700081721A60704700BF3492000030B4054B6B
:10388000054D064C002210211A602A602060196044
:1038900030BC704714D0034004D0034000D0034034
:1038A00038B5A0F14203012B04461FD9002975DD6C
:1038B000904B1B78012505FA03F28A4202D83F2873
:1038C00027D938BDC21E012A2BD9A0F11D02012A19
:1038D00073D90E2856D9A4F12302032A57D9864A50
:1038E000126802FB011222FA03F320E0814B1B78DD
:1038F0000B2B0AD90C2B1CBF0C3B1941422C084640
:1039000057D0BDE8384002F077B8C3F10C039940B6
:10391000F4E72946FFF750FF2946BDE83840FFF796
:1039200071BF764A126802FB011222FA03F3A21E4B
:10393000242A00F2D580DFE812F0CC00C500BE00DA
:10394000B700B000A900A2009B009400D300D300F0
:10395000D3008D00D300D300D300D300D300860062
:103960007F0078007100D300D300D300D300D300D0
:103970006A006300D300D300D300D3005C0055007D
:103980004E00470044F28412C240D207A3D55C4ADD
:10399000126802FB011222FA03F3C8E73F2890D80D
:1039A0000021FFF709FF20460121BDE83840FFF75D
:1039B00029BFBDE8384002F001B8524A126802FB44
:1039C000011222FA03F3B2E74F49504A0B604FF459
:1039D0005173136038BD4E494E4A0B604FF451731A
:1039E000136038BD4C494D4A0B604FF4517313605E
:1039F00038BD4B494B4A0B604FF45173136038BDCF
:103A000049494A4A0B604FF45173136038BD484925
:103A1000484A0B604FF45173136038BD4649474A1A
:103A20000B6040F24443136038BD4549454A0B6082
:103A300040F24443136038BD4349444A0B6040F2AE
:103A40004443136038BD4249424A0B6040F244434C
:103A5000136038BD4049414A0B6040F24443136053
:103A600038BD3F493F4A0B6040F24443136038BDC4
:103A70003D493E4A0B6040F24443136038BD3C4927
:103A80003C4A0B6040F24443136038BD3A493B4A1C
:103A90000B6040F24443136038BD3949394A0B602A
:103AA00040F24443136038BD3749384A0B6040F256
:103AB0004443136038BD3649364A0B604FF45173A6
:103AC000136038BD3449354A0B604FF451731360AD
:103AD00038BD3349334A0B6040F24443136038BD6C
:103AE0003F2C3FF6EEAE7F29D4BF002101212046B6
:103AF00057E700BF4008FF1F0880034008900340BD
:103B000008900B4008800B4048900B402CB00440BC
:103B100040900B4028B0044038900B4024B0044043
:103B200030900B4020B0044018800B404CA0044063
:103B300010800B4048A004401880034008B00440A7
:103B40001080034004B004404080034018C004408B
:103B50003880034014C0044018900B4004C0044057
:103B60002880034010B00440208003400CB0044083
:103B700028900B400CC0044020900B4008C004402B
:103B80003080034010C00440488003401CC0044003
:103B9000189003403490044010900340309004404B
:103BA00010900B4000C004403F2801D8FFF704BE2E
:103BB000704700BF3F2806D8044B53F8303093F8C5
:103BC0000002C0B270470020704700BF349200006E
:103BD0003F2801D8FFF716BE704700BF72B60C49E8
:103BE0000C4B0D4A1B680868126862B6520102D578
:103BF000322B88BF01300949C3F5EA334FF47A729A
:103C0000BF33A1FB031302FB00F000EB93107047DE
:103C10000012FF1F18E000E004ED00E089888888AA
:103C20002DE9F843054672B6204F214B214A1B6807
:103C30003C68126862B6520102D5322B88BF01344B
:103C400095B3C3F5EA331C4EDFF86490DFF8648067
:103C5000BF334FF47A72A6FB031302FB04F404EBA8
:103C6000931472B6D9F800103A68D8F800E062B63A
:103C7000C1F5EA33BF33A6FB03031EF0806FC4EB2C
:103C800093134FF47A7002D0322988BF013200FBBF
:103C90000233B3F57A7F04D3013D05D004F57A747D
:103CA000DFE701F0B9FDDCE7BDE8F8830012FF1F94
:103CB00018E000E004ED00E089888888F8B53E4B04
:103CC0003E49DFF818C13E4E3E4ADFF814E13E4D52
:103CD0003E4C3F4F4FF0006018604FF0805018602E
:103CE0004FF0005018604FF0804018604FF00040D7
:103CF00018600020086028234EF6FF71CCF80010F1
:103D0000CEF8003033600EF5012E13602B60236077
:103D100005F500253B6004F50024B36207F5002794
:103D2000936206F5012602F501220EF1100E05F64A
:103D3000E87504F6E87407F57F67103220362B60CB
:103D40002360CEF800303B6013603360214EBB61CE
:103D5000936109223260A7F5002706F58056203FBF
:103D6000083638603160BB60F36047F8042C06F514
:103D7000FD2607F5FE2706F2FC7604373060396031
:103D8000B360FB6046F8042C0836C7F8FC0F06F653
:103D9000FC76114831602B602360026001F09EFDCB
:103DA0001920FFF73DFF00F07FFF40F21310BDE840
:103DB000F840FFF735BF00BF04E100E00480034096
:103DC000148003401C800340248003402C80034067
:103DD000348003400080034000900B400880034083
:103DE0000C800340284A29491368F0B443F4005377
:103DF00013600A78264F274E274D284C2849002368
:103E00001F2A3B7033702B7023700B7037D03F2A02
:103E10001BD0244B1B78202B1FD03E2B2AD01F28D1
:103E200021D80020024601241F4B204D1A702C2758
:103E3000002240261E495C70987220249A701A74E1
:103E4000DF702E700C60F0BC70471A4B40F21332DA
:103E50001A60144B1B78202BDFD1174B4FF4517293
:103E60001F281A60DDD9C0F34432C0F3471400F0B4
:103E70001F00D9E7114B4FF451721A60CFE7104B76
:103E800040F213321A60C4E7348004404108FF1F37
:103E90000812FF1F0912FF1F7C12FF1F7512FF1F60
:103EA0007412FF1F4208FF1F00D0064025E400E007
:103EB00004E100E014D004402CA0044010D00440E1
:103EC00028A00440054A064B10781B78C0B2DBB22C
:103ED000984238BF4030C01A704700BF0812FF1F19
:103EE0000912FF1F30B4154B154C1A782378D2B243
:103EF000DBB29A421ED001333F2B0ED91149124B2F
:103F0000087819680023C0B2237021B1D31A1A2B84
:103F100001DC00230B7030BC70470A480A49C05CC2
:103F20000968DDB2C0B225700029F4D09A4238BFCA
:103F30004032EBE74FF0FF30EDE700BF0812FF1F04
:103F40000912FF1F3412FF1F0412FF1F30B42B4B46
:103F50001A7994061FD52A48DA790378294901335A
:103F60003F2B0978C8BF00238B42D2B203D0264C26
:103F7000D9B2E2540170254A116861B1244A12781D
:103F8000D2B2934236BFC2F140029B1A9B18272B34
:103F9000C4BF01230B70194AD378DBB2180611D4C1
:103FA0005A060DD5154B1B795B0609D5194B1A49D5
:103FB0001B6800220A7003B11A70104B2C22DA70B1
:103FC00030BC704711790906EAD5144910480C78BD
:103FD0000178C9B28C420DD04A1C272A84BF002127
:103FE0000A460F4D054C98BFD1B2AA5CD2B2E2711D
:103FF0000170D5E76C21D170D2E700BF00D0064038
:104000000812FF1F0912FF1F3412FF1F0412FF1FA7
:104010007512FF1F7812FF1F7412FF1F7C12FF1F03
:104020000C12FF1F431E032B14D872B60A4951F815
:10403000230068B170B4094C058834F81320466831
:1040400041F82360521B24F8132062B670BC7047FD
:1040500062B6704700207047D812FF1F5C16FF1F22
:10406000013803280BD872B6074B53F8203043B100
:1040700000205B680130002BFBD162B67047002046
:1040800070471846F9E700BF2C13FF1F30B472B613
:104090002B4A13781D0706D52A4B196A002936D0FA
:1040A000996A002941D053781C0706D5254B196C15
:1040B00000293ED0996C002939D09378190705D58D
:1040C000204B196E002936D0996E89B1D3781B0721
:1040D00007D51C4BD3F880207AB3D3F88820112160
:1040E0003AB162B6184B00221A7030BC00F076BEAE
:1040F0000D21154C154D227843F8315003EBC103C7
:104100000830013A5860227062B630BC7047042211
:104110000D4C0F4D217843F8325003EBC2030830A9
:104120004A1E5860227062B6EFE70521E1E70921D7
:10413000DFE70822ECE70C22EAE71022E8E700BFFD
:10414000809500000000FF1F5513FF1FC8004000AE
:1041500088004000431E032B1DD81B4A400140F03D
:10416000100030B4104472B6184CE25C032A1BD81D
:10417000DFE802F00212151703220D88E25410F056
:10418000080F14BFC823882343EA0543083103609E
:10419000416062B630BC704708300222EDE705226C
:1041A000EBE708300422E8E7094A52F8230038B167
:1041B000084A52F82300416042F8231062B6E9E74A
:1041C00042F82310034AF7E70000FF1F6413FF1FA4
:1041D0002C13FF1F3C13FF1F2DE9F04FDFF80CB32A
:1041E000DFF80CA387B044E0AB4F4FEA930807EB2E
:1041F000C809013ED9F8042003F00803F6B2A2F181
:10420000080003F0FF04002B40F0028157F838301B
:104210001B0C99B222F8081C002B00F0F0809F4B79
:1042200022F8064C42F8044C53F82620002A00F0ED
:10423000C5829B4D55F8263058609A4C45F82600AB
:1042400034F81630194424F8161000F0A7FD0028A1
:1042500000F0AD82944A954B19F0080F00F1080068
:1042600018BF1346C9F8040047F8383008238BF804
:1042700000309BF80040E4B261071AD58C4B1B78E4
:10428000A3B18C490A7802F0FF0322B1013BDBB2F3
:104290000B7003B900BE88490A7802F0FF032AB107
:1042A000013BDBB20B70002B00F0578204238BF82C
:1042B000003004F0080303F0FF02002B00F0CC8074
:1042C0009AF80030DBB21E098ED19C08DFF8C89145
:1042D00059F8342009EBC401C2F38302013A49685A
:1042E0000C2A00F28880DFE802F07C7C86868686D5
:1042F00086864786868607000868704D4A68704F34
:10430000704E286081B240F28160674B6A604FF066
:10431000010E0022814249F834303A60C9F8102079
:10432000C9F8182086F800E05B4C00F2E380B1F594
:10433000D06F80F04683B1F5817F00F0FC8200F2FF
:104340008D82802900F07783822940F0FA82A98843
:1043500001F07F01042900F2F4825B485B4C890084
:104360000844227062700278930740F1588484F800
:1043700000E04FF0020E42E3514F3A6832B3544B23
:10438000504E5449188834780D784028864645F0B8
:10439000020828BF4FF0400E002C84F00104347056
:1043A000CEEB00000CBF8824C82409EBC80680B2FD
:1043B00085F0010544EA0E447260188049F83840DF
:1043C00072440D70002800F045813A603B4B1A881A
:1043D000B2F5A06F0FD100219A7859703E4B1A7038
:1043E00009E0364A108842F22102904200F03781FB
:1043F0002D4A49F83420394A0123137036E72A4AF6
:104400002A4B19F0080F18BF134647F838302DE72C
:1044100000F0E4FC324A334952F82630002B00F019
:10442000D18158688C5D42F8260003F10802C9F872
:104430000420032C05D8DFE804F02C0229260222F0
:104440008A551A8819F0080F0CBF8823C82343EA3D
:10445000024347F8383009E7E00700F1818121067F
:1044600000F1F281A20706D51F4A204913780220E5
:10447000DBB213700870E30602D51C4B10221A70D1
:1044800007B0BDE8F08F04228A55DAE705228A5585
:10449000D7E703228A55D4E70000FF1FD812FF1F79
:1044A0008412FF1F5C16FF1FC800400088004000F8
:1044B0006013FF1FE912FF1F6813FF1F4C13FF1F3C
:1044C0008012FF1FE812FF1FC02007405813FF1F74
:1044D0009412FF1F5413FF1F982007409420074099
:1044E0002C13FF1F6413FF1F882007408020074004
:1044F0009020074042F22100814200F02A8100F220
:10450000D880B1F5086F00F07682B1F5106F40F0F9
:104510001882226AB349A8780870120600F13A831B
:10452000D9F82820B049130600F10C83D9F83020BF
:10453000AD49150600F10183D9F83820AA491406BF
:1045400000F1F682D9F84020A749100600F14A830D
:10455000D9F84820A449120600F13F83D9F8502029
:10456000A149130600F13483D9F858209E49150655
:1045700000F12983D9F860209B49140600F11E83BD
:10458000D9F868209849100600F11383D9F87020F3
:104590009549120600F10883D9F87820924913064C
:1045A00000F1FD82D9F880208F49150600F1318392
:1045B000D9F888208C49140600F12583D9F8902079
:1045C0008949100600F11983D9F898208649120606
:1045D00000F10D838548864A864901908648874DBB
:1045E000874C049700230596029580460F46164691
:1045F0001D460394306828B1446800F0EFFB204664
:10460000002CF9D100233360029B38681A4600233E
:1046100042F8253028B1446800F0E0FB2046002C29
:10462000F9D100223A60019A98F800301146002230
:1046300041F8042B039A0191023B4FF0000122F84C
:104640001510032B00F22B81DFE813F07001250118
:1046500070012501BEF1400F18BF0022B5E6694A7E
:104660000D784878157050708D78C8789570D07036
:1046700010680D79157186284D7989795571917178
:1046800000F09B816049614E0A78307882F0010524
:10469000002842F002020D700CBF8821C82149F8A1
:1046A000321009EBC20280F001000021307051602D
:1046B0009EE642F22120814240F0CB81544B554C82
:1046C0005549A8781D682560CDF804E008700020E1
:1046D00002908046844604464B490D7845F0020E10
:1046E00009EBCE030393019B002B039B5C600CBF83
:1046F0008824C82444EA080385F0010449F83E30C0
:1047000032700C70DFF8E0E0404BDFF8FC800028EE
:1047100040F01E81BCF1400F1BD144F0020C09EBAC
:10472000CC03029CDFF8C0E05C60002A40F02681E8
:10473000020442F088029DF804304EF83C20044404
:1047400033700D702346402803D10020334A3B606C
:104750001080334A012313704DE600F0ABFCA5E551
:10476000214B2F4828491A614FF0020E80F800E0D3
:104770002C4F0A702C49196099602C4E2C4D2D4CF1
:104780009A610D213970FF213170DFF8B8E029708E
:104790002270294D294A8EF800109F27012406F81F
:1047A000047C5D600470DA6007B0BDE8F08F244AD5
:1047B00047F8380013780133137057E543F82600A3
:1047C0000E4D3AE58B5D032B00F2F08001A252F80A
:1047D00023F000BF6D4200006D42000091480000D0
:1047E0008B4800006013FF1F0000FF1F3C13FF1FDA
:1047F000D812FF1F2C13FF1F6413FF1F8412FF1F0B
:104800005C16FF1F6416FF1F5413FF1FE812FF1FE3
:104810000012FF1F6C16FF1F7813FF1F9412FF1F5B
:1048200094200740C02007408800400088200740AF
:1048300080200740982007409812FF1FEC12FF1FAE
:104840005513FF1F8C200740C149C24B80220D2009
:1048500008701A70A2077FF50EAE05E640F202322C
:10486000914240F0EE80A98801F07F01042968D8C8
:104870006A88002A65D1B648CDF804E0890008446A
:10488000017841F00201017021E701238B55EDE42D
:1048900000238B55EAE44FF0010388F8003001351E
:1048A000042D06F1040607F1040708F101087FF45E
:1048B000A1AEA94CA94B2278A94D049F059E0021C9
:1048C00029701A70130700F105816278A549DFF895
:1048D000A0820A7010074FF00001C9F83010C9F823
:1048E000381000F1E080A049A2780A700021C9F8D0
:1048F0005010C9F858101107DFF8748200F10181D7
:10490000E2789A499A4C0A7000211207C9F870108F
:10491000C9F8781000F1B08033780193002183F05A
:104920000102C9F89010C9F89810D0E64FF00003C2
:1049300088F80030B3E7A98801F07F01042940F22C
:104940008D80834A0F2313708A4A0123137052E526
:1049500040287FF6E2AE44F002040EEBC401029E52
:104960004E60BAB19DF80410834A1970334640383E
:1049700088F8005040334EF83420E7E69DF80430C4
:1049800033700204029B0D7042F0C80203444EF8DB
:104990003C20D8E69DF804101970029B774A88F8ED
:1049A0000050403840334EF83420CFE619F0080F5D
:1049B0000CBF022303238B5558E4714A0F21117059
:1049C00060E6704A5468002CBBD06888B5F804E0F3
:1049D00003E00C325468002CB3D013888342F8D122
:1049E00053887345F5D1000A03280CBF94F800E002
:1049F000B2F808E003E0644A644C12782270E88858
:104A0000704580F03F8162490D784028844645F02A
:104A1000020E28BF4FF0400C04EB0C0309EBCE0252
:104A2000029301235460CCEB00004FEA0C480022B3
:104A30000193C8245EE6554C4FF0020E227062705E
:104A4000DDE7B1F5A06F7FF47CAF01230022019375
:104A50003DE642F221329142F7D072E76A88002A9D
:104A60007FF46FAF3A48CDF804E08900084401783C
:104A700021F0020101702AE600F090F9002800F010
:104A8000EF8008303D4AC4F88400C4F8802000F06C
:104A900085F9002800F0DE800830374AC9F88C001C
:104AA000C9F8882038E700F079F9002800F0C080C4
:104AB0000830324AC8F84400C8F8402000F06EF9C7
:104AC000002800F0AF8008302B4AC9F84C00C9F824
:104AD000482008E700F062F9002800F0CD80083097
:104AE000264AC9F82400C9F8202000F057F9002808
:104AF00000F0BC800830204AC9F82C00C9F82820F2
:104B0000E3E600F04BF9002800F09E8008301B4AD5
:104B1000C8F86400C8F8602000F040F9002800F0F0
:104B20008D800830144AC9F86C00C9F86820E7E69F
:104B3000C86B083800F052F904E5486B083800F0FB
:104B40004DF9F9E4C86A083800F048F9EEE400BF0E
:104B5000C02007408020074080950000C420074007
:104B60005513FF1FC8200740CC200740D020074026
:104B70000000FF1F94200740C8004000880040004C
:104B8000E912FF1F849500006013FF1F5813FF1FD9
:104B90005413FF1F606A083800F020F9C0E4C86FA2
:104BA000083800F01BF9FDE4486F083800F016F9EA
:104BB000F2E4C86E083800F011F9E7E4486E0838EE
:104BC00000F00CF9DCE4C86D083800F007F9D1E416
:104BD000486D083800F002F9C6E4C86C083800F0E7
:104BE000FDF8BBE4486C083800F0F8F8B0E4D1F800
:104BF0009C00083800F0F2F8ECE4D1F89400083892
:104C000000F0ECF8E0E4D1F88C00083800F0E6F8A9
:104C1000D4E4D1F88400083800F0E0F8C8E44FF09C
:104C2000020EECE62A78C9F8480001322A705AE6EA
:104C30002A78C8F8400001322A703FE72A78C9F87C
:104C4000680001322A705BE62A78C8F860000132F9
:104C50002A7061E72A78C9F8880001322A705BE679
:104C60002A78C4F8800001322A7010E72A78C9F83F
:104C7000280001322A7028E62A78C9F8200001327B
:104C80002A7032E7BEF1400FF44628BF4FF0400CC7
:104C900004EB0C0302930123CCEB0E004FEA0C480B
:104CA0000022019318E500BF2DE9F04102F04AFA15
:104CB0002F4C304B3048DFF8D880304F304D314EDC
:104CC000DFF8D0C0DFF8D0E000221A605A609A60A6
:104CD000DA601A615A619A61DA611A625A629A62FA
:104CE000DA621A635A639A63DA631A645A649A64DA
:104CF000DA641A655A659A65DA651A665A669A66BA
:104D0000DA661A675A679A67DA67C3F880202168FB
:104D1000C3F8842041F480212160016841F0407192
:104D20000160C3F3072188F8001004F52834C3F3A9
:104D300007411B0E3970CC342B7000F12040FF234B
:104D40008CF80030104D8EF8003000F604103370EF
:104D50000E49012308F8083C702622704FF4001415
:104D6000102207F82C3C2E7004600A70BDE8F08118
:104D7000348004400000FF1F00D80040B0200740EE
:104D8000B42007401020074035E400E00821074028
:104D90009C200740802007408820074072B60D48BD
:104DA0000268B2FA82F30B2B10DC4FF00041D940BD
:104DB00022EA0102026062B6074803EBC303DB008C
:104DC000C2180021C15010465160704762B60020E1
:104DD000704700BF4408FF1F9803FF1F0D4B0E4A8A
:104DE000C31AA2FB03231B090B2B0CD80B4A127806
:104DF00052B972B60A484FF00041026821FA03F333
:104E00001A43026062B67047064A1278002AF0D050
:104E1000FFF73CB99803FF1F398EE3385513FF1F86
:104E20004408FF1F6013FF1F38B50F4D286878B185
:104E300043880288C118013393420C7A02D243801E
:104E4000204638BDFFF7CAFF002320462B6038BD3F
:104E5000064B1B782BB10320FFF7E4F828600028ED
:104E6000E6D14FF0FF3038BD7413FF1F6013FF1FF2
:104E700010B5094C206818B143881844007A10BD59
:104E8000064B1B782BB10320FFF7CCF820600028DD
:104E9000F2D14FF0FF3010BD7413FF1F6013FF1FDE
:104EA000044B054A1B6890881BB11A885B88D31A8B
:104EB000184470477413FF1F5C16FF1F0B4B1B78C1
:104EC0009BB110B50A4C206848B1FFF787FF00235B
:104ED00003202360FFF7A6F830B1FFF77FFF032020
:104EE000FFF7A0F80028F8D110BD70476013FF1F2E
:104EF0007413FF1F2DE9F04FDFF8F89083B0012203
:104F000089F80020019169B3DFF8EC80364F019EEB
:104F10008346D8F80000B0B3344D4488C4F1400152
:104F2000B14228BF314604EB010E00221FFA8EFE6B
:104F30002A70761AA0F802E000F1080251B1013C93
:104F4000224459441BF8014B02F8014F8B45F9D11B
:104F5000B0F802E0BEF13F0F0BD8254A05211170D1
:104F6000002ED6D10198002389F8003003B0BDE8A7
:104F7000F08F4022028001460420FFF7EBF8002268
:104F8000C8F80020E9E73A782AB3184D4DF2E90451
:104F90004FF0010A07E0013C16D02A78A2B900F0D0
:104FA0003BFC3A78BAB10420FFF75AF80728F2D848
:104FB00089F800A0FFF7F2FEC8F800000028ACD185
:104FC0000C4B013C1870E8D101234FF0FF302B70DF
:104FD00003B0BDE8F08F00234FF0FF3089F80030B8
:104FE00003B0BDE8F08F00BF6013FF1F7013FF1FF9
:104FF0006813FF1F6913FF1F6C13FF1F00B583B0F9
:1050000002AB012103F8010D1846FFF773FF03B04F
:105010005DF804FB38B50E4D0E4C28680123237053
:1050200028B1408800232370C0F1400038BD0A4BEE
:105030001B7813B90020207038BD0420FFF710F84A
:105040000728F7D8FFF7AAFE28600028E9D1F1E782
:105050006C13FF1F6913FF1F6013FF1FF8B5114B7F
:105060001B788BB1104E114D346801272F7064B13D
:105070000F4A638800271770214623800420FFF71A
:1050800069F8376000232B70F8BDFFF787FE084BE7
:1050900028B1014604201C70FFF75CF8F2E71F708E
:1050A000F0E700BF6013FF1F6C13FF1F6913FF1FA2
:1050B0006813FF1F38B50E4B1B7873B90D4C216870
:1050C00061B103F0FF054B880B800420FFF742F825
:1050D000256038BD084B01221A7038BDFFF75EFE0F
:1050E0000028F7D00146BDE838400420FFF732B869
:1050F0006913FF1F6C13FF1F6813FF1F10B4EFF33A
:10510000108272B6437F33B9017F012908D0032989
:1051100010D00123437702B962B65DF8044B7047A3
:10512000114C2168A1B1114943610B68836108608A
:105130005861EEE70E4C216881B10E4943610B685E
:105140008361086058610C4B4FF080511960E0E7B3
:10515000064B4161816120601860DAE7054B4161CF
:10516000816120601860EEE78C13FF1F8813FF1F1A
:105170007C13FF1F8013FF1F04ED00E010B4047FB9
:105180004160022CC26003D05DF8044BFFF7B6BF4C
:1051900083685DF8044B184770B5EFF3108272B660
:1051A0000C4C206880B10C4E00254369236073B11C
:1051B0009D6102B962B6457783689847EFF3108224
:1051C00072B620680028F0D102B962B670BD3360B3
:1051D000EFE700BF7C13FF1F8013FF1FFFF7DCBF4B
:1051E000184A30B41468002C27D0036821688B4219
:1051F0000ED2CB1A00218460C1602360E060106091
:105200000223037530BC704711688B42144608D3E3
:10521000A2685B1A0360002AF6D18260C460A060B5
:10522000EEE7D268C2608460E060C568CB1A0222F3
:10523000A8602360027530BC70478460C460106051
:10524000DEE700BF8413FF1FF8B5224E34682CB38D
:105250002368002B3AD1204F1D4604E03468ECB19E
:105260002368002B32D1A36803B1DD60206933606D
:10527000036825751B68BB4221D1037F4560022B63
:10528000C46020D0FFF73AFF6368002BE6D02360AC
:105290002046FFF7A5FF3468002CE1D1EFF310831F
:1052A00072B60E4A00211068116003B962B628B1C7
:1052B0008468FFF795FF20460028F9D1F8BD224603
:1052C00000219847E0E783689847DDE7013B2360CA
:1052D000E4E700BF8413FF1F7D5100009413FF1FFC
:1052E000024A136801331360FFF7AEBF0012FF1FBD
:1052F0000368C9B21B6818470368C9B21B6818471E
:105300000368C9B21B6818470368C9B21B6818470D
:1053100008B5084600F022FE012008BD08B5084681
:1053200000F01CFE012008BD38B508460D4603F00C
:1053300007FA04460146284600F01AFE204638BD0A
:1053400010B508461446114600F012FE204610BD66
:1053500000F0ECBE08B5084600F0D8FD003018BFDC
:10536000012008BD08B5084600F0AEFD003018BFAA
:10537000012008BD0846114600F022BD084600F095
:1053800069BD00BF084600F0FFBC00BF00F088BC4C
:10539000034B03EB5100B0FBF1F000F0C3BB00BFC7
:1053A000001C4E0E10B5064B144603EB5100B0FB2B
:1053B000F1F000F0B7FB2046BDE8104000F03ABC29
:1053C000001C4E0E00F09ABE00F064BE00F052BE0B
:1053D00000F032BE00F03CBE704700BF08B5084682
:1053E00001F026F9012008BD08B5084601F020F9B2
:1053F000012008BD38B508460D4603F0A1F9044662
:105400000146284601F06CF9204638BD10B5084623
:105410001446114601F064F9204610BD01F03EBA71
:1054200008B5084601F0DCF8003018BF012008BDBF
:1054300008B5084601F0B2F8003018BF012008BDD9
:105440000846114601F042B8084601F079B800BF9D
:10545000084601F01FB800BF00F0BEBF034B03EBCE
:105460005100B0FBF1F000F00DBF00BF001C4E0E6C
:1054700010B5064B144603EB5100B0FBF1F000F001
:1054800001FF2046BDE8104000F070BF001C4E0E2A
:1054900001F0ECB901F0B6B901F0A4B901F084B99A
:1054A00001F08EB90368064A1B68934205D110B516
:1054B000C8B201F0BDF8012010BDC9B2184700BF45
:1054C000E95300000368064A1B68934205D110B5F2
:1054D000C8B201F0ADF8012010BDC9B2184700BF35
:1054E000E95300000368064A1B68934205D110B5D2
:1054F000C8B201F09DF8012010BDC9B2184700BF25
:10550000E95300000368064A1B68934205D110B5B1
:10551000C8B201F08DF8012010BDC9B2184700BF14
:10552000E9530000704700BF08B5084601F0FAFBD8
:10553000012008BD08B5084601F0F4FB012008BDB4
:1055400038B508460D4603F0FBF8044601462846E8
:1055500001F0F2FB204638BD10B50846144611464E
:1055600001F0EAFB204610BD01F076BC08B5084604
:1055700001F0B8FB003018BF012008BD08B508468F
:1055800001F08EFB003018BF012008BD084611460F
:1055900001F05ABB084601F081BB00BF084601F08C
:1055A00037BB00BF01F0FCBA034B03EB5100B0FB6B
:1055B000F1F001F071BA00BF000E270710B5064BDD
:1055C000144603EB5100B0FBF1F001F065FA204600
:1055D000BDE8104001F0AEBA000E270701F024BC70
:1055E00001F0EEBB01F0DCBB01F0BCBB01F0C6BBBF
:1055F0000368064A1B68934205D110B5C8B201F092
:1056000091FB012010BDC9B2184700BF35550000FD
:105610000368064A1B68934205D110B5C8B201F071
:1056200081FB012010BDC9B2184700BF35550000ED
:105630000368064A1B68934205D110B5C8B201F051
:1056400071FB012010BDC9B2184700BF35550000DD
:105650000368064A1B68934205D110B5C8B201F031
:1056600061FB012010BDC9B2184700BF35550000CD
:10567000704700BF08B5FCF73DFBFDF745F800F0AB
:10568000CBF8FAE702F030BD02F036BDF8B50E46B1
:1056900071B17AB10746144600253B6816F8011B24
:1056A0001B6838469847013C0544F6D12846F8BDAA
:1056B0000846F8BD1046F8BD00B5064A03681288D2
:1056C0005B6883B001A9ADF804200222984703B0BB
:1056D0005DF804FB54950000F0B507468BB0002A36
:1056E00033D0012A08BF0A2251B3212400E0F4B2CA
:1056F000B1FBF2F502FB1511C8B2092900F1300126
:1057000098BFC8B20AA988BF3730214488BFC0B249
:1057100001F8240C661E2946002DE8D133B1013C66
:10572000E4B20AAB23442D2203F8242C3B6801AADF
:1057300011195B683846C4F1220298470BB0F0BDDE
:1057400030228DF825202124E8E70368C9B21B68C0
:1057500098470BB0F0BD00BF0029BABF49422D23C6
:1057600000230A22FFF7B8BFFFF7A8BBFFF780BBF3
:10577000FFF75ABBFFF794BBFFF770BCFFF74ABCBB
:1057800008461146FFF7B6BB0846FFF737BC00BF17
:10579000704700BFF0B5164D2A680AB31549164B7D
:1057A000DFF85CE082FB016781FB0214D617D11998
:1057B0001444C6EB2141C6EB244403FB04F40EFB66
:1057C000112244F2A71303FB0243002B02DA03F178
:1057D0000043013BB3FBF0F22B6000FB1230F0BD45
:1057E000064B2B60B3FBF0F200FB1230F0BD00BFA4
:1057F0009813FF1F5F0B4E83ECF4FFFF42CE0C1F8C
:105800001DF30100884206DA10B50446081AFFF7B6
:10581000C1FF204410BD704738B52C4C237803B12C
:1058200038BD01232370FFF73BFB002842D100F075
:1058300021FC00283BD100F0D5FF002834D101F035
:10584000AFFA70BBFEF73EFB40BB01F083FB10BB21
:1058500001F0FCFBE0B900232370EFF30583002B7C
:10586000DED1EFF3108172B6194B186828B3194CCA
:10587000227812BB45691D60012323700DB3AA6114
:1058800001B962B600254577836898472570C7E758
:1058900001F09AFCDFE701F095FCD9E701F090FCFC
:1058A000D3E7FFF7E5FECDE7FFF73CFEC7E7FFF7DD
:1058B00093FDC0E7FFF76CFFB9E70029B0D162B6EE
:1058C00038BD054B1D600029DCD1DAE79C13FF1FB2
:1058D0008C13FF1F9013FF1F8813FF1F30B429483C
:1058E000294A2A4B2A4D6024E121047011701B784B
:1058F000284C082B30D00A2B2748284937D00C2BAE
:105900000CBF35225D2212232A60236002600B60E7
:10591000234B24491B78244ABBB101230B6013603D
:10592000224B23491B78234A012B26D9042B0FD95C
:10593000082B1ED9102B94BF862387230B6013607E
:105940001D4B01221A7030BC70470B601360E7E7F3
:1059500084230B601360F3E700F58E200F490830B5
:10596000212213232A60236002600B60D0E73922D2
:10597000F7E785230B601360E2E780230B60136079
:10598000DEE700BF00400740014007408808FF1FD6
:1059900008B003400CB0034008B00B400CB00B4003
:1059A0009E13FF1F20B0034020B00B408908FF1F4B
:1059B00024B0034024B00B409D13FF1F0A4A0B493B
:1059C000136843F4805313600B7843B9084BC0222B
:1059D0001A70084B80F30C0000B218807047044B1B
:1059E00080221A70F5E700BF2C8004409E13FF1F31
:1059F00021C00C4000C00C400A4A0B49136843F414
:105A0000005313600B7843B9084BC0221A70084B3F
:105A100080F30C0000B218807047044B80221A708B
:105A2000F5E700BF2C8004409E13FF1F21D00C40DF
:105A300000D00C40F0B44D1E2E46002400E001348E
:105A4000B0FBF2F302FB1300092800F130078ABF14
:105A50003730F8B2C0B206F8010F1846002BEED16D
:105A60000A1953704CB1107815F8016F2870013382
:105A7000E01A834202F80169F5DB0846F0BC704782
:105A80002DE9F84F214B1B6807460BB101221A7014
:105A9000DFF888901E4D99F80040DFF884801D4E95
:105AA00001343F2C8ABF4FF0000A5FFA84FA544653
:105AB000AB462B78A34216D1FDF760FE40281FDCD1
:105AC00033791B06F5D59BF8003001333F2B86BF99
:105AD00000221346DAB218F80330DBB2F3712A70F1
