:10000000F8FF022099010000CD460000854600005F
:1000100085460000854600008546000085460000B4
:10002000854600008546000085460000CD4600005C
:10003000CD46000085460000756100007962000031
:10004000CD460000CD460000CD460000CD46000064
:10005000CD460000CD460000CD460000CD46000054
:10006000CD460000CD460000CD460000CD46000044
:10007000CD460000CD460000CD460000CD46000034
:10008000CD460000CD460000CD460000CD46000024
:10009000CD460000CD460000CD460000CD46000014
:1000A0002D45000039450000CD460000CD4600003A
:1000B000CD460000CD460000CD4600001171000085
:1000C000CD46000081780000CD460000157E00007E
:1000D000CD460000E54E0000CD460000CD460000B4
:1000E000CD460000CD460000CD460000CD460000C4
:1000F000CD460000CD460000CD460000CD460000B4
:10010000CD460000CD460000CD460000CD460000A3
:10011000CD46000071510000CD460000CD460000E4
:10012000CD460000CD460000CD460000CD46000083
:10013000CD460000CD460000CD460000CD46000073
:10014000CD460000CD4600000D7F0000CD460000EA
:1001500005800000CD460000CD460000CD460000E1
:10016000CD460000CD46000045450000CD460000CC
:10017000CD460000CD460000CD460000CD46000033
:10018000CD460000CD460000CD460000CD46000023
:10019000CD460000CD460000584B4CF2205210B521
:1001A0001A804DF628121A8000BF00BF04F092FAA0
:1001B000534B4FF030621A60524A9A60524ADA60EA
:1001C000524B4FF470021A60514A136813F4807353
:1001D00004D150490B604FF4A85313604E4B1A786A
:1001E000110703D51A7842F008021A704B4B4C499C
:1001F0002A221A704B4A4C4B8B4204D252F8040FFD
:1002000043F8040BF8E7494B494900228B4202D2DC
:1002100043F8042BFAE74749474A002352F82300E2
:1002200041F823000133662BF8D1444B444A802126
:1002300003F8011B9342FBD1424B3E4A1A60424BEA
:100240008A221A70A3F5805324225A70A0221A70B1
:100250009A799207FCD59A79D406FCD43B4A9379D3
:1002600003F00C03082B394BF9D103221A714622F3
:100270005A719A799006FCD5344A9179334B4906E4
:10028000FBD5334A4FF08271116009215160202261
:100290001A709A7902F00C020C2AFAD12D4B2E4AD0
:1002A0001A602E4B2E4A1A6000225A60072243F829
:1002B000042C2C4AC3F80C2D62B604F0CBFC154B71
:1002C0001B68DA0705D5284804F0A4FA274B284A0A
:1002D0001A60284B1B785B0609D5244C244B2268F6
:1002E0009A4204D1204804F095FA002323600AF0D2
:1002F00097F804F0F5F906F089F9FEE70E200540BD
:1003000030800440823F04000100002B88ED00E0B3
:1003100010D0034014D0034002D0074000E0074053
:100320007C11FF1F24BB0000F806FF1F7C11FF1F7C
:100330007816FF1F0002FF1F0000000000E400E02D
:1003400056E400E008ED00E00050064000400640A2
:100350004480044004800440C010050014E000E024
:10036000BFD40100000020202DAC1E5D1CE0034026
:10037000A5C3945A00F00740FFFFFFFFFFFFFFFFF8
:10038000FFFFFFFFFFFFFFFFFFFFFFFFFFFFFFFF7D
:10039000FFFFFFFFFFFFFFFFFFFFFFFFFFFFFFFF6D
:1003A000FFFFFFFFFFFFFFFFFFFFFFFFFFFFFFFF5D
:1003B000FFFFFFFFFFFFFFFFFFFFFFFFFFFFFFFF4D
:1003C000FFFFFFFFFFFFFFFFFFFFFFFFFFFFFFFF3D
:1003D000FFFFFFFFFFFFFFFFFFFFFFFFFFFFFFFF2D
:1003E000FFFFFFFFFFFFFFFFFFFFFFFFFFFFFFFF1D
:1003F000FFFFFFFFFFFFFFFFFFFFFFFFFFFFFFFF0D
:10040000FFFFFFFFFFFFFFFFFFFFFFFFDEF9FFFF23
:1004100010B5054C237833B9044B13B10448AFF33E
:1004200000800123237010BD7C11FF1F000000001D
:1004300028BB0000084B10B51BB108490848AFF3B2
:1004400000800848036803B910BD074B002BFBD0A0
:10045000BDE81040184700BF000000008011FF1FDA
:1004600028BB00007C11FF1F00000000704700BF88
:10047000836842680149012003F0DABB48B00000FC
:10048000836842680149012003F0D2BB74B00000C8
:1004900008B5426883680349012003F0C9FB0020C6
:1004A00008BD00BF9CB0000083684268014901207C
:1004B00003F0BEBB74B000000346007B997304F0E8
:1004C0003FBB00BF10B50446007B04F03FFBE37B5D
:1004D000A073834201D0012804D0003018BF01204E
:1004E000E07310BD01460D2004F02AFB23699847F4
:1004F000A07B003018BF0120E07310BD10B504468A
:10050000007B04F023FBA07310BD00BF0346007BFB
:10051000597304F029BB00BFF0B5C2698369511C4F
:1005200008BF264A83B002BF12680092009AD31A0D
:10053000002B37DD224E017B01231A460746304649
:1005400003F0E6FE96F8392096F838309A422ED01D
:10055000002107F10C009A4226D9F2180133127ECD
:1005600086F8383015467A750446072245FA02F3B4
:1005700003F00103012B02F1FF3208BF012104F84F
:10058000013F531CF2D1B97596F8392096F83830EE
:100590009A42E0D1094B1B680193019BBB614FF06C
:1005A000FF33FB6103B0F0BDFF252A46DBE7BB68E4
:1005B0007A680449022003F03BFBEBE70412FF1FBB
:1005C0006C07FF1FCCB0000030B54FF47A7383B0D6
:1005D000013BFDD142690369511C01BF204A1268E9
:1005E0000092009AD31A002B31DD1E4C017B0123AF
:1005F0001A460546204603F08BFE94F8392094F8FD
:10060000383093420DD124E00A7E84F83830131C30
:1006100018BF01236B7394F8392094F838309A424C
:100620000DD09A4204EB030103F10103ECD801233E
:100630006B7394F8392094F838309A42F1D1084B12
:100640001B680193019B2B614FF0FF336B6103B07B
:1006500030BDAB686A680449022003F0E9FAEEE7AE
:100660000412FF1F6C07FF1FCCB0000070B5C269F9
:100670008369511C08BF244A82B002BF12680092ED
:10068000009AD31A002B32DD204D017B01231A463C
:100690000646284603F03CFE95F8392095F8383098
:1006A0009A4218BF06F10C0026D09A4221D9EA18C6
:1006B0000133127E85F838301446727501460723DF
:1006C00044FA03F202F00102013B01F8012F5A1C27
:1006D000F6D195F8392095F838309A42E5D10A4B91
:1006E0001B680193019BB3614FF0FF33F36102B0CC
:1006F00070BDFF242246E0E7B36872680449022017
:1007000003F096FAEBE700BF0412FF1F6C07FF1F10
:10071000CCB00000704700BF0C4B1B689A7B012ACD
:100720000AD01A680A48526882424FF001010AD181
:10073000187B997304F004BA1A680548526882421B
:100740004FF00001F4D01846104700BFBC11FF1F46
:10075000B904000030B5274B274A197883B071B926
:100760001268264814686468012584421D702BD1E4
:10077000107B917303B0BDE8304004F0E1B912681A
:100780001E491068446800208C42187022D1012153
:10079000107B917304F0D4F9194B1B68B3F90E2048
:1007A000002199842AB9B3F9102012B9B3F91220A3
:1007B000A2B100220121DA811A825A825A75197572
:1007C00083F8261003B030BD1046234603B0BDE8C1
:1007D0003040184710460121A047DDE701218DF880
:1007E00007208DF80610BDF806109A8A9142E0D1D4
:1007F000E8E700BFA411FF1FBC11FF1FB9040000F0
:10080000A811FF1F5C4B30B41B685B7B88B0002BCA
:1008100039D15A4B1B6893F914300B2B6FD00D2B29
:10082000574B1B68B3F9242050D012F1FF0F11DA97
:10083000B3F90E106FF0FE0299B10021FF240120E0
:100840005A82D981197559751C8283F8260008B01F
:1008500030BC7047B3F90E10FF2AA8BFFF22002951
:10086000EBD1B3F91000FF28E7D1B3F912009042A1
:10087000E3D18DF81E108DF81F10BDF81E00998A67
:100880008842DAD1E3E73E4B1B68B3F9242012F12A
:10089000FF0F17DA6FF0FE02B3F90E100029CCD16A
:1008A000B3F91000FF28C8D1B3F912009042C4D1A7
:1008B0008DF806108DF80710BDF80600998A884259
:1008C000BBD1C4E7FF2AA8BFFF22E5E712F1FF0F63
:1008D00024DBFF2AA8BFFF22B3F90E10193124D060
:1008E0004FF6E7750021AA2401205A82DD811C827F
:1008F0001975597583F8260008B030BC7047204B35
:100900001B68B3F9242012F1FF0F0ADA6FF0FE0220
:10091000B3F90E1019291BD01925E3E76FF0FE0279
:10092000DAE7FF2AA8BFFF22F2E7B3F91010AA29DD
:10093000D6D1B3F912109142D2D100218DF8161000
:100940008DF81710BDF81600998A8842C8D17EE745
:10095000B3F91010AA29DFD1B3F912109142DBD1FB
:1009600000218DF80E108DF80F10BDF80E00998A39
:100970008842D1D16BE700BFD811FF1FF811FF1FCC
:10098000A811FF1F30B4B24B1B681B7D042B90B025
:100990001BD9A3F11302042A49D95A1F012A40F294
:1009A000AF80A3F11102012A40F2BC80DA1F032AB2
:1009B0001BD9A3F10E02022A5AD90B2B00F0E280B8
:1009C0000D2B78D010B030BC7047A24B1B68B3F928
:1009D000242012F1FF0F26DA6FF0FE02B3F90E1099
:1009E000893178D04FF6777510E09A4B1B68B3F9D0
:1009F000242012F1FF0FC0F29280FF2AA8BFFF222D
:100A0000B3F90E10892900F0CD8089250021AA2490
:100A100001205A82DD811C821975597583F82600E0
:100A200010B030BC7047FF2AA8BFFF22D6E7894B21
:100A30001B68B3F9242012F1FF0F39DBFF2AA8BF8E
:100A4000FF22B3F90E108929DFD1B3F91010AA29BA
:100A5000DBD1B3F912109142D7D100218DF80E10DD
:100A60008DF80F10BDF80E00998A8842CDD1A9E704
:100A7000784B1B68B3F9242012F1FF0F73DA6FF083
:100A8000FE02B3F90E108931ACD1B3F91010AA29C6
:100A9000A8D1B3F912109142A4D100218DF82E10E3
:100AA0008DF82F10BDF82E00998A88429AD189E7D7
:100AB0006FF0FE02C5E7674B1B68B3F9242012F103
:100AC000FF0F54DA6FF0FE02B3F90E105A317FD0E7
:100AD0004FF6A6759AE7B3F91010AA2982D1B3F997
:100AE000121091427FF47EAF00218DF806108DF830
:100AF0000710BDF80600998A88427FF473AF61E75A
:100B0000544B1B68B3F9242012F1FF0F33DA6FF056
:100B1000FE02B3F90E10B42970D0B42576E76FF059
:100B2000FE026DE74B4B1B68B3F9242012F1FF0F57
:100B300025DBFF2AA8BFFF22B3F90E10B429ECD1A0
:100B4000B3F91010AA29E8D1B3F912109142E4D1F7
:100B500000218DF81E108DF81F10BDF81E00998A17
:100B60008842DAD12EE7FF2AA8BFFF2289E7FF2AB1
:100B7000A8BFFF22A8E7FF2AA8BFFF22C9E76FF09E
:100B8000FE02D9E7334B1B68B3F9242012F1FF0FA3
:100B900048DBFF2AA8BFFF22B3F90E105A2944D020
:100BA0005A2533E7B3F91010AA297FF42EAFB3F911
:100BB000121091427FF429AF00218DF826108DF894
:100BC0002710BDF82600998A88427FF41EAFF9E607
:100BD000B3F91010AA297FF47BAFB3F91210914238
:100BE0007FF476AF00218DF83E108DF83F10BDF8F0
:100BF0003E00998A88427FF46BAFE3E6B3F91010A8
:100C0000AA298AD1B3F91210914286D100218DF818
:100C100016108DF81710BDF81600998A88427FF4D7
:100C20007CAFCFE66FF0FE02B6E7B3F91010AA2949
:100C3000B6D1B3F912109142B2D100218DF836101D
:100C40008DF83710BDF83600998A8842A8D1B9E6E8
:100C5000F811FF1FA811FF1FBA4B1B68D3ED087ACC
:100C60002DE9F04FF5EEC07AF1EE10FAD8BFF1EEB3
:100C7000677AB1EE087AF4EEC77AF1EE10FAABB00B
:100C800065D5DFF8CCB2B048DBF800A09AF81010B8
:100C900005F02EFDAC4805F0DBFC9AF8101029B1E8
:100CA000012900F06881022900F0E780FF2C6ED056
:100CB000FF2D6CD0FF2F6AD0B9F1FF0F67D0DBF8A2
:100CC0000040A148217C05F013FD9F4805F0C0FCC1
:100CD000237C33B1012B00F02582022B04BF237B40
:100CE0000293029B5A2B40F3AA81DBF800301A7C56
:100CF00062B1012A00F07881022A07D11A7A0392A0
:100D00005A7A05929A7ADB7A07920A93039BFF2B11
:100D100000F00781059BFF2B00F00381079BFF2B51
:100D200000F0FF800A9BFF2B00F0FB80874B1B68C5
:100D3000B3F9242012F1FF0F80F2D7816FF0FE0289
:100D4000B3F90E105A2900F0F4815A256BE07F4B5D
:100D50001B68B3F9242012F1FF0F14DA6FF0FE02C2
:100D6000B3F90E1019B9B3F91010002975D000218C
:100D700001205A82D98119825975187583F8260085
:100D80002BB0BDE8F08FFF2AA8BFFF22E8E7DBF811
:100D90000040217C002953D1FF2EF1D0B8F1FF0F84
:100DA000EED0009BFF2BEBD0019BFF2BE8D000295E
:100DB0006CD10023452B00F3E780634805F098FCD5
:100DC000614805F045FC237C63B1012B00F01581DF
:100DD000022B07D1237B0493637B0693A37B0993A8
:100DE000E37B0C93049BFF2B00F0B480069BFF2B4E
:100DF00000F0B080099BFF2B00F0AC800C9BFF2B18
:100E000000F0A880514B1B68B3F9242012F1FF0FAA
:100E100080F281816FF0FE02B3F90E105A3100F0BA
:100E2000CA814FF6A67500218C2401205A82DD81EB
:100E30001C821975597583F826002BB0BDE8F08F18
:100E4000012900F0E3800229A6D1A37A0093E37A76
:100E5000267A94F8098001939EE7B3F91200904234
:100E600085D101208DF8A7108DF8A600BDF8A60049
:100E7000998A88427FF47BAF82E79AF80C409AF80F
:100E80000D509AF80E709AF80F900FE7012900F0B4
:100E9000278102298DD1237A5A2B8BDD2A4805F030
:100EA00027FC294805F0D4FB237C2BB1012B00F053
:100EB000E881022B00F0D881089BFF2B00F0AE8068
:100EC0000B9BFF2B00F0AA800E9BFF2B00F0A6804F
:100ED000109BFF2B00F0A2801C4B1B68B3F9242051
:100EE00012F1FF0F80F221816FF0FE02B3F90E10B4
:100EF0005A297FF42AAFB3F910108C297FF425AF5B
:100F0000B3F9121091427FF420AF00218DF88610C2
:100F10008DF88710BDF88600998A88427FF415AF56
:100F20002EE70A4B1B68B3F9242012F1FF0F4FDAAA
:100F30006FF0FE02B3F90E102D2900F010812D255F
:100F400071E700BFE411FF1F8008FF1FA811FF1FFA
:100F5000F411FF1FC24B1B68B3F9242012F1FF0FDD
:100F60003ADA6FF0FE02B3F90E10873100F00D810E
:100F70004FF6797557E79AF808409AF809509AF8A9
:100F80000A709AF80B9091E6B54B1B68B3F92420D0
:100F900012F1FF0F24DA6FF0FE02B3F90E100029F0
:100FA0007FF4E5AEB3F9101000297FF4E0AEB3F999
:100FB000120090427FF4DBAE01208DF89F108DF877
:100FC0009E00BDF89E00998A88427FF4D0AED7E695
:100FD000FF2AA8BFFF22ADE7FF2AA8BFFF22C2E772
:100FE000FF2AA8BFFF22D8E71A7B03925A7B0592FB
:100FF0009A7BDB7B07920A9388E6237A0493637AD1
:101000000693A37A0993E37A0C93EBE6A37B009310
:10101000E37B267B94F80D800193BDE6904B1B6823
:10102000B3F9242012F1FF0F79DBFF2AA8BFFF22BA
:10103000B3F90E10872900F0D7808725F3E6DBF897
:1010400000408848217C05F053FB864805F000FBF2
:10105000237C33B1012B00F01D81022B04BF237BC5
:101060000D930D9B452B00F3D580DBF800301A7CE7
:101070002AB1012A00F02781022A00F030810F9B5B
:10108000FF2B36D0119BFF2B33D0129BFF2B30D080
:10109000139BFF2B2DD0724B1B68B3F9242012F148
:1010A000FF0F80F2EA806FF0FE02B3F90E105A31A2
:1010B0007FF4B7AEB3F910108C297FF4B2AEB3F958
:1010C000121091427FF4ADAE00218DF86E108DF8B4
:1010D0006F10BDF86E00998A88427FF4A2AE4FE689
:1010E000237B5A2B7FF766AED8E6FF2AA8BFFF22E4
:1010F00026E65B4B1B68B3F9242012F1FF0F70DB6F
:10110000FF2AA8BFFF22B3F90E102D3100F0C580D1
:101110004FF6D37587E6FF2AA8BFFF227CE66FF063
:10112000FE0285E7237A0293DBE5FF2AA8BFFF22B0
:10113000DCE6B3F910108C297FF407AEB3F9121076
:1011400091427FF402AE00218DF85E108DF85F10A1
:10115000BDF85E00998A88427FF4F7AD10E6B3F9D6
:1011600010108C297FF4EBAEB3F9121091427FF48A
:10117000E6AE00218DF856108DF85710BDF85600D8
:10118000998A88427FF4DBAEFAE5B3F910108C2916
:101190007FF4EEAEB3F9121091427FF4E9AE002174
:1011A0008DF88E108DF88F10BDF88E00998A8842C8
:1011B0007FF4DEAEE4E5B3F910108C297FF431AE94
:1011C000B3F9121091427FF42CAE00218DF89610E5
:1011D0008DF89710BDF89600998A88427FF421AE69
:1011E000CEE56FF0FE028EE7B3F910108C297FF484
:1011F00024AFB3F9121091427FF41FAF00218DF894
:101200007E108DF87F10BDF87E00998A88427FF4A9
:1012100014AFB5E5124B1B68B3F9242012F1FF0F90
:101220005ADBFF2AA8BFFF22B3F90E1000297FF472
:101230009EADB3F9101000297FF499ADB3F91200F7
:1012400090427FF494AD01208DF877108DF87600F0
:10125000BDF87600998A88427FF489AD90E500BF99
:10126000A811FF1F8008FF1F237B0893637B0B934C
:10127000A37B0E93E37B10931EE6FF2AA8BFFF22F9
:1012800013E7237A0893637A0B93A37A0E93E37A96
:10129000109311E6237A0D93E3E6B3F910108C292D
:1012A0007FF436AFB3F9121091427FF431AF0021D1
:1012B0008DF866108DF86710BDF86600998A88422F
:1012C0007FF426AF5CE51A7B0F925A7B11929A7BD2
:1012D000DB7B12921393D2E66FF0FE02A4E71A7A38
:1012E0000F925A7A11929A7ADB7A12921393C6E687
:1012F0002DE9F0473A4BDFED3B7A1B689FED3A7AD8
:101300002DED028B93ED088A68EE277AB5EEC08A40
:10131000C7EE876A824600260AEBDA7A4FEA6A0A43
:10132000F1EE10FA16EE900A4CBF304F304F08F035
:101330000BFD41EC100B06F017FF55EC104B10EEB7
:10134000102A10EE100A2B46294608F09FFB224671
:10135000804689462B462046294608F049FD02462C
:101360000B464046494608F091FB0022214B08F00D
:101370003FFD0022204B08F089FB3B46324608F037
:1013800037FD08F0CFFFCAF1000307EE903AF8EE00
:10139000E77A1A4BF4EEC87AF1EE10FA08DC07EEA1
:1013A00090AAF8EEE77AF4EEC87AF1EE10FA0FD5CB
:1013B00000B210F1FF0F1B6807DBFF28A8BFFF205A
:1013C000BDEC028B9884BDE8F0876FF0FE00F7E774
:1013D000BDEC028B1B6800229A84BDE8F08700BF39
:1013E000E411FF1FDB0FC9400000B4430000F03FD1
:1013F0000000F0BF000031C000804F40A811FF1F67
:1014000070B5504C012184B00E20FFF771FF2368A6
:101410009A68917D31B9DA68927D1AB91A69927D1C
:10142000002A40D0DFED487A93ED057A37EE677AEF
:1014300077EEC77AFDEEE77ACDED017ABDF90420AB
:1014400012F5B47F53DA414A41480068B0F92440AC
:1014500014F1FF0F51DA6FF0FE04B0F90E5095420F
:101460005AD00021462501754175C281448205820A
:101470009A68012180F82610917D29B9DA68927D59
:1014800012B91B699B7DF3B1324B33491B681A6853
:1014900052688A4253D1187B0121997304B0BDE888
:1014A000704003F04DBB2D4B1B6893F914305A1C50
:1014B0002CD00B3BDBB2022B13D8FFF7A3F9236828
:1014C0009A68917DD9E7234B23481B681A685268B4
:1014D000824216D1187B997304B0BDE8704003F0C6
:1014E0002FBBFFF74FFA23689A68917DC5E7B2F5E5
:1014F000B47FA8BF4FF4B472A6E7FF2CA8BFFF24A7
:10150000ABE7184604B0BDE870401047FFF7A4FBF6
:1015100023689A68917DB0E7B0F91050462DA0D1AC
:10152000B0F91250A5429CD100258DF80E508DF8CF
:101530000F50BDF80E60858AAE4292D19DE71846E5
:101540000121DFE7C411FF1F0000344398FEFFFFB5
:10155000A811FF1FBC11FF1FB9040000F811FF1FE5
:10156000F0B4104B10481A6884B04FF47A750192A9
:10157000019A19680291029F1B6803930B490C4B57
:10158000039C42606426002285604FF0FF350273A1
:101590004F600A738E609A6083E8300004B0F0BC3C
:1015A000704700BF0412FF1FC811FF1FAC11FF1FBF
:1015B0009811FF1F10B5026BC36A511C08BF0F4A78
:1015C0008CB002BF12680192019AD31A002B12DD6F
:1015D000044603A91C3002F04FF8084B08981B681A
:1015E0000293029B09990A9AE3624FF0FF3320614C
:1015F0006161A26123630CB010BD00BF0412FF1F24
:1016000030B5426C036C511C08BF374A8DB002BF25
:1016100012680292029AD31A632B01DC0DB030BD1E
:10162000044603A92C3002F039F90A9B0898099D59
:10163000A3612061656108F087FBCDE900012846C0
:1016400008F082FB9DED001B41EC100B06F0ECFD59
:1016500051EC100B08F08EFED4ED0A7ADFED236A10
:10166000DFED235A07EE100A77EE277AF5EEC07AFF
:10167000F1EE10FA44BF9FED1F7A77EE877A9FED67
:101680001D7AF4EEC77AF1EE10FAC8BF77EEC77A8A
:1016900094ED097A67EEA67A87EEA56A76EE477A28
:1016A00084ED076AF4EEE67AF1EE10FAA4BF9FED3E
:1016B000127A77EEC77A9FED117AC4ED087AF4EECC
:1016C000C77AF1EE10FA05D89FED0B7A77EE877A9C
:1016D000C4ED087A044B1B680393039B23644FF00B
:1016E000FF3363640DB030BD0412FF1F00003443AC
:1016F000DB0F4940DB0FC9400000B443000034C396
:101700002DE9F04FCF4BD04C1A78DFF8A4A3CF4D82
:10171000D34303F001035340CA4ABBB010201370F7
:1017200004F07CFF2268CA4B4360074600264FF056
:1017300001080D2302EB080E4146BA601846C7F8AF
:1017400000A03B7387F80D80BE73C4F800E003F07F
:101750000BFAC04B3B60C04B28201F6004F05EFFBB
:101760002B680F9307462068DDF83CE02B68109348
:1017700000EB08020A234FF0FF3978604FF00C0BA2
:101780001098B64922604FF47A72C7F808E07A845C
:1017900087F8203039607861414618463E61FE6125
:1017A00087F8246087F82560C7F80C90C7F8189070
:1017B00087F821B0009303F0D7F94146584603F06B
:1017C000D3F94146584603F0BBF9009B4146184601
:1017D00003F0B6F9A24BA3481F60262104F056FB84
:1017E000A14804F035FF4FF4FA6003F0E5F9172142
:1017F0009E4804F04BFB9C4804F02AFF142004F0A0
:101800000DFF074620689A4AC7F800A01B2300EB8B
:10181000080E3146B8607A6018463B737E73BE731B
:10182000C4F800E003F0A0F9924B934A3B61934B5C
:101830003B60FE731420176004F0F0FE2268DFF8AE
:1018400074E2C0F800A007461A2302EB080C184601
:10185000BA60C7F804E03B7331467E73BE73C4F8C8
:1018600000C003F081F9DFF850C2DFF850E2834B8B
:10187000C7F810E03B60082233460721FE7328A812
:10188000CCF8007002F08CFA1C2004F0C7FE2A6825
:1018900023680E928046C0F81090DFF824C20E9A9A
:1018A000C8F800C028A803F1010EC8F80C204FF4B6
:1018B0001651C8F80800C8F80430C8F8146088F851
:1018C000186088F81960C4F800E002F0AFFA6C4BB9
:1018D0006C4FC3F80080142004F0A0FE23686A4A0D
:1018E00006748046591CC8F80020C8F8043041F638
:1018F0006A00216003F042FA644B3820C3F800808C
:1019000004F08CFE23686249804619226148C8F8B9
:101910000830C8F80410013388F80C20C8F80070AB
:10192000236008F11C0A02F011FB00235A4AC8F890
:101930001030C8F81430C8F81830C8F800205046E5
:101940004DF2314101F0FEFD2B680D930D9BC8F85F
:1019500030905046C8F83460C8F82C3002F0C0F817
:1019600038B9D8F80830D8F804204C49032002F0E0
:101970005FF94B4B4B4EC3F80080182004F04EFE2D
:101980002368494A026082465A1CCAF8043024205F
:10199000226004F043FE2368DFF828E1814602213B
:1019A000C9F804E05A1C89F80C10C9F80830394805
:1019B000C9F80070226002F0C9FA4A462B6842F862
:1019C0000D6B13934FF0000B4FF0FF381399CAF8CB
:1019D0000890C9F80DB02420C2F804B0C9F8181056
:1019E00089F815B0C9F820B0C9F81C8004F016FEBB
:1019F000814622682D4BC9F804304FF00303511C77
:101A000089F80C30C9F808202248C9F80070216014
:101A100002F09CFA4A46296842F80D6B129112991D
:101A2000CAF80C90C9F80DB02420C2F804B0C9F867
:101A3000181089F815B0C9F81C80C9F820B004F056
:101A4000EDFD41E00012FF1FDC11FF1F0412FF1F1C
:101A5000FCB00000CCAF0000BC11FF1F08B10000BB
:101A6000F011FF1F10B100008008FF1F38B1000007
:101A700050B1000055070000EC11FF1FB8AF000087
:101A8000E811FF1FE0AF000070B10000F411FF1F6C
:101A900078B100006C07FF1FF0AF000088B10000B4
:101AA000E011FF1F40B00000A4B10000BCB1000075
:101AB000A4AF00005CB10000C011FF1F15070000BB
:101AC00068B10000B0B100002268BE4B81464FF003
:101AD000040E511C89F80CE0C9F80430C9F808203C
:101AE000B948C9F80070216002F030FA4A46296806
:101AF00042F80D6B11911199B44BCAF81090C9F8C6
:101B00000DB08AF81480C2F804B01C20C9F818106F
:101B100089F815B0C9F81C80C9F820B0C3F800A036
:101B200004F07CFD2268AA4BDFF8EC9206464FF0E9
:101B3000050E86F80CE0511C7360B260A248376055
:101B4000216002F003FA2A680C92A24BA2490C9A77
:101B50003160326186F80DB0C6F81480C6F818B04E
:101B600038201E6004F05AFD22689C4901608246BC
:101B7000511CCAF804202420216004F04FFD226883
:101B8000974906464FF0060E86F80CE07160B26089
:101B9000511C8D483760216002F0D8F9324629681F
:101BA00042F80D9B16911699CAF80860C6F80DB058
:101BB0002420C2F804B0B16186F815B086F816B0DA
:101BC000C6F81C80C6F820B004F028FD064622683E
:101BD0008449716007213173B260511C7A483760C3
:101BE000216002F0B3F93246296842F80D9B159145
:101BF0001599CAF80C60C6F80DB02420C2F804B0DC
:101C0000B16186F815B086F816B0C6F81C80C6F823
:101C100020B004F003FD0646226873497160082174
:101C20003173B260511C68483760216002F08EF950
:101C30003246296842F80D9B14911499DFF8DC9123
:101C4000CAF81060C6F80DB04C20C2F804B0B161FB
:101C500086F815B086F816B0C6F81C80C6F820B015
:101C6000C9F800A004F0DAFC2268604906464FF08B
:101C70001E0E86F80CE054487160B260511C37604B
:101C800006F12C0A216002F061F9002258495948F6
:101C90003060B162326143F239017261B261F26166
:101CA00032627262504601F05BFC2A680B920B9A1A
:101CB000C6F8448050460121C6F848B0326401F0AD
:101CC000F1FB504601F0DEFE002800F0368431A919
:101CD000504601F0E3FD389B3698DDF8DC80B361B7
:101CE0003061C6F8148008F02FF8CDE900014046B5
:101CF00008F02AF89DED001B41EC100B06F094FA59
:101D000051EC100B08F036FBD6ED0A7A9FED3A7ACB
:101D1000DFED3A6A06EE100A76EE277A67EE877AEA
:101D200087EEA67A86ED097A354BDFF8F4801E60DF
:101D3000282004F073FC2368324A064605213760E8
:101D4000726031735A1CB3601F48226002F0FEF8C3
:101D50002B680A932C4A0A9B326000274FF0FF320F
:101D6000F261B3612C213762B78486F82670F7815F
:101D700037827782377577752448C8F8006004F099
:101D800085F82348104C04F063FC124B21491E686F
:101D90002B6809933846B3687268099F01F048FFC1
:101DA0004FF0010A337B084884F85EA05B000121F4
:101DB00084F83B3084F85DA002F020FA002840F05F
:101DC0002D832FE0C8B100006C07FF1FF811FF1F23
:101DD000D4B10000D811FF1F00B00000E0B1000036
:101DE000F0B1000000B2000010B2000020B200000C
:101DF00039E4603E20B0000000003443DB0F49406E
:101E0000E411FF1F28B2000030B0000030B2000023
:101E10008008FF1F60B2000010B00000C411FF1F57
:101E2000A811FF1F2B680793079BDF1BB7F57A7F6D
:101E300040F32C83B3687268C249032001F0F8FEB6
:101E40000027D8F800602B6806937268B368BE4913
:101E5000DDF81880002001F0EBFE4FF0010A337B23
:101E6000BA4884F85EA05B00012184F83B3084F816
:101E70005DA002F0C3F9002840F0C2822B680493F1
:101E8000049BC8EB0308B8F57A7F40F3D482B368AB
:101E90007268AC49032001F0CBFE00230393D9F80C
:101EA0000080AB4998E80C00002001F0C1FED8F892
:101EB000086029681F91B3687268A3491F9F0020BA
:101EC00001F0B6FE4FF00109337BA04884F85E9024
:101ED0005B00012184F83B3084F85D9002F08EF9BC
:101EE000002840F080822B681D931D9BDF1BB7F5F7
:101EF0007A7F40F3DD82B3687268924903204FF025
:101F0000000A01F095FECDF800A0D8F80C602B680F
:101F10001C937268B3688C491C9F002001F088FEF6
:101F20004FF00109337B894884F85E905B00012102
:101F300084F83B3084F85D9002F060F9002840F0AE
:101F400045822B681A931A9BDF1BB7F57A7F40F303
:101F5000A482B36872687B4900260320029601F0D0
:101F600067FEB346D8F810602B6819937268B3689F
:101F70007549199F002001F05BFE4FF00109337B8A
:101F8000724884F85E905B00012184F83B3084F84D
:101F90005D9002F033F9002840F00B822B68179314
:101FA000179BDF1BB7F57A7F40F39682B3687268A0
:101FB0006449032001F03CFE00231E46654A127866
:101FC0008AEA020A0AF0200A82EA0A0A029A82EAE5
:101FD0000A0909F040098AEA090983EA090323F09A
:101FE0007F0389EA03095B4B83F80090009B002B79
:101FF00000F0C282BBF1000F40F08B8298E80C0029
:102000005549032001F014FED8F808305F683846BF
:1020100008F076FD0146384603F038FF02214F48AC
:1020200003F034FF4E48072103F030FF4D48DFF83E
:1020300040914B4F04F00CFBD8F80C30D3F804A0BF
:10204000504608F05DFD0146504603F01FFF022197
:10205000424803F01BFFBBF1000F0BBF0421072117
:102060004846384603F012FF3E4804F0F1FAD8F82B
:102070001030D3F80480404608F042FD0146404647
:1020800003F004FF0221354803F000FF002E0BBFD0
:10209000484638460421072103F0F8FE314804F091
:1020A000D7FA009B2BB9BBF1000F02D1002E00F034
:1020B0007A8236212C4803F0E9FE2A4804F0C8FA57
:1020C0002A4B2349D3F80080002098E80C0001F047
:1020D000AFFDD8F808602968B368726831910020B4
:1020E0001949319F01F0A4FD4FF00109337B1748D6
:1020F00084F85E905B00012184F83B3084F85D90A9
:1021000002F07CF8002840F047812B682693269B3C
:10211000DF1BB7F57A7F40F3D581B3687268094950
:1021200003204FF0000B01F083FDCDF800B0D8F88C
:102130000C602B6825937268B3680349259F0020C3
:1021400018E000BF88B1000060B200006C07FF1FFC
:1021500078B200000012FF1FCCB3000090B2000064
:10216000ECB000008008FF1FC0B20000F811FF1F94
:10217000F4B0000001F05CFD4FF00109337BB24880
:1021800084F85E905B00012184F83B3084F85D9018
:1021900002F034F8002840F0F2802B682393239B50
:1021A000DF1BB7F57A7F40F3A981B3687268A7494E
:1021B00000260320029601F03BFDB246D8F81060DD
:1021C0002B6822937268B368A149229F002001F016
:1021D0002FFD4FF00109337B9B4884F85E905B0034
:1021E000012184F83B3084F85D9002F007F8002864
:1021F00040F0B8802B682093209BDF1BB7F57A7FD7
:1022000040F37381B36872689049032001F010FDB8
:1022100000231C468F4A11788BEA010202F0020269
:102220004A40029981EA020909F0040982EA09098F
:1022300083EA090303F0080389EA0309854B83F85D
:102240000090009B002B00F08081BAF1000F40F05D
:102250006A8198E80C008049032001F0E9FCD8F875
:1022600008305D68284608F04BFC0146284603F01C
:102270000DFE0221794803F009FE7948072103F099
:1022800005FE7848784E764D04F0E2F9D8F80C3027
:102290005F68384608F034FC0146384603F0F6FD26
:1022A00002216E4803F0F2FDBAF1000F0BBF0421CA
:1022B00007213046284603F0E9FD6A4804F0C8F9D2
:1022C000D8F810305F68384608F01AFC01463846E6
:1022D00003F0DCFD0221614803F0D8FD002C0BBFA8
:1022E000304628460421072103F0D0FD5D4804F064
:1022F000AFF9009B2BB9BAF1000F02D1002C00F00E
:102300005A813321594803F0C1FD564804F0A0F921
:10231000504B57491A78039B0978534003F0100338
:1023200053404C4A0329137000F04D81222151483B
:1023300003F0ACFD4B4804F08BF94F4B4F491B6841
:102340001A6852688A4240F04D810121187B9973C6
:1023500002F0F6FB4A4B289328A801F087FD3BB01A
:10236000BDE8F08F2B682193219B4649DB1BB3F519
:102370007A7FFFF630AF0B682093209B42E72B68F3
:102380002493249B3F4ADB1BB3F57A7FFFF6F6AE1E
:1023900013682393239B08E72B682793279B394ACD
:1023A000DB1BB3F57A7FFFF6A1AE13682693269B5D
:1023B000B3E62B681893189B3249DB1BB3F57A7F81
:1023C000FFF6DDAD0B681793179BEFE52B681B93AA
:1023D0001B9B2C4ADB1BB3F57A7FFFF6A3AD13687A
:1023E0001A931A9BB5E52B681E931E9B254ADB1B8F
:1023F000B3F57A7FFFF668AD13681D931D9B7AE5F0
:102400002B680593059B1F4AC8EB0303B3F57A7F3E
:10241000FFF625AD13680493049B38E52B680893F9
:10242000089B184ADB1BB3F57A7FFFF6BBAC136839
:102430000793079BFEE4B368726813497E420396D4
:1024400001F0F6FB2BE500BF6C07FF1F88B1000011
:1024500060B200000012FF1FFCB3000090B2000049
:10246000ECB000008008FF1FF4B000001CB30000B7
:102470000112FF1F94B30000BC11FF1FB90400003C
:10248000A8B400000412FF1FB8B30000B36872685C
:10249000564901F0CDFB0127D3E4B3687268534974
:1024A00001F0C6FB4FF0FF3302934FF0010B59E5EB
:1024B000B36872684D4901F0BBFB01234FF0FF3A4E
:1024C000009322E5B3687268484901F0B1FB01232B
:1024D0004FF0FF3B00932AE6B3687268434901F06E
:1024E000A7FB01264FF0FF3368E5B36872683F49E8
:1024F00001F09EFB01244FF0FF338BE6B368726856
:102500003A4901F095FB4FF0FF3302934FF0010A77
:1025100054E6002E3FF472AD98E80C0034490020D8
:1025200001F086FBCCE5002C3FF493AE98E80C005C
:102530003049002001F07CFBEAE60320B3687268B2
:102540002D4901F075FBFFF7EFBB98E80C002B4914
:10255000032001F06DFBD8F808305D68284608F0CC
:10256000CFFA0146284603F091FC0221244803F0EB
:102570008DFC0421234882E698E80C0022490320C0
:1025800001F056FBD8F808305F68384608F0B8FA12
:102590000146384603F07AFC0221194803F076FC24
:1025A0000421184840E52B21184803F06FFC184817
:1025B00004F04EF884E52B21144803F067FC14481E
:1025C00004F046F8A4E62021124803F05FFC10480E
:1025D00004F03EF8104B289328A801F047FC3BB0CC
:1025E000BDE8F08F184601219047B3E6B8B300006C
:1025F000F8B2000050B3000088B10000FCB3000046
:1026000090B20000F4B00000CCB3000094B200001F
:102610008008FF1F70B30000A8B400000349044BFA
:102620000448054A08601A60FFF76AB8C811FF1F1E
:10263000AC11FF1F19070000893B00002DE9F04F86
:10264000C2698369511C08BF2E4A83B002BF126859
:102650000092009AD31A002B50DD90F82630002B00
:102660004CD0294C037BB0F90E90B0F91080B0F932
:10267000127090F814B090F815A05B000546012682
:102680001521204684F83B3084F85E6084F85D6054
:1026900001F048FCC9F30721204601F043FC5FFA32
:1026A00089F1204601F03EFCC8F30721204601F0E5
:1026B00039FC5FFA88F1204601F034FCC7F30721AA
:1026C000204601F02FFCF9B2204601F02BFC5946C0
:1026D000204601F027FC5146204601F023FC3146FC
:1026E000204601F08BFD074B1B680193019BAB61FA
:1026F00000224FF0FF3385F82620EB6103B0BDE8E0
:10270000F08F00BF0412FF1F6C07FF1FB44BB54AC8
:102710002DE9F04F1C6823685B689342A7B040F036
:102720007285626C236C551C01BFAF4A126802921D
:10273000029AD31A632B00F31884AC4BAC4A1D6881
:102740002B685B68934240F047854FF47A73013BF6
:10275000FDD16A692B69501C01BFA34A126804921B
:10276000049AD31A002B1BDDA24C297B01231A46A5
:10277000204601F0CDFD94F8392094F8383093428A
:1027800040F0B782AB686A689B49022001F050FABA
:10279000954B1B680593059B2B614FF0FF336B61D5
:1027A000964B974E1D68AF683B685B68B34240F03C
:1027B0003185FA69BB69511C01BF8B4A12680692C8
:1027C000069AD31A002B38DD8A4C397B01231A462E
:1027D000204601F09DFD94F8392094F8383093425A
:1027E00000F02485002107F10C0C9A4240F2DF84AE
:1027F000E2180133127E84F8383096467A756046C6
:1028000007224EFA02F303F00103012B02F1FF321B
:1028100008BF012100F8013F531CF2D1B97594F8AB
:10282000392094F838309A42DFD16F4B1B680793F8
:10283000079BBB614FF0FF33FB61EF683B685B6850
:10284000B34240F0EF84FA69BB69511C01BF664A8C
:1028500012680892089AD31A002B38DD654C397B30
:1028600001231A46204601F053FD94F8392094F8CC
:102870003830934200F0E284002107F10C0C9A42B8
:1028800040F29984E2180133127E84F8383096467B
:102890007A75604607224EFA02F303F00103012B1A
:1028A00002F1FF3208BF012100F8013F531CF2D1B1
:1028B000B97594F8392094F838309A42DFD14A4BF0
:1028C0001B680993099BBB614FF0FF33FB612F69C4
:1028D0003B685B68B34240F08384FA69BB69511C72
:1028E00001BF414A12680A920A9AD31A002B39DDB5
:1028F000404C397B01231A46204601F009FD94F82B
:10290000392094F83830934200F0A084002107F178
:102910000C0E9A4240F25384E2180133127E84F87E
:10292000383016467A757046072246FA02F303F0ED
:102930000103012B02F1FF3208BF012100F8013F22
:10294000531CF2D1B97594F8392094F838309A4272
:10295000DFD1254B1B680B930B9BBB614FF0FF3303
:10296000FB612F69D5F80880264BE96898F8152097
:102970004C7D787D1A70FFEE007A00225C709870B2
:10298000B0EE677A0531033F08F10D00C5ED057A19
:10299000C5ED067AC5ED077AC5ED087AC5ED097A69
:1029A000C5ED0A7AC5ED0B7AC5ED0C7AC5ED0D7A49
:1029B0009446964614461346B6EE006A002C40F044
:1029C000B381072B40F3FB810F2BD4BF0E783E78E9
:1029D000D5ED067A012EF4EE477A00F0F88113E087
:1029E000E411FF1F011600000412FF1FD811FF1F82
:1029F000C90500006C07FF1FCCB00000C411FF1F09
:102A000019050000FC11FF1FF1EE10FA0FD0D5EDF3
:102A1000076AF4EEC76AF1EE10FAC8BF77EEA67A3D
:102A20004FF00104C8BF67EE867AC5ED057A013321
:102A3000182B02F10F0200F1010007F1010701F16B
:102A40000101BBD1AF4BB04E1D68AF683B685B68FE
:102A5000B34240F0D583FA69BB69511C01BFAB4A50
:102A600012680C920C9AD31A002B33DDA84C397BD8
:102A700001231A46204601F04BFC94F8392094F8C3
:102A800038309A4218BF07F10C0E00F0E7839A42E3
:102A900040F20182E2180133127E84F83830104689
:102AA0007A757146072340FA03F202F00102013BF6
:102AB00001F8012F5A1CF6D194F8392094F83830D7
:102AC0009A42E4D1914B1B680D930D9BBB614FF073
:102AD000FF33FB61EF683B685B68B34240F085837E
:102AE000FA69BB69511C01BF884A12680E920E9A9E
:102AF000D31A002B33DD864C397B01231A4620463E
:102B000001F006FC94F8392094F83830934218BF4D
:102B100007F10C0E00F0A983934280F0B681E21811
:102B20000133127E84F8383010467A7571460723D7
:102B300040FA03F202F00102013B01F8012F5A1C96
:102B4000F6D194F8392094F838309A42E4D16F4B9A
:102B50001B680F930F9BBB614FF0FF33FB612F6925
:102B60003B685B68B34240F04883FA69BB69511C1B
:102B700001BF664A12681092109AD31A002B33DDF7
:102B8000634C397B01231A46204601F0C1FB94F8BF
:102B9000392094F83830934218BF07F10C0600F042
:102BA0006B839A4240F27481E2180133127E84F8FA
:102BB000383010467A753146072340FA03F202F0A6
:102BC0000102013B01F8012F5A1CF6D194F839207B
:102BD00094F838309A42E4D14C4B1B681193119B06
:102BE000BB614FF0FF33FB610020074606460446F9
:102BF00002460346072B00F33781A9681944497B35
:102C0000002940F0288118B19642C0F03881002098
:102C10000133182BEED1002E00F0D582B7FBF6F66B
:102C20002E753C4B3C4A1C6823685B68934240F01D
:102C3000EE82E269A369551C01BF344A1268129200
:102C4000129AD31A002B04DD94F82630002B40F0A2
:102C5000F081324B1C6802F001F9092800F33C8234
:102C60002F4B1C68E168A368481C00F07182628CDD
:102C7000CB1A934280F24B81A2696369511C01BF58
:102C8000224A12681492149AD31A022B20DD94F867
:102C9000252094F8241094F82000002A0CBF01236A
:102CA000FF231944C9B24B1EDBB2FD2B88BF82F053
:102CB000010284F8241088BF84F8252001F0BCFDAF
:102CC000124B1B681D931D9B63614FF0FF33A36183
:102CD00027B0BDE8F08F0A7E84F83830131C18BF87
:102CE00001236B7394F8392094F838309A423FF4FA
:102CF0004FAD9A4204EB030103F10103EBD801232A
:102D0000EFE700BFF811FF1F6D0600000412FF1F60
:102D10006C07FF1FA811FF1F3D260000F411FF1FC5
:102D2000F011FF1F0000B443BEF1000F20D1072BAC
:102D300059DD0F2BD4BF0E783E78D5ED097A012EE0
:102D4000F4EE477A56D0F1EE10FA3FF470AED5EDBE
:102D50000A6AF4EEC76AF1EE10FAC8BF77EEA67AF7
:102D60004FF0010EC8BF67EE867AC5ED087A5EE6C1
:102D7000BCF1000F7FF45BAE072B40F38F800F2B6D
:102D8000D4BF0E783E78D5ED0C7A012EF4EE477A5A
:102D900000F08C80F1EE10FA3FF449AED5ED0D6AEB
:102DA000F4EEC76AF1EE10FAC8BF77EEA67A4FF0DC
:102DB000010CC8BF67EE867AC5ED0B7A37E6067858
:102DC000D5ED067A012EF4EE477A7FF41DAE07EEBC
:102DD000902AF8EEE77AF1EE10FA0CBFC5ED067A0C
:102DE000C5ED077A23E60678D5ED097A012EF4EED3
:102DF000477AA8D107EE902AF8EEE77AF1EE10FABA
:102E00000CBFC5ED097AC5ED0A7A172B7FF40FAE1A
:102E100098F80D30012B7FF415AE5FED3E6AD5EDCD
:102E2000097A95ED077A77EEE67AFFEE006AB4EE5E
:102E3000E67AF1EE10FAC5ED067A05DD77EE877ACF
:102E4000B6EE007A67EE877AB84BC5ED057A2B624D
:102E50006B62AB62F6E50132E118172BD2B2CCB24D
:102E600000F025820120D3E60F2B04DD29691944E7
:102E700011F8031CC4E6E96819444979C0E62746FD
:102E800016460C4608460A46C2E6FF2210464CE6A5
:102E9000FF2210468EE6FF22104601E60678D5EDA9
:102EA0000C7A012EF4EE477A7FF474AF07EE902A85
:102EB000F8EEE77AF1EE10FA0CBFC5ED0C7AC5ED2D
:102EC0000D7A172B7FF4B3AD98F80D30012B7FF4FA
:102ED000B9ADDFED976AD5ED0C7A95ED077A77EE0F
:102EE000E67AFFEE006AB4EEE67AF1EE10FAC5ED8E
:102EF000067A05DD77EE877AB6EE007A67EE877A96
:102F00008A4BC5ED057AEB622B636B639AE502F1A0
:102F100032018B4240F35A8102F164018B4240F34B
:102F2000408102F196018B4240F3508102F1C801C9
:102F30008B4240F3368102F1FA018B4240F3468125
:102F400002F596729A4280F22C817A4B1B68159397
:102F5000159BA3604FF0FF33E36041F288314FF4DB
:102F60007A7003F01BFC608486E61DA904F12C0036
:102F700000F094FC22982061239D6561249BA3614D
:102F800006F0E2FECDE90001284606F0DDFE9DEDEB
:102F9000001B41EC100B05F047F951EC100B07F04A
:102FA000E9F9D4ED0A7ADFED646ADFED645A07EEE1
:102FB000100A77EE277AF5EEC07AF1EE10FA44BFE8
:102FC0009FED5F7A77EE877A9FED5D7AF4EEC77AB0
:102FD000F1EE10FAC8BF77EEC77A94ED097A67EE82
:102FE000A67A87EEA56A76EE477A84ED076AF4EE54
:102FF000E67AF1EE10FAA4BF9FED4D7A77EEC77A2C
:103000009FED507AC4ED087AF4EEC77AF1EE10FA2B
:1030100005D89FED477A77EE877AC4ED087A454B5D
:103020001B680393039B23644FF0FF336364FFF734
:1030300084BB454D237BB4F90E90B4F91080B4F9EC
:10304000127094F814B094F815A05B0001261521B5
:10305000284685F83B3085F85E6085F85D6000F0B5
:1030600061FFC9F30721284600F05CFF5FFA89F190
:10307000284600F057FFC8F30721284600F052FF0A
:103080005FFA88F1284600F04DFFC7F30721284674
:1030900000F048FFF9B2284600F044FF59462846A0
:1030A00000F040FF5146284600F03CFF31462846DC
:1030B00001F0A4F81F4B1B681393139BA3614FF0FF
:1030C000FF33E3610022214B84F826201C6801F0C5
:1030D000C5FE09287FF7C4AD01F0D0FEC5287FF4F6
:1030E000BFAD012501F0CAFE5FFA80F801F0C6FE0F
:1030F000C7B201F0C3FEC6B201F0C0FE012DC0B2DE
:1031000000F0C180022D84F80C806773A673E07311
:1031100040F0BE8001F0B2FEC0B2012803D0022808
:1031200014BF0020022020749AE500BF000080BF79
:103130000000B4430412FF1F00003443DB0F49407A
:10314000DB0FC940000034C36C07FF1FF411FF1FE1
:103150005A48628C01681C911C99C91A9142FFF669
:103160008BAD01681B911B9D02F13201ED1A8D425E
:103170002CDD01681A911A9D02F16401ED1A8D424D
:103180000FDD01681991199D02F19601ED1A8D422A
:103190001CDD01681891189D02F1C801ED1A8D42DD
:1031A00078DC012194F8210001F0CAFC64E5FF22DB
:1031B0009646FFF723BBFF229646FFF769BBFF2227
:1031C0001646FFF7AFBBFF232B752AE5002194F8C5
:1031D000210001F0B5FC4FE528469847FFF7E0BA1B
:1031E000384698472F69FFF7BDBB384698472F6987
:1031F0003B685B68B3423FF4B8AC38469847F3E4A9
:103200003846984766E420469847FFF796BA204626
:1032100098471EE538469847EF683B685B68B342BD
:103220003FF411AB38469847FFF751BBBB687A684B
:103230002349022000F0FCFCFFF7F7BABB687A686C
:103240001F49022000F0F4FCFFF739BBBB687A6825
:103250001B49022000F0ECFCFFF77BBBBB687A68DF
:103260001749022000F0E4FC2CE4BB687A6814499A
:10327000022000F0DDFC6AE4BB687A681049022095
:1032800000F0D6FCA8E484F808806772A672E072A9
:10329000013527E701681791179902F1FA05C91A54
:1032A0008D4293DA016816911699CB1A48E6B2421C
:1032B0007FF6ADAC27461646ADE400BF0412FF1FF3
:1032C000CCB0000030B58BB006E002F079FD8DF88F
:1032D000240009A800F01CFC02F0AEFD0028F4D187
:1032E000654B1B7813BB654B1B78032B78D0644B65
:1032F000644A1C6823681B68934263D1207B01F0F9
:1033000025FCE37BA073834202D0012800F09F805C
:10331000003018BF0120E073FFF7F8F95A4B1B7813
:10332000002B35D0FEF76CF80BB030BD0190FFF7E5
:10333000EDF9554B01981A78002A75D1534C237B2F
:10334000002B69D1524B1B68079307986268A368EA
:103350004E4D801A984238D24E4C01F00BFC237B24
:103360006060002B5BD14A4B1B680693069BA268EA
:10337000484D181A9042D7D32B6898472B7B002BC7
:1033800047D1434B1B680993099860600BB030BD6F
:10339000404C01F0EFFB237B6060002B52D13C4B93
:1033A0001B680293029BA2683A4D181A9042BBD345
:1033B0002B6898472B7B002B2BD1354B1B68039335
:1033C0000398E2E720469847A6E72B6898472B7BAF
:1033D000002B49D12E4B1B68089308986060BBE70F
:1033E0002C4C01F0C7FB237B6060002B37D1284BAE
:1033F0001B680493049BA268264D1B1A934293D327
:103400002B6898472B7B23B9214B1B6805930598A4
:10341000BBE701F0AFFBB8E701F0ACFB96E701F0CA
:10342000A9FB03466068A2E71B4A187012681B4993
:1034300013685B688B421AD10121107B917301F0F4
:103440007FFB7BE701F096FB03466068ABE7014634
:103450000D2001F075FB23699847A07B58E701F028
:1034600089FB03466068C6E701F084FBB6E71046B7
:103470000121984762E700BFFF11FF1F0112FF1FE4
:10348000EC11FF1FC5040000A411FF1FAC11FF1FAA
:103490000412FF1FC811FF1FBC11FF1FB904000059
:1034A000704700BF41737047704700BF704700BF4F
:1034B00038B528220C4605460846002107F0A0FA38
:1034C0000B220849204607F089FB0021E172EA68D7
:1034D0002261002301226162E2606261A361E36113
:1034E000236238BD44B4000038B528220C46054696
:1034F0000846002107F084FA0B220949204607F00C
:103500006DFB0022E2722969216100230120022162
:10351000E06062626161A361E361236238BD00BF64
:1035200044B4000010B51421044603F079F8204695
:1035300010BD00BF10B51021044603F071F82046FD
:1035400010BD00BF002210B4044C0460C160C280F2
:10355000028142815DF8044B704700BF54B4000003
:10356000002210B4044C046001614273C2800281E5
:1035700042815DF8044B704730B40000F8B53D4C13
:1035800032230126A8210546204684F83B3084F8E2
:103590005E6084F85D6000F0C5FC3146204600F0B6
:1035A0002DFE334606221921204600F0B1FE94F884
:1035B000391094F838208B1A052BFDDD91423DD946
:1035C000561CA318F6B28E42187E84F83860294B38
:1035D0003CD21E44941C367EE4B240EA06208C4263
:1035E00040F30B1083F838403CD2D61CF6B21C4492
:1035F0008E42277E83F838602CD21E44141D367EFE
:10360000E4B247EA06278C4247F30B1783F83840A9
:103610002CD2561DF6B21C448E42247E83F83860AC
:103620001CD21E440632317E83F8382044EA01233E
:1036300043F30B13E8802F816B81F8BD4FF0FF300F
:1036400007460346E8802F816B81F8BD60F0FF00DC
:103650000011FF2767F0FF073F11FF2464F0FF030D
:103660001B11E7E74FF0FF373B46E3E74FF0FF332F
:10367000E0E700BF6C07FF1F70B524260C46054627
:1036800082B032460846002107F0BAF92846FFF713
:1036900075FFB5F906309FED196ADFED196AEA6822
:1036A000626007EE103AB8EEC77A164B266027EE36
:1036B000067A1B68019327EE267A019B84ED057A32
:1036C000B5F90820236107EE102AB8EEC77A012069
:1036D00027EE067AA06027EE267A84ED067AB5F901
:1036E0000A3007EE903AB8EEE77A67EE067A67EEB0
:1036F000A67AC4ED077A02B070BD00BF6F12833A9C
:103700000AE81C410412FF1FF8B53E4C3C23012679
:1037100003210546204684F83B3084F85E6084F837
:103720005D6000F0FFFB3146204600F067FD334648
:1037300006221E21204600F0EBFD94F8391094F883
:1037400038208B1A052BFDDD91423ED9501CA31861
:10375000C0B288421F7E84F838002A4B3DD21E1822
:10376000901C347EC0B244EA0724884224B283F815
:1037700038003FD21E18D01CC0B296F9187083F8DA
:10378000380088424FEA07272DD21E18101DC0B2FC
:10379000367E83F83800884247EA06072ED21E1884
:1037A000501DC0B296F9186083F8380088424FEA7D
:1037B00006261CD218440632017E83F8382046EAD9
:1037C0000103EC802B816F81F8BD4FF0FF34274659
:1037D0002346EC802B816F81F8BD3C0244F0FF044E
:1037E00024B26FF0FF0747F0FF076FF0FF0646F0C7
:1037F000FF03E6E74FF0FF373B46E2E74FF0FF33CA
:10380000DFE700BF6C07FF1FF8B50C4C1E46012513
:103810004F002046114684F83B7084F85E5084F8CF
:103820005D5000F07FFB3146204600F07BFB2946CF
:103830002046BDE8F84000F0E1BC00BF6C07FF1F68
:1038400070B5154C4B0001250E462046114684F8F4
:103850003B3084F85E5084F85D5000F063FB2946ED
:10386000204600F0CBFC2B462A463146204600F08D
:103870004FFD94F8383094F839209A420AD9E2186A
:103880002B44157E84F838300121034800F0B6FC43
:10389000284670BDFF25F7E76C07FF1F2DE9F04FA5
:1038A000242283B00D4604460846002107F0A8F8FC
:1038B000DFF8C0B1644EDFF8C0A1DFF8C091DFF8D7
:1038C000C081624F09221E212046FFF7B9FF10F088
:1038D00001003DD02046FFF717FF637BB4F90600D7
:1038E000002B38D15A4B9FED5B7A93ED006A236928
:1038F0006B6007EE900AF8EEE77A0223C7EE866A5D
:10390000AB605549554A1268019224222A60012071
:10391000D1ED005A0199296166EE877AC5ED057AE5
:10392000B4F9083006EE903AF8EEE66AC6EE867A0A
:1039300067EE877AC5ED067AB4F90A3006EE903A5A
:10394000F8EEE66AC6EEA57A67EE877AC5ED077AE5
:1039500003B0BDE8F08F238900F2F77203F2F7732A
:1039600092B29BB240F6EE718A4298BF8B4205D864
:10397000638903F2F7739BB28B42B3D9237B602B2D
:1039800053D013D9A02B41D0C02B31D0802BA9D13B
:10399000A02301221E212046FFF736FF2C4B2E4A82
:1039A0002F491E60A023116023738BE7202B10D0BA
:1039B000402B97D1602301221E212046FFF724FFD0
:1039C000234B2848244A2849186060231160237338
:1039D00078E7402301221E212046FFF715FF1C4BEC
:1039E00022481D4A2249186040231160237369E769
:1039F000E02301221E212046FFF706FF144B164A42
:103A0000C3F80080E023176023735BE7C023012223
:103A10001E212046FFF7F8FE0D4B0F4AC3F800A009
:103A2000C023C2F8009023734CE7802301221E219B
:103A30002046FFF7E9FE064B074AC3F800B0802393
:103A4000166023733EE700BF0000C84300004D43EB
:103A5000F806FF1F0000C842FC06FF1F0412FF1FEC
:103A60000080B143008027440000164400C0554444
:103A700000003E440000E1430000A5430080934362
:103A80000000664310B50446104800F05FFA204677
:103A9000002302221E21FFF7B7FE204600221E212E
:103AA000FFF7CEFE102801D0002010BD20462023B5
:103AB00001221E21FFF7A8FE054B0648064A1860A2
:103AC0000649116020232373012010BD6C07FF1FDE
:103AD000F806FF1F00808944FC06FF1F00007544A4
:103AE00010B50446094800F031FA20465723202239
:103AF0001921FFF789FE204620221921FFF7A0FE99
:103B0000A0F15700B0FA80F0400910BD6C07FF1F0C
:103B100070B50478A62C2FD0A72C06D0A52C00D0E9
:103B200070BD174B01221A7070BDA02002F032FA4E
:103B30002046012402F02EFA124D264603E00134FD
:103B4000E4B27F2C13D0630001210E4885F85E603B
:103B500085F85D6085F83B3000F050FB0028EED121
:103B600020460134E4B202F015FA7F2CEBD1A120FB
:103B7000BDE8704002F00EBA014B00221A7070BD11
:103B8000FF11FF1F6C07FF1F08B5A02002F002FA0B
:103B9000002002F0FFF9044B187802F0FBF9A12095
:103BA000BDE8084002F0F6B90012FF1F174A38B509
:103BB0001378032B18BF034604460D4614481370B0
:103BC000012102F063F9DCB1012C1BD0022C1BD0C7
:103BD000104B1148032C08BF1846042102F056F977
:103BE00003210E4802F052F9284606F089FF0146EB
:103BF000284602F04BF90A48BDE8384002F028BDDB
:103C00000848EAE70848E8E70848E6E70112FF1F26
:103C100088B40000F4B0000080B400008CB4000050
:103C20008008FF1F70B4000068B4000078B4000082
:103C3000F8B5144605460E460E4802211F4602F00E
:103C400025F9204606F05CFF0146204602F01EF9E9
:103C50000721094802F01AF93946084802F048FDE0
:103C60000221074802F012F931462846BDE8F84023
:103C7000FFF79CBF90B4000094B400008008FF1FC1
:103C80009CB4000000207047006910B10368DB6835
:103C900018477047006910B103681B6918477047DF
:103CA000006910B103689B6918474FF0FF307047F7
:103CB000006910B103685B6918474FF0FF30704727
:103CC0002DE9F04106460F4600F054FF306928B157
:103CD000036839461B68BDE8F04118477369002B3B
:103CE00055D02C492C4A0B6843F080730B60136845
:103CF00043F001031360746972B6A1F55D41F839B0
:103D0000B3690A6818700868A3181B1AB3F5BE7F58
:103D100007D9A4F5B47062B60B689B1A9842FBD819
:103D200072B61E490B689B1A9C42FBD81B484FF089
:103D3000080E01210F42B36914BF012500251D7033
:103D4000756903682C44D31A2344B3F5BE7F07D9A1
:103D5000A4F5B47562B603689B1A9D42FBD872B68F
:103D600003689B1A9C42FBD84900BEF1010EC9B200
:103D7000E0D1B3690121197062B6736907491C4427
:103D80000B689B1A9C42FBD80120BDE8F0811846C5
:103D9000BDE8F081FCED00E0001000E0041000E060
:103DA000F8B504464FF47A731B48A3600023164607
:103DB00020602371237384F820300D46D9B9012A7D
:103DC00027D0002701213046276100F0CDFE0221D7
:103DD000284600F0C9FE114B84F8216084F8225077
:103DE00053F83620A26153F83530676103F500734C
:103DF000E3612046F8BD092904D10A2AE1D1084B24
:103E00002361F6E70729DCD1082ADAD1054B2361C3
:103E1000EFE7054B2361ECE7A8B4000048B50000CC
:103E20006008FF1F7008FF1F5008FF1F03691BB1C8
:103E30001A681846D36918470A46094930B4530826
:103E4000084D094C1944B1FBF2F141612B6843F074
:103E500080732B60236843F00103236030BC7047FC
:103E6000000E2707FCED00E0001000E038B5056902
:103E7000044645B12B6828465B6A984700232361B6
:103E80000023636138BD294690F8210000F06CFEE4
:103E9000294694F8220000F067FE0023636138BDD4
:103EA00090F8392090F83800101A704790F83830A0
:103EB00090F839209A4205D95A1C034480F83820DA
:103EC000187E70474FF0FF30704700BF90F83830D1
:103ED00090F839209A4286BF1B18187E4FF0FF30A9
:103EE000704700BF704700BF38B50546B0F85E00A8
:103EF00090B195F85D301446C3F1210294420CD87C
:103F000005F13B001844224600F022FB95F85D3095
:103F1000234485F85D30204638BD012014462871C1
:103F2000EEE700BFB0F85E306BB190F85D30202B4B
:103F300007D8C218013380F85D30012082F83B10A9
:103F40007047012303710020704700BF00234269BE
:103F500080F8383080F8393080F85C3080F85D3097
:103F600080F85E3080F85F3006CA30B40D680469AE
:103F700043662A4383660A60A370426990F8613001
:103F80001649146813441D7A5B7B01EBC5051B02BF
:103F90006D6803F4E06343F064032B6090F86230D3
:103FA00013449D7CDB7D01EBC5011B02496803F4D2
:103FB000E06343F064030B6021685368194205D045
:103FC00003692C225A70036904229A710369202222
:103FD0005A71036980229A7030BC704748B500005E
:103FE00038B50269D478E4B2E106054624D5102339
:103FF000D37063061FD504F0040404F0FF03002C03
:104000005AD042496A6E00230B7085F85D30002A51
:1040100066D0904795F85D30002B61D02B69D02297
:104020009A702B6995F83B201A712B69012285F84B
:104030005C200222DA7038BD04F0400303F0FF0078
:10404000002BD8D19379DBB203F0600160294ED008
:10405000937803F0100303F0FF01B3B114F00104EF
:1040600037D195F85C3095F85D1099424BD9591CC1
:104070002B4485F85C1093F83B3013712B69D022E8
:104080009A702B690222DA70D5E785F8601093796F
:1040900043F0200393712B6995F839101A791F2981
:1040A000D2B2C6D8194800780028C2D068180131A9
:1040B00085F839100276BCE72A6985F83930C023C3
:1040C00093702B69114A1979012111700222DA705B
:1040D000B1E7C02393702B691A790222DA70AAE73C
:1040E0000122002385F85D2085F83B3096E703F038
:1040F000DF039371AB6E23B185F8380095F8390072
:1041000098472A69A4E71471B8E700BF0212FF1F9D
:104110002DE9F047374FDFF8E0903B68026982B045
:1041200006460093DDF800800021C825D3789B0661
:104130005BD53B680193019BC8EB03030F2BF5D9BB
:1041400049B1102BF2D000209070336980229A7010
:1041500002B0BDE8F087726996F86130134405211A
:10416000187A00F001FD726996F86130134401215C
:1041700093F812A0504600F0F7FC092400215046A5
:1041800000F0DEFC2B46013BFDD10121504600F042
:10419000D7FC2B46013BFDD1013CEFD1706996F86D
:1041A000611001444FF4C8720C7A4B7B09EBC401D7
:1041B0001B02496803F4E06343F064030B6096F864
:1041C00062300344997CDB7D09EBC1011B02496825
:1041D00003F4E06343F064030B60013AFDD13269FC
:1041E000D3789B064FF00101A3D4012002B0BDE8B3
:1041F000F08700BF0412FF1F48B50000F0B5036947
:104200001222DA700269937803F0200385B0044625
:104210000D46002B5ED0B42393703C4922690B6895
:104220000093009E05E00B680193019B9B1B042BF0
:1042300042D8D37803F0200303F0FF00002BF2D024
:1042400094F85D30002B31D04FF0000E4FF0020C8F
:1042500004EB0E0393F83B3013710B680393039F39
:10426000206907E09B060DD50B680293029BDB1BC0
:10427000052B28D8C378DBB203F0020202F0FF0658
:10428000002AEFD080F803C02669F378DBB2DF069E
:1042900032462DD49F062BD5DB0731D40EF1010E0B
:1042A00094F85D305FFA8EFE7345D1D800201DBBB7
:1042B000002384F85E3004E09070236980229A70B5
:1042C000042005B0F0BD86702369802204209A7016
:1042D00005B0F0BD03F0FF06FFF71AFF10B9042088
:1042E00005B0F0BD236984F85F60B0229A7094E74E
:1042F0008023B3700420DAE726698023B370D7E700
:10430000BEF1000F0CBF02200320F6E70412FF1FCE
:104310002DE9F04106690025122780F8385080F811
:104320003950F770D0F810C09CF802E00EF0200E63
:1043300088B00446884615461E46BEF1000F49D097
:10434000B4238CF80230784B21691A680092DDF8AA
:1043500000E006E01A6801920198CEEB0000042804
:1043600030D8C87800F0200000F0FF070028F1D016
:104370004FEA480242F00102D2B20A711A68029270
:10438000DDF808E0206906E01A6803920399CEEB95
:10439000010105292AD8C17801F0020101F0FF07C7
:1043A0000029F1D04FF0020C80F803C02269D178C7
:1043B00011F0110722D12DBB002E0CBFA0238023AA
:1043C000937003E08F70236980229A70384608B09A
:1043D000BDE8F0810EF0FF07FFF79AFE0028F5D048
:1043E000236984F85F70B0229A70ACE78770236904
:1043F000802238469A7008B0BDE8F081802393701F
:104400000027E3E7012D75D0A021917021690A7979
:10441000BE4667464FF0A80C1A680492049805E05F
:104420001A680592059A121A052A4AD8CA7802F023
:10443000020202F0FF08002AF2D0CF702169CA7888
:10444000D2B212F0100F08465AD1920658D5013D4B
:10445000EDB2012D49D0BEF11F0F3BD90A79012DD4
:10446000DAD11A680692069D05E01A680792079A43
:10447000521B052A46D8C27802F0020202F0FF0160
:10448000002AF2D00223C3702269D378DBB2D906A6
:104490003AD49B0634D5B023BEF11F0F93703FD89A
:1044A000226904EB0E0312791A760EF1010E5FFAFF
:1044B0008EFE16B1236980229A7084F839E077461F
:1044C00084E781F80280236980229A70774684F815
:1044D00039E07BE704EB0E0291F8048082F8188043
:1044E0000EF1010E5FFA8EFEB9E781F802C0216974
:1044F0000846B0E7A82191702069BE460279B0E76E
:10450000774663E78170DEE71021C823D170013B55
:10451000FDD12269937803F0F7037746937055E74E
:1045200023691B79C5E700BF0412FF1F0148FFF78D
:1045300057BD00BF6C07FF1F0148FFF751BD00BF0B
:10454000D807FF1F0148FFF74BBD00BF0007FF1F43
:10455000844641EA000313F003036DD1403A41D38E
:1045600051F8043B40F8043B51F8043B40F8043B4D
:1045700051F8043B40F8043B51F8043B40F8043B3D
:1045800051F8043B40F8043B51F8043B40F8043B2D
:1045900051F8043B40F8043B51F8043B40F8043B1D
:1045A00051F8043B40F8043B51F8043B40F8043B0D
:1045B00051F8043B40F8043B51F8043B40F8043BFD
:1045C00051F8043B40F8043B51F8043B40F8043BED
:1045D00051F8043B40F8043B51F8043B40F8043BDD
:1045E000403ABDD2303211D351F8043B40F8043B7D
:1045F00051F8043B40F8043B51F8043B40F8043BBD
:1046000051F8043B40F8043B103AEDD20C3205D38C
:1046100051F8043B40F8043B043AF9D2043208D084
:10462000D2071CBF11F8013B00F8013B01D30B88F6
:1046300003806046704700BF082A13D38B078DD0D4
:1046400010F003038AD0C3F10403D21ADB071CBFA6
:1046500011F8013B00F8013B80D331F8023B20F810
:10466000023B7BE7043AD9D3013A11F8013B00F849
:10467000013BF9D20B7803704B7843708B788370D1
:104680006046704708B5104C08E0236859050DD402
:1046900023681A050FD42368DB0411D42368580358
:1046A000F3D500F065FD23685905F1D502F030FD22
:1046B00023681A05EFD503F0E3F82368DB04EDD592
:1046C00003F0A8FBEAE700BF3480044008B5FFF719
:1046D000D9FF00BF014B10221A807047002005400F
:1046E000704700BF094908B50B6830B16A461844E5
:1046F000A2F50052904202D20860184608BD05F0AB
:1047000089FE0C2303604FF0FF3008BD4408FF1FF3
:10471000FEE700BFEFF3138070B9EFF310836BB9BE
:10472000EFF305825AB94FF48070EFF311832BB188
:10473000984228BF184670474FF0FF3070470F2A45
:1047400001D81846F1E7014BD05CEEE7F0E300E05A
:1047500010B4114B53F8302092F8804234B1012349
:1047600079B182F880305DF8044B704703EBC003E9
:104770005B681A6851B922F002021A605DF8044BB6
:10478000704782F800315DF8044B704742F0030235
:104790001A605DF8044B704748B500001C4A02EBF4
:1047A000C00301295B6811D004291BD052F83000E6
:1047B000002280F8802229B1022920D0032922D0AA
:1047C0001A6070474FF480721A60704752F83000D8
:1047D0004FF4A27280F880121A601A6822F0200248
:1047E0001A60704752F830104FF4A272012081F81D
:1047F00080021A601A6842F020021A60704740F284
:1048000003121A6070474FF481721A60704700BF3C
:1048100048B5000030B4054B054D064C0022102170
:104820001A602A602060196030BC704714D00340C1
:1048300004D0034000D0034038B5A0F14203012B5F
:1048400004461FD9002975DD904B1B78012505FA18
:1048500003F28A4202D83F2827D938BDC21E012A56
:104860002BD9A0F11D02012A73D90E2856D9A4F123
:104870002302032A57D9864A126802FB011222FA40
:1048800003F320E0814B1B780B2B0AD90C2B1CBFA8
:104890000C3B1941422C084657D0BDE8384002F085
:1048A00077B8C3F10C039940F4E72946FFF750FFAE
:1048B0002946BDE83840FFF771BF764A126802FB0F
:1048C000011222FA03F3A21E242A00F2D580DFE8A7
:1048D00012F0CC00C500BE00B700B000A900A200D5
:1048E0009B009400D300D300D3008D00D300D300ED
:1048F000D300D300D30086007F0078007100D3007E
:10490000D300D300D300D3006A006300D300D300E8
:10491000D300D3005C0055004E00470044F28412DF
:10492000C240D207A3D55C4A126802FB011222FAE8
:1049300003F3C8E73F2890D80021FFF709FF20467E
:104940000121BDE83840FFF729BFBDE8384002F03B
:1049500001B8524A126802FB011222FA03F3B2E7CD
:104960004F49504A0B604FF45173136038BD4E49A4
:104970004E4A0B604FF45173136038BD4C494D4A99
:104980000B604FF45173136038BD4B494B4A0B60B9
:104990004FF45173136038BD49494A4A0B604FF4D4
:1049A0005173136038BD4849484A0B604FF4517346
:1049B000136038BD4649474A0B6040F244431360D8
:1049C00038BD4549454A0B6040F24443136038BD49
:1049D0004349444A0B6040F24443136038BD4249A6
:1049E000424A0B6040F24443136038BD4049414A9B
:1049F0000B6040F24443136038BD3F493F4A0B60AF
:104A000040F24443136038BD3D493E4A0B6040F2DA
:104A10004443136038BD3C493C4A0B6040F2444378
:104A2000136038BD3A493B4A0B6040F2444313607F
:104A300038BD3949394A0B6040F24443136038BDF0
:104A40003749384A0B6040F24443136038BD364959
:104A5000364A0B604FF45173136038BD3449354A00
:104A60000B604FF45173136038BD3349334A0B6008
:104A700040F24443136038BD3F2C3FF6EEAE7F2931
:104A8000D4BF00210121204657E700BF4808FF1F7F
:104A9000088003400890034008900B4008800B40BA
:104AA00048900B402CB0044040900B4028B004408C
:104AB00038900B4024B0044030900B4020B00440AC
:104AC00018800B404CA0044010800B4048A00440CC
:104AD0001880034008B004401080034004B0044034
:104AE0004080034018C004403880034014C0044094
:104AF00018900B4004C004402880034010B00440CC
:104B0000208003400CB0044028900B400CC00440AF
:104B100020900B4008C004403080034010C0044087
:104B2000488003401CC00440189003403490044067
:104B3000109003403090044010900B4000C004409F
:104B40003F2801D8FFF704BE704700BF3F2806D8B2
:104B5000044B53F8303093F80002C0B27047002085
:104B6000704700BF48B500003F2801D8FFF716BEC8
:104B7000704700BF72B60C490C4B0D4A1B680868A1
:104B8000126862B6520102D5322B88BF0130094942
:104B9000C3F5EA334FF47A72BF33A1FB031302FB70
:104BA00000F000EB931070470412FF1F18E000E0C4
:104BB00004ED00E0898888882DE9F843054672B63F
:104BC000204F214B214A1B683C68126862B6520193
:104BD00002D5322B88BF013495B3C3F5EA331C4E9E
:104BE000DFF86490DFF86480BF334FF47A72A6FB7D
:104BF000031302FB04F404EB931472B6D9F800100B
:104C00003A68D8F800E062B6C1F5EA33BF33A6FBD4
:104C100003031EF0806FC4EB93134FF47A7002D03D
:104C2000322988BF013200FB0233B3F57A7F04D307
:104C3000013D05D004F57A74DFE701F0B9FDDCE74A
:104C4000BDE8F8830412FF1F18E000E004ED00E067
:104C500089888888F8B53E4B3E49DFF818C13E4E3A
:104C60003E4ADFF814E13E4D3E4C3F4F4FF00060AE
:104C700018604FF0805018604FF0005018604FF0EF
:104C8000804018604FF00040186000200860282322
:104C90004EF6FF71CCF80010CEF8003033600EF500
:104CA000012E13602B60236005F500253B6004F5A1
:104CB0000024B36207F50027936206F5012602F58A
:104CC00001220EF1100E05F6E87504F6E87407F5FA
:104CD0007F67103220362B602360CEF800303B60B7
:104CE00013603360214EBB61936109223260A7F5E6
:104CF000002706F58056203F083638603160BB60DB
:104D0000F36047F8042C06F5FD2607F5FE2706F2AA
:104D1000FC76043730603960B360FB6046F8042CE1
:104D20000836C7F8FC0F06F6FC76114831602B6098
:104D30002360026001F09EFD1920FFF73DFF00F0A7
:104D40007FFF40F21310BDE8F840FFF735BF00BF0A
:104D500004E100E004800340148003401C80034011
:104D6000248003402C8003403480034000800340B3
:104D700000900B40088003400C800340284A2949DA
:104D80001368F0B443F4005313600A78264F274E9B
:104D9000274D284C284900231F2A3B7033702B7065
:104DA00023700B7037D03F2A1BD0244B1B78202B4D
:104DB0001FD03E2B2AD01F2821D8002002460124D4
:104DC0001F4B204D1A702C27002240261E495C7074
:104DD000987220249A701A74DF702E700C60F0BCE8
:104DE00070471A4B40F213321A60144B1B78202B79
:104DF000DFD1174B4FF451721F281A60DDD9C0F371
:104E00004432C0F3471400F01F00D9E7114B4FF4B0
:104E100051721A60CFE7104B40F213321A60C4E7A8
:104E2000348004404908FF1F0C12FF1F0D12FF1FA2
:104E30008012FF1F7912FF1F7812FF1F4A08FF1F01
:104E400000D0064025E400E004E100E014D0044076
:104E50002CA0044010D0044028A00440054A064B72
:104E600010781B78C0B2DBB2984238BF4030C01A0D
:104E7000704700BF0C12FF1F0D12FF1F30B4154BFF
:104E8000154C1A782378D2B2DBB29A421ED0013385
:104E90003F2B0ED91149124B087819680023C0B274
:104EA000237021B1D31A1A2B01DC00230B7030BC04
:104EB00070470A480A49C05C0968DDB2C0B2257073
:104EC0000029F4D09A4238BF4032EBE74FF0FF3070
:104ED000EDE700BF0C12FF1F0D12FF1F3812FF1F5E
:104EE0000812FF1F30B42B4B1A7994061FD52A489D
:104EF000DA790378294901333F2B0978C8BF0023A9
:104F00008B42D2B203D0264CD9B2E2540170254A6A
:104F1000116861B1244A1278D2B2934236BFC2F10D
:104F200040029B1A9B18272BC4BF01230B70194A00
:104F3000D378DBB2180611D45A060DD5154B1B7960
:104F40005B0609D5194B1A491B6800220A7003B188
:104F50001A70104B2C22DA7030BC70471179090698
:104F6000EAD5144910480C780178C9B28C420DD0AA
:104F70004A1C272A84BF00210A460F4D054C98BFC2
:104F8000D1B2AA5CD2B2E2710170D5E76C21D170C6
:104F9000D2E700BF00D006400C12FF1F0D12FF1F0A
:104FA0003812FF1F0812FF1F7912FF1F7C12FF1F0C
:104FB0007812FF1F8012FF1F1012FF1F431E032BCA
:104FC00014D872B60A4951F8230068B170B4094C7C
:104FD000058834F81320466841F82360521B24F8F2
:104FE000132062B670BC704762B6704700207047ED
:104FF000DC12FF1F6016FF1F013803280BD872B6A2
:10500000074B53F8203043B100205B680130002B80
:10501000FBD162B67047002070471846F9E700BF21
:105020003013FF1F30B472B62B4A13781D0706D514
:105030002A4B196A002936D0996A002941D0537841
:105040001C0706D5254B196C00293ED0996C002908
:1050500039D09378190705D5204B196E002936D021
:10506000996E89B1D3781B0707D51C4BD3F88020E4
:105070007AB3D3F8882011213AB162B6184B0022D6
:105080001A7030BC00F076BE0D21154C154D2278FB
:1050900043F8315003EBC1030830013A58602270E5
:1050A00062B630BC704704220D4C0F4D217843F896
:1050B000325003EBC20308304A1E5860227062B6B9
:1050C000EFE70521E1E70921DFE70822ECE70C2201
:1050D000EAE71022E8E700BF94B800000000FF1FD5
:1050E0005913FF1FC800400088004000431E032BD7
:1050F0001DD81B4A400140F0100030B4104472B675
:10510000184CE25C032A1BD8DFE802F002121517E4
:1051100003220D88E25410F0080F14BFC82388231F
:1051200043EA054308310360416062B630BC704712
:1051300008300222EDE70522EBE708300422E8E719
:10514000094A52F8230038B1084A52F82300416056
:1051500042F8231062B6E9E742F82310034AF7E762
:105160000000FF1F6813FF1F3013FF1F4013FF1FB6
:105170002DE9F04FDFF80CB3DFF80CA387B044E063
:10518000AB4F4FEA930807EBC809013ED9F804205A
:1051900003F00803F6B2A2F1080003F0FF04002BAD
:1051A00040F0028157F838301B0C99B222F8081CE5
:1051B000002B00F0F0809F4B22F8064C42F8044C84
:1051C00053F82620002A00F0C5829B4D55F8263062
:1051D00058609A4C45F8260034F81630194424F8E3
:1051E000161000F0A7FD002800F0AD82944A954B00
:1051F00019F0080F00F1080018BF1346C9F80400A1
:1052000047F8383008238BF800309BF80040E4B2B0
:1052100061071AD58C4B1B78A3B18C490A7802F030
:10522000FF0322B1013BDBB20B7003B900BE88491A
:105230000A7802F0FF032AB1013BDBB20B70002BAE
:1052400000F0578204238BF8003004F0080303F0C9
:10525000FF02002B00F0CC809AF80030DBB21E0970
:105260008ED19C08DFF8C89159F8342009EBC401AD
:10527000C2F38302013A49680C2A00F28880DFE811
:1052800002F07C7C86868686868647868686070030
:105290000868704D4A68704F704E286081B240F2C5
:1052A0008160674B6A604FF0010E0022814249F82D
:1052B00034303A60C9F81020C9F8182086F800E0A8
:1052C0005B4C00F2E380B1F5D06F80F04683B1F51E
:1052D000817F00F0FC8200F28D82802900F07783CC
:1052E000822940F0FA82A98801F07F01042900F2A6
:1052F000F4825B485B4C890008442270627002783B
:10530000930740F1588484F800E04FF0020E42E326
:10531000514F3A6832B3544B504E54491888347840
:105320000D784028864645F0020828BF4FF0400E11
:10533000002C84F001043470CEEB00000CBF8824F4
:10534000C82409EBC80680B285F0010544EA0E4482
:105350007260188049F8384072440D70002800F0DF
:1053600045813A603B4B1A88B2F5A06F0FD10021FE
:105370009A7859703E4B1A7009E0364A108842F20A
:105380002102904200F037812D4A49F83420394AF1
:105390000123137036E72A4A2A4B19F0080F18BF69
:1053A000134647F838302DE700F0E4FC324A334921
:1053B00052F82630002B00F0D18158688C5D42F8FD
:1053C000260003F10802C9F80420032C05D8DFE801
:1053D00004F02C02292602228A551A8819F0080F97
:1053E0000CBF8823C82343EA024347F8383009E753
:1053F000E00700F18181210600F1F281A20706D5C4
:105400001F4A204913780220DBB213700870E306AC
:1054100002D51C4B10221A7007B0BDE8F08F042291
:105420008A55DAE705228A55D7E703228A55D4E759
:105430000000FF1FDC12FF1F8812FF1F6016FF1FF6
:10544000C8004000880040006413FF1FED12FF1FDA
:105450006C13FF1F5013FF1F8412FF1FEC12FF1F5E
:10546000C02007405C13FF1F9812FF1F5813FF1F37
:1054700098200740942007403013FF1F6813FF1F38
:1054800088200740802007409020074042F22100FA
:10549000814200F02A8100F2D880B1F5086F00F057
:1054A0007682B1F5106F40F01882226AB349A8786D
:1054B0000870120600F13A83D9F82820B049130683
:1054C00000F10C83D9F83020AD49150600F10183B5
:1054D000D9F83820AA49140600F1F682D9F84020FC
:1054E000A749100600F14A83D9F84820A4491206BA
:1054F00000F13F83D9F85020A149130600F134830D
:10550000D9F858209E49150600F12983D9F8602062
:105510009B49140600F11E83D9F8682098491006AB
:1055200000F11383D9F870209549120600F1088321
:10553000D9F878209249130600F1FD82D9F880202D
:105540008F49150600F13183D9F888208C4914065B
:1055500000F12583D9F890208949100600F11983BC
:10556000D9F898208649120600F10D838548864AAD
:10557000864901908648874D874C049700230596FD
:10558000029580460F4616461D460394306828B1A2
:10559000446800F0EFFB2046002CF9D10023336073
:1055A000029B38681A46002342F8253028B1446827
:1055B00000F0E0FB2046002CF9D100223A60019A6D
:1055C00098F800301146002241F8042B039A01910B
:1055D000023B4FF0000122F81510032B00F22B8143
:1055E000DFE813F07001250170012501BEF1400FC5
:1055F00018BF0022B5E6694A0D78487815705070DA
:105600008D78C8789570D07010680D7915718628DE
:105610004D7989795571917100F09B816049614E96
:105620000A78307882F00105002842F002020D70FD
:105630000CBF8821C82149F8321009EBC20280F062
:1056400001000021307051609EE642F2212081422B
:1056500040F0CB81544B554C5549A8781D682560C6
:10566000CDF804E00870002002908046844604468D
:105670004B490D7845F0020E09EBCE030393019BD5
:10568000002B039B5C600CBF8824C82444EA0803F9
:1056900085F0010449F83E3032700C70DFF8E0E02C
:1056A000404BDFF8FC80002840F01E81BCF1400F29
:1056B0001BD144F0020C09EBCC03029CDFF8C0E0E4
:1056C0005C60002A40F02681020442F088029DF8C6
:1056D00004304EF83C20044433700D7023464028BB
:1056E00003D10020334A3B601080334A01231370FA
:1056F0004DE600F0ABFCA5E5214B2F4828491A6187
:105700004FF0020E80F800E02C4F0A702C4919600F
:1057100099602C4E2C4D2D4C9A610D213970FF2132
:105720003170DFF8B8E029702270294D294A8EF8CF
:1057300000109F27012406F8047C5D600470DA6085
:1057400007B0BDE8F08F244A47F8380013780133DA
:10575000137057E543F826000E4D3AE58B5D032B99
:1057600000F2F08001A252F823F000BF05520000C1
:105770000552000029580000235800006413FF1F41
:105780000000FF1F4013FF1FDC12FF1F3013FF1F1D
:105790006813FF1F8812FF1F6016FF1F6816FF1F88
:1057A0005813FF1FEC12FF1F0412FF1F7016FF1F7C
:1057B0007C13FF1F9812FF1F94200740C020074052
:1057C000880040008820074080200740982007403C
:1057D0009C12FF1FF012FF1F5913FF1F8C20074060
:1057E000C149C24B80220D2008701A70A2077FF5B4
:1057F0000EAE05E640F20232914240F0EE80A988FA
:1058000001F07F01042968D86A88002A65D1B6486A
:10581000CDF804E089000844017841F002010170EC
:1058200021E701238B55EDE400238B55EAE44FF08B
:10583000010388F800300135042D06F1040607F154
:10584000040708F101087FF4A1AEA94CA94B227806
:10585000A94D049F059E002129701A70130700F1BD
:1058600005816278A549DFF8A0820A7010074FF021
:105870000001C9F83010C9F8381000F1E080A049E3
:10588000A2780A700021C9F85010C9F85810110701
:10589000DFF8748200F10181E2789A499A4C0A702B
:1058A00000211207C9F87010C9F8781000F1B08013
:1058B00033780193002183F00102C9F89010C9F8F0
:1058C0009810D0E64FF0000388F80030B3E7A988BD
:1058D00001F07F01042940F28D80834A0F23137069
:1058E0008A4A0123137052E540287FF6E2AE44F065
:1058F00002040EEBC401029E4E60BAB19DF8041082
:10590000834A19703346403888F8005040334EF8C7
:105910003420E7E69DF8043033700204029B0D70DA
:1059200042F0C80203444EF83C20D8E69DF804102B
:105930001970029B774A88F80050403840334EF87F
:105940003420CFE619F0080F0CBF022303238B5538
:1059500058E4714A0F21117060E6704A5468002CB7
:10596000BBD06888B5F804E003E00C325468002C22
:10597000B3D013888342F8D153887345F5D1000A18
:1059800003280CBF94F800E0B2F808E003E0644A92
:10599000644C12782270E888704580F03F8162493B
:1059A0000D784028844645F0020E28BF4FF0400C89
:1059B00004EB0C0309EBCE02029301235460CCEB01
:1059C00000004FEA0C4800220193C8245EE6554CC3
:1059D0004FF0020E22706270DDE7B1F5A06F7FF428
:1059E0007CAF0123002201933DE642F22132914235
:1059F000F7D072E76A88002A7FF46FAF3A48CDF893
:105A000004E089000844017821F0020101702AE6CF
:105A100000F090F9002800F0EF8008303D4AC4F80B
:105A20008400C4F8802000F085F9002800F0DE80B2
:105A30000830374AC9F88C00C9F8882038E700F0E8
:105A400079F9002800F0C0800830324AC8F84400D4
:105A5000C8F8402000F06EF9002800F0AF80083050
:105A60002B4AC9F84C00C9F8482008E700F062F951
:105A7000002800F0CD800830264AC9F82400C9F873
:105A8000202000F057F9002800F0BC800830204AA0
:105A9000C9F82C00C9F82820E3E600F04BF90028EB
:105AA00000F09E8008301B4AC8F86400C8F86020E7
:105AB00000F040F9002800F08D800830144AC9F841
:105AC0006C00C9F86820E7E6C86B083800F052F9A6
:105AD00004E5486B083800F04DF9F9E4C86A083865
