:10000000F8FF022099010000D14600008946000057
:1000100089460000894600008946000089460000A4
:10002000894600008946000089460000D14600004C
:10003000D1460000894600005D6400006165000053
:10004000D1460000D1460000D1460000D146000054
:10005000D1460000D1460000D1460000D146000044
:10006000D1460000D1460000D1460000D146000034
:10007000D1460000D1460000D1460000D146000024
:10008000D1460000D1460000D1460000D146000014
:10009000D1460000D1460000D1460000D146000004
:1000A000314500003D450000D1460000D14600002A
:1000B000D1460000D1460000D14600007D69000015
:1000C000D1460000A96A0000D14600008D4F000013
:1000D000D1460000CD510000D1460000D1460000BD
:1000E000D1460000D1460000D1460000D1460000B4
:1000F000D1460000D1460000D1460000D1460000A4
:10010000D1460000D1460000D1460000D146000093
:10011000D146000059540000D1460000D1460000ED
:10012000D1460000D1460000D1460000D146000073
:10013000D1460000D1460000D1460000D146000063
:10014000D1460000D1460000D56B0000D14600002A
:10015000CD6C0000D1460000D1460000D146000021
:10016000D1460000D146000049450000D1460000BC
:10017000D1460000D1460000D1460000D146000023
:10018000D1460000D1460000D1460000D146000013
:10019000D1460000D1460000584B4CF2205210B519
:1001A0001A804DF628121A8000BF00BF04F094FA9E
:1001B000534B4FF030621A60524A9A60524ADA60EA
:1001C000524B4FF470021A60514A136813F4807353
:1001D00004D150490B604FF4A85313604E4B1A786A
:1001E000110703D51A7842F008021A704B4B4C499C
:1001F0002A221A704B4A4C4B8B4204D252F8040FFD
:1002000043F8040BF8E7494B494900228B4202D2DC
:1002100043F8042BFAE74749474A002352F82300E2
:1002200041F823000133662BF8D1444B444A802126
:1002300003F8011B9342FBD1424B3E4A1A60424BEA
:100240008A221A70A3F5805324225A70A0221A70B1
:100250009A799207FCD59A79D406FCD43B4A9379D3
:1002600003F00C03082B394BF9D103221A714622F3
:100270005A719A799006FCD5344A9179334B4906E4
:10028000FBD5334A4FF08271116009215160202261
:100290001A709A7902F00C020C2AFAD12D4B2E4AD0
:1002A0001A602E4B2E4A1A6000225A60072243F829
:1002B000042C2C4AC3F80C2D62B604F0CDFC154B6F
:1002C0001B68DA0705D5284804F0A6FA274B284A08
:1002D0001A60284B1B785B0609D5244C244B2268F6
:1002E0009A4204D1204804F097FA0023236007F0D3
:1002F00003FD04F0F7F906F041F9FEE70E20054092
:1003000030800440823F04000100002B88ED00E0B3
:1003100010D0034014D0034002D0074000E0074053
:100320004C11FF1FC4900000F806FF1F4C11FF1F67
:100330004416FF1F0002FF1F0000000000E400E061
:1003400056E400E008ED00E00050064000400640A2
:100350004480044004800440C010050014E000E024
:10036000BFD40100000020203BF1215D1CE00340D0
:10037000A5C3945A00F00740FFFFFFFFFFFFFFFFF8
:10038000FFFFFFFFFFFFFFFFFFFFFFFFFFFFFFFF7D
:10039000FFFFFFFFFFFFFFFFFFFFFFFFFFFFFFFF6D
:1003A000FFFFFFFFFFFFFFFFFFFFFFFFFFFFFFFF5D
:1003B000FFFFFFFFFFFFFFFFFFFFFFFFFFFFFFFF4D
:1003C000FFFFFFFFFFFFFFFFFFFFFFFFFFFFFFFF3D
:1003D000FFFFFFFFFFFFFFFFFFFFFFFFFFFFFFFF2D
:1003E000FFFFFFFFFFFFFFFFFFFFFFFFFFFFFFFF1D
:1003F000FFFFFFFFFFFFFFFFFFFFFFFFFFFFFFFF0D
:10040000FFFFFFFFFFFFFFFFFFFFFFFFDEF9FFFF23
:1004100010B5054C237833B9044B13B10448AFF33E
:1004200000800123237010BD4C11FF1F000000004D
:10043000C8900000084B10B51BB108490848AFF33D
:1004400000800848036803B910BD074B002BFBD0A0
:10045000BDE81040184700BF000000005011FF1F0A
:10046000C89000004C11FF1F00000000704700BF43
:10047000836842680149012003F0E8BC0889000054
:10048000836842680149012003F0E0BC3489000020
:1004900008B5426883680349012003F0D7FC0020B7
:1004A00008BD00BF5C8900008368426801490120E3
:1004B00003F0CCBC348900000346007B997304F040
:1004C00041BB00BF10B50446007B04F041FBE37B59
:1004D000A073834201D0012804D0003018BF01204E
:1004E000E07310BD01460D2004F02CFB23699847F2
:1004F000A07B003018BF0120E07310BD10B504468A
:10050000007B04F025FBA07310BD00BF0346007BF9
:10051000597304F02BBB00BFF0B5C2698369511C4D
:1005200008BF264A83B002BF12680092009AD31A0D
:10053000002B37DD224E017B01231A460746304649
:1005400003F0E8FE96F8392096F838309A422ED01B
:10055000002107F10C009A4226D9F2180133127ECD
:1005600086F8383015467A750446072245FA02F3B4
:1005700003F00103012B02F1FF3208BF012104F84F
:10058000013F531CF2D1B97596F8392096F83830EE
:100590009A42E0D1094B1B680193019BBB614FF06C
:1005A000FF33FB6103B0F0BDFF252A46DBE7BB68E4
:1005B0007A680449022003F049FCEBE7D411FF1FDD
:1005C0007407FF1F8C89000030B54FF47A7383B035
:1005D000013BFDD142690369511C01BF204A1268E9
:1005E0000092009AD31A002B31DD1E4C017B0123AF
:1005F0001A460546204603F08DFE94F8392094F8FB
:10060000383093420DD124E00A7E84F83830131C30
:1006100018BF01236B7394F8392094F838309A424C
:100620000DD09A4204EB030103F10103ECD801233E
:100630006B7394F8392094F838309A42F1D1084B12
:100640001B680193019B2B614FF0FF336B6103B07B
:1006500030BDAB686A680449022003F0F7FBEEE79F
:10066000D411FF1F7407FF1F8C89000070B5C26989
:100670008369511C08BF244A82B002BF12680092ED
:10068000009AD31A002B32DD204D017B01231A463C
:100690000646284603F03EFE95F8392095F8383096
:1006A0009A4218BF06F10C0026D09A4221D9EA18C6
:1006B0000133127E85F838301446727501460723DF
:1006C00044FA03F202F00102013B01F8012F5A1C27
:1006D000F6D195F8392095F838309A42E5D10A4B91
:1006E0001B680193019BB3614FF0FF33F36102B0CC
:1006F00070BDFF242246E0E7B36872680449022017
:1007000003F0A4FBEBE700BFD411FF1F7407FF1F2A
:100710008C890000704700BF0C4B1B689A7B012A34
:100720000AD01A680A48526882424FF001010AD181
:10073000187B997304F006BA1A6805485268824219
:100740004FF00001F4D01846104700BF8C11FF1F76
:10075000B904000030B5274B274A197883B071B926
:100760001268264814686468012584421D702BD1E4
:10077000107B917303B0BDE8304004F0E3B9126818
:100780001E491068446800208C42187022D1012153
:10079000107B917304F0D6F9194B1B68B3F90E2046
:1007A000002199842AB9B3F9102012B9B3F91220A3
:1007B000A2B100220121DA811A825A825A75197572
:1007C00083F8261003B030BD1046234603B0BDE8C1
:1007D0003040184710460121A047DDE701218DF880
:1007E00007208DF80610BDF806109A8A9142E0D1D4
:1007F000E8E700BF7411FF1F8C11FF1FB904000050
:100800007811FF1F814B2DE9F0411B685B7B8AB09B
:10081000002B3BD17E4B1B6893F990300B2B00F0E3
:10082000AD800D2B7B4B1B68B3F9242000F0898031
:1008300012F1FF0F11DAB3F90E106FF0FE0299B149
:100840000021FF2401205A82D981197559751C8213
:1008500083F826000AB0BDE8F081B3F90E10FF2A34
:10086000A8BFFF220029EBD1B3F91000FF28E7D180
:10087000B3F912009042E3D18DF826108DF82710BD
:10088000BDF82600998A8842DAD1E3E7624B6348D3
:100890001C68217C05F0CEFE604805F07BFE237CC1
:1008A00023B1012B00F09980022B79D0FF2D25D0A8
:1008B000FF2E23D0FF2F21D0B8F1FF0F1ED0554BB4
:1008C0001B68B3F9242012F1FF0F53DA6FF0FE0218
:1008D000B3F90E100029B3D1B3F91000FF28AFD13E
:1008E000B3F912009042ABD18DF806108DF80710C5
:1008F000BDF80600998A8842A2D1ABE7454B1B6838
:10090000B3F9242012F1FF0F17DA6FF0FE02B3F9EA
:100910000E10002994D1B3F91000FF2890D1B3F93B
:10092000120090428CD18DF80E108DF80F10BDF88A
:100930000E00998A884283D18CE7FF2AA8BFFF2244
:10094000E5E712F1FF0F28DBFF2AA8BFFF22B3F96A
:100950000E1019312ED04FF6E7750021AA24012080
:100960005A82DD811C821975597583F826000AB0F8
:10097000BDE8F081FF2AA8BFFF22A9E7254B1B682D
:10098000B3F9242012F1FF0F10DA6FF0FE02B3F971
:100990000E10192927D01925DFE76FF0FE02D6E7E0
:1009A000257B667BA77B94F80F807FE7FF2AA8BF93
:1009B000FF22ECE7B3F91010AA29CCD1B3F9121039
:1009C0009142C8D100218DF81E108DF81F10BDF87E
:1009D0001E00998A8842BED13CE7257A667AA77ABA
:1009E00094F80B8062E7B3F91010AA29D3D1B3F9B8
:1009F00012109142CFD100218DF816108DF81710EA
:100A0000BDF81600998A8842C5D123E7A811FF1FB7
:100A1000C811FF1F7811FF1FC411FF1F5808FF1FC7
:100A20002DE9F04F694C6A48D4F800A085B09AF8D7
:100A3000101005F0FFFD664805F0ACFD9AF8102097
:100A40001AB1012A5CD0022A51D0FF2D30D0FF2EDE
:100A50002ED0FF2F2CD0B8F1FF0F29D025685C488D
:100A6000297C05F0E7FD5A4805F094FD2B7C2BB15D
:100A7000012B67D0022B08BF95F80D90B9F13B0F01
:100A800019D825685248297C05F0D4FD504805F056
:100A900081FD2B7C2BB1012B72D0022B04BF2B7B51
:100AA0000093009B782B34DD4A4B1B683C229A84D0
:100AB00005B0BDE8F08F24684548217C05F0BAFDFB
:100AC000434805F067FD237C2BB1012B55D0022B49
:100AD00008BF94F80CB03F4BBBF14F0F1B6894BF9D
:100AE0004FF6B07250229A8405B0BDE8F08F9AF8A4
:100AF0000C509AF80D609AF80E709AF80F80A4E7DF
:100B00009AF808509AF809609AF80A709AF80B80D7
:100B10009BE725682E48297C05F08CFD2C4805F0C4
:100B200039FD2B7C2BB1012B47D0022B04BF2B7B33
:100B30000193019B272B08DC264B1B684FF6C472E0
:100B40009A84B5E795F8099098E725682048297CAC
:100B500005F070FD1E4805F01DFD2B7C2BB1012B0F
:100B60002ED0022B04BF2B7B0293029B5A2B0ADD53
:100B7000184B1B6814229A849AE794F808B0AAE7E5
:100B80002B7A00938DE724681148217C05F052FDF3
:100B90000F4805F0FFFC237C2BB1012B13D0022B57
:100BA00004BF237B0393039B452B0A4B1B68D4BFD5
:100BB0004FF6EC7200229A847AE72B7A0193B8E719
:100BC0002B7A0293D1E7237A0393ECE7C411FF1F3A
:100BD0005808FF1F7811FF1FBA4B1B68D3ED087A26
:100BE0002DE9F04FF5EEC07AF1EE10FAD8BFF1EE34
:100BF000677AB1EE087AF4EEC77AF1EE10FAABB08C
:100C000065D5DFF8CCB2B048DBF800A09AF8101038
:100C100005F010FDAC4805F0BDFC9AF8101029B1A4
:100C2000012900F06881022900F0E780FF2C6ED0D6
:100C3000FF2D6CD0FF2F6AD0B9F1FF0F67D0DBF822
:100C40000040A148217C05F0F5FC9F4805F0A2FC7E
:100C5000237C33B1012B00F02582022B04BF237BC0
:100C60000293029B5A2B40F3AA81DBF800301A7CD6
:100C700062B1012A00F07881022A07D11A7A039220
:100C80005A7A05929A7ADB7A07920A93039BFF2B92
:100C900000F00781059BFF2B00F00381079BFF2BD2
:100CA00000F0FF800A9BFF2B00F0FB80874B1B6846
:100CB000B3F9242012F1FF0F80F2D7816FF0FE020A
:100CC000B3F90E105A2900F0F4815A256BE07F4BDE
:100CD0001B68B3F9242012F1FF0F14DA6FF0FE0243
:100CE000B3F90E1019B9B3F91010002975D000210D
:100CF00001205A82D98119825975187583F8260006
:100D00002BB0BDE8F08FFF2AA8BFFF22E8E7DBF891
:100D10000040217C002953D1FF2EF1D0B8F1FF0F04
:100D2000EED0009BFF2BEBD0019BFF2BE8D00029DE
:100D30006CD10023452B00F3E780634805F07AFC73
:100D4000614805F027FC237C63B1012B00F015817D
:100D5000022B07D1237B0493637B0693A37B099328
:100D6000E37B0C93049BFF2B00F0B480069BFF2BCE
:100D700000F0B080099BFF2B00F0AC800C9BFF2B98
:100D800000F0A880514B1B68B3F9242012F1FF0F2B
:100D900080F281816FF0FE02B3F90E105A3100F03B
:100DA000CA814FF6A67500218C2401205A82DD816C
:100DB0001C821975597583F826002BB0BDE8F08F99
:100DC000012900F0E3800229A6D1A37A0093E37AF7
:100DD000267A94F8098001939EE7B3F912009042B5
:100DE00085D101208DF8A7108DF8A600BDF8A600CA
:100DF000998A88427FF47BAF82E79AF80C409AF890
:100E00000D509AF80E709AF80F900FE7012900F034
:100E1000278102298DD1237A5A2B8BDD2A4805F0B0
:100E200009FC294805F0B6FB237C2BB1012B00F00F
:100E3000E881022B00F0D881089BFF2B00F0AE80E8
:100E40000B9BFF2B00F0AA800E9BFF2B00F0A680CF
:100E5000109BFF2B00F0A2801C4B1B68B3F92420D1
:100E600012F1FF0F80F221816FF0FE02B3F90E1034
:100E70005A297FF42AAFB3F910108C297FF425AFDB
:100E8000B3F9121091427FF420AF00218DF8861043
:100E90008DF88710BDF88600998A88427FF415AFD7
:100EA0002EE70A4B1B68B3F9242012F1FF0F4FDA2B
:100EB0006FF0FE02B3F90E102D2900F010812D25E0
:100EC00071E700BFB411FF1F5808FF1F7811FF1F03
:100ED000C411FF1FC24B1B68B3F9242012F1FF0F8E
:100EE0003ADA6FF0FE02B3F90E10873100F00D818F
:100EF0004FF6797557E79AF808409AF809509AF82A
:100F00000A709AF80B9091E6B54B1B68B3F9242050
:100F100012F1FF0F24DA6FF0FE02B3F90E10002970
:100F20007FF4E5AEB3F9101000297FF4E0AEB3F919
:100F3000120090427FF4DBAE01208DF89F108DF8F7
:100F40009E00BDF89E00998A88427FF4D0AED7E615
:100F5000FF2AA8BFFF22ADE7FF2AA8BFFF22C2E7F2
:100F6000FF2AA8BFFF22D8E71A7B03925A7B05927B
:100F70009A7BDB7B07920A9388E6237A0493637A51
:100F80000693A37A0993E37A0C93EBE6A37B009391
:100F9000E37B267B94F80D800193BDE6904B1B68A4
:100FA000B3F9242012F1FF0F79DBFF2AA8BFFF223B
:100FB000B3F90E10872900F0D7808725F3E6DBF818
:100FC00000408848217C05F035FB864805F0E2FAB0
:100FD000237C33B1012B00F01D81022B04BF237B46
:100FE0000D930D9B452B00F3D580DBF800301A7C68
:100FF0002AB1012A00F02781022A00F030810F9BDC
:10100000FF2B36D0119BFF2B33D0129BFF2B30D000
:10101000139BFF2B2DD0724B1B68B3F9242012F1C8
:10102000FF0F80F2EA806FF0FE02B3F90E105A3122
:101030007FF4B7AEB3F910108C297FF4B2AEB3F9D8
:10104000121091427FF4ADAE00218DF86E108DF834
:101050006F10BDF86E00998A88427FF4A2AE4FE609
:10106000237B5A2B7FF766AED8E6FF2AA8BFFF2264
:1010700026E65B4B1B68B3F9242012F1FF0F70DBEF
:10108000FF2AA8BFFF22B3F90E102D3100F0C58052
:101090004FF6D37587E6FF2AA8BFFF227CE66FF0E4
:1010A000FE0285E7237A0293DBE5FF2AA8BFFF2231
:1010B000DCE6B3F910108C297FF407AEB3F91210F7
:1010C00091427FF402AE00218DF85E108DF85F1022
:1010D000BDF85E00998A88427FF4F7AD10E6B3F957
:1010E00010108C297FF4EBAEB3F9121091427FF40B
:1010F000E6AE00218DF856108DF85710BDF8560059
:10110000998A88427FF4DBAEFAE5B3F910108C2996
:101110007FF4EEAEB3F9121091427FF4E9AE0021F4
:101120008DF88E108DF88F10BDF88E00998A884248
:101130007FF4DEAEE4E5B3F910108C297FF431AE14
:10114000B3F9121091427FF42CAE00218DF8961065
:101150008DF89710BDF89600998A88427FF421AEE9
:10116000CEE56FF0FE028EE7B3F910108C297FF404
:1011700024AFB3F9121091427FF41FAF00218DF814
:101180007E108DF87F10BDF87E00998A88427FF42A
:1011900014AFB5E5124B1B68B3F9242012F1FF0F11
:1011A0005ADBFF2AA8BFFF22B3F90E1000297FF4F3
:1011B0009EADB3F9101000297FF499ADB3F9120078
:1011C00090427FF494AD01208DF877108DF8760071
:1011D000BDF87600998A88427FF489AD90E500BF1A
:1011E0007811FF1F5808FF1F237B0893637B0B9325
:1011F000A37B0E93E37B10931EE6FF2AA8BFFF227A
:1012000013E7237A0893637A0B93A37A0E93E37A16
:10121000109311E6237A0D93E3E6B3F910108C29AD
:101220007FF436AFB3F9121091427FF431AF002151
:101230008DF866108DF86710BDF86600998A8842AF
:101240007FF426AF5CE51A7B0F925A7B11929A7B52
:10125000DB7B12921393D2E66FF0FE02A4E71A7AB8
:101260000F925A7A11929A7ADB7A12921393C6E607
:1012700070B5BA4C8AB0FFF7D3FB23689A68917DAA
:1012800031B9DA68927D1AB91A69927D002A3ED086
:10129000DFEDB37A93ED057A37EE677A77EEC77AAA
:1012A000FDEEE77ACDED017ABDF9042012F5B47FA9
:1012B00080F29380AB4AAC480068B0F9244014F146
:1012C000FF0F80F290806FF0FE04B0F90E5095424F
:1012D00000F09D800021FF2501754175C281448287
:1012E00005829A68012180F82610917D01B39F4BF9
:1012F0009F491B681A6852688A4240F09E80187B9A
:10130000012199730AB0BDE8704003F01BBC994AF3
:10131000116891F99020501C6ED00B3AD2B2022A7B
:101320001CD8FFF76FFA23689A68917D0029DED1F7
:10133000DA68927D002ADAD11B69997D0029D6D11D
:101340008A4B8B481B681A68526882424FD1187BBF
:1013500099730AB0BDE8704003F0F4BBD1F8802067
:10136000012A6DDDD1ED217A9FED7D7A77EEC77A86
:10137000F5EEC07AF1EE10FA40F29B80DCDD9FEDD5
:101380007E7A794A77EE677A1268FDEEE77AB2F9EB
:101390002400CDED017ABDF9041011F5B47F34DBE2
:1013A000B1F5B47FA8BF4FF4B47110F1FF0F29DB82
:1013B000FF28A8BFFF20B2F90E408C4200F0B08099
:1013C0000024DC255082D1811582147554759968EA
:1013D000012082F82600897D88E7B2F5B47FA8BF96
:1013E0004FF4B47267E7FF2CA8BFFF246DE71846DF
:1013F0000AB0BDE870401047FFF7EEFB23689A681B
:10140000917D73E76FF0FE00D5E75649CDE7B0F95F
:101410001050FF2D7FF45EAFB0F91250A5427FF45B
:1014200059AF00258DF826508DF82750BDF826605D
:10143000858AAE427FF44EAF58E718460121D7E7C0
:10144000D1ED217A9FED467A474A77EEC77A126846
:10145000F1EE677AFDEEE77AB2F92400CDED017A7C
:10146000BDF9041011F5B47F1DDA3E4910F1FF0FEC
:101470006CDBFF28A8BFFF20B2F90E408C429FD141
:10148000B2F91040DC2C9BD1B2F91240844297D1C2
:1014900000248DF81E408DF81F40BDF81E50948A20
:1014A000A5428DD148E7B1F5B47FA8BF4FF4B47120
:1014B000DCE79FED327A2C4A77EE677A1268FDEE10
:1014C000E77AB2F92400CDED017ABDF9041011F5E7
:1014D000B47F41DBB1F5B47FA8BF4FF4B47110F114
:1014E000FF0F36DBFF28A8BFFF20B2F90E408C4269
:1014F0007FF466AFB2F91040DC2C7FF461AFB2F933
:10150000124084427FF45CAF00248DF80E408DF8C9
:101510000F40BDF80E50948AA5427FF451AF0BE7FF
:10152000B2F91040DC2C7FF44BAFB2F91240844288
:101530007FF446AF00248DF816408DF81740BDF8B3
:101540001650948AA5427FF43BAFF5E66FF0FE009B
:1015500092E76FF0FE00C8E70249C0E79411FF1F51
:101560000000344398FEFFFF7811FF1F8C11FF1F0E
:10157000B9040000C811FF1F0000B4C20000B4424B
:10158000F0B4104B10481A6884B04FF47A75019289
:10159000019A19680291029F1B6803930B490C4B37
:1015A000039C42606426002285604FF0FF35027381
:1015B0004F600A738E609A6083E8300004B0F0BC1C
:1015C000704700BFD411FF1F9811FF1F7C11FF1F30
:1015D0006811FF1F10B5026BC36A511C08BF0F4A88
:1015E0008CB002BF12680192019AD31A002B12DD4F
:1015F000044603A91C3002F04DF9084B08981B68FB
:101600000293029B09990A9AE3624FF0FF3320612B
:101610006161A26123630CB010BD00BFD411FF1F34
:1016200030B5426C036C511C08BF374A8DB002BF05
:1016300012680292029AD31A632B01DC0DB030BDFE
:10164000044603A92C3002F037FA0A9B0898099D3A
:10165000A3612061656106F00BF8CDE90001284621
:1016600006F006F89DED001B41EC100B05F0DEFBCB
:1016700051EC100B06F0EAFAD4ED0A7ADFED236A9A
:10168000DFED235A07EE100A77EE277AF5EEC07ADF
:10169000F1EE10FA44BF9FED1F7A77EE877A9FED47
:1016A0001D7AF4EEC77AF1EE10FAC8BF77EEC77A6A
:1016B00094ED097A67EEA67A87EEA56A76EE477A08
:1016C00084ED076AF4EEE67AF1EE10FAA4BF9FED1E
:1016D000127A77EEC77A9FED117AC4ED087AF4EEAC
:1016E000C77AF1EE10FA05D89FED0B7A77EE877A7C
:1016F000C4ED087A044B1B680393039B23644FF0EB
:10170000FF3363640DB030BDD411FF1F00003443BC
:10171000DB0F4940DB0FC9400000B443000034C375
:101720002DE9F04FC84BC94C1A78DFF89093C84D9B
:10173000D34303F001035340C34AB3B010201370E6
:1017400004F024FF2268C34B4360074600264FF095
:1017500001080D2302EB080E4146BA601846C7F88F
:1017600000903B7387F80D80BE73C4F800E003F06F
:10177000FDF9B94B3B60B94B28201F6004F006FF10
:101780002B68109307462068DDF840E02B68119322
:1017900000EB08020A234FF0FF3B78604FF00C0A81
:1017A0001198AF4922604FF47A72C7F808E07A8442
:1017B00087F8203039607861414618463E61FE6105
:1017C00087F8246087F82560C7F80CB0C7F818B010
:1017D00087F821A0009303F0C9F94146504603F071
:1017E000C5F94146504603F0ADF9009B4146184605
:1017F00003F0A8F99B4B9C481F60262104F0BAFC1B
:101800009A489B4F04F0C6FE4FF4FA6003F0D6F9F5
:101810001721984804F0AEFC944804F0BBFE142055
:1018200004F0B4FE226803464FF01B0E924883F882
:101830000CE0C3F800909A605860424470465E73B2
:101840009E7331462260009303F090F9009B8B4A0F
:101850008B491A618B4A1A60DE7314200B6004F006
:1018600095FE2168C0F800900346DFF854E2C3F803
:1018700004E01A2201EB080099601A735E739E73EC
:10188000314620601046009303F070F9009B7E49BA
:101890007E4A7C4818601A61DE7318200B6004F0E1
:1018A00075FE2A6823680F92814679490F9AC0F81D
:1018B0000CB003EB080EC9F80010C9F8082089F82D
:1018C0001480C9F8043043F2D400C9F8106089F8D4
:1018D000156089F81660C4F800E003F0A3FA6D4BB8
:1018E0001420C3F8009004F051FE23686A4A06747D
:1018F0008046591CC8F80020C8F8043041F66A0038
:10190000216003F0AFFB654B3820C3F8008004F082
:101910003DFE23686249814619226248C9F80830B1
:10192000C9F80410013389F80C20C9F8007023604D
:1019300009F11C0802F00CFB00235B4AC9F81030C7
:10194000C9F81430C9F81830C9F8002040464DF2E3
:10195000314101F005FF2B680E930E9BC9F830B0A2
:101960004046C9F83460C9F82C3002F0C7F938B9DC
:10197000D9F80830D9F804204C49032002F066FA5F
:101980004B4BDFF84081C3F80090942004F0FEFD3B
:101990002368DFF834C1DFF83491064603F1010E05
:1019A0000222991CC6F810E0C6F80090C6F80CC0D8
:1019B000736032753B48B760216002F0C9FA2B684A
:1019C000226814933B4BDDF850C033634FF0000B9B
:1019D0004FF0FF394FF00303C6F820C0511C72636B
:1019E000C6F8088086F838302E48F762C6F815B079
:1019F000C6F819B086F81DB0C6F828B0C6F824900D
:101A0000216002F0A5FA2968226813914FF0040EB4
:101A1000DDF84CA0284B86F85CE0511CC6F82C8001
:101A2000C6F844A07365B2651E48C6F839B0C6F85A
:101A30003DB086F841B0C6F84890C6F84CB037655E
:101A4000216002F085FA43E0D011FF1FAC11FF1FA7
:101A5000D411FF1FBC8900008C8800008C11FF1F6F
:101A6000C8890000C011FF1FD08900005808FF1F5F
:101A7000A0880000F8890000108A000055070000C7
:101A8000BC11FF1F788800009011FF1F1507000090
:101A9000288A0000B811FF1F308A0000C411FF1F00
:101AA000388A00007407FF1FB0880000488A0000D1
:101AB000B011FF1F7C8A0000888A00006488000043
:101AC0001C8A000000890000708A0000648A0000FF
:101AD0002A681292129AB94BC6F85080B266C6F8BC
:101AE0005DB0C6F861B086F865B0C6F86C90C6F80F
:101AF00070B086F890901C201E6004F047FD2268AC
:101B0000AF4BDFF80C8306464FF0050E86F80CE06D
:101B1000511C7360B260AB483760216002F018FA64
:101B20002A680D92A84BA9490D9A3160326186F856
:101B30000DB0C6F81490C6F818B038201E6004F036
:101B400025FD2268A24901608246511CCAF8042082
:101B50002420216004F01AFD22689E4906464FF0B9
:101B6000060E86F80CE07160B260511C9548376033
:101B7000216002F0EDF93246296842F80D8B179189
:101B80001799CAF80860C6F80DB02420C2F804B04E
:101B9000B16186F815B086F816B0C6F81C90C6F884
:101BA00020B004F0F3FC064622688B4971600721DF
:101BB0003173B260511C83483760216002F0C8F96C
:101BC0003246296842F80D8B16911699CAF80C60B6
:101BD000C6F80DB02420C2F804B0B16186F815B083
:101BE00086F816B0C6F81C90C6F820B004F0CEFCFB
:101BF000064622687949716008213173B260511C30
:101C000070483760216002F0A3F93246296842F833
:101C10000D8B15911599DFF8FC81CAF81060C6F894
:101C20000DB04C20C2F804B0B16186F815B086F84A
:101C300016B0C6F81C90C6F820B0C8F800A004F092
:101C4000A5FC2268664906464FF01E0E86F80CE099
:101C50005C487160B260511C376006F12C0A21604B
:101C600002F076F900225F495F483060B16232616C
:101C700043F239017261B261F261326272625046BE
:101C800001F07CFD2A680C920C9AC6F844905046EC
:101C90000121C6F848B0326401F012FD504601F04F
:101CA000FFFF002800F0228429A9504601F004FF1C
:101CB000309B2E98DDF8BC90B3613061C6F814906B
:101CC00005F0D6FCCDE90001484605F0D1FC9DEDBC
:101CD000001B41EC100B05F0A9F851EC100B05F0BE
:101CE000B5FFD6ED0A7A9FED417ADFED416A06EE47
:101CF000100A76EE277A67EE877A87EEA67A86ED67
:101D0000097A3C4BDFF810911E60282004F03EFC5D
:101D10002368394A064605213760726031735A1CC0
:101D2000B3602848226002F013F92B680B93334A02
:101D30000B9B326000274FF0FF32F261B3612C2120
:101D40003762B78486F82670F781378277823775D5
:101D500077752B48C9F8006004F00CFA2948194C33
:101D600004F018FC184B28491E682B680A93384663
:101D7000B36872680A9F02F069F84FF0010A337B7A
:101D8000104884F85EA05B00012184F83B3084F8A1
:101D90005DA002F035FA002840F01D832B680893FF
:101DA000089BDF1BB7F57A7F40F32A83B36872681C
:101DB0001649032002F04AF800272FE0C811FF1F40
:101DC000948A00007407FF1FA811FF1FC08800003D
:101DD000A08A0000B08A0000C08A0000D08A0000FB
:101DE000E08A000039E4603EE088000000003443EF
:101DF000DB0F4940B411FF1FE88A0000F0880000A3
:101E0000F08A00005808FF1F208B0000488A00005D
:101E1000D08800009411FF1F7811FF1FD9F80060CF
:101E20002B6807937268B368C249DDF81C900020E4
:101E300002F00CF84FF0010A337BBF4884F85EA033
:101E40005B00012184F83B3084F85DA002F0D8F9F2
:101E5000002840F0B2822B680593059BC9EB03096B
:101E6000B9F57A7F40F3C482B3687268B34903203E
:101E700001F0ECFF00230393D8F80080B04998E804
:101E80000C00002001F0E2FFD8F8086029682091DA
:101E9000B3687268A749209F002001F0D7FF4FF078
:101EA0000109337BA44884F85E905B00012184F82B
:101EB0003B3084F85D9002F0A3F9002840F0708276
:101EC0002B681E931E9BDF1BB7F57A7F40F3AA8217
:101ED000B3687268994903204FF0000A01F0B6FF19
:101EE000CDF800A0D8F80C602B681D937268B36819
:101EF00090491D9F002001F0A9FF4FF00109337B9D
:101F00008D4884F85E905B00012184F83B3084F8B2
:101F10005D9002F075F9002840F035822B681B9324
:101F20001B9BDF1BB7F57A7F40F37182B368726841
:101F3000824900260320029601F088FFB346D8F8B4
:101F400010602B681A937268B3687A491A9F002050
:101F500001F07CFF4FF00109337B774884F85E90F5
:101F60005B00012184F83B3084F85D9002F048F971
:101F7000002840F0FB812B681893189BDF1BB7F5F6
:101F80007A7F40F38382B36872686C49032001F062
:101F90005DFF00231E466B4A12788AEA020A0AF0A5
:101FA000200A82EA0A0A029A82EA0A0909F040092A
:101FB0008AEA090983EA090323F07F0389EA03090E
:101FC000604B83F80090009B002B00F0AB82BBF1CC
:101FD000000F40F0778298E80C005B49032001F085
:101FE00035FFD8F808305F68384606F0E9F9014651
:101FF000384604F0BFF80221544804F0BBF85448B6
:10200000072104F0B7F85348DFF85491504F04F01B
:10201000C1FAD8F80C30D3F804A0504606F0D0F935
:102020000146504604F0A6F80221484804F0A2F800
:10203000BBF1000F0BBF042107214846384604F0CE
:1020400099F8444804F0A6FAD8F81030D3F8048080
:10205000404606F0B5F90146404604F08BF80221EF
:102060003A4804F087F8002E0BBF48463846042152
:10207000072104F07FF8374804F08CFA009B2BB955
:10208000BBF1000F02D1002E00F0638236213248EE
:1020900004F070F82F4804F07DFA304B28491E6890
:1020A000002096E80C0001F0D1FE2B682993F2681D
:1020B00033692049299F002001F0C8FE4FF0010834
:1020C000337D1D4884F85E805B00012184F83B303D
:1020D00084F85D8002F094F8002840F03A812B6883
:1020E0002793279BDF1BB7F57A7F40F3C5813369C0
:1020F000F268124903204FF0000901F0A7FECDF865
:1021000000902B682693326B736B0A49269F002040
:1021100001F09CFE4FF0010896F83830064884F82C
:102120005E805B00012184F83B3084F85D8002F022
:1021300067F817E0208B00007407FF1F488A000033
:10214000388B0000D011FF1FB88C0000508B0000AE
:10215000AC8900005808FF1F808B0000C811FF1FCA
:10216000B4890000002840F0E7802B682493249B6A
:10217000DF1BB7F57A7F40F39B81736B326BAE49FF
:10218000032001F063FE4FF00008C2462B68239342
:10219000726DB36DA949239F002001F057FE4FF0E7
:1021A000010B96F85C30A64884F85EB05B00012114
:1021B00084F83B3084F85DB002F022F8002840F04B
:1021C000AE802B682193219BDF1BB7F57A7F40F30C
:1021D0006681B36D726D9849032001F037FE0023CC
:1021E0001C46984A127889EA020909F0020982EA33
:1021F000090988EA090808F0040889EA080883EA56
:10220000080303F0080388EA03088E4B83F8008074
:10221000009B002B00F07181BAF1000F40F05C814F
:1022200096E80C008849032001F010FEF568284666
:1022300006F0C6F80146284603F09CFF02218348B9
:1022400003F098FF8248072103F094FF8148824FF2
:102250007F4D04F09FF9D6F83080404606F0B0F884
:102260000146404603F086FF0221784803F082FFD2
:10227000BAF1000F0BBF042107213846284603F0AE
:1022800079FF744804F086F9766D304606F098F8C8
:102290000146304603F06EFF02216C4803F06AFFEE
:1022A000002C0BBF384628460421072103F062FFAB
:1022B000684804F06FF9009B2BB9BAF1000F02D106
:1022C000002C00F04E813321644803F053FF614835
:1022D00004F060F95B4B62491A78039B097853401C
:1022E00003F010035340574A0329137000F0418153
:1022F00022215C4803F03EFF564804F04BF95A4B4C
:102300005A491B681A6852688A4240F03C81012190
:10231000187B997302F016FC33B0BDE8F08F2B6880
:102320002293229B5249DB1BB3F57A7FFFF639AF2C
:102330000B682193219B4CE72B682593259B4C4AE6
:10234000DB1BB3F57A7FFFF6E7AE13682493249B7B
:1023500013E72B682893289B454ADB1BB3F57A7F4C
:10236000FFF6AEAE13682793279BC0E62B68199340
:10237000199B3F49DB1BB3F57A7FFFF6EDAD0B6888
:102380001893189BFFE52B681C931C9B384ADB1B9A
:10239000B3F57A7FFFF6B3AD13681B931B9BC5E5BE
:1023A0002B681F931F9B324ADB1BB3F57A7FFFF626
:1023B00078AD13681E931E9B8AE52B680693069BD7
:1023C0002B4AC9EB0303B3F57A7FFFF635AD1368EB
:1023D0000593059B48E52B680993099B244ADB1B61
:1023E000B3F57A7FFFF6CBAC13680893089BDDE466
:1023F000B36872681F497E42039601F027FD3BE5F2
:10240000B36872681B4901F021FD012706E5B36836
:102410007268184901F01AFD4FF0FF3302934FF034
:10242000010B8CE5B3687268124901F00FFD0123BE
:102430004FF0FF3A009355E5488A0000208B0000DA
:102440007407FF1FD011FF1F8C8C0000508B000001
:10245000AC8900005808FF1FB4890000DC8B000025
:10246000D111FF1F548C00008C11FF1FB904000014
:10247000D411FF1F788C00003369F268454901F0E0
:10248000E5FC01234FF0FF3900933AE6B368726828
:10249000404901F0DBFC01264FF0FF337BE5B36DD3
:1024A000726D3C4901F0D2FC01244FF0FF3398E6F5
:1024B000736B326B374901F0C9FC4FF0FF384FF0B6
:1024C000010A63E6002E3FF486AD98E80C0032491D
:1024D000002001F0BBFCE0E5002C3FF4A1AE96E843
:1024E0000C002E49002001F0B1FCF3E60320B36894
:1024F00072682B4901F0AAFC03E496E80C00294914
:10250000032001F0A3FCF568284605F059FF0146B9
:10251000284603F02FFE0221234803F02BFE04215E
:10252000224891E698E80C002149032001F08EFC36
:10253000D8F808305F68384605F042FF0146384653
:1025400003F018FE0221184803F014FE0421174876
:1025500057E52B21174803F00DFE174804F01AF831
:102560009BE52B21134803F005FE134804F012F8F5
:10257000B0E62021114803F0FDFD0F4804F00AF8F1
:1025800033B0BDE8F08F18460121904733B0BDE865
:10259000F08F00BF788C0000B88B0000108C00001A
:1025A000488A00008C8C0000508B0000B489000029
:1025B000B88C0000548B00005808FF1F308C0000BE
:1025C0000349044B0448054A08601A60FFF7A8B89D
:1025D0009811FF1F7C11FF1F19070000A53D000087
:1025E0002DE9F04FC2698369511C08BF2E4A83B0A0
:1025F00002BF12680092009AD31A002B50DD90F8A7
:102600002630002B4CD0294C037BB0F90E90B0F94A
:102610001080B0F9127090F814B090F815A05B001B
:10262000054601261521204684F83B3084F85E607B
:1026300084F85D6001F078FCC9F30721204601F0C1
:1026400073FC5FFA89F1204601F06EFCC8F30721A4
:10265000204601F069FC5FFA88F1204601F064FC35
:10266000C7F30721204601F05FFCF9B2204601F0D4
:102670005BFC5946204601F057FC5146204601F0CC
:1026800053FC3146204601F0BBFD074B1B6801930C
:10269000019BAB6100224FF0FF3385F82620EB61F0
:1026A00003B0BDE8F08F00BFD411FF1F7407FF1FF8
:1026B000BC4BBD4A2DE9F04F1C6823685B68934210
:1026C000ADB040F06986636C226C5D1C01BFB74BF6
:1026D0001B680593059B9B1A632B0DF18C0800F377
:1026E000CB84B34FB34A3D682B685B68934240F09C
:1026F00044864FF47A73013BFDD16B692A69581CFB
:1027000001BFAA4B1B680793079B9B1A002B1BDD7D
:10271000A94C297B01231A46204601F0FBFD94F8C1
:10272000392094F83830934240F04C83AB686A68A3
:10273000A249022001F08AFB9C4B1B680893089B6E
:102740002B614FF0FF336B619D4B9E4E1D68D5F89A
:102750000890D9F800305B68B34240F01986D9F888
:102760001C30D9F81820591C01BF904B1B680993E5
:10277000099B9B1A002B3DDD8F4C99F80C1001230F
:102780001A46204601F0C6FD94F8392094F83830F6
:10279000934200F01B86002109F10C0C934280F05B
:1027A0008D85E2180133127E84F83830964689F818
:1027B0001520604607224EFA02F303F00103012BB5
:1027C00002F1FF3208BF012100F8013F531CF2D192
:1027D00089F8161094F8392094F838309A42DDD1EF
:1027E000724B1B680A930A9BC9F818304FF0FF33ED
:1027F000C9F81C30D5F80C90D9F800305B68B342AA
:1028000040F0C285D9F81C30D9F81820591C01BFF6
:10281000664B1B680B930B9B9B1A002B3DDD664C94
:1028200099F80C1001231A46204601F073FD94F824
:10283000392094F83830934200F0BE85002109F128
:102840000C0C9A4240F23285E2180133127E84F871
:102850003830964689F81520604607224EFA02F372
:1028600003F00103012B02F1FF3208BF012100F840
:10287000013F531CF2D189F8161094F8392094F8CE
:1028800038309A42DDD1494B1B680C930C9BC9F838
:1028900018304FF0FF33C9F81C30D5F81090D9F834
:1028A00000305B68B34240F06285D9F81C30D9F83B
:1028B0001820591C01BF3D4B1B680D930D9B9B1AA3
:1028C000002B3FDD3C4C99F80C1001231A462046A2
:1028D00001F020FD94F8392094F838309A4200F045
:1028E0006185002109F10C0E934280F0E384E21827
:1028F0000133127E84F83830164689F81520704668
:10290000072246FA02F303F00103012B02F1FF3222
:1029100008BF012100F8013F531CF2D189F81610BD
:1029200094F8392094F838309A42DDD11F4B1B6857
:102930000E930E9BC9F818304FF0FF33C9F81C30C6
:10294000D5F81090D5F808C01F4BE9689CF8152001
:102950004C7D99F815001A70FFEE007A00225C7029
:102960009870F0EE676A0531A9F103090CF10D00CA
:10297000C5ED057AC5ED067AC5ED077AC5ED087A8D
:10298000C5ED097AC5ED0A7AC5ED0B7AC5ED0C7A6D
:10299000C5ED0D7A9246964614461346B6EE006A89
:1029A00014E000BFB411FF1F21160000D411FF1F57
:1029B000A811FF1FC90500007407FF1F8C890000C4
:1029C0009411FF1F19050000CC11FF1F002C40F0CF
:1029D0000182072B40F34B820F2BD4BF0E7899F85E
:1029E0000060D5ED067A012EF4EE667A00F047829B
:1029F000F1EE10FA0FD095ED077AB4EEE67AF1EE2B
:102A000010FAC8BF77EE877A4FF00104C8BF67EEAF
:102A1000867AC5ED057A0133182B02F10F0200F119
:102A2000010009F1010901F10101CFD1C34E35685F
:102A30006B6A2A6A591C00F08D849A1A002A33DDC9
:102A4000BF4C297D01231A46204601F063FC94F80F
:102A5000392094F838309A4218BF05F1140E00F06E
:102A6000D8849A4240F2AB82E2180133127E84F895
:102A7000383010466A777146072340FA03F202F0B5
:102A80000102013B01F8012F5A1CF6D194F83920BC
:102A900094F838309A42E4D1AA4B1B681293129BE7
:102AA0002B624FF0FF336B62AB6C6A6C591C01BF39
:102AB000A44B1B681093109B9B1A002B41DDA04C6C
:102AC00095F8381001231A46204601F023FC94F8AB
:102AD000381094F839308B420A4600F08A848E46CA
:102AE0004FF0000A05F138099E4580F05E822244CD
:102AF0000EF1010E92F818C05FFA8EFE60464FF09C
:102B0000010A4946072340FA03F202F00102013BA1
:102B100001F8012F5A1CF6D194F8393088487345D2
:102B200072467146E0D1BAF1000F40F0CC8485F8CE
:102B300041C0844B1B681393139B6B644FF0FF33AE
:102B4000AB64EB6EAA6E591C01BF7E4B1B680F93E2
:102B50000F9B9B1A002B3EDD794C95F85C100123EE
:102B60001A46204601F0D6FB94F8382094F839C074
:102B70009445134600F0458496464FF0000B05F14E
:102B80005C0AF44540F2168223440EF1010E93F8DC
:102B900018905FFA8EFE48464FF0010B514607230E
:102BA00040FA03F202F00102013B01F8012F5A1C26
:102BB000F6D1F44573467246E3D1BBF1000F40F005
:102BC000868485F865905F4B1B681493149BAB66F5
:102BD0004FF0FF33EB6600234FF0FF346FF0010B33
:102BE000C5F874B0AC67DFF874B1EC67072B564CCE
:102BF000C5F884B0C5F88840C5F88C409E46C5F835
:102C000080309C469A4699461A461846194605F160
:102C100015049B4600F3AD812178002940F0B18175
:102C2000BBF1000F40F06F81172B40F09781B9F195
:102C3000000F00F08B83BAFBF9F985F89090434BB5
:102C4000434A1C6823685B68934240F09A83E369B7
:102C5000A269591C01BF3B4B1B681593159B9B1A1E
:102C6000002B04DD94F82630002B40F06982394BAC
:102C70001C6802F067FA092800F3BB82364B1C6817
:102C8000E168A3684A1C00F0E182628CCB1A93428F
:102C90002CDB02F132018B4240F3638302F16401C9
:102CA0008B4240F3FD8202F196018B4240F359833F
:102CB00002F1C801994280F2F38202F1FA019942CD
:102CC00080F24F8302F596729A4280F2E9821D4BA0
:102CD0001B681893189BA3604FF0FF33E36041F229
:102CE00088314FF47A7003F0FBFC6084A369626959
:102CF0005D1C01BF134B1B681793179B9B1A022B7C
:102D000034DD94F8252094F8241094F82000002A4B
:102D10000CBF0123FF231944C9B24B1EDBB2FD2BAC
:102D200088BF82F0010284F8241088BF84F825202F
:102D300001F084FD034B1B6812E000BFC811FF1FA8
:102D40007407FF1FD411FF1F000070C17811FF1F0F
:102D5000E1250000C411FF1FC011FF1F0000F0C1DA
:102D60002093209B63614FF0FF33A361B94B3C6814
:102D70001D78B94B31681878B84A0023239388F836
:102D800004308DF88C50637B8DF88D308DF88E007B
:102D900091F8903014688DF88F30237D002B40F02F
:102DA000A2822DB0BDE8F08F0A7E84F83830131C63
:102DB00018BF01236B7394F8392094F838309A4285
:102DC0003FF4BAAC9A4204EB030103F10103EBD8E0
:102DD0000123EFE7BEF1000F21D1072B5BDD0F2BA5
:102DE000D4BF0E7899F80060D5ED097A012EF4EE83
:102DF000667A57D0F1EE10FA3FF40DAE95ED0A7AEF
:102E0000B4EEE67AF1EE10FAC8BF77EE877A4FF0AB
:102E1000010EC8BF67EE867AC5ED087AFBE5BAF108
:102E2000000F7FF4F8AD072B40F3DA800F2BD4BFEF
:102E30000E7899F80060D5ED0C7A012EF4EE667AE2
:102E400000F0D680F1EE10FA3FF4E5AD95ED0D7A85
:102E5000B4EEE67AF1EE10FAC8BF77EE877A4FF05B
:102E6000010AC8BF67EE867AC5ED0B7AD3E506780E
:102E7000D5ED067A012EF4EE667A7FF4B9AD07EE51
:102E8000902AF8EEE77AF1EE10FA0CBFC5ED067A5B
:102E9000C5ED077ABFE50678D5ED097A012EF4EE87
:102EA000667AA7D107EE902AF8EEE77AF1EE10FAEB
:102EB0000CBFC5ED097AC5ED0A7A172B7FF4ABADCF
:102EC0009CF80D30012B7FF4B1ADDFED6A6AD5EDD2
:102ED000097A95ED077A77EEE67AFFEE006AB4EEAE
:102EE000E67AF1EE10FAC5ED067A05DD77EE877A1F
:102EF000B6EE007A67EE877A594BC5ED057A2B62FC
:102F00006B62AB6292E5814560D29C450CEB03019C
:102F100000F0D881CCEB0C1907EE909A07EE10EA7E
:102F2000F8EEE77AB8EEC77A491077EE275ACCEB7D
:102F3000030BB0EE006AC5EE866A92460022814617
:102F4000C5F880B06967C5F878C0EB67934610464E
:102F5000C5ED227AC5ED216A85ED237A0133182B60
:102F600004F101040EF10F0E3FF461AE072B7FF761
:102F700053AE0F2BD4BF217F94F8381000293FF4B3
:102F80004FAEBBF1000F1DD0D9B201300A44172B50
:102F9000C0B2D2B2B7D00133182B4FF0010B04F1FD
:102FA00001040EF10F0EE1D141E64FF0FF0C8E4609
:102FB0006046A6E54FF0FF0996464846EEE5FF223B
:102FC000104657E55FFA83FC6146DEE70133182BB4
:102FD0004FF0000B04F101040EF10F0EC6D126E6EE
:102FE0000678D5ED0C7A012EF4EE667A7FF42AAFDE
:102FF00007EE902AF8EEE77AF1EE10FA0CBFC5ED75
:103000000C7AC5ED0D7A172B7FF405AD9CF80D30C9
:10301000012B7FF40BADDFED176AD5ED0C7A95ED42
:10302000077A77EEE67AFFEE006AB4EEE67AF1EE22
:1030300010FAC5ED067A05DD77EE877AB6EE007AEE
:1030400067EE877A064BC5ED057AEB622B636B63FF
:10305000ECE400BFF806FF1F7411FF1FB811FF1F3B
:10306000000080BF00003443DB0F4940DB0FC94044
:10307000000034C30000B443414604F12C0000F0CA
:103080001BFD28982061299D65612A9BA36104F09E
:10309000EFFACDE90001284604F0EAFA9DED001BA5
:1030A00041EC100B03F0C2FE51EC100B04F0CEFD0E
:1030B000D4ED0A7A5FED156A5FED155A07EE100A36
:1030C00077EE277AF5EEC07AF1EE10FA44BF1FEDE5
:1030D000197A77EE877A1FED1B7AF4EEC77AF1EE54
:1030E00010FAC8BF77EEC77A94ED097A67EEA67A30
:1030F00087EEA56A76EE477A84ED076AF4EEE67A03
:10310000F1EE10FAA4BF1FED257A77EEC77A1FED16
:10311000287AC4ED087AF4EEC77AF1EE10FA05D8F1
:103120001FED2C7A77EE877AC4ED087AC84B1B68BE
:103130000693069B23644FF0FF336364FFF7D1BA15
:10314000C44D94F80CE0B4F90EB0637D227D009379
:103150004FEA4E0E01231521284602930392B4F93B
:1031600010A0B4F9129085F83BE085F85E3085F840
:103170005D3000F0D9FECBF30721284600F0D4FEE5
:103180005FFA8BF1284600F0CFFECAF307212846EC
:1031900000F0CAFE5FFA8AF1284600F0C5FEC9F3C6
:1031A0000721284600F0C0FE5FFA89F1284600F0AA
:1031B000BBFE039A2846114600F0B6FE0099284649
:1031C00000F0B2FE029B2846194601F019F8A04B08
:1031D0001B681693169BA3614FF0FF33E361002237
:1031E0009D4B84F826201C6801F0ACFF09287FF76E
:1031F00045AD01F0B7FFC5287FF440AD012501F0D2
:10320000B1FF5FFA80FB01F0ADFF5FFA80FA01F0D9
:10321000A9FF5FFA80F901F0A5FF012DC0B200F00F
:103220000081022D84F80CB084F80DA084F80E9073
:10323000E07340F0FD8001F095FFC0B2012803D09B
:10324000022814BF00200220207417E58048628CF9
:1032500001681F911F99C91A9142FFF647AD016895
:103260001E911E9D02F13201ED1A8D4279DD016839
:103270001D911D9D02F16401ED1A8D4210DD016862
:103280001C911C9D02F19601ED1A8D4269DD0168C9
:103290001B911B9D02F1C801ED1A8D4200F3CA80FB
:1032A000012194F8210001F04DFC1FE5FF22964614
:1032B000FFF7D0BAFF221646FFF71FBBFF22964644
:1032C000FFF775BACCEB0C1907EE909A07EE10EAEF
:1032D000F8EEE77AB8EEC77A4FF0000B77EE275A90
:1032E000B7EE006A27E6FF2001F0EAFDFE2001F0BC
:1032F000E7FD284601F0E4FD9DF88D0001F0E0FDBA
:103300009DF88E0001F0DCFD9DF88F0001F0D8FDE6
:10331000FD2001F0D5FD01F0DDFD00283FF441ADB9
:1033200001F0E8FD0546EDB201F018FEFF2D00F0BA
:103330009980E368A268581C00F0C3809A1AB2F51D
:103340007A7F4DDA01236375A3752AE5FF2385F89B
:10335000903074E43E4B1B681193119B9A1AFFF74F
:103360006DBB002194F8210001F0ECFBBEE448465F
:103370009847D5F81090FFF7E5BA28469847FFF729
:10338000E3B92046984772E448469847FFF785BA64
:1033900048469847FFF72EBA204698470DF18C080B
:1033A000FFF79FB9D9F80830D9F804202B4902203B
:1033B00000F04CFDFFF7BABAD9F80830D9F804206C
:1033C0002649022000F042FDFFF75DBAD9F8083027
:1033D000D9F804202149022000F038FDFFF700BA97
:1033E0001F4B0022FF21D9701A7062755A709A70B3
:1033F000D7E46B6B2A6B1949022000F027FDFFF719
:1034000098BBAB6D6A6D1549022000F01FFDFFF7F8
:10341000DABB2B69EA681149022000F017FDFFF7BB
:103420003BBB84F808B084F809A084F80A90E072E5
:103430000135E4E601681A911A9D02F1FA01ED1ACC
:103440008D428EDD016819911999CB1A3AE400BFBB
:10345000D411FF1F7407FF1FC411FF1F8C890000C8
:10346000FC06FF1FC0B2FE287FF463AF01F042FDEF
:1034700001F040FD064601F03DFD054601F03AFD34
:10348000EDB20035C0B2144B9DF88710D97018BF4B
:103490000125021C18BF01229A701E705D7001F098
:1034A00029FD0E4B1A682292229AA2604FF0FF313A
:1034B000FD28E1603FF446AF1B682193219B9A1AD7
:1034C0003DE7064BF8E780F838E0FFF730BB84F8BB
:1034D00038C0FFF776BB00BFFC06FF1FD411FF1FEB
:1034E00030B58BB006E002F0DFFD8DF8240009A8AE
:1034F00000F01CFC02F014FE0028F4D1654B1B7890
:1035000013BB654B1B78032B78D0644B644A1C6853
:1035100023681B68934263D1207B01F019FBE37B96
:10352000A073834202D0012800F09F80003018BFB2
:103530000120E073FFF7BCF85A4B1B78002B35D005
:10354000FDF796FE0BB030BD0190FFF7B1F8554B7B
:1035500001981A78002A75D1534C237B002B69D12E
:10356000524B1B68079307986268A3684E4D801AF8
:10357000984238D24E4C01F0FFFA237B6060002B5A
:103580005BD14A4B1B680693069BA268484D181AEC
:103590009042D7D32B6898472B7B002B47D1434BC6
:1035A0001B680993099860600BB030BD404C01F076
:1035B000E3FA237B6060002B52D13C4B1B680293E3
:1035C000029BA2683A4D181A9042BBD32B689847C9
:1035D0002B7B002B2BD1354B1B6803930398E2E721
:1035E00020469847A6E72B6898472B7B002B49D1AC
:1035F0002E4B1B68089308986060BBE72C4C01F0C9
:10360000BBFA237B6060002B37D1284B1B680493E7
:10361000049BA268264D1B1A934293D32B689847AC
:103620002B7B23B9214B1B6805930598BBE701F061
:10363000A3FAB8E701F0A0FA96E701F09DFA034675
:103640006068A2E71B4A187012681B4913685B6820
:103650008B421AD10121107B917301F073FA7BE741
:1036600001F08AFA03466068ABE701460D2001F0DD
:1036700069FA23699847A07B58E701F07DFA034671
:103680006068C6E701F078FAB6E71046012198476E
:1036900062E700BFCF11FF1FD111FF1FBC11FF1F39
:1036A000C50400007411FF1F7C11FF1FD411FF1F00
:1036B0009811FF1F8C11FF1FB9040000704700BF55
:1036C00041737047704700BF704700BF38B528226C
:1036D0000C4605460846002104F0FEFD0B22084971
:1036E000204604F0DBFE0021E172EA68226100233B
:1036F00001226162E2606261A361E361236238BD1D
:10370000048D000038B528220C46054608460021E5
:1037100004F0E2FD0B220949204604F0BFFE00221E
:10372000E27229692161002301200221E0606262C6
:103730006161A361E361236238BD00BF048D0000B5
:1037400010B51421044602F023FF204610BD00BF2F
:1037500010B51021044602F01BFF204610BD00BF2B
:10376000002210B4044C0460C160C2800281428116
:103770005DF8044B704700BF148D0000002210B4A8
:10378000044C046001614273C280028142815DF891
:10379000044B7047F08C0000F8B53D4C32230126F5
:1037A000A8210546204684F83B3084F85E6084F802
:1037B0005D6000F0B9FB3146204600F021FD334644
:1037C00006221921204600F0A5FD94F8391094F83E
:1037D00038208B1A052BFDDD91423DD9561CA318CC
:1037E000F6B28E42187E84F83860294B3CD21E44D3
:1037F000941C367EE4B240EA06208C4240F30B1063
:1038000083F838403CD2D61CF6B21C448E42277E48
:1038100083F838602CD21E44141D367EE4B247EA89
:1038200006278C4247F30B1783F838402CD2561DDD
:10383000F6B21C448E42247E83F838601CD21E44AB
:103840000632317E83F8382044EA012343F30B1318
:10385000E8802F816B81F8BD4FF0FF3007460346AB
:10386000E8802F816B81F8BD60F0FF000011FF2719
:1038700067F0FF073F11FF2464F0FF031B11E7E728
:103880004FF0FF373B46E3E74FF0FF33E0E700BF81
:103890007407FF1F70B524260C46054682B03246D9
:1038A0000846002104F018FD2846FFF775FFB5F91A
:1038B00006309FED196ADFED196AEA68626007EE6B
:1038C000103AB8EEC77A164B266027EE067A1B68C8
:1038D000019327EE267A019B84ED057AB5F908203D
:1038E000236107EE102AB8EEC77A012027EE067A88
:1038F000A06027EE267A84ED067AB5F90A3007EE45
:10390000903AB8EEE77A67EE067A67EEA67AC4EDEB
:10391000077A02B070BD00BF6F12833A0AE81C41FB
:10392000D411FF1FF8B53E4C3C2301260321054668
:10393000204684F83B3084F85E6084F85D6000F0D7
:10394000F3FA3146204600F05BFC334606221E2186
:10395000204600F0DFFC94F8391094F838208B1AD8
:10396000052BFDDD91423ED9501CA318C0B2884200
:103970001F7E84F838002A4B3DD21E18901C347EDE
:10398000C0B244EA0724884224B283F838003FD208
:103990001E18D01CC0B296F9187083F838008842FF
:1039A0004FEA07272DD21E18101DC0B2367E83F8AD
:1039B0003800884247EA06072ED21E18501DC0B2B2
:1039C00096F9186083F8380088424FEA06261CD220
:1039D00018440632017E83F8382046EA0103EC8061
:1039E0002B816F81F8BD4FF0FF3427462346EC80D2
:1039F0002B816F81F8BD3C0244F0FF0424B26FF0CC
:103A0000FF0747F0FF076FF0FF0646F0FF03E6E70A
:103A10004FF0FF373B46E2E74FF0FF33DFE700BFF1
:103A20007407FF1FF8B50C4C1E4601254F002046B9
:103A3000114684F83B7084F85E5084F85D5000F0C5
:103A400073FA3146204600F06FFA29462046BDE859
:103A5000F84000F0D5BB00BF7407FF1F70B5154CD0
:103A60004B0001250E462046114684F83B3084F871
:103A70005E5084F85D5000F057FA2946204600F069
:103A8000BFFB2B462A463146204600F043FC94F803
:103A9000383094F839209A420AD9E2182B44157E1E
:103AA00084F838300121034800F0AAFB284670BD95
:103AB000FF25F7E77407FF1F2DE9F04F242283B09D
:103AC0000D4604460846002104F006FCDFF8C0B1AC
:103AD000644EDFF8C0A1DFF8C091DFF8C081624F0B
:103AE00009221E212046FFF7B9FF10F001003DD04A
:103AF0002046FFF717FF637BB4F90600002B38D18F
:103B00005A4B9FED5B7A93ED006A23696B6007EE79
:103B1000900AF8EEE77A0223C7EE866AAB60554951
:103B2000554A1268019224222A600120D1ED005AE0
:103B30000199296166EE877AC5ED057AB4F90830F6
:103B400006EE903AF8EEE66AC6EE867A67EE877A77
:103B5000C5ED067AB4F90A3006EE903AF8EEE66A58
:103B6000C6EEA57A67EE877AC5ED077A03B0BDE8A1
:103B7000F08F238900F2F77203F2F77392B29BB2CF
:103B800040F6EE718A4298BF8B4205D8638903F2F2
:103B9000F7739BB28B42B3D9237B602B53D013D9DD
:103BA000A02B41D0C02B31D0802BA9D1A023012242
:103BB0001E212046FFF736FF2C4B2E4A2F491E6050
:103BC000A023116023738BE7202B10D0402B97D1BB
:103BD000602301221E212046FFF724FF234B2848A3
:103BE000244A2849186060231160237378E7402332
:103BF00001221E212046FFF715FF1C4B22481D4ABB
:103C00002249186040231160237369E7E0230122F1
:103C10001E212046FFF706FF144B164AC3F800800A
:103C2000E023176023735BE7C02301221E21204697
:103C3000FFF7F8FE0D4B0F4AC3F800A0C023C2F8EF
:103C4000009023734CE7802301221E212046FFF7BA
:103C5000E9FE064B074AC3F800B0802316602373C1
:103C60003EE700BF0000C84300004D430007FF1FB0
:103C70000000C8420407FF1FD411FF1F0080B1439A
:103C8000008027440000164400C0554400003E4414
:103C90000000E1430000A543008093430000664319
:103CA00010B50446104800F053F9204600230222C4
:103CB0001E21FFF7B7FE204600221E21FFF7CEFE91
:103CC000102801D0002010BD2046202301221E21F3
:103CD000FFF7A8FE054B0648064A18600649116022
:103CE00020232373012010BD7407FF1F0007FF1F4F
:103CF000008089440407FF1F0000754410B5044686
:103D0000094800F025F92046572320221921FFF702
:103D100089FE204620221921FFF7A0FEA0F15700BE
:103D2000B0FA80F0400910BD7407FF1F70B5047829
:103D3000A62C2FD0A72C06D0A52C00D070BD174BD9
:103D400001221A7070BDA02002F098FA20460124CA
:103D500002F094FA124D264603E00134E4B27F2CBF
:103D600013D0630001210E4885F85E6085F85D6020
:103D700085F83B3000F044FA0028EED120460134AB
:103D8000E4B202F07BFA7F2CEBD1A120BDE87040B9
:103D900002F074BA014B00221A7070BDCF11FF1FE0
:103DA0007407FF1F08B5A02002F068FA002002F097
:103DB00065FA044B187802F061FAA120BDE80840CA
:103DC00002F05CBAD011FF1F174A38B51378032BE5
:103DD00018BF034604460D4614481370012102F033
:103DE000C9F9DCB1012C1BD0022C1BD0104B11489F
:103DF000032C08BF1846042102F0BCF903210E4829
:103E000002F0B8F9284604F0DBFA0146284602F031
:103E1000B1F90A48BDE8384002F0BCBB0848EAE7FF
:103E20000848E8E70848E6E7D111FF1F488D000081
:103E3000B4890000408D00004C8D00005808FF1F21
:103E4000308D0000288D0000388D0000F8B5144634
:103E500005460E460E4802211F4602F08BF9204609
:103E600004F0AEFA0146204602F084F90721094821
:103E700002F080F93946084802F0DCFB02210748CD
:103E800002F078F931462846BDE8F840FFF79CBFBC
:103E9000508D0000548D00005808FF1F5C8D0000FD
:103EA0000020704790F8392090F83800101A7047B9
:103EB00090F8383090F839209A4205D95A1C0344BA
:103EC00080F83820187E70474FF0FF30704700BFF1
:103ED00090F8383090F839209A4286BF1B18187E27
:103EE0004FF0FF30704700BF704700BF38B5054640
:103EF000B0F85E0090B195F85D301446C3F1210230
:103F000094420CD805F13B001844224600F022FBF5
:103F100095F85D30234485F85D30204638BD01209A
:103F200014462871EEE700BFB0F85E306BB190F830
:103F30005D30202B07D8C218013380F85D30012096
:103F400082F83B107047012303710020704700BFC7
:103F50000023426980F8383080F8393080F85C30CE
:103F600080F85D3080F85E3080F85F3006CA30B48B
:103F70000D68046943662A4383660A60A370426938
:103F800090F861301649146813441D7A5B7B01EB8D
:103F9000C5051B026D6803F4E06343F064032B6006
:103FA00090F8623013449D7CDB7D01EBC5011B0260
:103FB000496803F4E06343F064030B6021685368CD
:103FC000194205D003692C225A70036904229A71A0
:103FD000036920225A71036980229A7030BC7047AD
:103FE000E48D000038B50269D478E4B2E1060546F4
:103FF00024D51023D37063061FD504F0040404F005
:10400000FF03002C5AD042496A6E00230B7085F8DA
:104010005D30002A66D0904795F85D30002B61D066
:104020002B69D0229A702B6995F83B201A712B6965
:10403000012285F85C200222DA7038BD04F04003CA
:1040400003F0FF00002BD8D19379DBB203F06001BD
:1040500060294ED0937803F0100303F0FF01B3B151
:1040600014F0010437D195F85C3095F85D10994251
:104070004BD9591C2B4485F85C1093F83B301371D5
:104080002B69D0229A702B690222DA70D5E785F865
:104090006010937943F0200393712B6995F83910E0
:1040A0001A791F29D2B2C6D8194800780028C2D080
:1040B0006818013185F839100276BCE72A6985F85D
:1040C0003930C02393702B69114A1979012111707D
:1040D0000222DA70B1E7C02393702B691A790222A9
:1040E000DA70AAE70122002385F85D2085F83B30CD
:1040F00096E703F0DF039371AB6E23B185F83800C8
:1041000095F8390098472A69A4E71471B8E700BF09
:10411000D211FF1F2DE9F047374FDFF8E0903B68E1
:10412000026982B006460093DDF800800021C825B0
:10413000D3789B065BD53B680193019BC8EB0303D7
:104140000F2BF5D949B1102BF2D0002090703369B4
:1041500080229A7002B0BDE8F087726996F86130EB
:1041600013440521187A00F001FD726996F8613058
:104170001344012193F812A0504600F0F7FC0924E3
:104180000021504600F0DEFC2B46013BFDD1012111
:10419000504600F0D7FC2B46013BFDD1013CEFD14E
:1041A000706996F8611001444FF4C8720C7A4B7B29
:1041B00009EBC4011B02496803F4E06343F06403A4
:1041C0000B6096F862300344997CDB7D09EBC101FA
:1041D0001B02496803F4E06343F064030B60013A97
:1041E000FDD13269D3789B064FF00101A3D40120A1
:1041F00002B0BDE8F08700BFD411FF1FE48D0000BE
:10420000F0B503691222DA700269937803F0200393
:1042100085B004460D46002B5ED0B42393703C4914
:1042200022690B680093009E05E00B680193019BD7
:104230009B1B042B42D8D37803F0200303F0FF002C
:10424000002BF2D094F85D30002B31D04FF0000EEF
:104250004FF0020C04EB0E0393F83B3013710B6824
:104260000393039F206907E09B060DD50B6802931B
:10427000029BDB1B052B28D8C378DBB203F00202BC
:1042800002F0FF06002AEFD080F803C02669F37819
:10429000DBB2DF0632462DD49F062BD5DB0731D4A7
:1042A0000EF1010E94F85D305FFA8EFE7345D1D8A1
:1042B00000201DBB002384F85E3004E09070236969
:1042C00080229A70042005B0F0BD86702369802298
:1042D00004209A7005B0F0BD03F0FF06FFF71AFF47
:1042E00010B9042005B0F0BD236984F85F60B022E6
:1042F0009A7094E78023B3700420DAE7266980235C
:10430000B370D7E7BEF1000F0CBF02200320F6E721
:10431000D411FF1F2DE9F04106690025122780F80E
:10432000385080F83950F770D0F810C09CF802E08F
:104330000EF0200E88B00446884615461E46BEF193
:10434000000F49D0B4238CF80230784B21691A68E9
:104350000092DDF800E006E01A6801920198CEEBC9
:104360000000042830D8C87800F0200000F0FF07D3
:104370000028F1D04FEA480242F00102D2B20A719D
:104380001A680292DDF808E0206906E01A680392D4
:104390000399CEEB010105292AD8C17801F0020169
:1043A00001F0FF070029F1D04FF0020C80F803C0A4
:1043B0002269D17811F0110722D12DBB002E0CBF3C
:1043C000A0238023937003E08F70236980229A706A
:1043D000384608B0BDE8F0810EF0FF07FFF79AFEFF
:1043E0000028F5D0236984F85F70B0229A70ACE79A
:1043F00087702369802238469A7008B0BDE8F08142
:10440000802393700027E3E7012D75D0A0219170E0
:1044100021690A79BE4667464FF0A80C1A680492D3
:10442000049805E01A680592059A121A052A4AD8D6
:10443000CA7802F0020202F0FF08002AF2D0CF7020
:104440002169CA78D2B212F0100F08465AD19206EA
:1044500058D5013DEDB2012D49D0BEF11F0F3BD91A
:104460000A79012DDAD11A680692069D05E01A68CC
:104470000792079A521B052A46D8C27802F0020218
:1044800002F0FF01002AF2D00223C3702269D37820
:10449000DBB2D9063AD49B0634D5B023BEF11F0F48
:1044A00093703FD8226904EB0E0312791A760EF14D
:1044B000010E5FFA8EFE16B1236980229A7084F88D
:1044C00039E0774684E781F80280236980229A7078
:1044D000774684F839E07BE704EB0E0291F804801C
:1044E00082F818800EF1010E5FFA8EFEB9E781F8AE
:1044F00002C021690846B0E7A82191702069BE4634
:104500000279B0E7774663E78170DEE71021C823C0
:10451000D170013BFDD12269937803F0F703774610
:10452000937055E723691B79C5E700BFD411FF1FBE
:104530000148FFF757BD00BF7407FF1F0148FFF791
:1045400051BD00BFE007FF1F0148FFF74BBD00BF93
:104550000807FF1F844641EA000313F003036DD1EF
:10456000403A41D351F8043B40F8043B51F8043B36
:1045700040F8043B51F8043B40F8043B51F8043B3D
:1045800040F8043B51F8043B40F8043B51F8043B2D
:1045900040F8043B51F8043B40F8043B51F8043B1D
:1045A00040F8043B51F8043B40F8043B51F8043B0D
:1045B00040F8043B51F8043B40F8043B51F8043BFD
:1045C00040F8043B51F8043B40F8043B51F8043BED
:1045D00040F8043B51F8043B40F8043B51F8043BDD
:1045E00040F8043B403ABDD2303211D351F8043B7D
:1045F00040F8043B51F8043B40F8043B51F8043BBD
:1046000040F8043B51F8043B40F8043B103AEDD22B
:104610000C3205D351F8043B40F8043B043AF9D27C
:10462000043208D0D2071CBF11F8013B00F8013B4F
:1046300001D30B8803806046704700BF082A13D35C
:104640008B078DD010F003038AD0C3F10403D21A74
:10465000DB071CBF11F8013B00F8013B80D331F8A8
:10466000023B20F8023B7BE7043AD9D3013A11F828
:10467000013B00F8013BF9D20B7803704B78437093
:104680008B7883706046704708B5104C08E023684B
:1046900059050DD423681A050FD42368DB0411D4FF
:1046A00023685803F3D500F0D7FE23685905F1D5E8
:1046B00002F064F923681A05EFD502F0F5F92368D2
:1046C000DB04EDD500F062FCEAE700BF3480044073
:1046D00008B5FFF7D9FF00BF014B10221A807047C1
:1046E00000200540704700BF094908B50B6830B18C
:1046F0006A461844A2F50052904202D20860184659
:1047000008BD03F0F3FA0C2303604FF0FF3008BD3F
:104710004C08FF1FFEE700BFEFF3138070B9EFF303
:1047200010836BB9EFF305825AB94FF48070EFF341
:1047300011832BB1984228BF184670474FF0FF30C5
:1047400070470F2A01D81846F1E7014BD05CEEE71D
:10475000F0E300E010B4114B53F8302092F880429F
:1047600034B1012379B182F880305DF8044B704791
:1047700003EBC0035B681A6851B922F002021A60A9
:104780005DF8044B704782F800315DF8044B7047C8
:1047900042F003021A605DF8044B7047E48D00009C
:1047A0001C4A02EBC00301295B6811D004291BD00D
:1047B00052F83000002280F8802229B1022920D04E
:1047C000032922D01A6070474FF480721A60704734
:1047D00052F830004FF4A27280F880121A601A6802
:1047E00022F020021A60704752F830104FF4A27283
:1047F000012081F880021A601A6842F020021A60D3
:10480000704740F203121A6070474FF481721A60C9
:10481000704700BFE48D000030B4054B054D064CD9
:10482000002210211A602A602060196030BC704795
:1048300014D0034004D0034000D0034038B5A0F1A9
:104840004203012B04461FD9002975DD904B1B78CC
:10485000012505FA03F28A4202D83F2827D938BD3C
:10486000C21E012A2BD9A0F11D02012A73D90E28DC
:1048700056D9A4F12302032A57D9864A126802FBAB
:10488000011222FA03F320E0814B1B780B2B0AD98B
:104890000C2B1CBF0C3B1941422C084657D0BDE8DD
:1048A000384002F017B8C3F10C039940F4E72946E9
:1048B000FFF750FF2946BDE83840FFF771BF764A41
:1048C000126802FB011222FA03F3A21E242A00F24C
:1048D000D580DFE812F0CC00C500BE00B700B00004
:1048E000A900A2009B009400D300D300D3008D0048
:1048F000D300D300D300D300D30086007F0078001C
:104900007100D300D300D300D300D3006A0063004A
:10491000D300D300D300D3005C0055004E00470005
:1049200044F28412C240D207A3D55C4A126802FB4B
:10493000011222FA03F3C8E73F2890D80021FFF7BD
:1049400009FF20460121BDE83840FFF729BFBDE837
:10495000384001F0A1BF524A126802FB011222FA4C
:1049600003F3B2E74F49504A0B604FF451731360A1
:1049700038BD4E494E4A0B604FF45173136038BD39
:104980004C494D4A0B604FF45173136038BD4B498D
:104990004B4A0B604FF45173136038BD49494A4A82
:1049A0000B604FF45173136038BD4849484A0B609F
:1049B0004FF45173136038BD4649474A0B6040F2CB
:1049C0004443136038BD4549454A0B6040F24443B7
:1049D000136038BD4349444A0B6040F244431360BE
:1049E00038BD4249424A0B6040F24443136038BD2F
:1049F0004049414A0B6040F24443136038BD3F498F
:104A00003F4A0B6040F24443136038BD3D493E4A83
:104A10000B6040F24443136038BD3C493C4A0B6094
:104A200040F24443136038BD3A493B4A0B6040F2C0
:104A30004443136038BD3949394A0B6040F244435E
:104A4000136038BD3749384A0B6040F24443136065
:104A500038BD3649364A0B604FF45173136038BD88
:104A60003449354A0B604FF45173136038BD3349F4
:104A7000334A0B6040F24443136038BD3F2C3FF68D
:104A8000EEAE7F29D4BF00210121204657E700BFA9
:104A90005008FF1F088003400890034008900B4017
:104AA00008800B4048900B402CB0044040900B40D5
:104AB00028B0044038900B4024B0044030900B40A4
:104AC00020B0044018800B404CA0044010800B40E4
:104AD00048A004401880034008B004401080034000
:104AE00004B004404080034018C0044038800340B4
:104AF00014C0044018900B4004C0044028800340B8
:104B000010B00440208003400CB0044028900B40BB
:104B10000CC0044020900B4008C00440308003408B
:104B200010C00440488003401CC00440189003405B
:104B300034900440109003403090044010900B409B
:104B400000C004403F2801D8FFF704BE704700BFF3
:104B50003F2806D8044B53F8303093F80002C0B217
:104B600070470020704700BFE48D00003F2801D847
:104B7000FFF716BE704700BF72B60C490C4B0D4ACA
:104B80001B680868126862B6520102D5322B88BFD2
:104B900001300949C3F5EA334FF47A72BF33A1FB00
:104BA000031302FB00F000EB93107047D411FF1FBA
:104BB00018E000E004ED00E0898888882DE9F843DA
:104BC000054672B6204F214B214A1B683C6812688B
:104BD00062B6520102D5322B88BF013495B3C3F5BA
:104BE000EA331C4EDFF86490DFF86480BF334FF483
:104BF0007A72A6FB031302FB04F404EB931472B65F
:104C0000D9F800103A68D8F800E062B6C1F5EA3386
:104C1000BF33A6FB03031EF0806FC4EB93134FF466
:104C20007A7002D0322988BF013200FB0233B3F51B
:104C30007A7F04D3013D05D004F57A74DFE701F0F3
:104C400059FDDCE7BDE8F883D411FF1F18E000E050
:104C500004ED00E089888888F8B53E4B3E49DFF8CE
:104C600018C13E4E3E4ADFF814E13E4D3E4C3F4FE8
:104C70004FF0006018604FF0805018604FF0005007
:104C800018604FF0804018604FF00040186000201E
:104C9000086028234EF6FF71CCF80010CEF80030E3
:104CA00033600EF5012E13602B60236005F500259F
:104CB0003B6004F50024B36207F50027936206F514
:104CC000012602F501220EF1100E05F6E87504F634
:104CD000E87407F57F67103220362B602360CEF82A
:104CE00000303B6013603360214EBB619361092249
:104CF0003260A7F5002706F58056203F0836386059
:104D00003160BB60F36047F8042C06F5FD2607F51B
:104D1000FE2706F2FC76043730603960B360FB6032
:104D200046F8042C0836C7F8FC0F06F6FC76114846
:104D300031602B602360026001F03EFD1920FFF717
:104D40003DFF01F0F1F840F21310BDE8F840FFF725
:104D500035BF00BF04E100E004800340148003403D
:104D60001C800340248003402C8003403480034097
:104D70000080034000900B40088003400C800340FB
:104D80002DE9F84F214B1B6807460BB101221A7021
:104D9000DFF888901E4D99F80040DFF884801D4EA2
:104DA0000134272C8ABF4FF0000A5FFA84FA544678
:104DB000AB462B78A34216D1FFF7AEFC40281FDC90
:104DC00033791B06F5D59BF800300133272B86BFBE
:104DD00000221346DAB218F80330DBB2F3712A70FE
:104DE0002B78A342E8D00C490A4BFFB208F80470B4
:104DF0000120AC22087089F800A0DA70BDE8F88FB5
:104E0000FF28D6DD01F076FCD3E700BF4C12FF1F70
:104E10004912FF1F00C006404812FF1F5012FF1F1B
:104E2000E011FF1F1B4BDFF890C01A681A49F0B55C
:104E300042F48052194D1A60DFF880E0184F194E85
:104E4000194C00238CF800304FF451722B701F283E
:104E500040F213358EF800303B70337025600A60E5
:104E600011D819460124114A114D1170114854707E
:104E700000212C2740269372082491701174D7705A
:104E80002E700460F0BDC0F34431C0F3471400F04D
:104E90001F03E8E7348004400CC00440DD11FF1F0D
:104EA0004912FF1F4812FF1F08C0044000C00640FF
:104EB00023E400E004E100E0DC11FF1F5012FF1FBB
:104EC000034B1B68DB0401D5FFF75ABF704700BFD7
:104ED00034800440054A064B10781B78C0B2DBB220
:104EE000984238BF4030C01A704700BFDC11FF1F26
:104EF000DD11FF1F30B4154B154C1A782378D2B250
:104F0000DBB29A421ED001333F2B0ED91149124B0E
:104F1000087819680023C0B2237021B1D31A1A2B64
:104F200001DC00230B7030BC70470A480A49C05CA2
:104F30000968DDB2C0B225700029F4D09A4238BFAA
:104F40004032EBE74FF0FF30EDE700BFDC11FF1F11
:104F5000DD11FF1F0812FF1FD811FF1F084A094B60
:104F600012781B78DBB29A4207D00133402B28BF5E
:104F70000023054AD05CC0B270474FF0FF30704745
:104F8000DC11FF1FDD11FF1F0812FF1F30B42B4B78
:104F90001A7994061FD52A48DA790378294901330A
:104FA0003F2B0978C8BF00238B42D2B203D0264CD6
:104FB000D9B2E2540170254A116861B1244A1278CD
:104FC000D2B2934236BFC2F140029B1A9B18272BE4
:104FD000C4BF01230B70194AD378DBB2180611D471
:104FE0005A060DD5154B1B795B0609D5194B1A4985
:104FF0001B6800220A7003B11A70104B2C22DA7061
:1050000030BC704711790906EAD5144910480C786C
:105010000178C9B28C420DD04A1C272A84BF0021D6
:105020000A460F4D054C98BFD1B2AA5CD2B2E271CC
:105030000170D5E76C21D170D2E700BF00C00640F7
:10504000DC11FF1FDD11FF1F0812FF1FD811FF1F0A
:105050004912FF1F4C12FF1F4812FF1F5012FF1F63
:10506000E011FF1F284A29491368F0B443F40053A4
:1050700013600A78264F274E274D284C28490023D5
:105080001F2A3B7033702B7023700B7037D03F2A70
:105090001BD0244B1B78202B1FD03E2B2AD01F283F
:1050A00021D80020024601241F4B204D1A702C27C6
:1050B000002240261E495C70987220249A701A744F
:1050C000DF702E700C60F0BC70471A4B40F2133248
:1050D0001A60144B1B78202BDFD1174B4FF4517201
:1050E0001F281A60DDD9C0F34432C0F3471400F022
:1050F0001F00D9E7114B4FF451721A60CFE7104BE4
:1051000040F213321A60C4E7348004405108FF1F94
:105110005812FF1F5912FF1FCC12FF1FC512FF1F8D
:10512000C412FF1F5208FF1F00D0064025E400E014
:1051300004E100E014D004402CA0044010D004404E
:1051400028A00440054A064B10781B78C0B2DBB299
:10515000984238BF4030C01A704700BF5812FF1F36
:105160005912FF1F30B4154B154C1A782378D2B260
:10517000DBB29A421ED001333F2B0ED91149124B9C
:10518000087819680023C0B2237021B1D31A1A2BF2
:1051900001DC00230B7030BC70470A480A49C05C30
:1051A0000968DDB2C0B225700029F4D09A4238BF38
:1051B0004032EBE74FF0FF30EDE700BF5812FF1F22
:1051C0005912FF1F8412FF1F5412FF1F30B42B4BC4
:1051D0001A7994061FD52A48DA79037829490133C8
:1051E0003F2B0978C8BF00238B42D2B203D0264C94
:1051F000D9B2E2540170254A116861B1244A12788B
:10520000D2B2934236BFC2F140029B1A9B18272BA1
:10521000C4BF01230B70194AD378DBB2180611D42E
:105220005A060DD5154B1B795B0609D5194B1A4942
:105230001B6800220A7003B11A70104B2C22DA701E
:1052400030BC704711790906EAD5144910480C782A
:105250000178C9B28C420DD04A1C272A84BF002194
:105260000A460F4D054C98BFD1B2AA5CD2B2E2718A
:105270000170D5E76C21D170D2E700BF00D00640A5
:105280005812FF1F5912FF1F8412FF1F5412FF1FD5
:10529000C512FF1FC812FF1FC412FF1FCC12FF1F31
:1052A0005C12FF1F431E032B14D872B60A4951F833
:1052B000230068B170B4094C058834F8132046689F
:1052C00041F82360521B24F8132062B670BC70476B
:1052D00062B67047002070472813FF1F2C16FF1F6F
:1052E000013803280BD872B6074B53F8203043B16E
:1052F00000205B680130002BFBD162B670470020B4
:1053000070471846F9E700BF7C13FF1F30B472B630
:105310002B4A13781D0706D52A4B196A002936D067
:10532000996A002941D053781C0706D5254B196C82
:1053300000293ED0996C002939D09378190705D5FA
:10534000204B196E002936D0996E89B1D3781B078E
:1053500007D51C4BD3F880207AB3D3F888201121CD
:105360003AB162B6184B00221A7030BC00F076BE1B
:105370000D21154C154D227843F8315003EBC10334
:105380000830013A5860227062B630BC704704227F
:105390000D4C0F4D217843F8325003EBC203083017
:1053A0004A1E5860227062B6EFE70521E1E7092145
:1053B000DFE70822ECE70C22EAE71022E8E700BF6B
:1053C000109000000000FF1FA513FF1FC800400041
:1053D00088004000431E032B1DD81B4A400140F0AB
:1053E000100030B4104472B6184CE25C032A1BD88B
:1053F000DFE802F00212151703220D88E25410F0C4
:10540000080F14BFC823882343EA0543083103600B
:10541000416062B630BC704708300222EDE70522D9
:10542000EBE708300422E8E7094A52F8230038B1D4
:10543000084A52F82300416042F8231062B6E9E7B7
:1054400042F82310034AF7E70000FF1FB413FF1FC1
:105450007C13FF1F8C13FF1F2DE9F04FDFF80CB3F7
:10546000DFF80CA387B044E0AB4F4FEA930807EB9B
:10547000C809013ED9F8042003F00803F6B2A2F1EE
:10548000080003F0FF04002B40F0028157F8383089
:105490001B0C99B222F8081C002B00F0F0809F4BE7
:1054A00022F8064C42F8044C53F82620002A00F05B
:1054B000C5829B4D55F8263058609A4C45F8260019
:1054C00034F81630194424F8161000F0A7FD00280F
:1054D00000F0AD82944A954B19F0080F00F10800D6
:1054E00018BF1346C9F8040047F8383008238BF872
:1054F00000309BF80040E4B261071AD58C4B1B7852
:10550000A3B18C490A7802F0FF0322B1013BDBB260
:105510000B7003B900BE88490A7802F0FF032AB174
:10552000013BDBB20B70002B00F0578204238BF899
:10553000003004F0080303F0FF02002B00F0CC80E1
:105540009AF80030DBB21E098ED19C08DFF8C891B2
:1055500059F8342009EBC401C2F38302013A4968C7
:105560000C2A00F28880DFE802F07C7C8686868642
:1055700086864786868607000868704D4A68704FA1
:10558000704E286081B240F28160674B6A604FF0D4
:10559000010E0022814249F834303A60C9F81020E7
:1055A000C9F8182086F800E05B4C00F2E380B1F502
:1055B000D06F80F04683B1F5817F00F0FC8200F26D
:1055C0008D82802900F07783822940F0FA82A988B1
:1055D00001F07F01042900F2F4825B485B4C8900F2
:1055E0000844227062700278930740F1588484F86E
:1055F00000E04FF0020E42E3514F3A6832B3544B91
:10560000504E5449188834780D784028864645F025
:10561000020828BF4FF0400E002C84F001043470C3
:10562000CEEB00000CBF8824C82409EBC80680B26A
:1056300085F0010544EA0E447260188049F838404C
:1056400072440D70002800F045813A603B4B1A8887
:10565000B2F5A06F0FD100219A7859703E4B1A70A5
:1056600009E0364A108842F22102904200F0378168
:105670002D4A49F83420394A0123137036E72A4A63
:105680002A4B19F0080F18BF134647F838302DE79A
:1056900000F0E4FC324A334952F82630002B00F087
:1056A000D18158688C5D42F8260003F10802C9F8E0
:1056B0000420032C05D8DFE804F02C02292602225E
:1056C0008A551A8819F0080F0CBF8823C82343EAAB
:1056D000024347F8383009E7E00700F181812106ED
:1056E00000F1F281A20706D51F4A20491378022053
:1056F000DBB213700870E30602D51C4B10221A703F
:1057000007B0BDE8F08F04228A55DAE705228A55F2
:10571000D7E703228A55D4E70000FF1F2813FF1F95
:10572000D412FF1F2C16FF1FC80040008800400045
:10573000B013FF1F3913FF1FB813FF1F9C13FF1F68
:10574000D012FF1F3813FF1FC0200740A813FF1FF0
:10575000E412FF1FA413FF1F982007409420074066
:105760007C13FF1FB413FF1F8820074080200740D1
:105770009020074042F22100814200F02A8100F28D
:10578000D880B1F5086F00F07682B1F5106F40F067
:105790001882226AB349A8780870120600F13A8389
:1057A000D9F82820B049130600F10C83D9F830202D
:1057B000AD49150600F10183D9F83820AA4914062D
:1057C00000F1F682D9F84020A749100600F14A837B
:1057D000D9F84820A449120600F13F83D9F8502097
:1057E000A149130600F13483D9F858209E491506C3
:1057F00000F12983D9F860209B49140600F11E832B
:10580000D9F868209849100600F11383D9F8702060
:105810009549120600F10883D9F8782092491306B9
:1058200000F1FD82D9F880208F49150600F13183FF
:10583000D9F888208C49140600F12583D9F89020E6
:105840008949100600F11983D9F898208649120673
:1058500000F10D838548864A864901908648874D28
:10586000874C049700230596029580460F461646FE
:105870001D460394306828B1446800F0EFFB2046D1
:10588000002CF9D100233360029B38681A460023AC
:1058900042F8253028B1446800F0E0FB2046002C97
:1058A000F9D100223A60019A98F80030114600229E
:1058B00041F8042B039A0191023B4FF0000122F8BA
:1058C0001510032B00F22B81DFE813F07001250186
:1058D00070012501BEF1400F18BF0022B5E6694AEC
:1058E0000D784878157050708D78C8789570D070A4
:1058F00010680D79157186284D79897955719171E6
:1059000000F09B816049614E0A78307882F0010591
:10591000002842F002020D700CBF8821C82149F80E
:10592000321009EBC20280F001000021307051609A
:105930009EE642F22120814240F0CB81544B554CEF
:105940005549A8781D682560CDF804E0087000204E
:1059500002908046844604464B490D7845F0020E7D
:1059600009EBCE030393019B002B039B5C600CBFF0
:105970008824C82444EA080385F0010449F83E302D
:1059800032700C70DFF8E0E0404BDFF8FC8000285C
:1059900040F01E81BCF1400F1BD144F0020C09EB1A
:1059A000CC03029CDFF8C0E05C60002A40F0268156
:1059B000020442F088029DF804304EF83C20044472
:1059C00033700D702346402803D10020334A3B60DA
:1059D0001080334A012313704DE600F0ABFCA5E5BF
:1059E000214B2F4828491A614FF0020E80F800E041
:1059F0002C4F0A702C49196099602C4E2C4D2D4C5F
:105A00009A610D213970FF213170DFF8B8E02970FB
:105A10002270294D294A8EF800109F27012406F88C
:105A2000047C5D600470DA6007B0BDE8F08F244A42
:105A300047F8380013780133137057E543F8260010
:105A40000E4D3AE58B5D032B00F2F08001A252F877
:105A500023F000BFED540000ED540000115B000086
:105A60000B5B0000B013FF1F0000FF1F8C13FF1F14
:105A70002813FF1F7C13FF1FB413FF1FD412FF1F37
:105A80002C16FF1F3416FF1FA413FF1F3813FF1F10
:105A9000D411FF1F3C16FF1FC813FF1FE412FF1F86
:105AA00094200740C020074088004000882007401D
:105AB0008020074098200740E812FF1F3C13FF1F7B
:105AC000A513FF1F8C200740C149C24B80220D2027
:105AD00008701A70A2077FF50EAE05E640F202329A
