:10000000F8FF0220990100005D3900001539000059
:1000100015390000153900001539000015390000A8
:100020001539000015390000153900005D39000050
:100030005D39000015390000E9560000ED57000059
:100040005D3900005D3900005D3900005D39000058
:100050005D3900005D3900005D3900005D39000048
:100060005D3900005D3900005D3900005D39000038
:100070005D3900005D3900005D3900005D39000028
:100080005D3900005D3900005D3900005D39000018
:100090005D3900005D3900005D3900005D39000008
:1000A000BD370000C93700005D3900005D39000030
:1000B0005D3900005D3900005D390000C15D000060
:1000C0005D390000ED5E00005D390000194200005E
:1000D0005D390000594400005D3900005D390000C1
:1000E0005D3900005D3900005D3900005D390000B8
:1000F0005D3900005D3900005D3900005D390000A8
:100100005D3900005D3900005D3900005D39000097
:100110005D390000E54600005D3900005D390000F2
:100120005D3900005D3900005D3900005D39000077
:100130005D3900005D3900005D3900005D39000067
:100140005D3900005D390000196000005D39000074
:10015000116100005D3900005D3900005D3900006B
:100160005D3900005D390000D53700005D390000C1
:100170005D3900005D3900005D3900005D39000027
:100180005D3900005D3900005D3900005D39000017
:100190005D3900005D390000584B4CF2205210B51B
:1001A0001A804DF628121A8000BF00BF03F0DAFB58
:1001B000534B4FF030621A60524A9A60524ADA60EA
:1001C000524B4FF470021A60514A136813F4807353
:1001D00004D150490B604FF4A85313604E4B1A786A
:1001E000110703D51A7842F008021A704B4B4C499C
:1001F0002A221A704B4A4C4B8B4204D252F8040FFD
:1002000043F8040BF8E7494B494900228B4202D2DC
:1002100043F8042BFAE74749474A002352F82300E2
:1002200041F823000133662BF8D1444B444A802126
:1002300003F8011B9342FBD1424B3E4A1A60424BEA
:100240008A221A70A3F5805324225A70A0221A70B1
:100250009A799207FCD59A79D406FCD43B4A9379D3
:1002600003F00C03082B394BF9D103221A714622F3
:100270005A719A799006FCD5344A9179334B4906E4
:10028000FBD5334A4FF08271116009215160202261
:100290001A709A7902F00C020C2AFAD12D4B2E4AD0
:1002A0001A602E4B2E4A1A6000225A60072243F829
:1002B000042C2C4AC3F80C2D62B603F013FE154B28
:1002C0001B68DA0705D5284803F0ECFB274B284AC2
:1002D0001A60284B1B785B0609D5244C244B2268F6
:1002E0009A4204D1204803F0DDFB0023236006F08E
:1002F0005DFF03F03DFB05F087FAFEE70E200540A9
:1003000030800440823F04000100002B88ED00E0B3
:1003100010D0034014D0034002D0074000E0074053
:100320004C11FF1F94850000F806FF1F4C11FF1FA2
:100330004416FF1F0002FF1F0000000000E400E061
:1003400056E400E008ED00E00050064000400640A2
:100350004480044004800440C010050014E000E024
:10036000BFD4010000002020B2E31F5D1CE0034069
:10037000A5C3945A00F00740FFFFFFFFFFFFFFFFF8
:10038000FFFFFFFFFFFFFFFFFFFFFFFFFFFFFFFF7D
:10039000FFFFFFFFFFFFFFFFFFFFFFFFFFFFFFFF6D
:1003A000FFFFFFFFFFFFFFFFFFFFFFFFFFFFFFFF5D
:1003B000FFFFFFFFFFFFFFFFFFFFFFFFFFFFFFFF4D
:1003C000FFFFFFFFFFFFFFFFFFFFFFFFFFFFFFFF3D
:1003D000FFFFFFFFFFFFFFFFFFFFFFFFFFFFFFFF2D
:1003E000FFFFFFFFFFFFFFFFFFFFFFFFFFFFFFFF1D
:1003F000FFFFFFFFFFFFFFFFFFFFFFFFFFFFFFFF0D
:10040000FFFFFFFFFFFFFFFFFFFFFFFFDEF9FFFF23
:1004100010B5054C237833B9044B13B10448AFF33E
:1004200000800123237010BD4C11FF1F000000004D
:1004300098850000084B10B51BB108490848AFF378
:1004400000800848036803B910BD074B002BFBD0A0
:10045000BDE81040184700BF000000005011FF1F0A
:10046000988500004C11FF1F00000000704700BF7E
:10047000836842680149012002F02EBEC87D000059
:10048000836842680149012002F026BEF47D000025
:1004900008B5426883680349012002F01DFE002070
:1004A00008BD00BF1C7E000083684268014901202E
:1004B00002F012BEF47D00000346007B997303F046
:1004C00087BC00BF10B50446007B03F087FCE37BCC
:1004D000A073834201D0012804D0003018BF01204E
:1004E000E07310BD01460D2003F072FC23699847AC
:1004F000A07B003018BF0120E07310BD10B504468A
:10050000007B03F06BFCA07310BD00BF0346007BB3
:10051000597303F071BC00BFF0B5C2698369511C07
:1005200008BF264A83B002BF12680092009AD31A0D
:10053000002B37DD224E017B01231A460746304649
:1005400003F02EF896F8392096F838309A422ED0DB
:10055000002107F10C009A4226D9F2180133127ECD
:1005600086F8383015467A750446072245FA02F3B4
:1005700003F00103012B02F1FF3208BF012104F84F
:10058000013F531CF2D1B97596F8392096F83830EE
:100590009A42E0D1094B1B680193019BBB614FF06C
:1005A000FF33FB6103B0F0BDFF252A46DBE7BB68E4
:1005B0007A680449022002F08FFDEBE7D411FF1F97
:1005C0007407FF1F4C7E000030B54FF47A7383B080
:1005D000013BFDD142690369511C01BF204A1268E9
:1005E0000092009AD31A002B31DD1E4C017B0123AF
:1005F0001A460546204602F0D3FF94F8392094F8B5
:10060000383093420DD124E00A7E84F83830131C30
:1006100018BF01236B7394F8392094F838309A424C
:100620000DD09A4204EB030103F10103ECD801233E
:100630006B7394F8392094F838309A42F1D1084B12
:100640001B680193019B2B614FF0FF336B6103B07B
:1006500030BDAB686A680449022002F03DFDEEE758
:10066000D411FF1F7407FF1F4C7E000070B5C269D4
:100670008369511C08BF244A82B002BF12680092ED
:10068000009AD31A002B32DD204D017B01231A463C
:100690000646284602F084FF95F8392095F8383050
:1006A0009A4218BF06F10C0026D09A4221D9EA18C6
:1006B0000133127E85F838301446727501460723DF
:1006C00044FA03F202F00102013B01F8012F5A1C27
:1006D000F6D195F8392095F838309A42E5D10A4B91
:1006E0001B680193019BB3614FF0FF33F36102B0CC
:1006F00070BDFF242246E0E7B36872680449022017
:1007000002F0EAFCEBE700BFD411FF1F7407FF1FE4
:100710004C7E0000704700BF0C4B1B689A7B012A7F
:100720000AD01A680A48526882424FF001010AD181
:10073000187B997303F04CBB1A68054852688242D3
:100740004FF00001F4D01846104700BF8C11FF1F76
:10075000B904000030B5274B274A197883B071B926
:100760001268264814686468012584421D702BD1E4
:10077000107B917303B0BDE8304003F029BB1268D1
:100780001E491068446800208C42187022D1012153
:10079000107B917303F01CFB194B1B68B3F90E20FF
:1007A000002199842AB9B3F9102012B9B3F91220A3
:1007B000A2B100220121DA811A825A825A75197572
:1007C00083F8261003B030BD1046234603B0BDE8C1
:1007D0003040184710460121A047DDE701218DF880
:1007E00007208DF80610BDF806109A8A9142E0D1D4
:1007F000E8E700BF7411FF1F8C11FF1FB904000050
:100800007811FF1F10B5144B144C1B6821681A682F
:10081000D1F88010526812480329D4BF0021012169
:10082000824216D1187B997303F0D2FA2368D3F869
:10083000840006F041F941EC100B0221094805F053
:1008400047F8084804F0ECFF0A20BDE8104003F028
:10085000FBBA18469047E9E78C11FF1FC811FF1F2C
:10086000B90400005808FF1FF0B4104B10481A6874
:1008700084B04FF47A750192019A19680291029F2F
:100880001B6803930B490C4B039C426064260022B7
:1008900085604FF0FF3502734F600A738E609A6077
:1008A00083E8300004B0F0BC704700BFD411FF1FD4
:1008B0009811FF1F7C11FF1F6811FF1F10B5026BFD
:1008C000C36A511C08BF0F4A8CB002BF1268019264
:1008D000019AD31A002B12DD044603A91C3002F042
:1008E0001FF9084B08981B680293029B09990A9A02
:1008F000E3624FF0FF3320616161A26123630CB0BA
:1009000010BD00BFD411FF1F30B5426C036C511CE9
:1009100008BF374A8DB002BF12680292029AD31AFA
:10092000632B01DC0DB030BD044603A92C3002F06E
:1009300009FA0A9B0898099DA3612061656106F088
:10094000BBF8CDE90001284606F0B6F89DED001B86
:1009500041EC100B05F08CFC51EC100B06F0D0FBB9
:10096000D4ED0A7ADFED236ADFED235A07EE100A91
:1009700077EE277AF5EEC07AF1EE10FA44BF9FEDDC
:100980001F7A77EE877A9FED1D7AF4EEC77AF1EE43
:1009900010FAC8BF77EEC77A94ED097A67EEA67AA7
:1009A00087EEA56A76EE477A84ED076AF4EEE67A7A
:1009B000F1EE10FAA4BF9FED127A77EEC77A9FEDA1
:1009C000117AC4ED087AF4EEC77AF1EE10FA05D880
:1009D0009FED0B7A77EE877AC4ED087A044B1B689B
:1009E0000393039B23644FF0FF3363640DB030BD6A
:1009F000D411FF1F00003443DB0F4940DB0FC94017
:100A00000000B443000034C32DE9F04FC84BC94C7B
:100A10001A78DFF89093C84DD34303F00103534095
:100A2000C34AB3B01020137004F0F6FE2268C34B23
:100A30004360074600264FF001080D2302EB080E25
:100A40004146BA601846C7F800903B7387F80D809E
:100A5000BE73C4F800E003F0CFF9B94B3B60B94B6B
:100A600028201F6004F0D8FE2B68109307462068EA
:100A7000DDF840E02B68119300EB08020A234FF0E9
:100A8000FF3B78604FF00C0A1198AF4922604FF499
:100A90007A72C7F808E07A8487F820303960786184
:100AA000414618463E61FE6187F8246087F825605C
:100AB000C7F80CB0C7F818B087F821A0009303F06E
:100AC0009BF94146504603F097F94146504603F0E2
:100AD0007FF9009B4146184603F07AF99B4B9C48EE
:100AE0001F60262104F08CFC9A489B4F04F098FE6E
:100AF0004FF4FA6003F0A8F91721984804F080FC3D
:100B0000944804F08DFE142004F086FE226803460B
:100B10004FF01B0E924883F80CE0C3F800909A60E7
:100B20005860424470465E739E7331462260009363
:100B300003F062F9009B8B4A8B491A618B4A1A6059
:100B4000DE7314200B6004F067FE2168C0F800908B
:100B50000346DFF854E2C3F804E01A2201EB080070
:100B600099601A735E739E7331462060104600933D
:100B700003F042F9009B7E497E4A7C4818601A6166
:100B8000DE7318200B6004F047FE2A6823680F927A
:100B9000814679490F9AC0F80CB003EB080EC9F8EA
:100BA0000010C9F8082089F81480C9F8043043F20D
:100BB000D400C9F8106089F8156089F81660C4F887
:100BC00000E003F075FA6D4B1420C3F8009004F0B8
:100BD00023FE23686A4A06748046591CC8F8002020
:100BE000C8F8043041F66A00216003F081FB654BD0
:100BF0003820C3F8008004F00FFE23686249814664
:100C000019226248C9F80830C9F80410013389F87C
:100C10000C20C9F80070236009F11C0802F0DEFA0C
:100C200000235B4AC9F81030C9F81430C9F81830ED
:100C3000C9F8002040464DF2314101F0D7FE2B6843
:100C40000E930E9BC9F830B04046C9F83460C9F81D
:100C50002C3002F099F938B9D9F80830D9F80420C5
:100C60004C49032002F038FA4B4BDFF84081C3F8BF
:100C70000090942004F0D0FD2368DFF834C1DFF841
:100C80003491064603F1010E0222991CC6F810E0C9
:100C9000C6F80090C6F80CC0736032753B48B76068
:100CA000216002F09BFA2B68226814933B4BDDF81D
:100CB00050C033634FF0000B4FF0FF394FF0030388
:100CC000C6F820C0511C7263C6F8088086F8383018
:100CD0002E48F762C6F815B0C6F819B086F81DB0F0
:100CE000C6F828B0C6F82490216002F077FA296887
:100CF000226813914FF0040EDDF84CA0284B86F8C3
:100D00005CE0511CC6F82C80C6F844A07365B2653F
:100D10001E48C6F839B0C6F83DB086F841B0C6F8EE
:100D20004890C6F84CB03765216002F057FA43E0AE
:100D3000D011FF1FAC11FF1FD411FF1F7C7E0000DC
:100D40004C7D00008C11FF1F887E0000C011FF1F2A
:100D5000907E00005808FF1F607D0000B87E0000F4
:100D6000D07E000055070000BC11FF1F387D000039
:100D70009011FF1F15070000E87E0000B811FF1F4B
:100D8000F07E0000C411FF1FF87E00007407FF1FF3
:100D9000707D0000087F0000B011FF1F3C7F000045
:100DA000487F0000247D0000DC7E0000C07D000044
:100DB000307F0000247F00002A681292129AB94BFB
:100DC000C6F85080B266C6F85DB0C6F861B086F865
:100DD00065B0C6F86C90C6F870B086F890901C208C
:100DE0001E6004F019FD2268AF4BDFF80C83064645
:100DF0004FF0050E86F80CE0511C7360B260AB48F2
:100E00003760216002F0EAF92A680D92A84BA949DF
:100E10000D9A3160326186F80DB0C6F81490C6F8AC
:100E200018B038201E6004F0F7FC2268A249016067
:100E30008246511CCAF804202420216004F0ECFCF6
:100E400022689E4906464FF0060E86F80CE0716057
:100E5000B260511C95483760216002F0BFF93246FC
:100E6000296842F80D8B17911799CAF80860C6F8DF
:100E70000DB02420C2F804B0B16186F815B086F830
:100E800016B0C6F81C90C6F820B004F0C5FC0646A3
:100E900022688B49716007213173B260511C83480D
:100EA0003760216002F09AF93246296842F80D8BCA
:100EB00016911699CAF80C60C6F80DB02420C2F835
:100EC00004B0B16186F815B086F816B0C6F81C906B
:100ED000C6F820B004F0A0FC06462268794971608B
:100EE00008213173B260511C70483760216002F0F4
:100EF00075F93246296842F80D8B15911599DFF87E
:100F0000FC81CAF81060C6F80DB04C20C2F804B0DD
:100F1000B16186F815B086F816B0C6F81C90C6F810
:100F200020B0C8F800A004F077FC226866490646A5
:100F30004FF01E0E86F80CE05C487160B260511CE8
:100F4000376006F12C0A216002F048F900225F495F
:100F50005F483060B162326143F239017261B2615F
:100F6000F26132627262504601F04EFD2A680C92C4
:100F70000C9AC6F8449050460121C6F848B0326435
:100F800001F0E4FC504601F0D1FF002800F022847B
:100F900029A9504601F0D6FE309B2E98DDF8BC9072
:100FA000B3613061C6F8149005F086FDCDE900010B
:100FB000484605F081FD9DED001B41EC100B05F04E
:100FC00057F951EC100B06F09BF8D6ED0A7A9FED1D
:100FD000417ADFED416A06EE100A76EE277A67EE77
:100FE000877A87EEA67A86ED097A3C4BDFF8109176
:100FF0001E60282004F010FC2368394A06460521AB
:101000003760726031735A1CB3602848226002F066
:10101000E5F82B680B93334A0B9B326000274FF0A7
:10102000FF32F261B3612C213762B78486F82670F3
:10103000F78137827782377577752B48C9F800605A
:1010400004F0DEF92948194C04F0EAFB184B284952
:101050001E682B680A933846B36872680A9F02F0CC
:101060003BF84FF0010A337B104884F85EA05B0028
:10107000012184F83B3084F85DA002F007FA0028D3
:1010800040F01D832B680893089BDF1BB7F57A7F20
:1010900040F32A83B36872681649032002F01CF8F3
:1010A00000272FE0C811FF1F547F00007407FF1FA7
:1010B000A811FF1F807D0000607F0000707F00008E
:1010C000807F0000907F0000A07F000039E4603E38
:1010D000A07D000000003443DB0F4940B411FF1F26
:1010E000A87F0000B07D0000B07F00005808FF1FFF
:1010F000E07F0000087F0000907D00009411FF1F3A
:101100007811FF1FD9F800602B6807937268B368E5
:10111000C249DDF81C90002001F0DEFF4FF0010A0B
:10112000337BBF4884F85EA05B00012184F83B302C
:1011300084F85DA002F0AAF9002840F0B2822B6882
:101140000593059BC9EB0309B9F57A7F40F3C48287
:10115000B3687268B349032001F0BEFF0023039314
:10116000D8F80080B04998E80C00002001F0B4FFE6
:10117000D8F8086029682091B3687268A749209F51
:10118000002001F0A9FF4FF00109337BA44884F847
:101190005E905B00012184F83B3084F85D9002F0A2
:1011A00075F9002840F070822B681E931E9BDF1B90
:1011B000B7F57A7F40F3AA82B36872689949032031
:1011C0004FF0000A01F088FFCDF800A0D8F80C60BD
:1011D0002B681D937268B36890491D9F002001F031
:1011E0007BFF4FF00109337B8D4884F85E905B00F4
:1011F000012184F83B3084F85D9002F047F9002823
:1012000040F035822B681B931B9BDF1BB7F57A7F61
:1012100040F37182B3687268824900260320029607
:1012200001F05AFFB346D8F810602B681A93726821
:10123000B3687A491A9F002001F04EFF4FF0010970
:10124000337B774884F85E905B00012184F83B3063
:1012500084F85D9002F01AF9002840F0FB812B68B9
:101260001893189BDF1BB7F57A7F40F38382B3682E
:1012700072686C49032001F02FFF00231E466B4A61
:1012800012788AEA020A0AF0200A82EA0A0A029A14
:1012900082EA0A0909F040098AEA090983EA09038E
:1012A00023F07F0389EA0309604B83F80090009BD9
:1012B000002B00F0AB82BBF1000F40F0778298E882
:1012C0000C005B49032001F007FFD8F808305F6885
:1012D000384606F0D5FA0146384604F091F8022166
:1012E000544804F08DF85448072104F089F8534815
:1012F000DFF85491504F04F093FAD8F80C30D3F83B
:1013000004A0504606F0BCFA0146504604F078F8B6
:101310000221484804F074F8BBF1000F0BBF042110
:1013200007214846384604F06BF8444804F078FA40
:10133000D8F81030D3F80480404606F0A1FA0146F0
:10134000404604F05DF802213A4804F059F8002EB6
:101350000BBF484638460421072104F051F83748AE
:1013600004F05EFA009B2BB9BBF1000F02D1002EF6
:1013700000F063823621324804F042F82F4804F02E
:101380004FFA304B28491E68002096E80C0001F007
:10139000A3FE2B682993F26833692049299F002016
:1013A00001F09AFE4FF00108337D1D4884F85E80FD
:1013B0005B00012184F83B3084F85D8002F066F820
:1013C000002840F03A812B682793279BDF1BB7F555
:1013D0007A7F40F3C5813369F268124903204FF0E8
:1013E000000901F079FECDF800902B682693326B4E
:1013F000736B0A49269F002001F06EFE4FF0010832
:1014000096F83830064884F85E805B00012184F845
:101410003B3084F85D8002F039F817E0E07F00008F
:101420007407FF1F087F0000F87F0000D011FF1F26
:1014300078810000108000006C7E00005808FF1FBB
:1014400040800000C811FF1F747E0000002840F09B
:10145000E7802B682493249BDF1BB7F57A7F40F34A
:101460009B81736B326BAE49032001F035FE4FF068
:101470000008C2462B682393726DB36DA949239F60
:10148000002001F029FE4FF0010B96F85C30A648D1
:1014900084F85EB05B00012184F83B3084F85DB0D5
:1014A00001F0F4FF002840F0AE802B682193219BCF
:1014B000DF1BB7F57A7F40F36681B36D726D984993
:1014C000032001F009FE00231C46984A127889EA9D
:1014D000020909F0020982EA090988EA090808F004
:1014E000040889EA080883EA080303F0080388EA85
:1014F00003088E4B83F80080009B002B00F0718165
:10150000BAF1000F40F05C8196E80C008849032096
:1015100001F0E2FDF568284606F0B2F901462846DA
:1015200003F06EFF0221834803F06AFF824807211F
:1015300003F066FF8148824F7F4D04F071F9D6F8C1
:101540003080404606F09CF90146404603F058FFC3
:101550000221784803F054FFBAF1000F0BBF0421B9
:1015600007213846284603F04BFF744804F058F929
:10157000766D304606F084F90146304603F040FFB0
:1015800002216C4803F03CFF002C0BBF3846284674
:101590000421072103F034FF684804F041F9009B5F
:1015A0002BB9BAF1000F02D1002C00F04E8133218B
:1015B000644803F025FF614804F032F95B4B62494F
:1015C0001A78039B0978534003F010035340574A9D
:1015D0000329137000F0418122215C4803F010FFC1
:1015E000564804F01DF95A4B5A491B681A6852684C
:1015F0008A4240F03C810121187B997302F0E8FB9C
:1016000033B0BDE8F08F2B682293229B5249DB1B3D
:10161000B3F57A7FFFF639AF0B682193219B4CE736
:101620002B682593259B4C4ADB1BB3F57A7FFFF68D
:10163000E7AE13682493249B13E72B682893289B19
:10164000454ADB1BB3F57A7FFFF6AEAE13682793EE
:10165000279BC0E62B681993199B3F49DB1BB3F509
:101660007A7FFFF6EDAD0B681893189BFFE52B68AA
:101670001C931C9B384ADB1BB3F57A7FFFF6B3AD96
:1016800013681B931B9BC5E52B681F931F9B324A56
:10169000DB1BB3F57A7FFFF678AD13681E931E9BB4
:1016A0008AE52B680693069B2B4AC9EB0303B3F527
:1016B0007A7FFFF635AD13680593059B48E52B68E7
:1016C0000993099B244ADB1BB3F57A7FFFF6CBAC69
:1016D00013680893089BDDE4B36872681F497E4273
:1016E000039601F0F9FC3BE5B36872681B4901F011
:1016F000F3FC012706E5B3687268184901F0ECFCB9
:101700004FF0FF3302934FF0010B8CE5B368726822
:10171000124901F0E1FC01234FF0FF3A009355E537
:10172000087F0000E07F00007407FF1FD011FF1F3B
:101730004C810000108000006C7E00005808FF1FE4
:10174000747E00009C800000D111FF1F14810000F6
:101750008C11FF1FB9040000D411FF1F3881000055
:101760003369F268454901F0B7FC01234FF0FF39B6
:1017700000933AE6B3687268404901F0ADFC012677
:101780004FF0FF337BE5B36D726D3C4901F0A4FC73
:1017900001244FF0FF3398E6736B326B374901F049
:1017A0009BFC4FF0FF384FF0010A63E6002E3FF438
:1017B00086AD98E80C003249002001F08DFCE0E590
:1017C000002C3FF4A1AE96E80C002E49002001F059
:1017D00083FCF3E60320B36872682B4901F07CFCBC
:1017E00003E496E80C002949032001F075FCF56834
:1017F000284606F045F80146284603F001FE02217E
:10180000234803F0FDFD0421224891E698E80C00EE
:101810002149032001F060FCD8F808305F683846A1
:1018200006F02EF80146384603F0EAFD022118487A
:1018300003F0E6FD0421174857E52B21174803F074
:10184000DFFD174803F0ECFF9BE52B21134803F065
:10185000D7FD134803F0E4FFB0E62021114803F060
:10186000CFFD0F4803F0DCFF33B0BDE8F08F184622
:101870000121904733B0BDE8F08F00BF38810000F0
:1018800078800000D0800000087F00004C810000BC
:1018900010800000747E0000788100001480000039
:1018A0005808FF1FF08000000349044B0448054A14
:1018B00008601A60FFF7A8B89811FF1F7C11FF1F7E
:1018C00019070000313000002DE9F04FC26983692B
:1018D000511C08BF2E4A83B002BF12680092009AC2
:1018E000D31A002B50DD90F82630002B4CD0294C19
:1018F000037BB0F90E90B0F91080B0F9127090F837
:1019000014B090F815A05B0005460126152120466D
:1019100084F83B3084F85E6084F85D6001F04AFC36
:10192000C9F30721204601F045FC5FFA89F1204602
:1019300001F040FCC8F30721204601F03BFC5FFAB0
:1019400088F1204601F036FCC7F30721204601F05C
:1019500031FCF9B2204601F02DFC5946204601F039
:1019600029FC5146204601F025FC3146204601F075
:101970008DFD074B1B680193019BAB6100224FF06B
:10198000FF3385F82620EB6103B0BDE8F08F00BF80
:10199000D411FF1F7407FF1FBC4BBD4A2DE9F04F48
:1019A0001C6823685B689342ADB040F03E86636C70
:1019B000226C5D1C01BFB74B1B680593059B9B1AEE
:1019C000632B0DF18C0800F3AD84B34BB34A1D6853
:1019D0002B685B68934240F024864FF47A73013B96
:1019E000FDD16B692A69581C01BFAA4B1B6807937C
:1019F000079B9B1A002B1BDDA94C297B01231A4650
:101A0000204601F0CDFD94F8392094F838309A4200
:101A100040F06683AB686A68A249022001F05CFB73
:101A20009C4B1B680893089B2B614FF0FF336B6145
:101A30009D4B9E4E1D68D5F80890D9F800305B6824
:101A4000B34240F0E085D9F81C30D9F81820591C71
:101A500001BF904B1B680993099B9B1A002B3DDD2E
:101A60008F4C99F80C1001231A46204601F098FD7E
:101A700094F8392094F83830934200F0E68500213C
:101A800009F10C0C934280F06585E2180133127E57
:101A900084F83830174689F815206046072247FA3F
:101AA00002F303F00103012B02F1FF3208BF012111
:101AB00000F8013F531CF2D189F8161094F8392030
:101AC00094F838309A42DDD1724B1B680A930A9B16
:101AD000C9F818304FF0FF33C9F81C30D5F80C9016
:101AE000D9F800305B68B34240F09785D9F81C30D4
:101AF000D9F81820591C01BF664B1B680B930B9B30
:101B00009B1A002B3DDD664C99F80C1001231A46F8
:101B1000204601F045FD94F8392094F8383093427E
:101B200000F09D85002109F10C0C934280F0168590
:101B3000E2180133127E84F83830174689F81520F0
:101B40006046072247FA02F303F00103012B02F17A
:101B5000FF3208BF012100F8013F531CF2D189F880
:101B6000161094F8392094F838309A42DDD1494B58
:101B70001B680C930C9BC9F818304FF0FF33C9F861
:101B80001C30D5F81090D9F800305B68B34240F0B3
:101B90003485D9F81C30D9F81820591C01BF3D4BA9
:101BA0001B680D930D9B9B1A002B3FDD3C4C99F855
:101BB0000C1001231A46204601F0F2FC94F839205B
:101BC00094F838309A4200F03685002109F10C0E65
:101BD000934280F0C784E2180133127E84F83830D3
:101BE000164689F815207046072246FA02F303F0DC
:101BF0000103012B02F1FF3208BF012100F8013F70
:101C0000531CF2D189F8161094F8392094F8383022
:101C10009A42DDD11F4B1B680E930E9BC9F81830FA
:101C20004FF0FF33C9F81C30D5F81090D5F808C034
:101C30001F4B9CF81520E9681A7000224C7D99F81A
:101C400015005C70FFEE007A92469870F0EE676ABD
:101C50000531A9F103090CF10D00C5ED057AC5EDBB
:101C6000067AC5ED077AC5ED087AC5ED097AC5EDA6
:101C70000A7AC5ED0B7AC5ED0C7AC5ED0D7A1446DE
:101C80001346B6EE006A574614E000BFB411FF1FBA
:101C900009090000D411FF1FA811FF1FC90500008A
:101CA0007407FF1F4C7E00009411FF1F19050000F0
:101CB000CC11FF1F002C40F01B82072B40F36382E6
:101CC0000F2BD4BF0E7899F80060D5ED067A012E5F
:101CD000F4EE667A00F05F82F1EE10FA0FD095ED27
:101CE000077AB4EEE67AF1EE10FAC8BF77EE877A9B
:101CF0004FF00104C8BF67EE867AC5ED057A01335F
:101D0000182B02F10F0200F1010009F1010901F1A4
:101D10000101CFD1C44E35686B6A2A6A591C00F0A4
:101D20005C849A1A002A33DDC04C297D01231A46AF
:101D3000204601F035FC94F8392094F838309A4266
:101D400018BF05F1140E00F0AC849A4240F27B8279
:101D5000E2180133127E84F8383010466A777146F3
:101D6000072340FA03F2013B02F001025F1C01F875
:101D7000012FF6D194F8392094F838309A42E4D102
:101D8000AB4B1B681293129B2B624FF0FF336B62BD
:101D9000AB6C6A6C591C01BFA54B1B681093109B60
:101DA0009B1A002B41DDA14C95F8381001231A46EF
:101DB000204601F0F5FB94F8381094F839308B4246
:101DC0000A4600F05F848E464FF0000A05F138099C
:101DD000734540F23B8222440EF1010E92F818C086
:101DE0005FFA8EFE60464FF0010A4946072340FA2B
:101DF00003F2013B02F001025F1C01F8012FF6D152
:101E000094F839308948734572467146E0D1BAF189
:101E1000000F40F09E8485F841C0854B1B681393EA
:101E2000139B6B644FF0FF33AB64EB6EAA6E591CCF
:101E300001BF7F4B1B680F930F9B9B1A002B3EDD4E
:101E40007A4C95F85C1001231A46204601F0A8FB55
:101E500094F8382094F839C09445134600F01A8459
:101E600096464FF0000B05F15C0AF44540F2F38111
:101E700023440EF1010E93F818905FFA8EFE484647
:101E80004FF0010B5146072340FA03F2013B02F0E9
:101E900001025F1C01F8012FF6D1F445734672462A
:101EA000E3D185F86590BBF1000F40F05684604B9C
:101EB0001B681493149BAB664FF0FF33EB664FF037
:101EC000000E724605F11500AC46F246F146744626
:101ED0007146734677461546072B00F3AB810778AA
:101EE000002F40F09C8161B34C4540F2B9819D4286
:101EF00005EB030100F0EF81C5EB051707EE907AC3
:101F000007EE10EAF8EEE77AB8EEC77A491077EEF6
:101F1000275A5F1BB0EE006AC5EE866A9246002221
:101F2000A146CCF87410CCF87850CCF87C30CCF8C2
:101F3000807011461446CCED227ACCED216A8CEDEE
:101F4000237A0133182B0EF10F0E00F10100C3D1DB
:101F5000B9F1000F00F03D83BAFBF9F98CF89090CD
:101F6000344B354A1C6823685B68934240F04283D7
:101F7000E369A269591C01BF2D4B1B681593159B82
:101F80009B1A002B04DD94F82630002B40F02E82A3
:101F90002A4B1C6802F01CFA092800F38082284BA7
:101FA0001C68E168A3684F1C00F0A482628CCB1A05
:101FB0009A422CDC02F13201994280F2158302F13F
:101FC00064018B4240F3C08202F196018B4240F3E0
:101FD0000B8302F1C8018B4240F3B68202F1FA0191
:101FE0008B4240F3018302F596729A4280F2AC82F2
:101FF0000F4B1B681893189BA3604FF0FF33E360EF
:1020000041F288314FF47A7003F08CFD6084A3694B
:1020100062695D1C01BF064B1B681793179B9B1AD7
:10202000022B30DD0EE000BFC811FF1F7407FF1F39
:10203000D411FF1F7811FF1FC9180000C411FF1F22
:10204000C011FF1F94F8252094F8241094F8200064
:10205000002A0CBF0123FF231944C9B24B1EDBB277
:10206000FD2B88BF82F0010284F8241088BF84F819
:10207000252001F029FDA04B1B682093209B636164
:102080004FF0FF33A3619D4B9D4A1D789D4B146813
:10209000187831689C4A0023239388F804308DF81F
:1020A0008C50637B8DF88D308DF88E0091F89030D8
:1020B00014688DF88F30237D002B40F057822DB0AF
:1020C000BDE8F08F0A7E84F83830131C18BF012356
:1020D0006B7394F8392094F838309A423FF4A0ACEE
:1020E0009A4204EB030103F10103EBD80123EFE76C
:1020F0000FBB072B5BDD0F2BD4BF0E7899F8006068
:10210000D5ED097A012EF4EE667A57D0F1EE10FA89
:102110003FF4F5AD95ED0A7AB4EEE67AF1EE10FAF9
:10212000C8BF77EE877A4FF00107C8BF67EE867A9F
:10213000C5ED087AE3E5BAF1000F7FF4E0AD072BB7
:1021400040F390800F2BD4BF0E7899F80060D5ED46
:102150000C7A012EF4EE667A00F08C80F1EE10FA23
:102160003FF4CDAD95ED0D7AB4EEE67AF1EE10FACE
:10217000C8BF77EE877A4FF0010AC8BF67EE867A4C
:10218000C5ED0B7ABBE50678D5ED067A012EF4EEA7
:10219000667A7FF4A1AD07EE902AF8EEE77AF1EEC9
:1021A00010FA0CBFC5ED067AC5ED077AA7E50678EB
:1021B000D5ED097A012EF4EE667AA7D107EE902AC2
:1021C000F8EEE77AF1EE10FA0CBFC5ED097AC5ED2D
:1021D0000A7A172B7FF493AD9CF80D30012B7FF416
:1021E00099ADDFED4F6AD5ED097A95ED077A77EE77
:1021F000E67AFFEE006AB4EEE67AF1EE10FAC5ED8B
:10220000067A05DD77EE877AB6EE007A67EE877A92
:102210003E4BC5ED057A2B626B62AB627AE579B114
:10222000D9B201340A44172BE4B2D2B23FF45CAE07
:10223000012186E60F2BD4BF077F90F838704FE658
:10224000DDB22946EDE7FF22104687E54FF0FF0C8F
:102250008E466046C9E54FF0FF099646484611E6AE
:1022600000216EE60678D5ED0C7A012EF4EE667A42
:102270007FF474AF07EE902AF8EEE77AF1EE10FAE9
:102280000CBFC5ED0C7AC5ED0D7A172B7FF437AD79
:102290009CF80D30012B7FF43DADDFED216AD5EDCB
:1022A0000C7A95ED077A77EEE67AFFEE006AB4EEE7
:1022B000E67AF1EE10FAC5ED067A05DD77EE877A5B
:1022C000B6EE007A67EE877A104BC5ED057AEB62C1
:1022D0002B636B631EE5C5EB051707EE907A07EEDF
:1022E00010EAF8EEE77AB8EEC77A002777EE275AB9
:1022F000B7EE006A10E600BFD411FF1FF806FF1FFB
:10230000A811FF1F7411FF1FB811FF1F000080BF2D
:1023100000003443DB0F4940DB0FC940000034C3E9
:102320000000B443414604F12C0000F00BFD289856
:102330002061299D65612A9BA36104F0BDFBCDE965
:102340000001284604F0B8FB9DED001B41EC100B8A
:1023500003F08EFF51EC100B04F0D2FED4ED0A7A9C
:102360005FED156A5FED155A07EE100A77EE277AD2
:10237000F5EEC07AF1EE10FA44BF1FED197A77EE50
:10238000877A1FED1B7AF4EEC77AF1EE10FAC8BF18
:1023900077EEC77A94ED097A67EEA67A87EEA56A9A
:1023A00076EE477A84ED076AF4EEE67AF1EE10FAFB
:1023B000A4BF1FED257A77EEC77A1FED287AC4ED0A
:1023C000087AF4EEC77AF1EE10FA05D81FED2C7AF0
:1023D00077EE877AC4ED087AC04B1B680693069B9C
:1023E00023644FF0FF336364FFF7EFBABC4D637DA6
:1023F00094F80CE0B4F90EB0227D03924FEA4E0E31
:102400001F461521012328460093B4F910A0B4F902
:10241000129085F83BE085F85E3085F85D3000F07D
:10242000C9FECBF30721284600F0C4FE5FFA8BF10A
:10243000284600F0BFFECAF30721284600F0BAFE86
:102440005FFA8AF1284600F0B5FEC9F30721284655
:1024500000F0B0FE5FFA89F1284600F0ABFE039A67
:102460002846114600F0A6FE3946284600F0A2FE96
:10247000009B2846194601F009F8984B1B681693F3
:10248000169BA3614FF0FF33E3610022954B84F864
:1024900026201C6801F09CFF09287FF780AD01F021
:1024A000A7FFC5287FF47BAD012501F0A1FF5FFAEE
:1024B00080FA01F09DFF5FFA80F901F099FFC7B241
:1024C00001F096FF012DC0B200F0F380022D84F8D8
:1024D0000CA084F80D90A773E07340F0F08001F039
:1024E00087FFC0B2012803D0022814BF00200220B9
:1024F000207454E57948628C01681F911F99C91AAC
:102500008A423FF784AD01681E911E9D02F132019F
:10251000ED1A8D4268DD01681D911D9D02F1640177
:10252000ED1A8D4210DD01681C911C9D02F196018F
:10253000ED1A8D4258DD01681B911B9D02F1C80107
:10254000ED1A8D4200F3BD80012194F8210001F0C5
:102550003FFC5CE5FF221746FFF79DBAFF221746B6
:10256000FFF7ECBAFF221646FFF73BBBFF2001F056
:10257000EDFDFE2001F0EAFD284601F0E7FD9DF8A3
:102580008D0001F0E3FD9DF88E0001F0DFFD9DF868
:102590008F0001F0DBFDFD2001F0D8FD01F0E0FD32
:1025A00000283FF48CAD01F0EBFD0546EDB201F0E3
:1025B0001BFEFF2D00F09C80E368A268581C00F011
:1025C000C6809A1AB2F57A7F53DA01236375A37530
:1025D00075E5FF238CF89030C2E4404B1B681193E3
:1025E000119B9A1AFFF79EBB002194F8210001F07D
:1025F000EFFB0CE520469847CAE448469847D5F8D3
:102600001090FFF713BB48469847D5F80C90D9F8BF
:1026100000305B68B3423FF469AA48469847FFF729
:10262000B0BA28469847FFF703BA204698470DF1FD
:102630008C08FFF7CAB9D9F80830D9F804202A491C
:10264000022000F049FDFFF7E5BAD9F80830D9F8C3
:1026500004202549022000F03FFDFFF735BAD9F8E4
:102660000830D9F804202049022000F035FDFFF79A
:102670007EBA1E4B0022FF21D9701A7062755A7003
:102680009A701CE56B6B2A6B1749022000F024FD41
:10269000FFF7C3BBAB6D6A6D1349022000F01CFD50
:1026A00005E42B69EA681049022000F015FDFFF7E8
:1026B00067BB84F808A084F80990A772E07201351E
:1026C000F3E601681A911A9D02F1FA01ED1A8D42A2
:1026D0008ADD016819911999CB1A84E4D411FF1F7E
:1026E0007407FF1FC411FF1F4C7E0000FC06FF1F74
:1026F000C0B2FE287FF460AF01F042FD01F040FD62
:10270000064601F03DFD054601F03AFDEDB200350B
:10271000C0B2144B9DF88710D97018BF0125021C58
:1027200018BF01229A701E705D7001F029FD0E4BDA
:102730001A682292229AA2604FF0FF31FD28E160D0
:102740003FF443AF1B682193219B9A1A3AE7064B4B
:10275000F8E780F838E0FFF75EBB84F838C0FFF791
:10276000A6BB00BFFC06FF1FD411FF1F30B58BB006
:1027700006E002F0DFFD8DF8240009A800F01CFC43
:1027800002F014FE0028F4D1654B1B7813BB654B97
:102790001B78032B78D0644B644A1C6823681B6841
:1027A000934263D1207B01F019FBE37BA07383424A
:1027B00002D0012800F09F80003018BF0120E07394
:1027C000FFF7EAF85A4B1B78002B35D0FEF71AF8C2
:1027D0000BB030BD0190FFF7DFF8554B01981A7828
:1027E000002A75D1534C237B002B69D1524B1B68B7
:1027F000079307986268A3684E4D801A984238D2B2
:102800004E4C01F0FFFA237B6060002B5BD14A4BFA
:102810001B680693069BA268484D181A9042D7D3AE
:102820002B6898472B7B002B47D1434B1B680993A0
:10283000099860600BB030BD404C01F0E3FA237B97
:102840006060002B52D13C4B1B680293029BA26834
:102850003A4D181A9042BBD32B6898472B7B002B1C
:102860002BD1354B1B6803930398E2E7204698472A
:10287000A6E72B6898472B7B002B49D12E4B1B6872
:10288000089308986060BBE72C4C01F0BBFA237BEF
:102890006060002B37D1284B1B680493049BA2680F
:1028A000264D1B1A934293D32B6898472B7B23B951
:1028B000214B1B6805930598BBE701F0A3FAB8E725
:1028C00001F0A0FA96E701F09DFA03466068A2E7DE
:1028D0001B4A187012681B4913685B688B421AD137
:1028E0000121107B917301F073FA7BE701F08AFA02
:1028F00003466068ABE701460D2001F069FA2369E1
:102900009847A07B58E701F07DFA03466068C6E768
:1029100001F078FAB6E710460121984762E700BF58
:10292000CF11FF1FD111FF1FBC11FF1FC5040000F5
:102930007411FF1F7C11FF1FD411FF1F9811FF1F7F
:102940008C11FF1FB9040000704700BF417370472E
:10295000704700BF704700BF38B528220C460546B7
:102960000846002104F012FF0B220849204604F01B
:10297000F5FF0021E172EA68226100230122616211
:10298000E2606261A361E361236238BDC48100003B
:1029900038B528220C4605460846002104F0F6FE0C
:1029A0000B220949204604F0D9FF0022E27229696E
:1029B0002161002301200221E06062626161A36164
:1029C000E361236238BD00BFC481000010B514214B
:1029D000044602F023FF204610BD00BF10B51021B1
:1029E000044602F01BFF204610BD00BF002210B4B9
:1029F000044C0460C160C280028142815DF8044BD6
:102A0000704700BFD4810000002210B4044C046061
:102A100001614273C280028142815DF8044B7047BC
:102A2000B0810000F8B53D4C32230126A8210546AF
:102A3000204684F83B3084F85E6084F85D6000F0E6
:102A4000B9FB3146204600F021FD3346062219210C
:102A5000204600F0A5FD94F8391094F838208B1A20
:102A6000052BFDDD91423DD9561CA318F6B28E42CE
:102A7000187E84F83860294B3CD21E44941C367E64
:102A8000E4B240EA06208C4240F30B1083F8384051
:102A90003CD2D61CF6B21C448E42277E83F83860A6
:102AA0002CD21E44141D367EE4B247EA06278C421F
:102AB00047F30B1783F838402CD2561DF6B21C444E
:102AC0008E42247E83F838601CD21E440632317E4A
:102AD00083F8382044EA012343F30B13E8802F8165
:102AE0006B81F8BD4FF0FF3007460346E8802F8129
:102AF0006B81F8BD60F0FF000011FF2767F0FF0752
:102B00003F11FF2464F0FF031B11E7E74FF0FF378D
:102B10003B46E3E74FF0FF33E0E700BF7407FF1FDA
:102B200070B524260C46054682B032460846002180
:102B300004F02CFE2846FFF775FFB5F906309FED2F
:102B4000196ADFED196AEA68626007EE103AB8EEBA
:102B5000C77A164B266027EE067A1B68019327EE8C
:102B6000267A019B84ED057AB5F90820236107EEEA
:102B7000102AB8EEC77A012027EE067AA06027EE69
:102B8000267A84ED067AB5F90A3007EE903AB8EE67
:102B9000E77A67EE067A67EEA67AC4ED077A02B0A6
:102BA00070BD00BF6F12833A0AE81C41D411FF1FA9
:102BB000F8B53E4C3C23012603210546204684F807
:102BC0003B3084F85E6084F85D6000F0F3FA3146D3
:102BD000204600F05BFC334606221E21204600F012
:102BE000DFFC94F8391094F838208B1A052BFDDDA2
:102BF00091423ED9501CA318C0B288421F7E84F86F
:102C000038002A4B3DD21E18901C347EC0B244EAD4
:102C10000724884224B283F838003FD21E18D01C03
:102C2000C0B296F9187083F8380088424FEA072737
:102C30002DD21E18101DC0B2367E83F8380088428F
:102C400047EA06072ED21E18501DC0B296F918602A
:102C500083F8380088424FEA06261CD21844063210
:102C6000017E83F8382046EA0103EC802B816F81D6
:102C7000F8BD4FF0FF3427462346EC802B816F814F
:102C8000F8BD3C0244F0FF0424B26FF0FF0747F0A8
:102C9000FF076FF0FF0646F0FF03E6E74FF0FF3750
:102CA0003B46E2E74FF0FF33DFE700BF7407FF1F4B
:102CB000F8B50C4C1E4601254F002046114684F8FD
:102CC0003B7084F85E5084F85D5000F073FA314632
:102CD000204600F06FFA29462046BDE8F84000F093
:102CE000D5BB00BF7407FF1F70B5154C4B00012505
:102CF0000E462046114684F83B3084F85E5084F836
:102D00005D5000F057FA2946204600F0BFFB2B46E5
:102D10002A463146204600F043FC94F8383094F8B7
:102D200039209A420AD9E2182B44157E84F83830AB
:102D30000121034800F0AAFB284670BDFF25F7E7F4
:102D40007407FF1F2DE9F04F242283B00D4604467F
:102D50000846002104F01AFDDFF8C0B1644EDFF828
:102D6000C0A1DFF8C091DFF8C081624F09221E21A7
:102D70002046FFF7B9FF10F001003DD02046FFF7D5
:102D800017FF637BB4F90600002B38D15A4B9FED37
:102D90005B7A93ED006A23696B6007EE900AF8EEA8
:102DA000E77A0223C7EE866AAB605549554A126836
:102DB000019224222A600120D1ED005A0199296153
:102DC00066EE877AC5ED057AB4F9083006EE903ADA
:102DD000F8EEE66AC6EE867A67EE877AC5ED067A81
:102DE000B4F90A3006EE903AF8EEE66AC6EEA57A35
:102DF00067EE877AC5ED077A03B0BDE8F08F2389C7
:102E000000F2F77203F2F77392B29BB240F6EE71E2
:102E10008A4298BF8B4205D8638903F2F7739BB24D
:102E20008B42B3D9237B602B53D013D9A02B41D035
:102E3000C02B31D0802BA9D1A02301221E212046F6
:102E4000FFF736FF2C4B2E4A2F491E60A02311603E
:102E500023738BE7202B10D0402B97D160230122C6
:102E60001E212046FFF724FF234B2848244A2849E7
:102E7000186060231160237378E7402301221E212C
:102E80002046FFF715FF1C4B22481D4A22491860B7
:102E900040231160237369E7E02301221E212046AD
:102EA000FFF706FF144B164AC3F80080E0231760B3
:102EB00023735BE7C02301221E212046FFF7F8FEA3
:102EC0000D4B0F4AC3F800A0C023C2F80090237333
:102ED0004CE7802301221E212046FFF7E9FE064B26
:102EE000074AC3F800B08023166023733EE700BF93
:102EF0000000C84300004D430007FF1F0000C84208
:102F00000407FF1FD411FF1F0080B1430080274436
:102F10000000164400C0554400003E440000E14358
:102F20000000A543008093430000664310B50446AB
:102F3000104800F053F92046002302221E21FFF71B
:102F4000B7FE204600221E21FFF7CEFE102801D03A
:102F5000002010BD2046202301221E21FFF7A8FEDD
:102F6000054B0648064A1860064911602023237362
:102F7000012010BD7407FF1F0007FF1F0080894458
:102F80000407FF1F0000754410B50446094800F00F
:102F900025F92046572320221921FFF789FE2046D4
:102FA00020221921FFF7A0FEA0F15700B0FA80F00F
:102FB000400910BD7407FF1F70B50478A62C2FD0F0
:102FC000A72C06D0A52C00D070BD174B01221A707B
:102FD00070BDA02002F098FA2046012402F094FA75
:102FE000124D264603E00134E4B27F2C13D0630077
:102FF00001210E4885F85E6085F85D6085F83B30FC
:1030000000F044FA0028EED120460134E4B202F088
:103010007BFA7F2CEBD1A120BDE8704002F074BA9E
:10302000014B00221A7070BDCF11FF1F7407FF1FE4
:1030300008B5A02002F068FA002002F065FA044BFF
:10304000187802F061FAA120BDE8084002F05CBAED
:10305000D011FF1F174A38B51378032B18BF03464A
:1030600004460D4614481370012102F0C9F9DCB181
:10307000012C1BD0022C1BD0104B1148032C08BF75
:103080001846042102F0BCF903210E4802F0B8F9F9
:10309000284604F0F5FB0146284602F0B1F90A483B
:1030A000BDE8384002F0BCBB0848EAE70848E8E75A
:1030B0000848E6E7D111FF1F08820000747E000077
:1030C000008200000C8200005808FF1FF081000001
:1030D000E8810000F8810000F8B5144605460E4668
:1030E0000E4802211F4602F08BF9204604F0C8FB6F
:1030F0000146204602F084F90721094802F080F9D0
:103100003946084802F0DCFB0221074802F078F952
:1031100031462846BDE8F840FFF79CBF108200000A
:10312000148200005808FF1F1C8200000020704716
:1031300090F8392090F83800101A704790F838301D
:1031400090F839209A4205D95A1C034480F8382057
:10315000187E70474FF0FF30704700BF90F838304E
:1031600090F839209A4286BF1B18187E4FF0FF3026
:10317000704700BF704700BF38B50546B0F85E0025
:1031800090B195F85D301446C3F1210294420CD8F9
:1031900005F13B001844224600F022FB95F85D3013
:1031A000234485F85D30204638BD0120144628713F
:1031B000EEE700BFB0F85E306BB190F85D30202BC9
:1031C00007D8C218013380F85D30012082F83B1027
:1031D0007047012303710020704700BF002342693C
:1031E00080F8383080F8393080F85C3080F85D3015
:1031F00080F85E3080F85F3006CA30B40D6804692C
:1032000043662A4383660A60A370426990F861307E
:103210001649146813441D7A5B7B01EBC5051B023C
:103220006D6803F4E06343F064032B6090F8623050
:1032300013449D7CDB7D01EBC5011B02496803F44F
:10324000E06343F064030B6021685368194205D0C2
:1032500003692C225A70036904229A71036920229F
:103260005A71036980229A7030BC7047A4820000B2
:1032700038B50269D478E4B2E106054624D51023B6
:10328000D37063061FD504F0040404F0FF03002C80
:103290005AD042496A6E00230B7085F85D30002ACF
:1032A00066D0904795F85D30002B61D02B69D02215
:1032B0009A702B6995F83B201A712B69012285F8C9
:1032C0005C200222DA7038BD04F0400303F0FF00F6
:1032D000002BD8D19379DBB203F0600160294ED086
:1032E000937803F0100303F0FF01B3B114F001046D
:1032F00037D195F85C3095F85D1099424BD9591C3F
:103300002B4485F85C1093F83B3013712B69D02265
:103310009A702B690222DA70D5E785F860109379EC
:1033200043F0200393712B6995F839101A791F29FE
:10333000D2B2C6D8194800780028C2D06818013126
:1033400085F839100276BCE72A6985F83930C02340
:1033500093702B69114A1979012111700222DA70D8
:10336000B1E7C02393702B691A790222DA70AAE7B9
:103370000122002385F85D2085F83B3096E703F0B5
:10338000DF039371AB6E23B185F8380095F83900EF
:1033900098472A69A4E71471B8E700BFD211FF1F4C
:1033A0002DE9F047374FDFF8E0903B68026982B0C3
:1033B00006460093DDF800800021C825D3789B06DF
:1033C0005BD53B680193019BC8EB03030F2BF5D939
:1033D00049B1102BF2D000209070336980229A708E
:1033E00002B0BDE8F087726996F861301344052198
:1033F000187A00F001FD726996F8613013440121DA
:1034000093F812A0504600F0F7FC09240021504622
:1034100000F0DEFC2B46013BFDD10121504600F0BF
:10342000D7FC2B46013BFDD1013CEFD1706996F8EA
:10343000611001444FF4C8720C7A4B7B09EBC40154
:103440001B02496803F4E06343F064030B6096F8E1
:1034500062300344997CDB7D09EBC1011B024968A2
:1034600003F4E06343F064030B60013AFDD1326979
:10347000D3789B064FF00101A3D4012002B0BDE830
:10348000F08700BFD411FF1FA4820000F0B50369CC
:103490001222DA700269937803F0200385B00446A3
:1034A0000D46002B5ED0B42393703C4922690B6813
:1034B0000093009E05E00B680193019B9B1B042B6E
:1034C00042D8D37803F0200303F0FF00002BF2D0A2
:1034D00094F85D30002B31D04FF0000E4FF0020C0D
:1034E00004EB0E0393F83B3013710B680393039FB7
:1034F000206907E09B060DD50B680293029BDB1B3E
:10350000052B28D8C378DBB203F0020202F0FF06D5
:10351000002AEFD080F803C02669F378DBB2DF061B
:1035200032462DD49F062BD5DB0731D40EF1010E88
:1035300094F85D305FFA8EFE7345D1D800201DBB34
:10354000002384F85E3004E09070236980229A7032
:10355000042005B0F0BD86702369802204209A7093
:1035600005B0F0BD03F0FF06FFF71AFF10B9042005
:1035700005B0F0BD236984F85F60B0229A7094E7CB
:103580008023B3700420DAE726698023B370D7E77D
:10359000BEF1000F0CBF02200320F6E7D411FF1F7D
:1035A0002DE9F04106690025122780F8385080F88F
:1035B0003950F770D0F810C09CF802E00EF0200EE1
:1035C00088B00446884615461E46BEF1000F49D015
:1035D000B4238CF80230784B21691A680092DDF828
:1035E00000E006E01A6801920198CEEB0000042882
:1035F00030D8C87800F0200000F0FF070028F1D094
:103600004FEA480242F00102D2B20A711A680292ED
:10361000DDF808E0206906E01A6803920399CEEB12
:10362000010105292AD8C17801F0020101F0FF0744
:103630000029F1D04FF0020C80F803C02269D17844
:1036400011F0110722D12DBB002E0CBFA023802327
:10365000937003E08F70236980229A70384608B017
:10366000BDE8F0810EF0FF07FFF79AFE0028F5D0C5
:10367000236984F85F70B0229A70ACE78770236981
:10368000802238469A7008B0BDE8F081802393709C
:103690000027E3E7012D75D0A021917021690A79F7
:1036A000BE4667464FF0A80C1A680492049805E0DD
:1036B0001A680592059A121A052A4AD8CA7802F0A1
:1036C000020202F0FF08002AF2D0CF702169CA7806
:1036D000D2B212F0100F08465AD1920658D5013DC9
:1036E000EDB2012D49D0BEF11F0F3BD90A79012D52
:1036F000DAD11A680692069D05E01A680792079AC1
:10370000521B052A46D8C27802F0020202F0FF01DD
:10371000002AF2D00223C3702269D378DBB2D90623
:103720003AD49B0634D5B023BEF11F0F93703FD817
:10373000226904EB0E0312791A760EF1010E5FFA7C
:103740008EFE16B1236980229A7084F839E077469C
:1037500084E781F80280236980229A70774684F892
:1037600039E07BE704EB0E0291F8048082F81880C0
:103770000EF1010E5FFA8EFEB9E781F802C02169F1
:103780000846B0E7A82191702069BE460279B0E7EB
:10379000774663E78170DEE71021C823D170013BD3
:1037A000FDD12269937803F0F7037746937055E7CC
:1037B00023691B79C5E700BFD411FF1F0148FFF73C
:1037C00057BD00BF7407FF1F0148FFF751BD00BF81
:1037D000E007FF1F0148FFF74BBD00BF0807FF1FB1
:1037E000844641EA000313F003036DD1403A41D30C
:1037F00051F8043B40F8043B51F8043B40F8043BCB
:1038000051F8043B40F8043B51F8043B40F8043BBA
:1038100051F8043B40F8043B51F8043B40F8043BAA
:1038200051F8043B40F8043B51F8043B40F8043B9A
:1038300051F8043B40F8043B51F8043B40F8043B8A
:1038400051F8043B40F8043B51F8043B40F8043B7A
:1038500051F8043B40F8043B51F8043B40F8043B6A
:1038600051F8043B40F8043B51F8043B40F8043B5A
:10387000403ABDD2303211D351F8043B40F8043BFA
:1038800051F8043B40F8043B51F8043B40F8043B3A
:1038900051F8043B40F8043B103AEDD20C3205D30A
:1038A00051F8043B40F8043B043AF9D2043208D002
:1038B000D2071CBF11F8013B00F8013B01D30B8874
:1038C00003806046704700BF082A13D38B078DD052
:1038D00010F003038AD0C3F10403D21ADB071CBF24
:1038E00011F8013B00F8013B80D331F8023B20F88E
:1038F000023B7BE7043AD9D3013A11F8013B00F8C7
:10390000013BF9D20B7803704B7843708B7883704E
:103910006046704708B5104C08E0236859050DD47F
:1039200023681A050FD42368DB0411D423685803D5
:10393000F3D500F0D7FE23685905F1D502F040FA1F
:1039400023681A05EFD502F0D1FA2368DB04EDD520
:1039500000F062FCEAE700BF3480044008B5FFF7DE
:10396000D9FF00BF014B10221A807047002005408C
:10397000704700BF094908B50B6830B16A46184462
:10398000A2F50052904202D20860184608BD03F02A
:1039900007FC0C2303604FF0FF3008BD4C08FF1FED
:1039A000FEE700BFEFF3138070B9EFF310836BB93C
:1039B000EFF305825AB94FF48070EFF311832BB106
:1039C000984228BF184670474FF0FF3070470F2AC3
:1039D00001D81846F1E7014BD05CEEE7F0E300E0D8
:1039E00010B4114B53F8302092F8804234B10123C7
:1039F00079B182F880305DF8044B704703EBC00367
:103A00005B681A6851B922F002021A605DF8044B33
:103A1000704782F800315DF8044B704742F00302B2
:103A20001A605DF8044B7047A48200001C4A02EB48
:103A3000C00301295B6811D004291BD052F8300063
:103A4000002280F8802229B1022920D0032922D027
:103A50001A6070474FF480721A60704752F8300055
:103A60004FF4A27280F880121A601A6822F02002C5
:103A70001A60704752F830104FF4A272012081F89A
:103A800080021A601A6842F020021A60704740F201
:103A900003121A6070474FF481721A60704700BFBA
:103AA000A482000030B4054B054D064C00221021C5
:103AB0001A602A602060196030BC704714D003403F
:103AC00004D0034000D0034038B5A0F14203012BDD
:103AD00004461FD9002975DD904B1B78012505FA96
:103AE00003F28A4202D83F2827D938BDC21E012AD4
:103AF0002BD9A0F11D02012A73D90E2856D9A4F1A1
:103B00002302032A57D9864A126802FB011222FABD
:103B100003F320E0814B1B780B2B0AD90C2B1CBF25
:103B20000C3B1941422C084657D0BDE8384002F002
:103B3000F3B8C3F10C039940F4E72946FFF750FFAF
:103B40002946BDE83840FFF771BF764A126802FB8C
:103B5000011222FA03F3A21E242A00F2D580DFE824
:103B600012F0CC00C500BE00B700B000A900A20052
:103B70009B009400D300D300D3008D00D300D3006A
:103B8000D300D300D30086007F0078007100D300FB
:103B9000D300D300D300D3006A006300D300D30066
:103BA000D300D3005C0055004E00470044F284125D
:103BB000C240D207A3D55C4A126802FB011222FA66
:103BC00003F3C8E73F2890D80021FFF709FF2046FC
:103BD0000121BDE83840FFF729BFBDE8384002F0B9
:103BE0007DB8524A126802FB011222FA03F3B2E7CF
:103BF0004F49504A0B604FF45173136038BD4E4922
:103C00004E4A0B604FF45173136038BD4C494D4A16
:103C10000B604FF45173136038BD4B494B4A0B6036
:103C20004FF45173136038BD49494A4A0B604FF451
:103C30005173136038BD4849484A0B604FF45173C3
:103C4000136038BD4649474A0B6040F24443136055
:103C500038BD4549454A0B6040F24443136038BDC6
:103C60004349444A0B6040F24443136038BD424923
:103C7000424A0B6040F24443136038BD4049414A18
:103C80000B6040F24443136038BD3F493F4A0B602C
:103C900040F24443136038BD3D493E4A0B6040F258
:103CA0004443136038BD3C493C4A0B6040F24443F6
:103CB000136038BD3A493B4A0B6040F244431360FD
:103CC00038BD3949394A0B6040F24443136038BD6E
:103CD0003749384A0B6040F24443136038BD3649D7
:103CE000364A0B604FF45173136038BD3449354A7E
:103CF0000B604FF45173136038BD3349334A0B6086
:103D000040F24443136038BD3F2C3FF6EEAE7F29AE
:103D1000D4BF00210121204657E700BF5008FF1FF4
:103D2000088003400890034008900B4008800B4037
:103D300048900B402CB0044040900B4028B0044009
:103D400038900B4024B0044030900B4020B0044029
:103D500018800B404CA0044010800B4048A0044049
:103D60001880034008B004401080034004B00440B1
:103D70004080034018C004403880034014C0044011
:103D800018900B4004C004402880034010B0044049
:103D9000208003400CB0044028900B400CC004402D
:103DA00020900B4008C004403080034010C0044005
:103DB000488003401CC004401890034034900440E5
:103DC000109003403090044010900B4000C004401D
:103DD0003F2801D8FFF704BE704700BF3F2806D830
:103DE000044B53F8303093F80002C0B27047002003
:103DF000704700BFA48200003F2801D8FFF716BE1D
:103E0000704700BF72B60C490C4B0D4A1B6808681E
:103E1000126862B6520102D5322B88BF01300949BF
:103E2000C3F5EA334FF47A72BF33A1FB031302FBED
:103E300000F000EB93107047D411FF1F18E000E072
:103E400004ED00E0898888882DE9F843054672B6BC
:103E5000204F214B214A1B683C68126862B6520110
:103E600002D5322B88BF013495B3C3F5EA331C4E1B
:103E7000DFF86490DFF86480BF334FF47A72A6FBFA
:103E8000031302FB04F404EB931472B6D9F8001088
:103E90003A68D8F800E062B6C1F5EA33BF33A6FB52
:103EA00003031EF0806FC4EB93134FF47A7002D0BB
:103EB000322988BF013200FB0233B3F57A7F04D385
:103EC000013D05D004F57A74DFE701F035FEDCE74B
:103ED000BDE8F883D411FF1F18E000E004ED00E016
:103EE00089888888F8B53E4B3E49DFF818C13E4EB8
:103EF0003E4ADFF814E13E4D3E4C3F4F4FF000602C
:103F000018604FF0805018604FF0005018604FF06C
:103F1000804018604FF0004018600020086028239F
:103F20004EF6FF71CCF80010CEF8003033600EF57D
:103F3000012E13602B60236005F500253B6004F51E
:103F40000024B36207F50027936206F5012602F507
:103F500001220EF1100E05F6E87504F6E87407F577
:103F60007F67103220362B602360CEF800303B6034
:103F700013603360214EBB61936109223260A7F563
:103F8000002706F58056203F083638603160BB6058
:103F9000F36047F8042C06F5FD2607F5FE2706F228
:103FA000FC76043730603960B360FB6046F8042C5F
:103FB0000836C7F8FC0F06F6FC76114831602B6016
:103FC0002360026001F01AFE1920FFF73DFF01F0A7
:103FD000F1F840F21310BDE8F840FFF735BF00BF1D
:103FE00004E100E004800340148003401C8003408F
:103FF000248003402C800340348003400080034031
:1040000000900B40088003400C8003402DE9F84FDE
:10401000214B1B6807460BB101221A70DFF888900C
:104020001E4D99F80040DFF884801D4E0134272C86
:104030008ABF4FF0000A5FFA84FA5446AB462B78E9
:10404000A34216D1FFF7AEFC40281FDC33791B06D4
:10405000F5D59BF800300133272B86BF002213468D
:10406000DAB218F80330DBB2F3712A702B78A3426E
:10407000E8D00C490A4BFFB208F804700120AC22CA
:10408000087089F800A0DA70BDE8F88FFF28D6DD47
:1040900001F052FDD3E700BF4C12FF1F4912FF1F72
:1040A00000C006404812FF1F5012FF1FE011FF1F03
:1040B0001B4BDFF890C01A681A49F0B542F48052E1
:1040C000194D1A60DFF880E0184F194E194C002383
:1040D0008CF800304FF451722B701F2840F21335CA
:1040E0008EF800303B70337025600A6011D8194695
:1040F0000124114A114D11701148547000212C27D0
:1041000040269372082491701174D7702E70046049
:10411000F0BDC0F34431C0F3471400F01F03E8E7DB
:10412000348004400CC00440DD11FF1F4912FF1F02
:104130004812FF1F08C0044000C0064023E400E00E
:1041400004E100E0DC11FF1F5012FF1F034B1B684E
:10415000DB0401D5FFF75ABF704700BF348004402D
:10416000054A064B10781B78C0B2DBB2984238BFC4
:104170004030C01A704700BFDC11FF1FDD11FF1F68
:1041800030B4154B154C1A782378D2B2DBB29A4270
:104190001ED001333F2B0ED91149124B08781968F4
:1041A0000023C0B2237021B1D31A1A2B01DC0023E3
:1041B0000B7030BC70470A480A49C05C0968DDB220
:1041C000C0B225700029F4D09A4238BF4032EBE7E4
:1041D0004FF0FF30EDE700BFDC11FF1FDD11FF1FC7
:1041E0000812FF1FD811FF1F084A094B12781B78CD
:1041F000DBB29A4207D00133402B28BF0023054A87
:10420000D05CC0B270474FF0FF307047DC11FF1F29
:10421000DD11FF1F0812FF1F30B42B4B1A799406D3
:104220001FD52A48DA790378294901333F2B0978C9
:10423000C8BF00238B42D2B203D0264CD9B2E2547D
:104240000170254A116861B1244A1278D2B29342B2
:1042500036BFC2F140029B1A9B18272BC4BF012313
:104260000B70194AD378DBB2180611D45A060DD553
:10427000154B1B795B0609D5194B1A491B6800229F
:104280000A7003B11A70104B2C22DA7030BC7047E0
:1042900011790906EAD5144910480C780178C9B299
:1042A0008C420DD04A1C272A84BF00210A460F4D9C
:1042B000054C98BFD1B2AA5CD2B2E2710170D5E7C9
:1042C0006C21D170D2E700BF00C00640DC11FF1F97
:1042D000DD11FF1F0812FF1FD811FF1F4912FF1F1A
:1042E0004C12FF1F4812FF1F5012FF1FE011FF1F4B
:1042F000284A29491368F0B443F4005313600A783C
:10430000264F274E274D284C284900231F2A3B7053
:1043100033702B7023700B7037D03F2A1BD0244B87
:104320001B78202B1FD03E2B2AD01F2821D80020FD
:10433000024601241F4B204D1A702C2700224026D4
:104340001E495C70987220249A701A74DF702E7067
:104350000C60F0BC70471A4B40F213321A60144BD9
:104360001B78202BDFD1174B4FF451721F281A6096
:10437000DDD9C0F34432C0F3471400F01F00D9E781
:10438000114B4FF451721A60CFE7104B40F21332C9
:104390001A60C4E7348004405108FF1F5812FF1F01
:1043A0005912FF1FCC12FF1FC512FF1FC412FF1F9F
:1043B0005208FF1F00D0064025E400E004E100E0C1
:1043C00014D004402CA0044010D0044028A0044085
:1043D000054A064B10781B78C0B2DBB2984238BF52
:1043E0004030C01A704700BF5812FF1F5912FF1FFC
:1043F00030B4154B154C1A782378D2B2DBB29A42FE
:104400001ED001333F2B0ED91149124B0878196881
:104410000023C0B2237021B1D31A1A2B01DC002370
:104420000B7030BC70470A480A49C05C0968DDB2AD
:10443000C0B225700029F4D09A4238BF4032EBE771
:104440004FF0FF30EDE700BF5812FF1F5912FF1F5A
:104450008412FF1F5412FF1F30B42B4B1A7994069D
:104460001FD52A48DA790378294901333F2B097887
:10447000C8BF00238B42D2B203D0264CD9B2E2543B
:104480000170254A116861B1244A1278D2B2934270
:1044900036BFC2F140029B1A9B18272BC4BF0123D1
:1044A0000B70194AD378DBB2180611D45A060DD511
:1044B000154B1B795B0609D5194B1A491B6800225D
:1044C0000A7003B11A70104B2C22DA7030BC70479E
:1044D00011790906EAD5144910480C780178C9B257
:1044E0008C420DD04A1C272A84BF00210A460F4D5A
:1044F000054C98BFD1B2AA5CD2B2E2710170D5E787
:104500006C21D170D2E700BF00D006405812FF1FC7
:104510005912FF1F8412FF1F5412FF1FC512FF1FE5
:10452000C812FF1FC412FF1FCC12FF1F5C12FF1F17
:10453000431E032B14D872B60A4951F8230068B100
:1045400070B4094C058834F81320466841F823609C
:10455000521B24F8132062B670BC704762B67047D5
:10456000002070472813FF1F2C16FF1F0138032857
:104570000BD872B6074B53F8203043B100205B686C
:104580000130002BFBD162B67047002070471846FF
:10459000F9E700BF7C13FF1F30B472B62B4A1378C3
:1045A0001D0706D52A4B196A002936D0996A0029B9
:1045B00041D053781C0706D5254B196C00293ED0F5
:1045C000996C002939D09378190705D5204B196EBD
:1045D000002936D0996E89B1D3781B0707D51C4BBB
:1045E000D3F880207AB3D3F8882011213AB162B68B
:1045F000184B00221A7030BC00F076BE0D21154C0D
:10460000154D227843F8315003EBC1030830013ACD
:104610005860227062B630BC704704220D4C0F4DBA
:10462000217843F8325003EBC20308304A1E586029
:10463000227062B6EFE70521E1E70921DFE70822F2
:10464000ECE70C22EAE71022E8E700BFDC84000078
:104650000000FF1FA513FF1FC80040008800400096
:10466000431E032B1DD81B4A400140F0100030B4FC
:10467000104472B6184CE25C032A1BD8DFE802F043
:104680000212151703220D88E25410F0080F14BF10
:10469000C823882343EA054308310360416062B6BA
:1046A00030BC704708300222EDE70522EBE7083006
:1046B0000422E8E7094A52F8230038B1084A52F8C0
:1046C0002300416042F8231062B6E9E742F8231064
:1046D000034AF7E70000FF1FB413FF1F7C13FF1FFF
:1046E0008C13FF1F2DE9F04FDFF80CB3DFF80CA39C
:1046F00087B044E0AB4F4FEA930807EBC809013E8F
:10470000D9F8042003F00803F6B2A2F1080003F080
:10471000FF04002B40F0028157F838301B0C99B28F
:1047200022F8081C002B00F0F0809F4B22F8064C6A
:1047300042F8044C53F82620002A00F0C5829B4D15
:1047400055F8263058609A4C45F8260034F8163053
:10475000194424F8161000F0A7FD002800F0AD82DF
:10476000944A954B19F0080F00F1080018BF134642
:10477000C9F8040047F8383008238BF800309BF85C
:104780000040E4B261071AD58C4B1B78A3B18C4969
:104790000A7802F0FF0322B1013BDBB20B7003B9D0
:1047A00000BE88490A7802F0FF032AB1013BDBB260
:1047B0000B70002B00F0578204238BF8003004F0BC
:1047C000080303F0FF02002B00F0CC809AF80030C1
:1047D000DBB21E098ED19C08DFF8C89159F834204D
:1047E00009EBC401C2F38302013A49680C2A00F2C2
:1047F0008880DFE802F07C7C86868686868647860F
:10480000868607000868704D4A68704F704E2860B1
:1048100081B240F28160674B6A604FF0010E002266
:10482000814249F834303A60C9F81020C9F818209C
:1048300086F800E05B4C00F2E380B1F5D06F80F0C9
:104840004683B1F5817F00F0FC8200F28D828029E1
:1048500000F07783822940F0FA82A98801F07F0175
:10486000042900F2F4825B485B4C89000844227002
:1048700062700278930740F1588484F800E04FF0AA
:10488000020E42E3514F3A6832B3544B504E5449F2
:10489000188834780D784028864645F0020828BFED
:1048A0004FF0400E002C84F001043470CEEB000079
:1048B0000CBF8824C82409EBC80680B285F0010526
:1048C00044EA0E447260188049F8384072440D7012
:1048D000002800F045813A603B4B1A88B2F5A06F82
:1048E0000FD100219A7859703E4B1A7009E0364A70
:1048F000108842F22102904200F037812D4A49F897
:104900003420394A0123137036E72A4A2A4B19F01A
:10491000080F18BF134647F838302DE700F0E4FCC5
:10492000324A334952F82630002B00F0D1815868C2
:104930008C5D42F8260003F10802C9F80420032C1C
:1049400005D8DFE804F02C02292602228A551A88AD
:1049500019F0080F0CBF8823C82343EA024347F825
:10496000383009E7E00700F18181210600F1F2818A
:10497000A20706D51F4A204913780220DBB2137024
:104980000870E30602D51C4B10221A7007B0BDE870
:10499000F08F04228A55DAE705228A55D7E70322E9
:1049A0008A55D4E70000FF1F2813FF1FD412FF1FF2
:1049B0002C16FF1FC800400088004000B013FF1FE6
:1049C0003913FF1FB813FF1F9C13FF1FD012FF1FC7
:1049D0003813FF1FC0200740A813FF1FE412FF1F5A
:1049E000A413FF1F98200740942007407C13FF1F4B
:1049F000B413FF1F88200740802007409020074005
:104A000042F22100814200F02A8100F2D880B1F503
:104A1000086F00F07682B1F5106F40F01882226ABC
:104A2000B349A8780870120600F13A83D9F8282013
:104A3000B049130600F10C83D9F83020AD491506B2
:104A400000F10183D9F83820AA49140600F1F68252
:104A5000D9F84020A749100600F14A83D9F8482028
:104A6000A449120600F13F83D9F85020A14913064A
:104A700000F13483D9F858209E49150600F12983A6
:104A8000D9F860209B49140600F11E83D9F86820EC
:104A90009849100600F11383D9F870209549120641
:104AA00000F10883D9F878209249130600F1FD82BD
:104AB000D9F880208F49150600F13183D9F8882074
:104AC0008C49140600F12583D9F8902089491006F5
:104AD00000F11983D9F898208649120600F10D8358
:104AE0008548864A864901908648874D874C0497B9
:104AF00000230596029580460F4616461D460394F0
:104B0000306828B1446800F0EFFB2046002CF9D152
:104B100000233360029B38681A46002342F8253090
:104B200028B1446800F0E0FB2046002CF9D10022B7
:104B30003A60019A98F800301146002241F8042B9F
:104B4000039A0191023B4FF0000122F81510032B4C
:104B500000F22B81DFE813F07001250170012501BF
:104B6000BEF1400F18BF0022B5E6694A0D784878BB
:104B7000157050708D78C8789570D07010680D7968
:104B8000157186284D7989795571917100F09B8155
:104B90006049614E0A78307882F00105002842F0C1
:104BA00002020D700CBF8821C82149F8321009EBB0
:104BB000C20280F001000021307051609EE642F296
:104BC0002120814240F0CB81544B554C5549A87867
:104BD0001D682560CDF804E0087000200290804632
:104BE000844604464B490D7845F0020E09EBCE038E
:104BF0000393019B002B039B5C600CBF8824C8249B
:104C000044EA080385F0010449F83E3032700C7024
:104C1000DFF8E0E0404BDFF8FC80002840F01E8128
:104C2000BCF1400F1BD144F0020C09EBCC03029CF9
:104C3000DFF8C0E05C60002A40F02681020442F008
:104C400088029DF804304EF83C20044433700D7007
:104C50002346402803D10020334A3B601080334A6A
:104C6000012313704DE600F0ABFCA5E5214B2F4866
:104C700028491A614FF0020E80F800E02C4F0A70AC
:104C80002C49196099602C4E2C4D2D4C9A610D21A8
:104C90003970FF213170DFF8B8E029702270294D9A
:104CA000294A8EF800109F27012406F8047C5D60D5
:104CB0000470DA6007B0BDE8F08F244A47F8380086
:104CC00013780133137057E543F826000E4D3AE58B
:104CD0008B5D032B00F2F08001A252F823F000BF9D
:104CE00079470000794700009D4D0000974D000076
:104CF000B013FF1F0000FF1F8C13FF1F2813FF1F9F
:104D00007C13FF1FB413FF1FD412FF1F2C16FF1FAD
:104D10003416FF1FA413FF1F3813FF1FD411FF1FEA
:104D20003C16FF1FC813FF1FE412FF1F942007400B
:104D3000C0200740880040008820074080200740AE
:104D400098200740E812FF1F3C13FF1FA513FF1F09
:104D50008C200740C149C24B80220D2008701A7078
:104D6000A2077FF50EAE05E640F20232914240F016
:104D7000EE80A98801F07F01042968D86A88002A9A
:104D800065D1B648CDF804E089000844017841F0C7
:104D90000201017021E701238B55EDE400238B55BF
:104DA000EAE44FF0010388F800300135042D06F1E4
:104DB000040607F1040708F101087FF4A1AEA94C2D
:104DC000A94B2278A94D049F059E002129701A70D5
:104DD000130700F105816278A549DFF8A0820A7007
:104DE00010074FF00001C9F83010C9F8381000F171
:104DF000E080A049A2780A700021C9F85010C9F8D3
:104E000058101107DFF8748200F10181E2789A49A5
:104E10009A4C0A7000211207C9F87010C9F878106E
:104E200000F1B08033780193002183F00102C9F8CA
:104E30009010C9F89810D0E64FF0000388F80030C1
:104E4000B3E7A98801F07F01042940F28D80834AED
:104E50000F2313708A4A0123137052E540287FF60E
:104E6000E2AE44F002040EEBC401029E4E60BAB101
:104E70009DF80410834A19703346403888F8005072
:104E800040334EF83420E7E69DF8043033700204D6
:104E9000029B0D7042F0C80203444EF83C20D8E655
:104EA0009DF804101970029B774A88F8005040382A
:104EB00040334EF83420CFE619F0080F0CBF022320
:104EC00003238B5558E4714A0F21117060E6704A34
:104ED0005468002CBBD06888B5F804E003E00C32BD
:104EE0005468002CB3D013888342F8D1538873459B
:104EF000F5D1000A03280CBF94F800E0B2F808E0EE
:104F000003E0644A644C12782270E888704580F0AF
:104F10003F8162490D784028844645F0020E28BF43
:104F20004FF0400C04EB0C0309EBCE02029301237B
:104F30005460CCEB00004FEA0C4800220193C824D7
:104F40005EE6554C4FF0020E22706270DDE7B1F55F
:104F5000A06F7FF47CAF0123002201933DE642F273
:104F600021329142F7D072E76A88002A7FF46FAF4E
:104F70003A48CDF804E089000844017821F00201A4
:104F800001702AE600F090F9002800F0EF80083068
:104F90003D4AC4F88400C4F8802000F085F9002858
:104FA00000F0DE800830374AC9F88C00C9F8882044
:104FB00038E700F079F9002800F0C0800830324A64
:104FC000C8F84400C8F8402000F06EF9002800F04E
:104FD000AF8008302B4AC9F84C00C9F8482008E7D0
:104FE00000F062F9002800F0CD800830264AC9F8A8
:104FF0002400C9F8202000F057F9002800F0BC80F8
:105000000830204AC9F82C00C9F82820E3E600F04F
:105010004BF9002800F09E8008301B4AC8F8640055
:10502000C8F8602000F040F9002800F08D800830BA
:10503000144AC9F86C00C9F86820E7E6C86B08385C
:1050400000F052F904E5486B083800F04DF9F9E436
:10505000C86A083800F048F9EEE400BFC0200740F5
:1050600080200740DC840000C4200740A513FF1FF8
:10507000C8200740CC200740D02007400000FF1F79
:1050800094200740C8004000880040003913FF1FEB
:10509000E0840000B013FF1FA813FF1FA413FF1F1D
:1050A000606A083800F020F9C0E4C86F083800F0E2
:1050B0001BF9FDE4486F083800F016F9F2E4C86EF9
:1050C000083800F011F9E7E4486E083800F00CF9F0
:1050D000DCE4C86D083800F007F9D1E4486D083801
:1050E00000F002F9C6E4C86C083800F0FDF8BBE433
:1050F000486C083800F0F8F8B0E4D1F89C000838A3
:1051000000F0F2F8ECE4D1F89400083800F0ECF884
:10511000E0E4D1F88C00083800F0E6F8D4E4D1F8E7
:105120008400083800F0E0F8C8E44FF0020EECE626
:105130002A78C9F8480001322A705AE62A78C8F855
:10514000400001322A703FE72A78C9F8680001322E
:105150002A705BE62A78C8F8600001322A7061E79D
:105160002A78C9F8880001322A705BE62A78C4F8E8
:10517000800001322A7010E72A78C9F8280001322D
:105180002A7028E62A78C9F8200001322A7032E70E
:10519000BEF1400FF44628BF4FF0400C04EB0C0367
:1051A00002930123CCEB0E004FEA0C48002201933E
:1051B00018E500BF2DE9F04101F016F82F4C304BF7
:1051C0003048DFF8D880304F304D314EDFF8D0C056
:1051D000DFF8D0E000221A605A609A60DA601A6143
:1051E0005A619A61DA611A625A629A62DA621A63E1
:1051F0005A639A63DA631A645A649A64DA641A65C1
:105200005A659A65DA651A665A669A66DA661A67A0
:105210005A679A67DA67C3F880202168C3F8842048
:1052200041F480212160016841F040710160C3F3C5
:10523000072188F8001004F52834C3F307411B0E3A
:105240003970CC342B7000F12040FF238CF80030F3
:10525000104D8EF8003000F6041033700E49012313
:1052600008F8083C702622704FF40014102207F84A
:105270002C3C2E7004600A70BDE8F081348004403C
:105280000000FF1F00D80040B0200740B4200740B6
:105290001020074035E400E0082107409C2007402B
:1052A000802007408820074072B60D480268B2FA95
:1052B00082F30B2B10DC4FF00041D94022EA0102AF
:1052C000026062B6074803EBC303DB00C21800218B
:1052D000C15010465160704762B60020704700BF51
:1052E0005408FF1F9803FF1F0D4B0E4AC31AA2FB61
:1052F00003231B090B2B0CD80B4A127852B972B638
:105300000A484FF00041026821FA03F31A43026091
:1053100062B67047064A1278002AF0D0FFF73CB90F
:105320009803FF1F398EE338A513FF1F5408FF1F92
:10533000B013FF1F38B50F4D286878B14388028835
:10534000C118013393420C7A02D24380204638BD03
:10535000FFF7CAFF002320462B6038BD064B1B78A1
:105360002BB10320FFF7E4F828600028E6D14FF0C6
:10537000FF3038BDC413FF1FB013FF1F10B5094C19
:10538000206818B143881844007A10BD064B1B787A
:105390002BB10320FFF7CCF820600028F2D14FF0AA
:1053A000FF3010BDC413FF1FB013FF1F044B054A8D
:1053B0001B6890881BB11A885B88D31A1844704701
:1053C000C413FF1F2C16FF1F0B4B1B789BB110B58E
:1053D0000A4C206848B1FFF787FF002303202360B1
:1053E000FFF7A6F830B1FFF77FFF0320FFF7A0F823
:1053F0000028F8D110BD7047B013FF1FC413FF1F62
:105400002DE9F04FDFF8F89083B0012289F80020F1
:10541000019169B3DFF8EC80364F019E8346D8F8DE
:105420000000B0B3344D4488C4F14001B14228BFFC
:10543000314604EB010E00221FFA8EFE2A70761A06
:10544000A0F802E000F1080251B1013C22445944A5
:105450001BF8014B02F8014F8B45F9D1B0F802E07F
:10546000BEF13F0F0BD8254A05211170002ED6D171
:105470000198002389F8003003B0BDE8F08F402286
:10548000028001460420FFF7EBF80022C8F8002054
:10549000E9E73A782AB3184D4DF2E9044FF0010AD2
:1054A00007E0013C16D02A78A2B900F045FB3A7813
:1054B000BAB10420FFF75AF80728F2D889F800A0FB
:1054C000FFF7F2FEC8F800000028ACD10C4B013CFD
:1054D0001870E8D101234FF0FF302B7003B0BDE806
:1054E000F08F00234FF0FF3089F8003003B0BDE8A3
:1054F000F08F00BFB013FF1FC013FF1FB813FF1FB3
:10550000B913FF1FBC13FF1F00B583B002AB01210D
:1055100003F8010D1846FFF773FF03B05DF804FBB5
:1055200038B50E4D0E4C28680123237028B14088F1
:1055300000232370C0F1400038BD0A4B1B7813B91B
:105540000020207038BD0420FFF710F80728F7D896
:10555000FFF7AAFE28600028E9D1F1E7BC13FF1F7E
:10556000B913FF1FB013FF1FF8B5114B1B788BB198
:10557000104E114D346801272F7064B10F4A6388B3
:1055800000271770214623800420FFF769F8376051
:1055900000232B70F8BDFFF787FE084B28B10146AA
:1055A00004201C70FFF75CF8F2E71F70F0E700BF03
:1055B000B013FF1FBC13FF1FB913FF1FB813FF1F4A
:1055C00038B50E4B1B7873B90D4C216861B103F0EF
:1055D000FF054B880B800420FFF742F8256038BD9B
:1055E000084B01221A7038BDFFF75EFE0028F7D085
:1055F0000146BDE838400420FFF732B8B913FF1F59
:10560000BC13FF1FB813FF1F10B4EFF3108272B664
:10561000437F33B9017F012908D0032910D001232A
:10562000437702B962B65DF8044B7047114C2168AC
:10563000A1B1114943610B68836108605861EEE7CD
:105640000E4C216881B10E4943610B68836108608B
:1056500058610C4B4FF080511960E0E7064B4161F7
:10566000816120601860DAE7054B4161816120604B
:105670001860EEE7DC13FF1FD813FF1FCC13FF1FCA
:10568000D013FF1F04ED00E010B4047F4160022C32
:10569000C26003D05DF8044BFFF7B6BF83685DF8C6
:1056A000044B184770B5EFF3108272B60C4C2068AB
:1056B00080B10C4E00254369236073B19D6102B92E
:1056C00062B6457783689847EFF3108272B6206818
:1056D0000028F0D102B962B670BD3360EFE700BFB9
:1056E000CC13FF1FD013FF1FFFF7DCBF184A30B4E5
:1056F0001468002C27D0036821688B420ED2CB1A85
:1057000000218460C1602360E060106002230375A3
:1057100030BC704711688B42144608D3A2685B1AEC
:105720000360002AF6D18260C460A060EEE7D26810
:10573000C2608460E060C568CB1A0222A860236062
:10574000027530BC70478460C4601060DEE700BF43
:10575000D413FF1FF8B5224E34682CB32368002BF6
:105760003AD1204F1D4604E03468ECB12368002B89
:1057700032D1A36803B1DD60206933600368257509
:105780001B68BB4221D1037F4560022BC46020D03F
:10579000FFF73AFF6368002BE6D023602046FFF74F
:1057A000A5FF3468002CE1D1EFF3108372B60E4AE6
:1057B00000211068116003B962B628B18468FFF750
:1057C00095FF20460028F9D1F8BD224600219847D0
:1057D000E0E783689847DDE7013B2360E4E700BF2B
:1057E000D413FF1F89560000E413FF1F024A1368F9
:1057F00001331360FFF7AEBFD411FF1F704700BF26
:10580000704700BF704700BF08B5FCF74DF8FCF7C4
:10581000ADFF00F091F9FAE701F0F0BC01F0F6BC41
:1058200000B5064A036812885B6883B001A9ADF829
:1058300004200222984703B05DF804FBA484000012
:10584000F0B507468BB0002A33D0012A08BF0A22E0
:1058500051B3212400E0F4B2B1FBF2F502FB1511C3
:10586000C8B2092900F1300198BFC8B20AA988BF9F
:105870003730214488BFC0B201F8240C661E294687
:10588000002DE8D133B1013CE4B20AAB23442D2210
:1058900003F8242C3B6801AA11195B683846C4F14F
:1058A000220298470BB0F0BD30228DF8252021242C
:1058B000E8E70368C9B21B6898470BB0F0BD00BFAA
:1058C0000029BABF49422D2300230A22FFF7B8BF9F
:1058D0002DE9F04357EC106B85B005460C4610EEF1
:1058E000102A3B4610EE100A394601F0D3FB00287F
:1058F00040F0B28027F00049304649464FF0FF3271
:10590000594B01F0C7FB90B9304649464FF0FF3282
:10591000554B01F0A1FB50B92B6854495B682846F0
:10592000032298478046404605B0BDE8F0834FF01B
:1059300060424F4B3046394601F0A2FB002872D13D
:105940004FF060424B4B3046394601F07BFB00285C
:1059500069D1002200233046394601F073FB00284C
:1059600064D18146002C67D0434900204FF00008E5
:105970003BA3D3E9002308F1010801F0F1F85FFA35
:1059800088F39C42F4D802460B463046394600F074
:1059900035FF0F46064601F093FB804601F06AF89A
:1059A00002460B463046394600F026FF4B46064677
:1059B0000F460A2241462846FFF742FF0F2C28BF18
:1059C0000F2404F101092E2380465FFA89F98DF82E
:1059D000003001240022294B3046394601F0C0F83E
:1059E0000F46064601F06CFB04AB2344C0B200F145
:1059F000300203F8102C01F04DF802460B463046F9
:105A0000394600F0F9FE0134E4B24C4506460F4633
:105A1000E0D12B6822465B68284669469847404695
:105A200005B0BDE8F0832B68154977E707F100431F
:105A30001F464FF0010995E700220F4B30463946CB
:105A400000F0DCFE01F03CFB4B4601460A222846F2
:105A5000FFF7F6FE804666E72B680A495EE700BF5F
:105A6000000000A09999B93FFFFFEF7FB0840000CC
:105A7000FFFFEF41FFFFEFC10000E03F00002440C7
:105A8000AC840000A8840000FFF79EBCFFF776BC42
:105A9000FFF750BCFFF78ABCFFF766BDFFF740BDBC
:105AA00008461146FFF7ACBC0846FFF72DBD00BF06
:105AB000704700BFF0B5164D2A680AB31549164B5A
:105AC000DFF85CE082FB016781FB0214D617D11975
:105AD0001444C6EB2141C6EB244403FB04F40EFB43
