:1000000014C1000043C1000041C100003FC1000015
:100010003DC100003BC1000039C1000037C10000F4
:1000200035C1000033C1000031C100002FC1000004
:100030002DC100002BC1000029C1000027C1000014
:1000400025C1000023C1000021C100001FC1000024
:100050001DC100001BC1000019C1000056C40000F2
:1000600015C100008CC1000061C100000FC100007B
:100070000DC100000BC1000009C1000007C1000054
:1000800005C1000003C1000001C10000FFC0000065
:10009000FDC00000FBC00000F9C0000080C40000EB
:1000A000F5C00000F3C00000F1C00000EFC0000088
:1000B000EDC00000EBC00000E9C00000E7C0000098
:1000C000E5C00000E3C00000E1C00000DFC00000A8
:1000D000DDC00000DBC00000D9C00000D7C00000B8
:1000E000D5C000008502880277027B028102BF0230
:1000F0008C02900296029A029E02A402A802AC020E
:10010000BF02B202B602BA0200002000230026009D
:1001100029002C002F00320000010000030106011D
:10012000090100002100240027002A002D003000D2
:10013000330001010000040107010A010000220050
:10014000250028002B002E003100340002010000A1
:10015000050108010B010505050507050808080844
:10016000020202020A0A080804040404010101014F
:10017000010101010303030303030303040707074A
:100180000C0C0C0C0C0C0C0C0202020206060606EF
:10019000060606060B0B0B0B0B0B0B0B01021020BC
:1001A00020080810204010204080020102010804AD
:1001B0000201010204081020408080402010080441
:1001C000020180040201804020100804020108049A
:1001D00002010102040810204080010204081020DE
:1001E000408000000A0B02090C0D0E0807030401F1
:1001F00000000000000000000000000000000000FF
:1002000000000000000000000000000000001211CB
:1002100010000000000000000000000000000000CE
:1002200000000000000000002D0F11241FBECFEFC2
:10023000D1E2DEBFCDBF00E00CBF16E0A0E0B2E02F
:10024000E4E8F1E200E00BBF02C007900D92A23398
:10025000B107D9F727E0A2E3B6E001C01D92AD3C9B
:10026000B207E1F711E0C5E1D1E000E006C0219757
:100270000109802FFE010E94930FC431D10780E055
:100280000807A9F70E94DB090C94C010B9CE85EFCE
:1002900096E0DCD021E0892B09F420E0822F08953C
:1002A000EF92FF920F931F93CF93DF93EC0181E0C6
:1002B000888F9B8D8C8D981305C0E889F989808182
:1002C00085FD23C0F62E0B8D10E00F5F1F4F0F73BF
:1002D0001127E02E8C8DE8120BC00FB607FCFACF69
:1002E000E889F989808185FFF5CFCE0135D2F2CF3B
:1002F0008B8DFE01E80FF11DE35AFF4FF0820B8F4B
:10030000EA89FB898081806207C0EE89FF8960836A
:10031000E889F98980818064808381E090E0DF91C1
:10032000CF911F910F91FF90EF9008951F920F9220
:100330000FB60F9211240BB60F922F933F934F934A
:100340005F936F937F938F939F93AF93BF93EF933D
:10035000FF9385EF96E000D2FF91EF91BF91AF91AF
:100360009F918F917F916F915F914F913F912F91CD
:100370000F900BBE0F900FBE0F901F9018951F92FD
:100380000F920FB60F9211240BB60F922F938F93EB
:100390009F93EF93FF93E0910507F091060780810B
:1003A000E0910B07F0910C0782FD12C090818091C3
:1003B0000E078F5F8F7320910F07821751F0E09126
:1003C0000E07F0E0EB50F94F958F80930E0701C0B8
:1003D0008081FF91EF919F918F912F910F900BBE94
:1003E0000F900FBE0F901F901895FC01538D448DF8
:1003F000252F30E0842F90E0821B930B541710F0D0
:10040000CF96089501970895FC01918D828D9817DC
:1004100061F0828DDF01A80FB11D5D968C91928DE8
:100420009F5F9F73928F90E008958FEF9FEF0895E5
:10043000FC01918D828D981731F0828DE80FF11DAE
:10044000858D90E008958FEF9FEF0895FC01918DC9
:10045000228D892F90E0805C9F4F821B91098F73C2
:100460009927089580E090E0892B19F010DF811121
:1004700025C080E090E0892B41F080E090E0892B5E
:1004800021F00E94000081111CC080E090E0892BC7
:1004900041F080E090E0892B21F00E940000811162
:1004A00013C080E090E0892BA1F080E090E0892BE0
:1004B00081F00E94000081110AC008950E9400008E
:1004C000D8CF0E940000E1CF0E940000EACF0C9438
:1004D0000000089590E0FC013197E231F10508F049
:1004E0004EC08827EE58FF4F8F4F0C94930F80918A
:1004F00080008F7703C0809180008F7D8093800083
:10050000089580918000877FF9CF84B58F7702C0EE
:1005100084B58F7D84BD08958091B0008F7703C02E
:100520008091B0008F7D8093B000089580919000FD
:100530008F7707C0809190008F7D03C080919000DD
:10054000877F8093900008958091A0008F7707C0E7
:100550008091A0008F7D03C08091A000877F809351
:10056000A0000895809120018F7707C0809120011D
:100570008F7D03C080912001877F809320010895A3
:1005800085ED8093BC008091BC0084FDFCCF10926F
:10059000D106089540915D06262F30E0240F311DCD
:1005A00021323105DCF42091D1062430C9F4FC015C
:1005B00080E090E0861758F430915D062191DC01CF
:1005C000A35CB94FA30FB11D2C930196F3CF80917B
:1005D0005D06680F60935D0680E0089581E00895F0
:1005E00082E008950895E091AA068091A906E8178F
:1005F00030F4F0E0E757F94F808190E008958FEFF5
:100600009FEF08959091AA068091A906981750F43B
:10061000E92FF0E0E757F94F208130E09F5F90939A
:10062000AA0602C02FEF3FEFC90108958091A906E5
:1006300090E02091AA06821B91090895CF92DF9243
:10064000EF92FF920F931F93CF93DF937C01CB0127
:100650008A012091D206222389F0EB016B01C40E9E
:10066000D51ECC15DD0561F06991D701ED91FC91A6
:100670000190F081E02DC7011995F3CF642F8ADF37
:10068000C801DF91CF911F910F91FF90EF90DF9004
:10069000CF900895CF93DF931F92CDB7DEB76983D4
:1006A0002091D2062223D1F02091F406203240F08E
:1006B00021E030E0FC013383228380E090E014C02D
:1006C0008091D306E82FF0E0EC52F94F99819083A6
:1006D0008F5F8093D3068093F40604C061E0CE015F
:1006E000019658DF81E090E00F90DF91CF9108955F
:1006F000089580E090E008950F931F93CF93DF93C8
:10070000EC012E8130E0F901EE51FE4F8491F901A8
:10071000E456FE4F0491F901EA5AFE4F1491112359
:1007200089F08111D7DEE12FF0E0EE0FFF1FE85FC7
:10073000FE4FA591B491EC91E02381E090E021F48B
:1007400080E002C080E090E08887DF91CF911F9128
:100750000F9108950E94BC10FC01848DDF01A80F49
:10076000B11DA35ABF4F2C91848D90E001968F73D9
:100770009927848FA689B7892C93A089B1898C91F8
:1007800080648C93938D848D981306C00288F389BE
:10079000E02D80818F7D80830895CF93DF93EC01DE
:1007A000888D8823C1F0EA89FB89808185FD05C099
:1007B000A889B9898C9186FD0EC00FB607FCF5CFCC
:1007C000808185FFF2CFA889B9898C9185FFEDCF13
:1007D000CE01C2DFE8CFDF91CF9108951F93CF9371
:1007E000DF93282F30E0F901EE51FE4F8491F9019B
:1007F000E456FE4FD491F901EA5AFE4FC491CC233E
:10080000B9F0162F811166DEEC2FF0E0EE0FFF1F1E
:10081000E45CFE4FA591B4919FB7F894111104C008
:100820008C91D095D82302C0EC91DE2BDC939FBF36
:10083000DF91CF911F910895FC0160878681CECF13
:10084000CF93DF9390E0FC01E456FE4F2491FC012E
:10085000EA5AFE4F8491882361F190E0880F991F36
:10086000FC01EE5DFE4FC591D491FC01E45CFE4FAE
:10087000A591B491611109C09FB7F8948881209522
:1008800082238883EC912E230BC0623061F49FB7E2
:10089000F8948881322F309583238883EC912E2B16
:1008A0002C939FBF06C08FB7F894E8812E2B288326
:1008B0008FBFDF91CF910895FC0167838681C0CF00
:1008C0003FB7F8948091850690918606A09187069F
:1008D000B091880626B5A89B05C02F3F19F0019658
:1008E000A11DB11D3FBFBA2FA92F982F8827820FB6
:1008F000911DA11DB11DBC01CD0142E0660F771F06
:10090000881F991F4A95D1F708951F920F920FB62D
:100910000F9211242F933F938F939F93AF93BF9385
:100920008091810690918206A0918306B091840601
:100930003091800623E0230F2D3720F40196A11D6E
:10094000B11D05C026E8230F0296A11DB11D2093FD
:1009500080068093810690938206A0938306B093CD
:1009600084068091850690918606A0918706B091B5
:1009700088060196A11DB11D809385069093860679
:10098000A0938706B0938806BF91AF919F918F91F6
:100990003F912F910F900FBE0F901F9018951F92AF
:1009A0000F920FB60F9211240BB60F922F933F9315
:1009B0004F935F936F937F938F939F93AF93BF9367
:1009C000EF93FF938091B900887F803609F49CC033
:1009D00068F5883209F45BC090F4803109F454C0A2
:1009E00038F4882309F4F2C0883009F44DC0F1C00E
:1009F000883109F44CC0803209F45DC0EAC080340B
:100A000009F468C048F4803309F455C0883309F00C
:100A1000E0C08093CF06D4C0803509F44FC088353C
:100A200009F45DC0883409F0D4C0D2C0883909F413
:100A3000C3C0A8F4883709F467C038F4883609F4CD
:100A400063C0803709F460C0C4C0883809F4B4C0FA
:100A5000803909F45FC0803809F0BBC05BC0803BBF
:100A600009F484C038F4803A09F466C0883A09F47D
:100A70007DC0AFC0803C09F4A3C0883C09F4A0C08D
:100A8000883B09F486C0A5C08091AC0610C0909147
:100A9000CE068091CD06981770F5E091CE0681E0E4
:100AA0008E0F8093CE06F0E0E355F94F808180935E
:100AB000BB0085EC82C08093CF068AC0E091CE0651
:100AC00081E08E0F8093CE068091BB00F0E0E3556D
:100AD000F94F80839091CE068091CD066AC0E09157
:100AE000CE0681E08E0F8093CE068091BB00F0E0B1
:100AF000E355F94F80838091D006811169C081E070
:100B00008093AB0684EA5DC083E08093D1061092A7
:100B10007F06CFCF80917F06803208F04DC0E091F4
:100B20007F0681E08E0F80937F068091BB00F0E00E
:100B3000E15AF94F8083BDCF85EC8093BC001092C1
:100B4000D10680917F06803230F4E0917F06F0E09C
:100B5000E15AF94F108260917F0670E08FE596E0D0
:100B6000E0E0F0E0199510927F0633C084E08093B6
:100B7000D10610925E0610925D06E0E0F0E0199555
:100B800080915D06811105C081E080935D06109221
:100B90003D06E0915E0681E08E0F80935E06F0E0F8
:100BA000E35CF94F80818093BB0090915E06809159
:100BB0005D06981708F47DCF85E88093BC0009C0D6
:100BC00085EC8093BC001092D10603C01092CF0632
:100BD000D7DCFF91EF91BF91AF919F918F917F9162
:100BE0006F915F914F913F912F910F900BBE0F909E
:100BF0000FBE0F901F901895CF92DF92EF92FF9249
:100C00001F93CF93DF93182FEB017A01690185E3DE
:100C100095E0B8D2C701B6D288E395E0B3D20D2CE7
:100C2000000CEE08FF08F7FE0DC06DE285EF96E0C0
:100C300037DB66277727CB016C197D098E099F0961
:100C40004AE003C04AE0C701B6019DD280E495E0C6
:100C500099D21093320683E495E094D2112349F09F
:100C6000113051F0123059F0133061F080E395E00B
:100C70000BC081E295E008C086E295E005C08BE2FA
:100C800095E002C080E792E07DD285E495E07AD2DB
:100C9000CE01DF91CF911F91FF90EF90DF90CF9029
:100CA00065C2FC01248135814281538169E475E08C
:100CB00081E0A2CFFC01248135814281538161E72B
:100CC00075E081E099CF0895FC012481358142814E
:100CD000538169E475E081E08FCFFC012481358187
:100CE000428153816EE975E081E086CFFC0171831A
:100CF000608320913B0630913C06A9014F5F5F4F16
:100D000050933C0640933B063383228308950F9310
:100D10001F93FC0184819581A681B7818F3F2FEFBE
:100D20009207A207B20759F42FB7F8948091810671
:100D300090918206A0918306B09184062FBF008116
:100D4000118122813381BC01CD01601B710B820BAB
:100D5000930B1F910F9108952FB7F894409181063E
:100D60005091820660918306709184062FBFFC012A
:100D700040835183628373834FEF5FEFBA014483F3
:100D800055836683778308959F92AF92BF92CF92E7
:100D9000DF92EF92FF920F931F93CF93DF93EC01BB
:100DA0007C0127E1E20EF11CC701B1DF1616170620
:100DB000180619060CF03BC08E8160E170E090E0EF
:100DC00045D26E0137E0C30ED11C00E010E09091D7
:100DD000A9068091AA06981799F082E997E012DC9B
:100DE000982E82E997E00EDCB92CA12CF501E82BB6
:100DF000CF01F601819391936F010F5F1F4FE7CFF2
:100E0000012B41F42C813D814A815B816AEC75E0C4
:100E100082E0F2DEC701DF91CF911F910F91FF9029
:100E2000EF90DF90CF90BF90AF909F9095CFDF91E4
:100E3000CF911F910F91FF90EF90DF90CF90BF90D7
:100E4000AF909F900895EF92FF920F931F93CF93CF
:100E5000DF93EC017C0187E1E80EF11CC70157DF4D
:100E60001616170618061906D4F58E8161E070E093
:100E700090E0ECD100E010E09091A9068091AA06E4
:100E80009817D9F082E997E0BDDBFE01379620E0A4
:100E900030E09927AC01022E02C0559547950A947F
:100EA000E2F741705527419351932F5F3F4F283010
:100EB000310581F70F5F1F4FDFCF012B41F42C81EC
:100EC0003D814A815B816AEC75E082E095DEC70175
:100ED000DF91CF911F910F91FF90EF903DCFDF9168
:100EE000CF911F910F91FF90EF900895EF92FF9295
:100EF0000F931F93CF93DF93EC017C0188E0E80E02
:100F0000F11CC70104DF161617061806190654F55A
:100F10008E8161E070E090E099D100E010E0909166
:100F2000A9068091AA06981759F082E997E06ADB32
:100F300021E0892B09F420E02F830F5F1F4FEFCFB3
:100F4000012B41F42C813D814A815B816AEC75E083
:100F500082E052DEC701DF91CF911F910F91FF9088
:100F6000EF90FACEDF91CF911F910F91FF90EF900C
:100F70000895FC0110821182128213824FEF5FEFFD
:100F8000BA0144835583668377831086118612865F
:100F90001386E2CE1F93CF93DF93EC01142F0296BA
:100FA000A5DE84E192E0998388831E832BD18CE2B5
:100FB00092E099838883FE01379680E1DF011D92DC
:100FC0008A95E9F7CE014796DF91CF911F91D1CF56
:100FD0001F93CF93DF93EC01142F029687DE84E1F9
:100FE00092E0998388831E830DD184E292E09983F5
:100FF0008883FE01379680E1DF011D928A95E9F72B
:10100000CE014796DF91CF911F91B3CF282F30911A
:10101000F406313208F04AC08091D1068111FCCF2C
:101020009091B60742E04093D1062093D0062FEF6F
:101030002093CF061092CE063093CD06E4EDF6E075
:10104000ADEAB6E020E0321721F041914D932F5FD9
:10105000FACF1092AC062091AC06990F922B909388
:10106000AC069091AB06913061F41092AB06909172
:10107000AC069093BB009091BC0093FDF8CF95EC2B
:1010800001C095EE9093BC009091D1069230E1F3AF
:101090009091CF069F3F79F08091CF06803241F04A
:1010A0008091CF06803331F084E005C081E003C039
:1010B00082E001C083E01092D3061092F4061092F1
:1010C000D2060895CF92DF92EF92FF920F931F9373
:1010D000CF93DF936C017A018B01C0E0D0E0CE1595
:1010E000DF0581F0D8016D918D01D601ED91FC9164
:1010F0000190F081E02DC6011995892B11F0219600
:10110000EECF7E01C701DF91CF911F910F91FF902C
:10111000EF90DF90CF900895009761F0FC0101906F
:101120000020E9F73197AF01481B590BBC0185EF4F
:1011300096E0C8CF80E090E00895CF93DF93EC0174
:1011400069EE75E00296D2DD84E392E099838883AC
:101150001E8281E08F83188661E080E071DB8EE380
:1011600092E099838883DF91CF910895CF93DF93A5
:10117000D3DFEC0187EE95E0CFDF8C0F9D1FDF9171
:10118000CF910895C9CF8F929F92AF92BF920F9344
:101190001F93CF93DF93CDB7DEB7A1970FB6F89427
:1011A000DEBF0FBECDBF19A2423008F44AE08E0167
:1011B0000F5D1F4F842E912CA12CB12CA501940101
:1011C00090D6E62FB901CA0101501109EA3014F492
:1011D000E05D01C0E95CD801EC93232B242B252B87
:1011E00069F7C80199DFA1960FB6F894DEBF0FBE6C
:1011F000CDBFDF91CF911F910F91BF90AF909F9086
:101200008F9008951092AA061092A9061092D30604
:101210001092F4061092D10681E08093D0061092CD
:10122000AB0661E084E1DADA61E085E1D7DAE9EB87
:10123000F0E080818E7F808380818D7F808388E451
:101240008093B80085E48093BC0008959091D10606
:101250009111FCCF613208F060E291E09093D106E9
:101260009093D0062FEF2093CF061092CE06260F34
:101270002093CD069093AC069091AC06880F892BF5
:101280008093AC068091AB06813061F41092AB067E
:101290008091AC068093BB008091BC0083FDF8CFA9
:1012A00085EC01C085EE8093BC008091D106813031
:1012B000E1F38091CE06861710F46091CE06ADEA78
:1012C000B6E0E9E8F6E080E0861721F09D91919381
:1012D0008F5FFACF1092AA068093A9060895FF9215
:1012E0000F931F93CF93DF93CDB7DEB72C970FB635
:1012F000F894DEBF0FBECDBF8C01CE01019639DE62
:10130000F80124813581428153816AEE75E080E0E5
:1013100073DCFF24F394F8018681F092D206809367
:10132000B6071092D3061092F40681E06FDE8111A9
:101330002CC0CE010196EBDC693E7340810591051E
:101340005CF0F801248135814281538162E076E0CE
:1013500083E052DC80E023C0F801868191E0909325
:10136000D2068093B6071092D3061092F40681E05D
:101370004DDE8111E6CFF801248135814281538110
:101380006EE176E039DC81E00AC0CE010196BFDC77
:10139000683E7340810591050CF4BDCFCACF2C96F1
:1013A0000FB6F894DEBF0FBECDBFDF91CF911F9176
:1013B0000F91FF900895789484B5826084BD84B5C0
:1013C000816084BD85B5826085BD85B5816085BD40
:1013D00080916E00816080936E00109281008091F8
:1013E0008100826080938100809181008160809380
:1013F0008100809180008160809380008091B100A5
:1014000084608093B1008091B00081608093B000CF
:101410008091910082608093910080919100816021
:1014200080939100809190008160809390008091E2
:10143000A10082608093A1008091A10081608093CF
:10144000A1008091A00081608093A0008091210183
:10145000826080932101809121018160809321012C
:101460008091200181608093200180917A008460C6
:1014700080937A0080917A00826080937A008091D4
:101480007A00816080937A0080917A0080688093EE
:101490007A001092C100E0910507F091060782E002
:1014A0008083E0910507F09106071082E091010723
:1014B000F09102071082E0910307F091040780E1A8
:1014C000808310920D07E0910907F0910A0786E0EA
:1014D0008083E0910707F091080780818061808315
:1014E000E0910707F0910807808188608083E09190
:1014F0000707F0910807808180688083E0910707E3
:10150000F091080780818F7D808389E090E013D57A
:10151000EC0165E772E00296E9DB84E392E09983EF
:1015200088838DE08E8381E08F83188661E08DE073
:1015300087D98AE092E099838883D0933A06C09352
:10154000390680E892E012DEBBD96B017C0150EDD8
:10155000852E57E0952EA12CB12CB2D9DC01CB0100
:101560008C199D09AE09BF09883E9340A105B105BC
:10157000A0F311E0811A9108A108B10828EEC20E6B
:1015800023E0D21EE11CF11C81149104A104B104DA
:1015900021F787EA92E0EADD84E190E0CCD4EC0127
:1015A0006FEB72E00296A2DB84E192E0998388837C
:1015B00085E08E8327DE8CE192E0998388831F8209
:1015C000CE010896D6DC8AE090E0B5D4EC0169EC57
:1015D00072E08CDB83E290E0AED48C0146E066EDF5
:1015E00072E0F6DC1D830C8383E290E0A4D48C01CE
:1015F00047E064EE72E0ECDC1F830E8383E290E050
:101600009AD48C0148E062EF72E0E2DC1987088727
:101610008AE690E090D4EC0160E073E067DB8AE05A
:1016200090E089D47C016AE073E060DB0FEF13E0A7
:10163000D70115961C930E931497F7011682178203
:1016400010861186FD82EC828AE090E074D47C01E1
:1016500061E173E04BDBD70115961C930E93149751
:10166000F7011682178210861186FF82EE828AE0C9
:1016700090E061D47C0168E173E038DBD701159616
:101680001C930E931497F701168217821086118609
:10169000F986E8868AE090E04ED47C016FE173E041
:1016A00025DBD70115961C930E931497F70116822C
:1016B000178210861186FB86EA868AE090E03BD48A
:1016C0007C0166E273E012DBD70115961C930E9342
:1016D0001497F7011682178210861186FD86EC8614
:1016E0008AE090E028D47C016DE273E0FFDAD70154
:1016F00015961C930E931497F70116821782108685
:101700001186FF86EE868AE090E015D47C0164E3C2
:1017100073E0ECDAD70115961C930E931497F7013A
:101720001682178210861186F98AE88A8AE090E08C
:1017300002D47C016BE373E0D9DAD70115961C93D0
:101740000E931497F7011682178210861186FB8A72
:10175000EA8A8AE090E0EFD37C0162E473E0C6DAC3
:10176000D70115961C930E931497F70116821782D2
:1017700010861186FD8AEC8A8AE090E0DCD37C0139
:1017800069E473E0B3DAD70115961C930E931497AE
:10179000F7011682178210861186FF8AEE8A8AE088
:1017A00090E0C9D37C0160E573E0A0DAD70115961B
:1017B0001C930E931497F7011682178210861186D8
:1017C000F98EE88E8AE090E0B6D37C0168E573E09C
:1017D0008DDAD70115961C930E931497F701168294
:1017E000178210861186FB8EEA8E8AE090E0A3D3E2
:1017F0007C0160E673E07ADAD70115961C930E93AC
:101800001497F7011682178210861186FD8EEC8ED2
:101810008AE090E090D37C0168E673E067DAD70154
:1018200015961C930E931497F70116821782108653
:101830001186FF8EEE8E8AE090E07DD37C0160E71A
:1018400073E054DAD70115961C930E931497F701A1
:101850001682178210861186F9A2E8A28AE090E02B
:101860006AD37C0168E773E041DAD70115961C93CF
:101870000E931497F7011682178210861186FBA229
:10188000EAA28AE090E057D37C0160E873E02EDAA8
:10189000D70115961C930E931497F70116821782A1
:1018A00010861186FDA2ECA28AE090E044D37C0170
:1018B00068E873E01BDAD70115961C930E93149712
:1018C000F7011682178210861186FFA2EEA28AE027
:1018D00090E031D37C0160E973E008DAD701159616
:1018E0001C930E931497F7011682178210861186A7
:1018F000F9A6E8A68AE090E01ED37C0168E973E0CF
:10190000F5D9D70115961C930E931497F7011682FB
:10191000178210861186FBA6EAA68AE090E00BD318
:101920007C0160EA73E0E2D9D70115961C930E930F
:101930001497F7011682178210861186FDA6ECA671
:101940008AE090E0F8D27C0168EA73E0CFD9D70151
:1019500015961C930E931497F70116821782108622
:101960001186FFA6EEA68AE090E0E5D27C0160EB4E
:1019700073E0BCD9D70115961C930E931497F70109
:101980001682178210861186F9AAE8AA8AE090E0EA
:10199000D2D27C0168EB73E0A9D9D70115961C93CC
:1019A0000E931497F7011682178210861186FBAAF0
:1019B000EAAA83E290E0BFD28C0142E060EC73E0DF
:1019C000E9DA1DAB0CAB83E290E0B5D28C0143E0C9
:1019D0006BEC73E0DFDA1FAB0EAB83E290E0ABD2CF
:1019E0008C0144E066ED73E0D5DA19AF08AF8C8165
:1019F0009D819BAF8AAF8E819F819DAF8CAF888583
:101A000099859FAF8EAFFE01E05CFF4F8A859B8575
:101A10009183808332968C859D85918380833296D5
:101A20008E859F8591838083329688899989918359
:101A3000808332968A899B899183808332968C89B0
:101A40009D899183808332968E899F89918380833B
:101A50003296888D998D9183808332968A8D9B8D65
:101A60009183808332968C8D9D8D91838083329675
:101A70008E8D9F8D91838083329688A199A19183C9
:101A8000808332968AA19BA19183808332968CA118
:101A90009DA19183808332968EA19FA191838083A3
:101AA000329688A599A59183808332968AA59BA5B5
:101AB0009183808332968CA59DA5918380833296F5
:101AC0008EA59FA591838083329688A999A9918339
:101AD000808332968AA99BA991838083D09338060C
:101AE000C093370681EE93E041DBC0913706D09179
:101AF00038062A813B81488159816EE074E080E09C
:101B00007BD88CA99DA9EBDBF82E8EA99FA9E7DBDA
:101B1000082F88AD99ADE3DB182F2A813B814881DE
:101B20005981FF2021F0002311F0811141C066E2AC
:101B300074E083E061D8ECA9FDA98281938122DB66
:101B40008DE395E01FDBF11003C080E792E002C057
:101B500088E692E00BDBEEA9FFA98281938112DB7C
:101B60008DE395E00FDB011103C080E792E002C036
:101B700088E692E0FBDAE8ADF9AD8281938102DB81
:101B80008DE395E0FFDA111103C080E792E002C017
:101B900088E692E0EBDAF11007C0011105C01111DF
:101BA00003C082E594E002C08EE794E0DFDA04C06F
:101BB00062EB74E080E020D880913206833021F41B
:101BC00082ED94E0D3DA0FC083EF94E0CFDA809116
:101BD000390690913A06DC01ED91FC910280F38187
:101BE000E02D61E0199580913206833009F4D4C06C
:101BF000C0913706D09138068CA99DA9DC01ED91E2
:101C0000FC910280F381E02D19958EA99FA9DC013A
:101C1000ED91FC910280F381E02D199588AD99AD8D
:101C2000DC01ED91FC910280F381E02D19958C810E
:101C30009D819BAF8AAF8E819F819DAF8CAF888540
:101C400099859FAF8EAFFE01E05CFF4F8A859B8533
:101C50009183808332968C859D8591838083329693
:101C60008E859F8591838083329688899989918317
:101C7000808332968A899B899183808332968C896E
:101C80009D899183808332968E899F8991838083F9
:101C90003296888D998D9183808332968A8D9B8D23
:101CA0009183808332968C8D9D8D91838083329633
:101CB0008E8D9F8D91838083329688A199A1918387
:101CC000808332968AA19BA19183808332968CA1D6
:101CD0009DA19183808332968EA19FA19183808361
:101CE000329688A599A59183808332968AA59BA573
:101CF0009183808332968CA59DA5918380833296B3
:101D00008EA59FA591838083329688A999A99183F6
:101D1000808332968AA99BA991838083DE0120E08B
:101D200030E0C9012831310514F087E190E08830B6
:101D300091051CF4ECA9FDA90AC08031910524F499
:101D4000EEA9FFA9089703C0E8ADF9AD4097880F49
:101D5000991FE80FF91F47815085DA966D917C91A4
:101D6000DB97FB0155834483C90101976D018F3FC8
:101D7000FFEF9F0799F1F60100AD11ADF2E0CF1A28
:101D8000D108F801E480F580E416F50638F1F60193
:101D900015AF04AF0197EBCF8AEA97E00E94870660
:101DA0006333710581059105B4F0809139069091F6
:101DB0003A0661E0DC0118962C91213009F460E0CC
:101DC000DC01ED91FC910280F381E02D19958AEA06
:101DD00097E00E94AC060E94320205CFFC017E967D
:101DE000EE0FFF1FEC0FFD1F718360832F5F3F4FCE
:101DF00012962831310509F094CFC0903306D09067
:101E00003406E0903506F0903606FFEFCF1ADF0A71
:101E1000EF0AFF0AC0923306D0923406E0923506EC
:101E2000F09236068EE997E00E948706693E73407D
:101E30008105910584F24AE0C701B601A4D986E183
:101E400095E094D91092330610923406109235061C
:101E5000109236068EE997E0BCCFE5EFF6E01382EC
:101E6000128288EE93E0A0E0B0E084839583A6839D
:101E7000B78328E432E03183208325EC30E03587D6
:101E8000248724EC30E03787268720EC30E0318B44
:101E9000208B21EC30E0338B228B22EC30E0358B31
:101EA000248B26EC30E0378B268B118E128E138E0E
:101EB000148EE2E9F7E01382128284839583A6836D
:101EC000B7838AE592E0918380838AEA97E051D8CC
:101ED00080EC97E032D987EB97E02FD98EE997E035
:101EE00048C8A1E21A2EAA1BBB1BFD010DC0AA1FE8
:101EF000BB1FEE1FFF1FA217B307E407F50720F073
:101F0000A21BB30BE40BF50B661F771F881F991FED
:101F10001A9469F760957095809590959B01AC0136
:101F2000BD01CF010895EE0FFF1F881F8BBF0790E3
:101F3000F691E02D19940F931F93CF93DF93823086
:101F4000910510F482E090E0E091CB07F091CC078E
:101F500020E030E0A0E0B0E0309719F140815181FD
:101F60000281138148175907C8F08417950769F44F
:101F7000109731F012960C93129713961C9327C06A
:101F80000093CB071093CC0722C02115310519F01F
:101F90004217530718F49A01BD01EF01DF01F80160
:101FA000DBCF21153105F9F0281B390B2430310521
:101FB00080F48A819B816115710521F0FB01938377
:101FC000828304C09093CC078093CB07FE013296A6
:101FD00044C0FE01E20FF31F819391932250310917
:101FE000398328833AC02091C9073091CA07232B2F
:101FF00041F420910202309103023093CA072093EA
:10200000C90720910002309101022115310541F4E8
:102010002DB73EB74091040250910502241B350BA9
:10202000E091C907F091CA07E217F307A0F42E1B4D
:102030003F0B2817390778F0AC014E5F5F4F24172C
:10204000350748F04E0F5F1F5093CA074093C907EA
:102050008193919302C0E0E0F0E0CF01DF91CF9156
:102060001F910F910895CF93DF93009709F481C0DA
:10207000FC01329713821282A091CB07B091CC075A
:10208000109781F420813181820F931F2091C9071D
:102090003091CA072817390751F5F093CA07E09322
:1020A000C90767C0ED0120E030E0CE17DF0740F43C
:1020B0004A815B819E0141155105F1F0EA01F5CF9E
:1020C000D383C28340815181840F951FC817D907DC
:1020D00059F488819981840F951F0296918380839A
:1020E0008A819B81938382832115310529F4F093A2
:1020F000CC07E093CB073DC0E901FB83EA8349911C
:102100005991C40FD51FEC17FD0761F480819181AF
:10211000840F951F0296E9019983888382819381B8
:102120009B838A83E0E0F0E012968D919C91139757
:10213000009719F0FD01DC01F7CF8D919C9111976B
:102140009D012E5F3F4F820F931F2091C907309151
:10215000CA072817390769F4309729F41092CC0779
:102160001092CB0702C013821282B093CA07A093C9
:10217000C907DF91CF91089581E090E0F89400C005
:04218000F894FFCF01
:102184000000CD078000000000005A061C04510620
:10219400000000007803AA0300000000780376071B
:1021A4000000000078032307000000007803C40641
:1021B400000000007C031C045C04000000007C039D
:1021C4006D0664060000000050016208F501CD03AD
:1021D400260204021802000000004A031E037903C9
:1021E400F20216030203F3025355434345535300CB
:1021F4004641494C004C45445F5374617475730007
:1022040057616974696E6720666F7220636F6D70C1
:102214006C6574652073797374656D20706F776570
:102224007275702E2E2E00496E697469616C697A1C
:10223400696E6720646576696365732E2E2E004C83
:102244006967687467617465004C6967687453658D
:102254006E736F7273004C6967687453656E736F45
:10226400725F31004C6967687453656E736F725F97
:1022740032004C6967687453656E736F725F330024
:10228400495253656E736F72730054534F505F30ED
:102294000054534F505F310054534F505F32005439
:1022A400534F505F330054534F505F340054534FD7
:1022B400505F350054534F505F360054534F505FB6
:1022C400370054534F505F380054534F505F390018
:1022D40054534F505F31300054534F505F313100ED
:1022E40054534F505F31320054534F505F313300D9
:1022F40054534F505F31340054534F505F313500C5
:1023040054534F505F31360054534F505F313700B0
:1023140054534F505F31380054534F505F3139009C
:1023240054534F505F32300054534F505F3231009A
:1023340054534F505F32320054534F505F32330086
:10234400495253656E736F725F3100495253656E23
:10235400736F725F3200495253656E736F725F33ED
:1023640000496E697469616C7A6564206465766994
:102374006365732C20766572696679696E6720637C
:102384006F6E6E656374696F6E732E2E2E004368D4
:1023940065636B696E6720636F6E6E656374696FE6
:1023A4006E732E2E2E0050726F626C656D207769ED
:1023B400746820636F6E6E656374696E6720746FF2
:1023C4002049522073656E736F7220617272617955
:1023D4007300506F737369626C65206973737565FC
:1023E400207769746820636F6E6E656374696F6EBD
:1023F40020746F2074686520626F61726400506F8E
:10240400737369626C652069737375652077697489
:102414006820636F6E6E656374696F6E7320746F8A
:102424002049522073656E736F72206172726179F4
:102434007300436F6E6E65637465642077697468B6
:102444002049522073656E736F72206172726179D4
:102454007300566572696669636174696F6E20639F
:102464006F6E6E656374696F6E73206661696C6507
:10247400642100566572696669636174696F6E20D0
:10248400636F6E6E656374696F6E7320636F6D70D6
:102494006C657465640020557064617465732F7392
:1024A40000494E464F005741524E00435249540092
:1024B4003F3F3F3F005B220022202849443A20004E
:1024C400295D005B005D3A200043616E6E6F7420ED
:1024D4006368616E67652070696E206D6F64652046
:1024E40077697468207468697320646576696365C4
:1024F4000043616E6E6F74207265616420612064B4
:1025040069676974616C2076616C7565207769749C
:102514006820746869732064657669636500436143
:102524006E6E6F74207772697465206120646967C8
:102534006974616C2076616C756520746F207468B1
:10254400697320646576696365004661696C6564D6
:1025540020746F206765742073656E736F722064D6
:10256400617461212121000D0A0056657269667942
:10257400696E6720636F6E6E656374696F6E2E2E6D
:102584002E004661696C656420746F20636F6E6E03
:10259400656374202874696D656F757429005665C8
:1025A400726966656420636F6E6E656374696F6ECD
:0225B400000025
:020000023000CC
:10E000000D9489F10D94B2F10D94B2F10D94B2F129
:10E010000D94B2F10D94B2F10D94B2F10D94B2F1F0
:10E020000D94B2F10D94B2F10D94B2F10D94B2F1E0
:10E030000D94B2F10D94B2F10D94B2F10D94B2F1D0
:10E040000D94B2F10D94B2F10D94B2F10D94B2F1C0
:10E050000D94B2F10D94B2F10D94B2F10D94B2F1B0
:10E060000D94B2F10D94B2F10D94B2F10D94B2F1A0
:10E070000D94B2F10D94B2F10D94B2F10D94B2F190
:10E080000D94B2F10D94B2F10D94B2F10D94B2F180
:10E090000D94B2F10D94B2F10D94B2F10D94B2F170
:10E0A0000D94B2F10D94B2F10D94B2F10D94B2F160
:10E0B0000D94B2F10D94B2F10D94B2F10D94B2F150
:10E0C0000D94B2F10D94B2F10D94B2F10D94B2F140
:10E0D0000D94B2F10D94B2F10D94B2F10D94B2F130
:10E0E0000D94B2F141546D656761323536300041AF
:10E0F000726475696E6F206578706C6F72657220DE
:10E1000073746B3530305632206279204D4C530099
:10E11000426F6F746C6F616465723E004875683F52
:10E1200000436F6D70696C6564206F6E203D200048
:10E130004350552054797065202020203D20005FF9
:10E140005F4156525F415243485F5F3D2000415658
:10E1500052204C696243205665723D20004743437C
:10E160002056657273696F6E203D20004350552024
:10E1700049442020202020203D20004C6F7720663D
:10E18000757365202020203D20004869676820665F
:10E190007573652020203D200045787420667573D6
:10E1A00065202020203D20004C6F636B2066757336
:10E1B000652020203D20004D617220203720323024
:10E1C000313300312E362E3800342E332E350056A2
:10E1D00023202020414444522020206F7020636F70
:10E1E00064652020202020696E73747275637469E1
:10E1F0006F6E2061646472202020496E74657272B3
:10E20000757074006E6F20766563746F7200726A49
:10E210006D702020006A6D70200057686174207056
:10E220006F72743A00506F7274206E6F7420737541
:10E2300070706F72746564004D7573742062652030
:10E2400061206C6574746572002000577269747483
:10E25000696E672045450052656164696E672045B7
:10E26000450045452065727220636E743D00504F35
:10E27000525400303D5A65726F2061646472003FF1
:10E280003D43505520737461747300403D454550C3
:10E29000524F4D207465737400423D426C696E6B41
:10E2A000204C454400453D44756D70204545505215
:10E2B0004F4D00463D44756D7020464C415348001B
:10E2C000483D48656C70004C3D4C69737420492F83
:10E2D0004F20506F72747300513D51756974005234
:10E2E0003D44756D702052414D00563D73686F7707
:10E2F00020696E7465727275707420566563746FF0
:10E30000727300593D506F727420626C696E6B00BD
:10E310002A0011241FBECFEFD1E2DEBFCDBF01E046
:10E320000CBF12E0A0E0B2E0EEE1FDEF03E00BBFB6
:10E3300002C007900D92A030B107D9F712E0A0E01B
:10E34000B2E001C01D92AE30B107E1F70F9460F367
:10E350000D948DFE01E20EBF0FEF0DBF11241FBE05
:10E360000D9460F30D9400F020E030E040ED57E0B4
:10E3700005C0FA013197F1F72F5F3F4F2817390792
:10E38000C0F308959C01260F311DC901A0E0B0E043
:10E390002F5F3F4FABBFFC018791882361F08093D3
:10E3A000C6008091C00086FFFCCF8091C0008064D1
:10E3B0008093C000EACF08958DE08093C6008091DD
:10E3C000C00086FFFCCF8091C00080648093C000B5
:10E3D0008AE08093C6008091C00086FFFCCF8091C8
:10E3E000C00080648093C00008950F94C2F10F9420
:10E3F000DCF10895FC019081992359F09093C600B7
:10E400008091C00086FFFCCF8091C0008064809323
:10E41000C0003196992379F70895282F982F929567
:10E420009F70892F805D8A3308F0895F8093C600D2
:10E430008091C00086FFFCCF8091C00080648093F3
:10E44000C000822F8F70982F905D9A3308F0995FEB
:10E450009093C6008091C00086FFFCCF8091C000E1
:10E4600080648093C00008959C01FB01853691056E
:10E470001CF46330710594F0C90164E670E00F94F8
:10E480002EFE605D7F4F6093C6008091C00086FFC6
:10E49000FCCF8091C00080648093C0002B30310598
:10E4A00014F43297B4F0C90164E670E00F942EFEC4
:10E4B0006AE070E00F942EFE605D7F4F6093C600AF
:10E4C0008091C00086FFFCCF8091C0008064809363
:10E4D000C000C9016AE070E00F942EFEC0968093E0
:10E4E000C6008091C00086FFFCCF8091C000806490
:10E4F0008093C00008951F93182F8EE692EE60E07F
:10E500000F94C2F11093C6008091C00086FFFCCF2B
:10E510008091C00080648093C0000F94DCF11F9153
:10E5200008952F923F924F925F926F927F928F92B7
:10E530009F92AF92BF92CF92DF92EF92FF920F9392
:10E540001F93DF93CF93CDB7DEB762970FB6F894E2
:10E55000DEBF0FBECDBF382E622ECA01DB015C01CB
:10E560006D01772420E2222E2E010894411C511CBB
:10E570008BC081E0A81680E0B80681E0C80680E084
:10E58000D80628F0C601AA27BB270F940DF2BB2797
:10E59000AD2D9C2D8B2D0F940DF28A2D0F940DF225
:10E5A0002092C6008091C00086FFFCCF8091C00001
:10E5B00080648093C0009DE29093C6008091C0006B
:10E5C00086FFFCCF8091C00080648093C0002092C1
:10E5D000C6008091C00086FFFCCF8091C00080649F
:10E5E0008093C00019828601750188249924A1E0D6
:10E5F0003A1651F03A1620F0B2E03B1661F409C029
:10E600000BBFF701779007C0C7010F9477FE782EF4
:10E6100002C0F7017080872D0F940DF22092C60082
:10E620008091C00086FFFCCF8091C0008064809301
:10E63000C000872D8052F401EF70F0708F3520F408
:10E64000E40DF51D708204C0E40DF51D8EE280839B
:10E650000894E11CF11C011D111D0894811C911CE2
:10E6600090E18916910409F0C2CF80E190E0A0E02A
:10E67000B0E0A80EB91ECA1EDB1E198AC2010F9493
:10E68000FAF10F94DCF16A94662009F072CF629679
:10E690000FB6F894DEBF0FBECDBFCF91DF911F91B3
:10E6A0000F91FF90EF90DF90CF90BF90AF909F9031
:10E6B0008F907F906F905F904F903F902F90089534
:10E6C0002F923F924F925F926F927F928F929F9282
:10E6D000AF92BF92CF92DF92EF92FF920F931F9370
:10E6E000DF93CF93CDB7DEB7CD53D1400FB6F894BB
:10E6F000DEBF0FBECDBF01E20EBF0FEF0DBF94B75F
:10E70000F894A89514BE80916000886180936000A1
:10E7100010926000789493FF05C0E0910002F091A0
:10E7200001021995279A2F9A8091C00082608093E8
:10E73000C00080E18093C40088E18093C1000000A4
:10E74000EE24FF24870144E0A42EB12CCC24DD2448
:10E7500024C0C5010197F1F70894E11CF11C011DCB
:10E76000111D21E2E2162EE4F20620E0020720E06D
:10E77000120718F031E0C32ED12CC801B70127ECE5
:10E780003BE140E050E00F9441FE611571058105C9
:10E79000910519F485B1805885B98091C00087FD35
:10E7A00003C0C114D104A9F2A6014F5F5F4FC25E3E
:10E7B000DE4F59834883CE51D140C25EDE4F8881FF
:10E7C0009981CE51D140019711F00D9410FEC05D9A
:10E7D000DE4F19821882C053D14060E0C15DDE4F28
:10E7E0001882CF52D14088249924C35DDE4F19820C
:10E7F0001882CD52D140C05EDE4F188219821A8233
:10E800001B82C052D140CE5CDE4F188219821A8220
:10E810001B82C253D140EE24FF2487010BBFF701B6
:10E8200007911691C45CDE4F19830883CC53D14005
:10E830000D940BFEC25EDE4F28813981CE51D1404E
:10E840002130310509F52091C600C25EDE4F1982E4
:10E850001882CE51D14022C02F5F3F4F4F4F5F4FA4
:10E86000213082E138078AE7480780E0580780F0C6
:10E87000C45CDE4FE881F981CC53D140EF5FFF4F9C
:10E8800019F0EE27FF27099420E030E040E050E047
:10E890008091C00087FFE0CF2091C600C35DDE4FAE
:10E8A00048815981CD52D1404F5F5F4FC35DDE4FEC
:10E8B00059834883CD52D140213209F063C64A3092
:10E8C000510508F05FC60894811C911C53E0851621
:10E8D000910409F059C600E010E018C081E280936D
:10E8E000C6008091C00086FFFCCF8091C00080648C
:10E8F0008093C0002F5F3F4F2931310579F70F9486
:10E90000DCF10F5F1F4F0530110519F020E030E0FA
:10E91000E5CF10920A0210920B0210920C02109294
:10E920000D02109206021092070210920802109235
:10E930000902109202021092030210920402109235
:10E9400005028FEE90EE60E00F94F5F180E191EE1C
:10E9500060E00F94C2F18091C00087FFFCCF9091DE
:10E96000C600903608F09F759032B8F09093C600BC
:10E970008091C00086FFFCCF8091C00080648093AE
:10E98000C000A0E2A093C6008091C00086FFFCCF2B
:10E990008091C00080648093C000983409F4D7C18E
:10E9A0009934B8F4923409F459C1933458F490333B
:10E9B00019F1903308F4E3C59F33A1F1903409F0C5
:10E9C000DEC5BDC0953409F470C1963409F0D7C5D1
:10E9D00098C1923509F42BC2933538F49C3409F46C
:10E9E000F5C1913509F0CBC518C2963509F445C279
:10E9F000993509F0C4C567C483E792EE62E00F94CD
:10EA0000F5F110920602109207021092080210927D
:10EA1000090210920A0210920B0210920C0210923C
:10EA20000D0213C18FE792EE62E00F94F5F18FEEC5
:10EA300090EE60E00F94F5F181E291EE60E00F94CA
:10EA4000C2F187EB91EE60E00F94F5F180E391EE77
:10EA500060E00F94C2F184EE90EE60E00F94F5F167
:10EA60008FE391EE60E00F94C2F186E090E061E008
:10EA700070E00F9434F20F94DCF18DE591EE60E0DC
:10EA80000F94C2F189EC91EE60E00F94F5F18EE401
:10EA900091EE60E00F94C2F183EC91EE60E00F9490
:10EAA000F5F18CE691EE60E00F94C2F18EE10F94E7
:10EAB0000DF288E90F940DF281E00F940DF20F949E
:10EAC000DCF18BE791EE60E00F94C2F119E0E0E039
:10EAD000F0E010935700E4918E2F0F940DF20F94F5
:10EAE000DCF18AE891EE60E00F94C2F1E3E0F0E03F
:10EAF00010935700E4918E2F0F940DF20F94DCF1D8
:10EB000089E991EE60E00F94C2F1E2E0F0E0109349
:10EB10005700E4918E2F0F940DF20F94DCF188EAE8
:10EB200091EE60E00F94C2F1E1E0F0E01093570045
:10EB30001491812F0F940DF20F94DCF107CF8BE825
:10EB400092EE62E00F94F5F18BE492EE60E00F94A8
:10EB5000F5F10F94DCF100E010E019C0C8016F2D51
:10EB60000F947FFEFF2031F489E492EE60E00F9471
:10EB7000C2F10BC0F092C6008091C00086FFFCCFAE
:10EB80008091C00080648093C0000F5F1F4FC80158
:10EB900081519F41A0E0B0E0ABBFFC01F790BAE229
:10EBA000FB1621F0E2E000301E07C1F60F94DCF105
:10EBB0000F94DCF187E592EE60E00F94F5F10F948D
:10EBC000DCF1CC24DD2400E010E01EC0C8010F946D
:10EBD00077FEF82E882331F489E492EE60E00F94FA
:10EBE000C2F10BC08093C6008091C00086FFFCCFAD
:10EBF0008091C00080648093C000FE1419F00894D6
:10EC0000C11CD11C0F5F1F4FC80181519F41A0E063
:10EC1000B0E0ABBFFC01E790FAE2EF1621F022E092
:10EC20000030120799F60F94DCF10F94DCF182E6C4
:10EC300092EE60E00F94C2F1C60161E070E00F94C3
:10EC400034F20F94DCF10F94DCF110920202109276
:10EC50000302109204021092050278CE89E992EE26
:10EC600062E00F94F5F1279A2F9A16C02F9880E052
:10EC700090E0E0EDF7E03197F1F7019684369105E9
:10EC8000C1F72F9A80E090E0E0EDF7E03197F1F7DF
:10EC9000019684369105C1F78091C00087FFE6CFC9
:10ECA0008091C00087FFFCCF64C485EA92EE62E0E9
:10ECB0000F94F5F140910202509103026091040219
:10ECC0007091050281E020E10F9491F2809102029F
:10ECD00090910302A0910402B091050280509F4FD1
:10ECE000AF4FBF4F8093020290930302A0930402A0
:10ECF000B093050280509041A040B04008F426CE69
:10ED0000A4CF83EB92EE62E00F94F5F140910602FE
:10ED100050910702609108027091090280E020E1A1
:10ED20000F9491F28091060290910702A09108023F
:10ED3000B091090280509F4FAF4FBF4F80930602A2
:10ED400090930702A0930802B0930902FFCD80ECD4
:10ED500092EE62E00F94F5F183E792EE60E00F949B
:10ED6000F5F18FE792EE60E00F94F5F18BE892EE0B
:10ED700060E00F94F5F189E992EE60E00F94F5F10F
:10ED800085EA92EE60E00F94F5F183EB92EE60E09D
:10ED90000F94F5F180EC92EE60E00F94F5F187ECC2
:10EDA00092EE60E00F94F5F188ED92EE60E00F9442
:10EDB000F5F18FED92EE60E00F94F5F18AEE92EEB0
:10EDC00060E00F94F5F183E093EEBDCD87EC92EE19
:10EDD00062E00F94F5F181E40F947BF282E40F94EA
:10EDE0007BF283E40F947BF284E40F947BF285E45E
:10EDF0000F947BF286E40F947BF287E40F947BF20E
:10EE000088E40F947BF28AE40F947BF28BE40F94F6
:10EE10007BF28CE40F947BF299CD88ED92EE62E068
:10EE20000F94F5F1772473948824992409C48FED05
:10EE300092EE62E00F94F5F140910A0250910B02BC
:10EE400060910C0270910D0282E020E10F9491F22A
:10EE500080910A0290910B02A0910C02B0910D02D8
:10EE600080509F4FAF4FBF4F80930A0290930B0289
:10EE7000A0930C02B0930D0269CD8AEE92EE62E08F
:10EE80000F94F5F184EE90EE60E00F94F5F18FECC5
:10EE900091EE60E00F94F5F1662477244301CC5D98
:10EEA000DE4F19821882C452D140D401C301B695F5
:10EEB000A79597958795CA5DDE4F88839983AA8326
:10EEC000BB83C652D140CC5DDE4FA881B981C4520C
:10EED000D1401196CC5DDE4FB983A883C452D14096
:10EEE000CD0162E070E00F9434F2B0E2B093C6005E
:10EEF0008091C00086FFFCCF8091C0008064809329
:10EF0000C000EDE2E093C6008091C00086FFFCCF18
:10EF10008091C00080648093C000F0E2F093C6004E
:10EF20008091C00086FFFCCF8091C00080648093F8
:10EF3000C000CA5DDE4FE880F9800A811B81C6529D
:10EF4000D140BB27A12F902F8F2D0F940DF2CA5DBA
:10EF5000DE4F8881C652D1400F940DF2B0E2FB2EF5
:10EF6000F092C6008091C00086FFFCCF8091C00067
:10EF700080648093C0000DE30093C6008091C000C0
:10EF800086FFFCCF8091C00080648093C00010E2B7
:10EF90001093C6008091C00086FFFCCF8091C00016
:10EFA00080648093C0008BBEF3012791C65DDE4F65
:10EFB0002883CA52D140A22EBB24CC24DD2408943D
:10EFC000611C711C811C911C8BBEF3018791282E42
:10EFD0003324442455240894611C711C811C911C09
:10EFE0008BBEF3013791C55DDE4F3883CB52D140E4
:10EFF0000894611C711C811C911C8BBEF30147910C
:10F00000C45DDE4F4883CC52D140ADEFEA2EAFEF66
:10F01000FA2EAFEF0A2FAFEF1A2F6E0C7F1C801E57
:10F02000911E142D032DF22CEE24EA0CFB1C0C1D5A
:10F030001D1D0F940DF220E22093C6008091C000A8
:10F0400086FFFCCF8091C00080648093C000C65DC5
:10F05000DE4F8881CA52D1400F940DF230E23093D6
:10F06000C6008091C00086FFFCCF8091C000806404
:10F070008093C000C45DDE4F8881CC52D1400F9494
:10F080000DF240E24093C6008091C00086FFFCCFA5
:10F090008091C00080648093C000C55DDE4F888190
:10F0A000CB52D1400F940DF250E25093C6008091A4
:10F0B000C00086FFFCCF8091C00080648093C000B8
:10F0C0008FEFE8168FEFF80680E0080780E018075A
:10F0D00031F484E092EE60E00F94C2F1DFC0D80119
:10F0E000C7018070907CA070B0708050904CA040A0
:10F0F000B040D1F52FEF3FE340E050E0E222F322B1
:10F1000004231523CA5DDE4FA880B980CA80DB8046
:10F11000C652D140AE0CBF1CC01ED11EAA0CBB1CD7
:10F12000CC1CDD1C8EE092EE60E00F94C2F1BB2798
:10F13000A12F902F8F2D0F940DF28E2D0F940DF285
:10F1400030E23093C6008091C00086FFFCCF8091F2
:10F15000C00080648093C0004EE34093C60080915D
:10F16000C00086FFFCCF87C08EE09EEFA0E0B0E03D
:10F17000E822F9220A231B239CE0E91694E9F90608
:10F1800090E0090790E0190709F088C0C45DDE4FE0
:10F19000A881CC52D140EA2EFF2400E010E0102FCD
:10F1A0000F2DFE2CEE24C55DDE4FB881CB52D14031
:10F1B000EB0EF11C011D111DD601C501817090706F
:10F1C000A070B070DC0199278827E80EF91E0A1F8D
:10F1D0001B1F20EF30E040E050E0A222B322C42207
:10F1E000D52241E1AA0CBB1CCC1CDD1C4A95D1F7F1
:10F1F000EA0CFB1C0C1D1D1D81E090E0A0E0B0E0BE
:10F20000282239224A225B2235E1220C331C441C7D
:10F21000551C3A95D1F7E20CF31C041D151D57013E
:10F220006801AA0CBB1CCC1CDD1C85E192EE60E0E1
:10F230000F94C2F1C801AA27BB270F940DF2BB2778
:10F24000A12F902F8F2D0F940DF28E2D0F940DF274
:10F2500090E29093C6008091C00086FFFCCF809121
:10F26000C00080648093C000AEE3A093C60080918C
:10F27000C00086FFFCCF8091C00080648093C000F6
:10F28000C601AA27BB270F940DF2BB27AD2D9C2DDD
:10F290008B2D0F940DF28A2D0F940DF20F94DCF14B
:10F2A000CC5DDE4FE881F981C452D140F99709F471
:10F2B0004DCBF4E0EF2EF12C012D112D6E0C7F1CA7
:10F2C000801E911EF2CD83E093EE62E00F94F5F183
:10F2D0008AE192EE60E00F94C2F18091C00087FF56
:10F2E000FCCF1091C6001F751093C6008091C0001E
:10F2F00086FFFCCF8091C00080648093C0000F9493
:10F30000DCF1812F81548A3108F036C1163409F4BA
:10F3100095C0173490F4133409F44EC0143430F40B
:10F320001134F1F0123409F01DC130C0143409F465
:10F3300059C0153409F016C16BC01A3409F4C4C0A1
:10F340001B3438F4173409F48FC0183409F00AC19B
:10F35000A1C01B3409F4D2C01C3409F003C1E8C0B9
:10F360008FEF81B90DC082B1809582B980E090E0C5
:10F37000E0EDF7E03197F1F70196883C9105C1F790
:10F380008091C00087FFEFCF12B8EFC08FEF84B934
:10F390000DC085B1809585B980E090E0E0EDF7E0A3
:10F3A0003197F1F70196883C9105C1F78091C00033
:10F3B00087FFEFCF15B8D9C08FEF87B90DC088B1DF
:10F3C000809588B980E090E0E0EDF7E03197F1F7C3
:10F3D0000196883C9105C1F78091C00087FFEFCF6F
:10F3E00018B8C3C08FEF8AB90DC08BB180958BB9A7
:10F3F00080E090E0E0EDF7E03197F1F70196883C8E
:10F400009105C1F78091C00087FFEFCF1BB8ADC059
:10F410008FEF8DB90DC08EB180958EB980E090E0F0
:10F42000E0EDF7E03197F1F70196883C9105C1F7DF
:10F430008091C00087FFEFCF1EB897C08FEF80BBD1
:10F440000DC081B3809581BB80E090E0E0EDF7E0F6
:10F450003197F1F70196883C9105C1F78091C00082
:10F4600087FFEFCF11BA81C08FEF83BB0DC084B38C
:10F47000809584BB80E090E0E0EDF7E03197F1F714
:10F480000196883C9105C1F78091C00087FFEFCFBE
:10F4900014BA6BC08FEF809301010FC080910201FD
:10F4A00080958093020180E090E0E0EDF7E03197F5
:10F4B000F1F70196883C9105C1F78091C00087FF64
:10F4C000EDCF1092020151C08FEF809304010FC065
:10F4D0008091050180958093050180E090E0E0ED4A
:10F4E000F7E03197F1F70196883C9105C1F78091DB
:10F4F000C00087FFEDCF1092050137C08FEF8093DA
:10F5000007010FC08091080180958093080180E079
:10F5100090E0E0EDF7E03197F1F70196883C910536
:10F52000C1F78091C00087FFEDCF109208011DC088
:10F530008FEF80930A010FC080910B01809580931B
:10F540000B0180E090E0E0EDF7E03197F1F70196F4
:10F55000883C9105C1F78091C00087FFEDCF1092E4
:10F560000B0103C085E292EEEEC98091C00087FFD7
:10F57000FCCF8091C600EAC988E392EEE4C98CE131
:10F5800091EEE1C988249924933011F1943028F444
:10F59000913089F09230B8F408C0953061F195301F
:10F5A000F0F0963009F048C043C02B3109F042C951
:10F5B00091E06BE13FC96227C15DDE4F2883CF52E6
:10F5C000D14092E037C9B22FA0E0622793E032C960
:10F5D000822F90E0A82BB92B622794E02BC92E3004
:10F5E00009F039C3622795E0C05DDE4F19821882A9
:10F5F000C053D1401FC9E1E0F0E0EC0FFD1FC05D3A
:10F60000DE4F08811981C053D140E00FF11F2083E4
:10F610000F5F1F4FC05DDE4F19830883C053D14079
:10F6200062270A171B0709F005C9D80196E002C92D
:10F63000261709F010C303C0973009F0FBC87724E0
:10F640009981933109F412C19431C8F4963009F4C8
:10F65000D8C0973050F4923009F406C1933009F4C1
:10F660006DC0913009F059C253C0913109F477C08F
:10F67000923108F0BBC0903109F04FC2F5C098310B
:10F6800009F487C0993150F4953109F4EFC09531F0
:10F6900008F4C6C1963109F040C2C2C19A3109F4DA
:10F6A0006CC09A3108F491C09B3109F45BC09D3164
:10F6B00009F033C29D81903359F48F81882311F46E
:10F6C0009EE11CC0813011F091E018C098E916C08D
:10F6D000892F807591F0903539F4E0E0F0E089E011
:10F6E0008093570094910AC0983539F4E3E0F0E034
:10F6F00089E080935700949101C090E01A821B82A8
:10F700008D818C831D829E831F8227E030E009C299
:10F710001A8288E08B8381E48C8386E58D8382E581
:10F720008E8389E48F8383E5888780E589878FE5E9
:10F730008A8782E38B872BE030E0F3C18A818139AD
:10F7400041F0823941F0803911F48FE005C080E04A
:10F7500003C082E001C08AE01A828B8344C0772410
:10F76000739482C08D81882311F48EE12CC0813086
:10F7700011F081E028C088E926C01A82E1E0F0E0BB
:10F7800089E08093570084918B831C8224E030E0D1
:10F79000C8C18B81803589F48C81883039F4E2E0EE
:10F7A000F0E089E08093570084910DC0E0E0F0E044
:10F7B00089E080935700849106C0E3E0F0E089E09F
:10F7C0008093570084911A82DFCF8D81836C99E0FA
:10F7D000E1E0F0E0082E90935700E89507B600FCB2
:10F7E000FDCF1A821B8223E030E09BC180EC8A832C
:10F7F000CE5CDE4F188219821A821B82C253D1401E
:10F800008EC18A8190E0A0E0B0E0582F44273327D2
:10F8100022278B8190E0A0E0B0E0DC0199278827C7
:10F82000282B392B4A2B5B2B8D8190E0A0E0B0E098
:10F83000282B392B4A2B5B2B8C8190E0A0E0B0E089
:10F84000BA2FA92F982F8827282B392B4A2B5B2BCF
:10F85000220F331F441F551FC05EDE4F288339839C
:10F860004A835B83C052D1401A8259C13A81C95C34
:10F87000DE4F3883C753D140CA5CDE4F1882C6536F
:10F88000D1408B81C82EDD24CA5CDE4F488159816E
:10F89000C653D140C42AD52A933109F082C0CE5C28
:10F8A000DE4F88819981AA81BB81C253D1408050AB
:10F8B000904CA340B04030F583E0CE5CDE4FE88052
:10F8C000F9800A811B81C253D140F70100935B008C
:10F8D00080935700E89507B600FCFDCFCE5CDE4F65
:10F8E000088119812A813B81C253D14000501F4FAA
:10F8F0002F4F3F4FCE5CDE4F088319832A833B8313
:10F90000C253D140C05EDE4F488159816A817B81FC
:10F91000C052D140DE011B9631E08C9111962C91A2
:10F9200011971296C75CDE4F2883C953D140C85C3B
:10F93000DE4F1882C853D14090E0C85CDE4FE881AA
:10F94000F981C853D1408E2B9F2B0C01FA01609393
:10F950005B0030935700E89511244E5F5F4F6F4F67
:10F960007F4F0EEFE02E0FEFF02ECE0CDF1CC114F8
:10F97000D10499F685E0C05EDE4F088119812A81A5
:10F980003B81C052D140F80120935B008093570027
:10F99000E89507B600FCFDCF81E180935700E8951C
:10F9A00035C0C05EDE4F88819981AA81BB81C0527B
:10F9B000D140B695A795979587957C018601ABE0D8
:10F9C000AA2EB12CAC0EBD1E0BC0D5016D915D01F0
:10F9D000C7010F947FFE0894E11CF11C01501040F8
:10F9E0000115110591F7A60160E070E0440F551F65
:10F9F000661F771FC05EDE4FE880F9800A811B8199
:10FA0000C052D1404E0D5F1D601F711F1A82C05E33
:10FA1000DE4F488359836A837B83C052D1407FC0C5
:10FA2000FA80C55CDE4FF882CB53D140C65CDE4F16
:10FA30001882CA53D1408B81C82EDD24C65CDE4FAC
:10FA400008811981CA53D140C02AD12A1A828981DA
:10FA5000BE016D5F7F4F843121F59601C05EDE4FA0
:10FA6000E880F9800A811B81C052D1400BBFF701A9
:10FA700087919691DB018C9311969C936E5F7F4FDB
:10FA8000D801C7010296A11DB11DC05EDE4F88835B
:10FA90009983AA83BB83C052D14022503040F1F6F3
:10FAA00036C0C05EDE4F288139814A815B81C052F9
:10FAB000D1400894C108D108760100E010E0089414
:10FAC000C11CD11C0894E11CF11C011D111DE20E8A
:10FAD000F31E041F151F21BDBB27A52F942F832FB5
:10FAE00082BD2F5F3F4F4F4F5F4FF89A80B5DB01CC
:10FAF0008D93BD012E153F054007510761F7C05E8C
:10FB0000DE4F288339834A835B83C052D1409601FC
:10FB10002D5F3F4FFB01108204C080EC8A8322E0FE
:10FB200030E08BE18093C6008091C00086FFFCCF5F
:10FB30008091C00080648093C000C15DDE4FF88179
:10FB4000CF52D140F093C6008091C00086FFFCCF19
:10FB50008091C00080648093C000432F3093C60022
:10FB60008091C00086FFFCCF8091C00080648093AC
:10FB7000C000922F2093C6008091C00086FFFCCF6A
:10FB80008091C00080648093C0008EE08093C600A6
:10FB90008091C00086FFFCCF8091C000806480937C
:10FBA000C00065E1C15DDE4FE880CF52D1406E25D7
:10FBB00069276427FE01319610C090819093C6009A
:10FBC0008091C00086FFFCCF31968091C000806498
:10FBD0008093C0006927215030402115310569F715
:10FBE0006093C6008091C00086FFFCCF8091C0006A
:10FBF00080648093C00085B1805885B9772081F4F6
:10FC0000C15DDE4F0881CF52D1400F5FC15DDE4F35
:10FC10000883CF52D14090E0A0E0B0E00D941AF4F8
:10FC200027982F9880E090E020ED37E0F901319798
:10FC3000F1F7019684369105C9F700008091C00064
:10FC40008D7F8093C00081E180935700E895EE2777
:10FC5000FF270994FFCF90E00D941AF497FB092E2B
:10FC600007260AD077FD04D02ED006D000201AF443
:10FC7000709561957F4F0895F6F7909581959F4F08
:10FC80000895A1E21A2EAA1BBB1BFD010DC0AA1FDD
:10FC9000BB1FEE1FFF1FA217B307E407F50720F0F5
:10FCA000A21BB30BE40BF50B661F771F881F991F70
:10FCB0001A9469F760957095809590959B01AC01B9
:10FCC000BD01CF010895AA1BBB1B51E107C0AA1FAC
:10FCD000BB1FA617B70710F0A61BB70B881F991FED
:10FCE0005A95A9F780959095BC01CD010895F99991
:10FCF000FECF92BD81BDF89A992780B50895262F31
:10FD0000F999FECF1FBA92BD81BD20BD0FB6F89400
:0EFD1000FA9AF99A0FBE01960895F894FFCF63
:040000033000E000E9
:00000001FF