:100000000C94C1000C94E9000C94E9000C94E900F4
:100010000C94E9000C94E9000C94E9000C94E900BC
:100020000C94E9000C94E9000C94E9000C94E900AC
:100030000C94E9000C94E9000C94E9000C94E9009C
:100040000C9460050C94E9000C94E9000C94E90010
:100050000C94E9000C94E9000C94E9000C94E9007C
:100060000C94E9000C94E9000C94E9000C94E9006C
:100070000C94E9000C94E9000C94E9000C94E9005C
:100080000C94E9000C94E9000C94E9000C94E9004C
:100090000C94E9000C94E9000C94E9000C94E9003C
:1000A0000C94AA050C94E9000C94E9000C94E90066
:1000B0000C94E9009101940187018B01B501B50110
:1000C00098019C01A201A601B501AC01B001F001AB
:1000D000F501FA0104024D024D020E0216021E0243
:1000E00028024D0233024202BB034D046B048B0411
:1000F000A504C304F404260505A84CCDB2D44EB91A
:100100003836A9020C50B9918688083CA6AAAA2ABA
:10011000BE000000803F0A0D0E090003020000042B
:1001200005080000000000000000000000000000C2
:100130000000000000250028002B002E0000000019
:1001400000240027002A002D0004040404040404F1
:100150000402020202020203030303030302020376
:10016000050505050102040810204080010204086D
:100170001020010204081020408040010204080001
:10018000CB0811241FBECFEFD8E0DEBFCDBF11E0FA
:10019000A0E0B1E0ECEAF9E102C005900D92A232D4
:1001A000B107D9F721E0A2E2B1E001C01D92AB3D59
:1001B000B207E1F710E0C1ECD0E004C02197FE01E6
:1001C0000E94A80BC03CD107C9F70E94D8060C9426
:1001D000D40C0C94000090E0FC01EC59FE4F2491EB
:1001E000FC01E75BFE4F8491882399F090E0880F33
:1001F000991FFC01E35CFE4FA591B491FC01EF5CFB
:10020000FE4F859194918FB7F894EC91E22BEC938B
:100210008FBF0895CF92DF92EF92FF920F931F93BB
:10022000CF93DF936C017A018B01C0E0D0E0CE1553
:10023000DF0581F0D8016D918D01D601ED91FC9122
:100240000190F081E02DC6010995892B11F02196CE
:10025000EECF7E01C701DF91CF911F910F91FF90EB
:10026000EF90DF90CF900895E091BB01F091BC0139
:10027000309729F01092B2011092B10109940895BB
:10028000CF93DF93AC01E091B901F091BA013097BF
:10029000F1F09091B4018091B3019817C0F090E013
:1002A000292F30E02617370754F4D901AE5DBE4F31
:1002B000EA01C20FD31F28812C939F5FF1CF1092C8
:1002C000B4016093B301CB01DF91CF910994DF9129
:1002D000CF910895362F90E0FC01EA5EFE4F4491E5
:1002E000FC01EC59FE4F2491FC01E75BFE4F849129
:1002F000882309F44EC04423C1F150E0FA0132973B
:10030000ED30F10590F5E65AFF4F0C94A80B909153
:1003100080009F7703C0909180009F7D9093800024
:1003200024C094B59F7702C094B59F7D94BD1DC035
:100330009091B0009F7703C09091B0009F7D909303
:10034000B00013C0909190009F7703C090919000EF
:100350009F7D9093900009C09091A0009F7703C06B
:100360009091A0009F7D9093A000E82FF0E0EE0F09
:10037000FF1FEF5CFE4FA591B4919FB7F894311128
:1003800004C08C912095282302C0EC912E2B2C9335
:100390009FBF08951F93CF93DF93182FEB010E9407
:1003A000EB00209711F460E004C0CF3FD10539F491
:1003B00061E0812FDF91CF911F910C946A01E12FB1
:1003C000F0E0EA5EFE4FE4918E2F90E0FC01329760
:1003D000ED30F10508F061C0E959FF4F0C94A80B0E
:1003E00084B5806884BDC7BD5DC084B5806284BDAE
:1003F000C8BD58C080918000806880938000D093F1
:100400008900C09388004EC08091800080628093F4
:100410008000D0938B00C0938A0044C08091B000CC
:1004200080688093B000C093B3003CC08091B0005E
:1004300080628093B000C093B40034C0809190007B
:10044000806880939000D0939900C09398002AC050
:100450005A9A80919000806280939000D0939B0084
:10046000C0939A001FC08091A00080688093A00074
:100470008091A0008F7B8093A000D093A900C093AF
:10048000A80010C05A9A8091A00080628093A000BA
:10049000D093AB00C093AA0005C0C038D1050CF0C2
:1004A00087CF81CFDF91CF911F91089585ED809304
:1004B000DC008091DC0084FDFCCF1092B001089537
:1004C000613298F42091B001243089F46093620184
:1004D000282FA2E4B1E0FC018E2F821B861718F4AE
:1004E00081918D93F9CF80E0089581E0089582E0B5
:1004F00008950895E091B4018091B301E81730F4B4
:10050000F0E0EE5DFE4F808190E008958FEF9FEF69
:1005100008959091B4018091B301981750F4E92F98
:10052000F0E0EE5DFE4F208130E09F5F9093B401DC
:1005300002C02FEF3FEFC90108958091B30190E011
:100540002091B401821B91090895CF93DF93CB01D1
:10055000EA01642F0E946002CE01DF91CF910895DD
:10056000CF93DF931F92CDB7DEB7698361E0CE01F1
:1005700001960E94600281E090E00F90DF91CF91A0
:100580000895E091D501F091D601668585EC91E062
:100590000C94B0020F931F93CF93DF93EC018B0168
:1005A0008B85882329F060E08A810E946A011B867E
:1005B00001308FEF18074CF00F3F110519F014F0C0
:1005C0000FEF10E017FF0EC002C001E01FEF1C820A
:1005D00060E089810E946A0166277727601B710BA2
:1005E0006B8311C081E08C8361E089810115110565
:1005F00029F00E946A010B83B80105C00E946A01BC
:100600001B8260E070E08881DF91CF911F910F9194
:100610000C94CA01CF93DF93222369F0EC011E8270
:100620001D8261E08A810E946A0181E08B8760E01F
:1006300070E0CE0110C0262F30E0413019F04FEFAE
:100640005FEF02C041E050E0429FB001439F700D58
:10065000529F700D1124DF91CF910C94CA02EF923A
:10066000FF920F931F93CF93DF93EC01862F688344
:1006700049832A831B8291E09C831E821D82EF8224
:10068000F88609871A871B860E94EB0089810E94E1
:10069000EB008A810E94EB001E821D8260E070E008
:1006A000CE01DF91CF911F910F91FF90EF900C94AD
:1006B000CA02FC0113821282678581E0682767877E
:1006C00084810C946A010E94CF0CCF92DF92EF924A
:1006D000FF92CF93DF93EC01CB01BA012BED3FE00A
:1006E00049E450E40E94EA0A20E030E044E353E4A5
:1006F0000E9453096B017C010E94570B6883798328
:100700008A839B83C701B6010E944E09DC01CB019D
:10071000B0588C839D83AE83BF83DF91CF91FF90D0
:10072000EF90DF90CF9008954F925F926F927F92FB
:100730008F929F92AF92BF92CF92DF92EF92FF92F1
:100740000F931F93CF93DF93CDB7DEB76C970FB6A0
:10075000F894DEBF0FBECDBF7C0185EC91E00E9416
:100760008902FC01FF27E830F10508F087C1EC5849
:10077000FF4F0C94A80B24E0E216F10409F07EC1AF
:1007800085EC91E00E948902E82E85EC91E00E94C0
:100790008902F82E85EC91E00E9489028C01DE2C02
:1007A000C12CB6016F2980E090E00E94F409AB01F2
:1007B000BC01CE0145960E9465038CE0E6E0F1E0C5
:1007C000DE01119601900D928A95E1F7CE01019616
:1007D0006C01E12CF12C48019924092C000CAA0889
:1007E000BB08F60141915191619171916F01CE0168
:1007F0000D960E9465032D893E894F89588D6D8520
:100800007E858F8598890E94EA0A2B013C01298DFB
:100810003A8D4B8D5C8D69897A898B899C890E9480
:10082000EA0A9B01AC01C301B2010E94DD082B0161
:100830003C01C501B4010E94F6099B01AC01C30152
:10084000B2010E94EA0A0E94C50921E06115710502
:100850008105910509F020E041E0E114F10429F45B
:100860008091C3019091C4010DC0F1E0EF16F10435
:1008700029F48091C1019091C20104C08091BF010F
:100880009091C0010E940A032FEFE21AF20A33E0AE
:10089000E316F10409F0A5CFF1C084E0E816F104F5
:1008A00009F0ECC085EC91E00E948902182F85ECDC
:1008B00091E00E948902082F85EC91E00E94890254
:1008C00021E0019709F020E0402F612F8091C301C2
:1008D0009091C4011DC094E0E916F10409F0CEC066
:1008E00085EC91E00E948902182F85EC91E00E942E
:1008F0008902082F85EC91E00E94890221E001978E
:1009000009F020E0402F612F8091C1019091C20138
:100910000E940A03B3C0E4E0EE16F10409F0AEC091
:1009200085EC91E00E948902182F85EC91E00E94ED
:100930008902082F85EC91E00E94890221E001974D
:1009400009F020E0402F612F4AC0F4E0EF16F104D7
:1009500009F094C085EC91E00E948902182F85EC83
:1009600091E00E948902082F85EC91E00E948902A3
:1009700021E0019709F020E0402F612F8091BD0117
:100980009091BE01C5CF24E0E216F10409F076C0D3
:1009900085EC91E00E948902082F85EC91E00E948D
:1009A0008902F82E85EC91E00E94890211E00197FE
:1009B00009F010E0212F4F2D602F8091C3019091FD
:1009C000C4010E940A03212F4F2D602F8091C10185
:1009D0009091C2010E940A03212F4F2D602F809118
:1009E000BF019091C00194CF33E0E316F10409F008
:1009F00045C085EC91E00E948902F82E85EC91E0DB
:100A00000E9489021F2D00E0F801E82BCF018F3FE3
:100A1000910519F014F08FEF90E08130FFEF9F0700
:100A200014F481E09FEFE091C301F091C40196833B
:100A30008583E091C101F091C20196838583E091A5
:100A4000BF01F091C0019683858318C022E0E216B1
:100A5000F104A1F485EC91E00E948902E091D501B6
:100A6000F091D601892B21F48785882339F003C0C2
:100A70008785811103C0CF010E9459039091B30172
:100A80008091B401981729F085EC91E00E948902C9
:100A9000F5CF6C960FB6F894DEBF0FBECDBFDF91D9
:100AA000CF911F910F91FF90EF90DF90CF90BF906B
:100AB000AF909F908F907F906F905F904F90089530
:100AC0001F920F920FB60F9211242F933F938F9383
:100AD0009F93AF93BF938091D1019091D201A09148
:100AE000D301B091D4013091AD0123E0230F2D3714
:100AF00020F40196A11DB11D05C026E8230F029622
:100B0000A11DB11D2093AD018093D1019093D2011D
:100B1000A093D301B093D4018091A9019091AA012F
:100B2000A091AB01B091AC010196A11DB11D8093C4
:100B3000A9019093AA01A093AB01B093AC01BF911E
:100B4000AF919F918F913F912F910F900FBE0F907A
:100B50001F9018951F920F920FB60F9211242F938A
:100B60003F934F935F936F937F938F939F93AF9335
:100B7000BF93EF93FF938091D900887F803609F46B
:100B80009CC068F5883209F45BC090F4803109F4A8
:100B900054C038F4882309F4F6C0883009F44DC0F5
:100BA000F6C0883109F44CC0803209F45DC0EFC052
:100BB000803409F468C048F4803309F455C08833A0
:100BC00009F0E5C080938501D8C0803509F44FC095
:100BD000883509F45DC0883409F0D9C0D6C0883999
:100BE00009F4C7C0A8F4883709F467C038F4883618
:100BF00009F463C0803709F460C0C9C0883809F4BB
:100C0000B8C0803909F45FC0803809F0C0C05BC04B
:100C1000803B09F486C038F4803A09F466C0883A0B
:100C200009F47FC0B4C0803C09F4A7C0883C09F433
:100C3000A4C0883B09F48AC0AAC08091A80110C052
:100C40009091A7018091A601981770F5E091A701F6
:100C500081E08E0F8093A701F0E0EA57FE4F80817C
:100C60008093DB0085EC86C0809385018EC0E09187
:100C7000A70181E08E0F8093A7018091DB00F0E057
:100C8000EA57FE4F80839091A7018091A6016EC024
:100C9000E091A70181E08E0F8093A7018091DB0096
:100CA000F0E0EA57FE4F80838091AF0181116DC063
:100CB00081E08093AE0184EA61C083E08093B0015B
:100CC00010928401CFCF80918401803208F051C00E
:100CD000E091840181E08E0F809384018091DB009C
:100CE000F0E0EC59FE4F8083BDCF85EC8093DC00B3
:100CF0001092B00180918401803230F4E09184013F
:100D0000F0E0EC59FE4F10826091840170E0E091B8
:100D1000B501F091B60184E691E009951092840145
:100D200036C084E08093B00110926301109262019A
:100D3000E091B701F091B8010995809162018111AC
:100D400005C081E08093620110924201E09163014D
:100D500081E08E0F80936301F0E0EE5BFE4F8081B7
:100D60008093DB009091630180916201981708F4F1
:100D700079CF85E88093DC000AC085EC8093DC00A5
:100D80001092B00104C0109285010E945602FF919A
:100D9000EF91BF91AF919F918F917F916F915F91F3
:100DA0004F913F912F910F900FBE0F901F9018956C
:100DB000789484B5826084BD84B5816084BD85B536
:100DC000826085BD85B5816085BD80916E00816042
:100DD00080936E00109281008091810082608093E8
:100DE00081008091810081608093810080918000EA
:100DF0008160809380008091B10084608093B10015
:100E00008091B00081608093B000809191008260F9
:100E100080939100809191008160809391008091F6
:100E200090008160809390008091A1008260809307
:100E3000A1008091A10081608093A1008091A00019
:100E400081608093A00080917A00846080937A0012
:100E500080917A00826080937A0080917A0081602C
:100E600080937A0080917A00806880937A00109253
:100E7000C1008AE08093DA0084E391E09093B801A6
:100E80008093B70180E491E09093B6018093B5011F
:100E90001092B4011092B3011092B2011092B101FC
:100EA0001092B00181E08093AF011092AE0161E039
:100EB00087E10E946A0161E088E10E946A018091F5
:100EC000D9008E7F8093D9008091D9008D7F809347
:100ED000D90088E48093D80085E48093DC0084E91D
:100EE00093E09093BA018093B90181EC92E09093E2
:100EF000BC018093BB018CE190E00E94AE0BEC0141
:100F0000198218828FEF9FEF9B838A8383E18C8302
:100F100082E18D831E821F82188619868DEC9CECDF
:100F2000ACE4BEE38A879B87AC87BD871E861F869D
:100F3000188A198A1A8A1B8A8FEF9FEFDC018C8B23
:100F40009D8BAE8BBF8B188E198E1A8E1B8E2FB772
:100F5000F8944091D1015091D2016091D3017091E8
:100F6000D4012FBF488B598B6A8B7B8B8C8B9D8BCD
:100F7000AE8BBF8B8C810E94EB00CE010E94590387
:100F8000D093D601C093D5018CE090E00E94AE0BC7
:100F9000EC01E12CF12C00EF11E42EE04FE069E0D0
:100FA000CE010E942F03D093C401C093C3018CE0F3
:100FB00090E00E94AE0BEC01E12CF12C06E113E471
:100FC00020E141E16AE0CE010E942F03D093C201EB
:100FD000C093C1018CE090E00E94AE0BEC01E12CCB
:100FE000F12C07E813E42CE04DE06BE00E942F03A6
:100FF000D093C001C093BF018CE090E00E94AE0B83
:10100000EC01E12CF12C870122E044E063E00E9436
:101010002F03D093BE01C093BD0183E10E94EB007A
:1010200061E083E10E946A0144244A94542C320115
:101030003324339400E010E0C091D501D091D60163
:101040008C899D89AE89BF898F3F2FEF9207A207B8
:10105000B20759F42FB7F8948091D1019091D20141
:10106000A091D301B091D4012FBF488959896A89D1
:101070007B89841B950BA60BB70B4E815F8168851E
:101080007985452B462B472B29F044EF51E060E052
:1010900070E003C040E050E0BA01481759076A0702
:1010A0007B070CF071C09D81983048F082EF890F6A
:1010B0008B3040F0993128F08DEE890F03C0892FD5
:1010C00001C08FEF8770806480937C0080917A00EC
:1010D000806480937A0080917A0086FDFCCF6091D5
:1010E00078008091790070E0782B798368838A8119
:1010F0009B818617970710F47B836A8380E090E0DA
:101100000E94F4096B017C016A817B8180E090E0A0
:101110000E94F4092A853B854C855D850E94EA0A78
:101120004B015C019B01AC01C701B6010E9449095A
:1011300087FF0AC03E8684EF91E0A0E0B0E08E8396
:101140009F83A887B9870DC0A5019401C701B60187
:101150000E94E50A18162CF41E861E821F8218862D
:1011600019862FB7F8948091D1019091D201A09166
:10117000D301B091D4012FBF888B998BAA8BBB8BE5
:101180004C8A5D8A6E8A7F8A0115110509F454CF55
:101190000E94000051CFE5ECF1E01382128288EE4C
:1011A00093E0A0E0B0E084839583A683B78386E1D3
:1011B00091E09183808308955058BB27AA270E940D
:1011C000F4080C94970A0E945E0A38F00E94650A9F
:1011D00020F039F49F3F19F426F40C945B0A0EF4C6
:1011E000E095E7FB0C94550AE92F0E94BC0A58F3DE
:1011F000BA17620773078407950720F079F4A6F5FC
:101200000C94DE0A0EF4E0950B2EBA2FA02D0B01E4
:10121000B90190010C01CA01A0011124FF27591B3B
:1012200099F0593F50F4503E68F11A16F040A22F41
:10123000232F342F4427585FF3CF469537952795B2
:10124000A795F0405395C9F77EF41F16BA0B620BB1
:10125000730B840BBAF09150A1F0FF0FBB1F661FF8
:10126000771F881FC2F70EC0BA0F621F731F841F3B
:1012700048F4879577956795B795F7959E3F08F061
:10128000B0CF9395880F08F09927EE0F9795879523
:1012900008950E94310A08F481E008950E946E0AC0
:1012A000E3950C94A80A0E9467090C94970A0E947F
:1012B000650A58F00E945E0A40F029F45F3F29F069
:1012C0000C94550A51110C94DF0A0C945B0A0E948D
:1012D000BC0A68F39923B1F3552391F3951B550B81
:1012E000BB27AA2762177307840738F09F5F5F4FF9
:1012F000220F331F441FAA1FA9F335D00E2E3AF038
:10130000E0E832D091505040E695001CCAF72BD04F
:10131000FE2F29D0660F771F881FBB1F26173707A0
:101320004807AB07B0E809F0BB0B802DBF01FF27D2
:1013300093585F4F3AF09E3F510578F00C94550A50
:101340000C94DF0A5F3FE4F3983ED4F386957795DB
:101350006795B795F7959F5FC9F7880F911D96958B
:10136000879597F90895E1E0660F771F881FBB1FE7
:10137000621773078407BA0720F0621B730B840B94
:10138000BA0BEE1F88F7E09508950E94C40A88F012
:101390009F5798F0B92F9927B751B0F0E1F0660F39
:1013A000771F881F991F1AF0BA95C9F714C0B1307A
:1013B00091F00E94DE0AB1E008950C94DE0A672FD6
:1013C000782F8827B85F39F0B93FCCF386957795A9
:1013D0006795B395D9F73EF4909580957095619592
:1013E0007F4F8F4F9F4F0895E89409C097FB3EF4BD
:1013F00090958095709561957F4F8F4F9F4F992362
:10140000A9F0F92F96E9BB279395F69587957795DF
:101410006795B795F111F8CFFAF4BB0F11F460FF9F
:101420001BC06F5F7F4F8F4F9F4F16C0882311F0F7
:1014300096E911C0772321F09EE8872F762F05C00B
:10144000662371F096E8862F70E060E02AF09A95A6
:10145000660F771F881FDAF7880F9695879597F99B
:101460000895990F0008550FAA0BE0E8FEEF161635
:101470001706E807F907C0F012161306E407F50788
:1014800098F0621B730B840B950B39F40A2661F0FC
:10149000232B242B252B21F408950A2609F4A1409F
:1014A000A6958FEF811D811D089597F99F6780E8AC
:1014B00070E060E008959FEF80EC089500240A94A6
:1014C0001616170618060906089500240A9412161F
:1014D00013061406050608950C945B0A0E94C40ABC
:1014E000D8F3E894E0E0BB279F57F0F02AED3FE007
:1014F00049EC06C0EE0FBB0F661F771F881F28F050
:10150000B23A62077307840728F0B25A620B730B72
:10151000840BE3959A9572F7803830F49A95BB0F57
:10152000661F771F881FD2F790480C94610B092E15
:101530000394000C11F4882352F0BB0F40F4BF2B2E
:1015400011F460FF04C06F5F7F4F8F4F9F4F08956E
:10155000EF93E0FF07C0A2EA2AED3FE049EC5FEB22
:101560000E94F4080E94970A0F90039401FC90587F
:10157000E8EFF0E00C946D0B57FD9058440F551FA9
:1015800059F05F3F71F04795880F97FB991F61F005
:101590009F3F79F087950895121613061406551F7C
:1015A000F2CF4695F1DF08C0161617061806991FE8
:1015B000F1CF86957105610508940895E894BB27DD
:1015C00066277727CB0197F908950E94310A08F41E
:1015D0008FEF08950E94FD0A0C94970A0E945E0AFC
:1015E00038F00E94650A20F0952311F00C94550AFA
:1015F0000C945B0A11240C94DF0A0E94BC0A70F35D
:10160000959FC1F3950F50E0551F629FF001729FA7
:10161000BB27F00DB11D639FAA27F00DB11DAA1FB6
:10162000649F6627B00DA11D661F829F2227B00D03
:10163000A11D621F739FB00DA11D621F839FA00D8E
:10164000611D221F749F3327A00D611D231F849FDE
:10165000600D211D822F762F6A2F11249F57504035
:101660009AF0F1F088234AF0EE0FFF1FBB1F661FB0
:10167000771F881F91505040A9F79E3F510580F079
:101680000C94550A0C94DF0A5F3FE4F3983ED4F3C0
:10169000869577956795B795F795E7959F5FC1F71D
:1016A000FE2B880F911D9695879597F908959F9326
:1016B0000E946E0A0F9007FCEE5F0C94A80A9F3FF1
:1016C00031F0915020F4879577956795B795880FFD
:1016D000911D9695879597F908959F938F937F9382
:1016E0006F93FF93EF939B01AC010E94EA0AEF9185
:1016F000FF910E94810B2F913F914F915F910C942C
:10170000EA0ADF93CF931F930F93FF92EF92DF923A
:101710007B018C01689406C0DA2EEF010E94FD0A5D
:10172000FE01E894A5912591359145915591A6F337
:10173000EF010E94F408FE019701A801DA9469F70D
:10174000DF90EF90FF900F911F91CF91DF9108955F
:10175000EE0FFF1F0590F491E02D09940F931F9356
:10176000CF93DF938230910510F482E090E0E09116
:10177000D901F091DA0120E030E0A0E0B0E030974C
:1017800019F1408151810281138148175907C8F02E
:101790008417950769F4109731F012960C931297FD
:1017A00013961C9327C00093D9011093DA0122C02D
:1017B0002115310519F04217530718F49A01BD019C
:1017C000EF01DF01F801DBCF21153105F9F0281B0E
:1017D000390B2430310580F48A819B8161157105B4
:1017E00021F0FB019383828304C09093DA018093FC
:1017F000D901FE01329644C0FE01E20FF31F81932E
:10180000919322503109398328833AC02091D7011E
:101810003091D801232B41F4209102013091030132
:101820003093D8012093D70120910001309101011C
:101830002115310541F42DB73EB740910401509177
:101840000501241B350BE091D701F091D801E21777
:10185000F307A0F42E1B3F0B2817390778F0AC01D3
:101860004E5F5F4F2417350748F04E0F5F1F5093B0
:10187000D8014093D7018193919302C0E0E0F0E05A
:10188000CF01DF91CF911F910F910895CF93DF93F7
:10189000009709F481C0FC01329713821282A09153
:1018A000D901B091DA01109781F420813181820F42
:1018B000931F2091D7013091D8012817390751F58E
:1018C000F093D801E093D70167C0ED0120E030E04C
:1018D000CE17DF0740F44A815B819E014115510517
:1018E000F1F0EA01F5CFD383C28340815181840FA7
:1018F000951FC817D90759F488819981840F951FBE
:101900000296918380838A819B81938382832115B0
:10191000310529F4F093DA01E093D9013DC0E901E2
:10192000FB83EA8349915991C40FD51FEC17FD073A
:1019300061F480819181840F951F0296E90199835A
:101940008883828193819B838A83E0E0F0E0129612
:101950008D919C911397009719F0FD01DC01F7CF51
:101960008D919C9111979D012E5F3F4F820F931F88
:101970002091D7013091D8012817390769F43097A1
:1019800029F41092DA011092D90102C01382128256
:10199000B093D801A093D701DF91CF91089581E052
:0C19A00090E0F8940C94D40CF894FFCF65
:1019AC000000DB0180000000F04100001643000045
:1019BC00874300000000B002A5029D0289027A0252
:0219CC0079029E
:00000001FF
