:1000000026C1000054C1000052C1000050C10000D0
:100010004EC100004CC100004AC1000048C10000B0
:1000200046C1000044C1000042C1000040C10000C0
:100030003EC100003CC100003AC1000038C10000D0
:1000400036C1000034C1000032C1000030C10000E0
:100050002EC100002CC100002AC10000FDC3000019
:1000600026C10000D9C70000AEC7000020C10000B3
:100070001EC100001CC100001AC1000018C1000010
:1000800016C1000014C1000012C1000010C1000020
:100090000EC100000CC100000AC1000027C400000E
:1000A00006C1000004C1000002C1000000C1000040
:1000B000FEC00000FCC00000FAC00000F8C0000054
:1000C000F6C00000F4C00000F2C00000F0C0000064
:1000D000EEC00000ECC0000040C7000015C70000E3
:1000E000E6C00000B201B501A401A801AE01EC0117
:1000F000B901BD01C301C701CB01D101D501D901AE
:10010000EC01DF01E301E701FB02000305030F033C
:100110001903920323032B0333033D0347035103C6
:1001200060036A03920374037E03880300002000C7
:100130002300260029002C002F00320000010000BF
:1001400003010601090100002100240027002A0004
:100150002D003000330001010000040107010A01F5
:1001600000002200250028002B002E003100340062
:1001700002010000050108010B0105050505070541
:1001800008080808020202020A0A08080404040413
:10019000010101010101010103030303030303033F
:1001A000040707070C0C0C0C0C0C0C0C02020202CE
:1001B00006060606060606060B0B0B0B0B0B0B0BB7
:1001C0000102102020080810204010204080020169
:1001D000020108040201010204081020408080404E
:1001E000201008040201800402018040201008044D
:1001F00002010804020101020408102040800102EB
:1002000004081020408000000A0B02090C0D0E08A3
:1002100007030401000000000000000000000000CF
:1002200000000000000000000000000000000000CE
:10023000000012111000000000000000000000008B
:10024000000000000000000000000000830B1124EB
:100250001FBECFEFD1E2DEBFCDBF00E00CBF24E078
:10026000A0ECB2E001C01D92A33DB207E1F712E09D
:10027000A0E0B2E0EAE8FAE100E00BBF02C00790BC
:100280000D92A03CB107D9F711E0C7E2D1E000E040
:1002900006C021970109802FFE010E94160CC6326C
:1002A000D10780E00807A9F790D70C94430DA8CE9A
:1002B000FC01918D228D892F90E0805C9F4F821BE5
:1002C00091098F739927089580E090E0892B19F0A8
:1002D000A5D5811120C080E090E0892B41F080E01D
:1002E00090E0892B21F00E940000811117C080E06E
:1002F00090E0892B41F080E090E0892B21F00E9472
:10030000000081110EC080E090E0892B79F07DD54E
:1003100081110AC008950E940000DDCF0E940000F4
:10032000E6CF0E940000EFCF0C940000089590E00B
:10033000FC013197E231F10508F04EC08827EE58F4
:10034000FF4F8F4F0C94160C809180008F7703C065
:10035000809180008F7D809380000895809180003F
:10036000877FF9CF84B58F7702C084B58F7D84BD38
:1003700008958091B0008F7703C08091B0008F7D89
:100380008093B0000895809190008F7707C080918E
:1003900090008F7D03C080919000877F80939000B4
:1003A00008958091A0008F7707C08091A0008F7D75
:1003B00003C08091A000877F8093A0000895809162
:1003C00020018F7707C0809120018F7D03C080912D
:1003D0002001877F8093200108951F93CF93DF939F
:1003E000282F30E0F901EA5FFD4F8491F901E054D4
:1003F000FE4FD491F901E658FE4FC491CC23B9F0D9
:10040000162F811194DFEC2FF0E0EE0FFF1FE05A62
:10041000FE4FA591B4919FB7F894111104C08C912F
:10042000D095D82302C0EC91DE2BDC939FBFDF91E7
:10043000CF911F910895CF93DF9390E0FC01E0549A
:10044000FE4F2491FC01E658FE4F8491882361F110
:1004500090E0880F991FFC01EA5BFE4FC591D49193
:10046000FC01E05AFE4FA591B491611109C09FB7FC
:10047000F8948881209582238883EC912E230BC0E9
:10048000623061F49FB7F8948881322F30958323CE
:100490008883EC912E2B2C939FBF06C08FB7F894C6
:1004A000E8812E2B28838FBFDF91CF91089585EDB2
:1004B0008093BC008091BC0084FDFCCF10920503AA
:1004C00008954091E102262F30E0240F311D2132A2
:1004D0003105DCF4209105032430C9F4FC0180E0EF
:1004E00090E0861758F43091E1022191DC01AF537E
:1004F000BD4FA30FB11D2C930196F3CF8091E10264
:10050000680F6093E10280E0089581E0089582E041
:10051000089508958FEF9FEF08958FEF9FEF08954F
:100520008091C00290E09195819591090895CF93B3
:10053000DF93CB01EA01642FC4DFCE01DF91CF91BD
:100540000895CF93DF931F92CDB7DEB7698361E043
:10055000CE010196B6DF81E090E00F90DF91CF9160
:100560000895089580E090E00895CF93DF93EC0123
:1005700089A19AA1DC01ED91FC910280F381E02D2B
:100580006AE019958BA19CA1DC01ED91FC910280A0
:10059000F381E02D60E0DF91CF911994FC01678336
:1005A0006093000208950F931F93CF93DF93062F5C
:1005B000C62FD0E0FC01D187C087168161E0812F72
:1005C0003ADF209709F4B1C0CF3FD10509F4AFC09D
:1005D000E12FF0E0EA5FFD4FE4918E2F90E0FC0107
:1005E0003197E231F10508F09DC08827EC57FF4FA5
:1005F0008F4F0C94160C84B5806884BD07BD9EC0D7
:1006000084B5806284BD08BD99C0809180008068F7
:1006100080938000D0938900C09388008FC0809120
:100620008000806280938000D0938B00C0938A000A
:1006300085C080918000886080938000D0938D0079
:10064000C0938C007BC08091B00080688093B00024
:100650000093B30073C08091B00080628093B000BB
:100660000093B4006BC080919000806880939000EC
:10067000D0939900C093980061C0809190008062EF
:1006800080939000D0939B00C0939A0057C08091B4
:100690009000886080939000D0939D00C0939C0050
:1006A0004DC08091A00080688093A0008091A00040
:1006B0008F7B8093A000D093A900C093A8003EC078
:1006C0008091A00080628093A000D093AB00C09383
:1006D000AA0034C08091A00088608093A000D093CD
:1006E000AD00C093AC002AC0809120018068809347
:1006F0002001D0932901C093280120C080912001BE
:10070000806280932001D0932B01C0932A0116C0F0
:1007100080912001886080932001D0932D01C093A7
:100720002C010CC0C038D10514F460E001C061E0B8
:10073000812FDF91CF911F910F914FCEDF91CF91FC
:100740001F910F910895FC019681963308F09653FE
:1007500020917B00892F8870277F282B20937B0096
:100760002091000240E4249F900111249770922B65
:1007700090937C0090917A00906490937A0080919D
:100780007A0086FDFCCF209178008091790030E0DE
:10079000A901582BCA01518740870895FC0166833F
:1007A00008950895FC016783868145CEFC0160872A
:1007B000868113CE0F931F93CF93DF93EC012E818D
:1007C00030E0F901EA5FFD4F8491F901E054FE4FFA
:1007D0000491F901E658FE4F1491112389F081111B
:1007E000A6DDE12FF0E0EE0FFF1FE45DFE4FA591C7
:1007F000B491EC91E02381E090E021F480E002C02C
:1008000080E090E08887DF91CF911F910F9108954C
:100810000E943F0DFC01848DDF01A80FB11DA35A7A
:10082000BF4F2C91848D90E001968F739927848F10
:10083000A689B7892C93A089B1898C918370806433
:100840008C93938D848D981306C00288F389E02DD4
:1008500080818F7D808308951F920F920FB60F9233
:1008600011242F933F938F939F93AF93BF938091C6
:100870003D0390913E03A0913F03B091400330911E
:100880002F0323E0230F2D3720F40196A11DB11D66
:1008900005C026E8230F0296A11DB11D20932F034A
:1008A00080933D0390933E03A0933F03B093400396
:1008B00080912B0390912C03A0912D03B0912E03D6
:1008C0000196A11DB11D80932B0390932C03A0933F
:1008D0002D03B0932E03BF91AF919F918F913F91C4
:1008E0002F910F900FBE0F901F9018951F920F928F
:1008F0000FB60F9211240BB60F922F933F934F9385
:100900005F936F937F938F939F93AF93BF93EF9377
:10091000FF938091B900887F803609F49CC068F508
:10092000883209F45BC090F4803109F454C038F483
:10093000882309F4F2C0883009F44DC0F1C0883131
:1009400009F44CC0803209F45DC0EAC0803409F477
:1009500068C048F4803309F455C0883309F0E0C01A
:1009600080930403D4C0803509F44FC0883509F45E
:100970005DC0883409F0D4C0D2C0883909F4C3C03E
:10098000A8F4883709F467C038F4883609F463C0DE
:10099000803709F460C0C4C0883809F4B4C0803915
:1009A00009F45FC0803809F0BBC05BC0803B09F42C
:1009B00084C038F4803A09F466C0883A09F47DC0EE
:1009C000AFC0803C09F4A3C0883C09F4A0C0883BB8
:1009D00009F486C0A5C080912A0310C09091290314
:1009E00080912803981770F5E091290381E08E0F1C
:1009F00080932903F0E0E85FFC4F80818093BB0087
:100A000085EC82C0809304038AC0E091290381E0D1
:100A10008E0F809329038091BB00F0E0E85FFC4FCC
:100A2000808390912903809128036AC0E091290373
:100A300081E08E0F809329038091BB00F0E0E85F96
:100A4000FC4F808380910703811169C081E080930E
:100A5000060384EA5DC083E08093050310920303DC
:100A6000CFCF80910303803208F04DC0E0910303A3
:100A700081E08E0F809303038091BB00F0E0ED5185
:100A8000FD4F8083BDCF85EC8093BC0010920503A1
:100A900080910303803230F4E0910303F0E0ED51E4
:100AA000FD4F10826091030370E083EE92E0E0E07E
:100AB000F0E019951092030333C084E0809305039E
:100AC0001092E2021092E102E0E0F0E019958091CC
:100AD000E102811105C081E08093E1021092C10220
:100AE000E091E20281E08E0F8093E202F0E0EF53AA
:100AF000FD4F80818093BB009091E2028091E102E2
:100B0000981708F47DCF85E88093BC0009C085EC78
:100B10008093BC001092050303C010920403C7DC4D
:100B2000FF91EF91BF91AF919F918F917F916F91C5
:100B30005F914F913F912F910F900BBE0F900FBE81
:100B40000F901F901895FC012FB7F89480913D03EA
:100B500090913E03A0913F03B09140032FBF80834B
:100B60009183A283B3838FB7F89440913D03509152
:100B70003E0360913F03709140038FBF8085918554
:100B8000A285B385840F951FA61FB71F4481558189
:100B900066817781841B950BA60BB70B80879187A5
:100BA000A287B3878FEF9FEFDC0184839583A683B1
:100BB000B78308950F931F93CF93DF938C01EC01BC
:100BC0002D96CE019AD2693E73408105910574F14C
:100BD000CE0193D26C3D7540810591055CF4F8011E
:100BE00083A194A1DC01ED91FC910280F381E02DC1
:100BF00061E011C0CE0181D2603D77408105910551
:100C00007CF4F80183A194A1DC01ED91FC910280B8
:100C1000F381E02D60E0DF91CF911F910F91199446
:100C2000CE01DF91CF911F910F918DCFDF91CF91A9
:100C30001F910F9108958F929F92AF92BF92CF9282
:100C4000DF92EF92FF920F931F93CF93DF93CDB775
:100C5000DEB7A1970FB6F894DEBF0FBECDBF8C01F3
:100C6000DC019196ED91FC919297C480D580E28051
:100C7000F38083E592E030D2C7012ED286E592E080
:100C80002BD20D2C000CEE08FF08F7FE23C06DE2FE
:100C90008EED93E0CCD022273327A9012C193D09F2
:100CA0004E095F0919A2FE01B1967F019AE0892ED3
:100CB000912CA12CB12CCA01B901A501940194D5A4
:100CC000605DD7016E937D01211531054105510508
:100CD00091F719C0A701960119A2FE01B1967F01F3
:100CE0008AE0882E912CA12CB12CCA01B901A50152
:100CF00094017AD5605DD7016E937D012115310590
:100D00004105510591F7C701E7D18EE592E0E4D1A5
:100D10001092320381E692E0DFD183E692E0DCD1EB
:100D200088E692E0D9D18CE692E0D6D188E792E0CD
:100D3000D3D1F80181A192A1DC01ED91FC91028057
:100D4000F381E02D6FEF1995C8010D96FCDEA19699
:100D50000FB6F894DEBF0FBECDBFDF91CF911F91CC
:100D60000F91FF90EF90DF90CF90BF90AF909F904A
:100D70008F900895FC01842F738362834091300328
:100D800050913103BA016F5F7F4F709331036093CD
:100D900030035583448349E252E051834083868384
:100DA00027831086622F47CBFC01538D448D252F5E
:100DB00030E0842F90E0821B930B541710F0CF96F5
:100DC000089501970895FC01918D828D981761F027
:100DD000828DDF01A80FB11D5D968C91928D9F5F72
:100DE0009F73928F90E008958FEF9FEF0895FC011D
:100DF000918D828D981731F0828DE80FF11D858DD0
:100E000090E008958FEF9FEF089581E493E050DA2A
:100E100021E0892B09F420E0822F08958EED93E0E4
:100E200047DA21E0892B09F420E0822F0895EF9220
:100E3000FF920F931F93CF93DF93EC0181E0888F94
:100E40009B8D8C8D981305C0E889F989808185FD7B
:100E500025C0F62E0B8D10E00F5F1F4F0F7311276B
:100E6000E02E8C8DE8120BC00FB607FCFACFE88994
:100E7000F989808185FFF5CFCE01CCDCF2CF8B8D57
:100E8000FE01E80FF11DE35AFF4FF0829FB7F8947F
:100E90000B8FEA89FB89808180620AC09FB7F89432
:100EA000EE89FF896083E889F98980818370806495
:100EB00080839FBF81E090E0DF91CF911F910F91E0
:100EC000FF90EF900895CF93DF93EC01888D8823F6
:100ED000C1F0EA89FB89808185FD05C0A889B989AF
:100EE0008C9186FD0EC00FB607FCF5CF808185FF83
:100EF000F2CFA889B9898C9185FFEDCFCE018ADC2C
:100F0000E8CFDF91CF9108951F920F920FB60F9205
:100F100011240BB60F922F933F934F935F936F93D0
:100F20007F938F939F93AF93BF93EF93FF9381E44E
:100F300093E070DCFF91EF91BF91AF919F918F9102
:100F40007F916F915F914F913F912F910F900BBEC9
:100F50000F900FBE0F901F9018951F920F920FB613
:100F60000F9211240BB60F922F938F939F93EF93B1
:100F7000FF93E0915103F09152038081E091570378
:100F8000F091580382FD12C0908180915A038F5FC7
:100F90008F7320915B03821751F0E0915A03F0E0C8
:100FA000EF5BFC4F958F80935A0301C08081FF91C6
:100FB000EF919F918F912F910F900BBE0F900FBECD
:100FC0000F901F9018951F920F920FB60F92112439
:100FD0000BB60F922F933F934F935F936F937F9333
:100FE0008F939F93AF93BF93EF93FF938EED93E017
:100FF00011DCFF91EF91BF91AF919F918F917F9104
:101000006F915F914F913F912F910F900BBE0F9079
:101010000FBE0F901F9018951F920F920FB60F9250
:1010200011240BB60F922F938F939F93EF93FF93FF
:10103000E091EE03F091EF038081E091F403F091F1
:10104000F50382FD12C090818091F7038F5F8F734B
:101050002091F803821751F0E091F703F0E0E2529B
:10106000FC4F958F8093F70301C08081FF91EF9132
:101070009F918F912F910F900BBE0F900FBE0F90ED
:101080001F901895CF92DF92EF92FF920F931F93CC
:10109000CF93DF936C017A018B01C0E0D0E0CE15D5
:1010A000DF0581F0D8016D918D01D601ED91FC91A4
:1010B0000190F081E02DC6011995892B11F0219640
:1010C000EECF7E01C701DF91CF911F910F91FF906D
:1010D000EF90DF90CF900895009761F0FC010190B0
:1010E0000020E9F73197AF01481B590BBC018EED89
:1010F00093E0C8CF80E090E008950F931F93FC0128
:1011000084819581A681B7818F3F2FEF9207A20737
:10111000B20759F42FB7F89480913D0390913E03A4
:10112000A0913F03B09140032FBF00811181228124
:101130003381BC01CD01601B710B820B930B1F919E
:101140000F910895FC01A089B18982E08C93A48558
:10115000B5851C92A685B7858FEC8C93108EA489DB
:10116000B58986E08C93A289B3898C9180618C9338
:10117000A289B3898C9188608C93A289B3898C9160
:1011800080688C930288F389E02D80818F7D808335
:101190000895FC01DB0112964D915D916D917C915A
:1011A0001597428353836483758389E292E0918328
:1011B000808316968C911697868317968C91179735
:1011C000878318968C9180870895CF93DF93CDB74E
:1011D000DEB762970FB6F894DEBF0FBECDBF78942E
:1011E00084B5826084BD84B5816084BD85B582602C
:1011F00085BD85B5816085BD80916E0081608093DD
:101200006E00109281008091810082608093810045
:101210008091810081608093810080918000816055
:10122000809380008091B10084608093B1008091B0
:10123000B00081608093B0008091910082608093C3
:101240009100809191008160809391008091900045
:101250008160809390008091A10082608093A100C2
:101260008091A10081608093A1008091A0008160A5
:101270008093A00080912101826080932101809160
:101280002101816080932101809120018160809300
:10129000200180917A00846080937A0080917A00A6
:1012A000826080937A0080917A00816080937A00D6
:1012B00080917A00806880937A001092C10087E262
:1012C00090E0BCD28C01DC011C961C921C9785E13D
:1012D00092E08D939C93F801158616861786108AE6
:1012E0008FEF9FEFDC01818B928BA38BB48B158AE0
:1012F000168A178A108EC8010D9625DC8EED93E0B4
:1013000021DF89E090E09AD27C0120E043E26BE7A4
:1013100072E030DDF801F28EE18E89E090E08ED24D
:101320007C0120E04BE167E872E024DDD8015C96A7
:10133000FC92EE925B9789E090E080D27C0120E005
:1013400041E262E972E016DDF801F68EE58E89E091
:1013500090E074D27C0120E045E262EA72E00ADDAE
:10136000D8019096FC92EE925F978AE090E066D268
:10137000FC0181EB92E09383828380913003909112
:1013800031039C012F5F3F4F309331032093300393
:10139000958384838BE092E0918380838DE08683C4
:1013A00081E0878311861086D8019296FC93EE9394
:1013B000919789E090E042D27C0121E04EE167EB19
:1013C00072E0D8DCF801F4A2E3A28BE090E036D220
:1013D0007C018BEB92E0D70113969C938E9312972E
:1013E00080913003909131039C012F5F3F4F3093E8
:1013F00031032093300315969C938E9314978FE1BD
:1014000092E011969C938E9316961C9216971796BF
:101410001C92179718961C92189781E493E01A96DD
:101420009C938E9319978EDEF801F6A2E5A2818D2A
:10143000928D938382839583848381A192A1DC0121
:10144000ED91FC910280F381E02D6AE019951093F3
:101450003C0300933B03FF24F394809132038330D9
:1014600009F44EC100913B0310913C03F8016281E5
:101470007381CE010A968DDECE84DF84D801149666
:101480006D917C911597CE01019683DE8D819E81B1
:10149000F80162817381C816D90609F462C0CE01D1
:1014A000019677DECE01019685D9209139033091DE
:1014B0003A038217930711F1D80112966D917C912E
:1014C0001397CE01019665DECE01019673D99093F4
:1014D0003A0380933903F80162817381CE0101964A
:1014E00058DECE01019666D9892B09F476C0D80161
:1014F0001C96FC921C97ED91FC9164C0F8016481EC
:101500007581CE01019645DECE01019653D9209119
:101510003703309138038217930709F45EC0D8016E
:1015200014966D917C911597CE01019632DECE0115
:10153000019640D99093380380933703F801648172
:101540007581CE01019625DECE01019633D9892B16
:1015500009F443C0D8011C961C921C97ED91FC9194
:1015600037C0CE01019615DECE01019623D9209118
:10157000390330913A038217930779F1F8016281B8
:101580007381CE01019605DECE01019613D99093A9
:101590003A0380933903D80112966D917C91139789
:1015A000CE010196F6DDCE01019604D9892BA9F072
:1015B000F80184850190F081E02DD801811106C0E9
:1015C0001C96FC920190F081E02D05C01C961C92A7
:1015D0000280F381E02DC801199500913B03109121
:1015E0003C03F80166817781CE010A96D2DDCE8474
:1015F000DF84D80118966D917C911997CE010196E0
:10160000C8DD8D819E81F80166817781C816D90673
:1016100009F445C0CE010196BCDDCE010196CAD8C1
:101620002091350330913603D8018217930791F04A
:1016300016966D917C911797CE010196AADDCE0189
:101640000196B8D89093360380933503F8016681EC
:10165000778144C018966D917C911997CE010196BF
:1016600098DDCE010196A6D8209133033091340342
:101670008217930709F438C0F80160857185CE019F
:10168000019687DDCE01019695D89093340380931F
:101690003303D80118966D917C9119971FC0CE0124
:1016A000019677DDCE01019685D8209135033091E2
:1016B000360382179307C1F0F80166817781CE0166
:1016C000019667DDCE01019675D89093360380931D
:1016D0003503D80116966D917C911797CE0101962E
:1016E00058DDCE01019666D8F8018485882341F043
:1016F0000190F081E02D0480F581E02DC80119955D
:101700000E946401AACEE1E4F3E01382128288EE23
:1017100093E0A0E0B0E084839583A683B78323E3BE
:1017200032E03183208345E351E05587448744E329
:1017300051E05787468740E351E0518B408B41E3AE
:1017400051E0538B428B42E351E0558B448B46E38F
:1017500051E0578B468B118E128E138E148EEEED48
:10176000F3E01382128284839583A683B783318347
:10177000208325EC30E03587248724EC30E0378760
:10178000268720EC30E0318B208B21EC30E0338B4E
:10179000228B22EC30E0358B248B26EC30E0378B2B
:1017A000268B118E128E138E148EEBE7F4E01682C8
:1017B0001782108611861286138614861586168661
:1017C0001786108A118A128A138A148A158AE3EC02
:1017D000F4E01382128284839583A683B78385E421
:1017E00092E0918380830895A1E21A2EAA1BBB1B6D
:1017F000FD010DC0AA1FBB1FEE1FFF1FA217B307DD
:10180000E407F50720F0A21BB30BE40BF50B661FF2
:10181000771F881F991F1A9469F7609570958095B6
:1018200090959B01AC01BD01CF010895EE0FFF1F04
:10183000881F8BBF0790F691E02D19940F931F938B
:10184000CF93DF938230910510F482E090E0E09135
:10185000D104F091D20420E030E0A0E0B0E0309775
:1018600019F1408151810281138148175907C8F04D
:101870008417950769F4109731F012960C9312971C
:1018800013961C9327C00093D1041093D20422C056
:101890002115310519F04217530718F49A01BD01BB
:1018A000EF01DF01F801DBCF21153105F9F0281B2D
:1018B000390B2430310580F48A819B8161157105D3
:1018C00021F0FB019383828304C09093D204809320
:1018D000D104FE01329644C0FE01E20FF31F819352
:1018E000919322503109398328833AC02091CF0443
:1018F0003091D004232B41F4209103023091040253
:101900003093D0042093CF04209101023091020241
:101910002115310541F42DB73EB740910502509194
:101920000602241B350BE091CF04F091D004E2179E
:10193000F307A0F42E1B3F0B2817390778F0AC01F2
:101940004E5F5F4F2417350748F04E0F5F1F5093CF
:10195000D0044093CF048193919302C0E0E0F0E083
:10196000CF01DF91CF911F910F910895CF93DF9316
:10197000009709F481C0FC01329713821282A09172
:10198000D104B091D204109781F420813181820F6B
:10199000931F2091CF043091D0042817390751F5B7
:1019A000F093D004E093CF0467C0ED0120E030E075
:1019B000CE17DF0740F44A815B819E014115510536
:1019C000F1F0EA01F5CFD383C28340815181840FC6
:1019D000951FC817D90759F488819981840F951FDD
:1019E0000296918380838A819B81938382832115D0
:1019F000310529F4F093D204E093D1043DC0E9010C
:101A0000FB83EA8349915991C40FD51FEC17FD0759
:101A100061F480819181840F951F0296E901998379
:101A20008883828193819B838A83E0E0F0E0129631
:101A30008D919C911397009719F0FD01DC01F7CF70
:101A40008D919C9111979D012E5F3F4F820F931FA7
:101A50002091CF043091D0042817390769F43097CA
:101A600029F41092D2041092D10402C0138212827F
:101A7000B093D004A093CF04DF91CF91089581E07B
:0A1A800090E0F89400C0F894FFCF46
:101A8A00010000D304800000000000A303D302CEAB
:101A9A0002000000001B06B502DA0500000000D1B2
:101AAA0003D103CE0300000000DA03D603D20300F9
:101ABA0000000017074208D40663075801E306F737
:101ACA000600000000A1029702B202890290028D6C
:101ADA00028A025B220022202849443A2000295D1A
:101AEA00005B002E2E2E2E005D3A20004A7573747C
:101AFA0020612074657374000D0A00537461727456
:101B0A00427574746F6E0053746F70427574746F9B
:101B1A006E005374617274436F6D6D427574746FA5
:101B2A006E0053746F70436F6D6D427574746F6E8F
:101B3A00005374617475734C454400436F6D6D00B6
:00000001FF
