:1000000026C1000054C1000052C1000050C10000D0
:100010004EC100004CC100004AC1000048C10000B0
:1000200046C1000044C1000042C1000040C10000C0
:100030003EC100003CC100003AC1000038C10000D0
:1000400036C1000034C1000032C1000030C10000E0
:100050002EC100002CC100002AC10000FDC3000019
:1000600026C10000D9C70000AEC7000020C10000B3
:100070001EC100001CC100001AC1000018C1000010
:1000800016C1000014C1000012C1000010C1000020
:100090000EC100000CC100000AC1000027C400000E
:1000A00006C1000004C1000002C1000000C1000040
:1000B000FEC00000FCC00000FAC00000F8C0000054
:1000C000F6C00000F4C00000F2C00000F0C0000064
:1000D000EEC00000ECC0000040C7000015C70000E3
:1000E000E6C00000B201B501A401A801AE01EC0117
:1000F000B901BD01C301C701CB01D101D501D901AE
:10010000EC01DF01E301E701FB02000305030F033C
:100110001903920323032B0333033D0347035103C6
:1001200060036A03920374037E03880300002000C7
:100130002300260029002C002F00320000010000BF
:1001400003010601090100002100240027002A0004
:100150002D003000330001010000040107010A01F5
:1001600000002200250028002B002E003100340062
:1001700002010000050108010B0105050505070541
:1001800008080808020202020A0A08080404040413
:10019000010101010101010103030303030303033F
:1001A000040707070C0C0C0C0C0C0C0C02020202CE
:1001B00006060606060606060B0B0B0B0B0B0B0BB7
:1001C0000102102020080810204010204080020169
:1001D000020108040201010204081020408080404E
:1001E000201008040201800402018040201008044D
:1001F00002010804020101020408102040800102EB
:1002000004081020408000000A0B02090C0D0E08A3
:1002100007030401000000000000000000000000CF
:1002200000000000000000000000000000000000CE
:10023000000012111000000000000000000000008B
:10024000000000000000000000000000830B1124EB
:100250001FBECFEFD1E2DEBFCDBF00E00CBF24E078
:10026000A0ECB2E001C01D92A33DB207E1F712E09D
:10027000A0E0B2E0EAE8FAE100E00BBF02C00790BC
:100280000D92A03CB107D9F711E0C7E2D1E000E040
:1002900006C021970109802FFE010E94160CC6326C
:1002A000D10780E00807A9F790D70C94430DA8CE9A
:1002B000FC01918D228D892F90E0805C9F4F821BE5
:1002C00091098F739927089580E090E0892B19F0A8
:1002D000A5D5811120C080E090E0892B41F080E01D
:1002E00090E0892B21F00E940000811117C080E06E
:1002F00090E0892B41F080E090E0892B21F00E9472
:10030000000081110EC080E090E0892B79F07DD54E
:1003100081110AC008950E940000DDCF0E940000F4
:10032000E6CF0E940000EFCF0C940000089590E00B
:10033000FC013197E231F10508F04EC08827EE58F4
:10034000FF4F8F4F0C94160C809180008F7703C065
:10035000809180008F7D809380000895809180003F
:10036000877FF9CF84B58F7702C084B58F7D84BD38
:1003700008958091B0008F7703C08091B0008F7D89
:100380008093B0000895809190008F7707C080918E
:1003900090008F7D03C080919000877F80939000B4
:1003A00008958091A0008F7707C08091A0008F7D75
:1003B00003C08091A000877F8093A0000895809162
:1003C00020018F7707C0809120018F7D03C080912D
:1003D0002001877F8093200108951F93CF93DF939F
:1003E000282F30E0F901EA5FFD4F8491F901E054D4
:1003F000FE4FD491F901E658FE4FC491CC23B9F0D9
:10040000162F811194DFEC2FF0E0EE0FFF1FE05A62
:10041000FE4FA591B4919FB7F894111104C08C912F
:10042000D095D82302C0EC91DE2BDC939FBFDF91E7
:10043000CF911F910895CF93DF9390E0FC01E0549A
:10044000FE4F2491FC01E658FE4F8491882361F110
:1004500090E0880F991FFC01EA5BFE4FC591D49193
:10046000FC01E05AFE4FA591B491611109C09FB7FC
:10047000F8948881209582238883EC912E230BC0E9
:10048000623061F49FB7F8948881322F30958323CE
:100490008883EC912E2B2C939FBF06C08FB7F894C6
:1004A000E8812E2B28838FBFDF91CF91089585EDB2
:1004B0008093BC008091BC0084FDFCCF10920503AA
:1004C00008954091E102262F30E0240F311D2132A2
:1004D0003105DCF4209105032430C9F4FC0180E0EF
:1004E00090E0861758F43091E1022191DC01AF537E
:1004F000BD4FA30FB11D2C930196F3CF8091E10264
:10050000680F6093E10280E0089581E0089582E041
:10051000089508958FEF9FEF08958FEF9FEF08954F
:100520008091C00290E09195819591090895CF93B3
:10053000DF93CB01EA01642FC4DFCE01DF91CF91BD
:100540000895CF93DF931F92CDB7DEB7698361E043
:10055000CE010196B6DF81E090E00F90DF91CF9160
:100560000895089580E090E00895CF93DF93EC0123
:1005700089A19AA1DC01ED91FC910280F381E02D2B
:100580006AE019958BA19CA1DC01ED91FC910280A0
:10059000F381E02D60E0DF91CF911994FC01678336
:1005A0006093000208950F931F93CF93DF93062F5C
:1005B000C62FD0E0FC01D187C087168161E0812F72
:1005C0003ADF209709F4B1C0CF3FD10509F4AFC09D
:1005D000E12FF0E0EA5FFD4FE4918E2F90E0FC0107
:1005E0003197E231F10508F09DC08827EC57FF4FA5
:1005F0008F4F0C94160C84B5806884BD07BD9EC0D7
:1006000084B5806284BD08BD99C0809180008068F7
:1006100080938000D0938900C09388008FC0809120
:100620008000806280938000D0938B00C0938A000A
:1006300085C080918000886080938000D0938D0079
:10064000C0938C007BC08091B00080688093B00024
:100650000093B30073C08091B00080628093B000BB
:100660000093B4006BC080919000806880939000EC
:10067000D0939900C093980061C0809190008062EF
:1006800080939000D0939B00C0939A0057C08091B4
:100690009000886080939000D0939D00C0939C0050
:1006A0004DC08091A00080688093A0008091A00040
:1006B0008F7B8093A000D093A900C093A8003EC078
:1006C0008091A00080628093A000D093AB00C09383
:1006D000AA0034C08091A00088608093A000D093CD
:1006E000AD00C093AC002AC0809120018068809347
:1006F0002001D0932901C093280120C080912001BE
:10070000806280932001D0932B01C0932A0116C0F0
:1007100080912001886080932001D0932D01C093A7
:100720002C010CC0C038D10514F460E001C061E0B8
:10073000812FDF91CF911F910F914FCEDF91CF91FC
:100740001F910F910895FC019681963308F09653FE
:1007500020917B00892F8870277F282B20937B0096
:100760002091000240E4249F900111249770922B65
:1007700090937C0090917A00906490937A0080919D
:100780007A0086FDFCCF209178008091790030E0DE
:10079000A901582BCA01518740870895FC0166833F
:1007A00008950895FC016783868145CEFC0160872A
:1007B000868113CE0F931F93CF93DF93EC012E818D
:1007C00030E0F901EA5FFD4F8491F901E054FE4FFA
:1007D0000491F901E658FE4F1491112389F081111B
:1007E000A6DDE12FF0E0EE0FFF1FE45DFE4FA591C7
:1007F000B491EC91E02381E090E021F480E002C02C
:1008000080E090E08887DF91CF911F910F9108954C
:100810000E943F0DFC01848DDF01A80FB11DA35A7A
:10082000BF4F2C91848D90E001968F739927848F10
:10083000A689B7892C93A089B1898C918370806433
:100840008C93938D848D981306C00288F389E02DD4
:1008500080818F7D808308951F920F920FB60F9233
:1008600011242F933F938F939F93AF93BF938091C6
:100870003D0390913E03A0913F03B091400330911E
:100880002F0323E0230F2D3720F40196A11DB11D66
:1008900005C026E8230F0296A11DB11D20932F034A
:1008A00080933D0390933E03A0933F03B093400396
:1008B00080912B0390912C03A0912D03B0912E03D6
:1008C0000196A11DB11D80932B0390932C03A0933F
:1008D0002D03B0932E03BF91AF919F918F913F91C4
:1008E0002F910F900FBE0F901F9018951F920F928F
:1008F0000FB60F9211240BB60F922F933F934F9385
:100900005F936F937F938F939F93AF93BF93EF9377
:10091000FF938091B900887F803609F49CC068F508
:10092000883209F45BC090F4803109F454C038F483
:10093000882309F4F2C0883009F44DC0F1C0883131
:1009400009F44CC0803209F45DC0EAC0803409F477
:1009500068C048F4803309F455C0883309F0E0C01A
:1009600080930403D4C0803509F44FC0883509F45E
:100970005DC0883409F0D4C0D2C0883909F4C3C03E
:10098000A8F4883709F467C038F4883609F463C0DE
:10099000803709F460C0C4C0883809F4B4C0803915
:1009A00009F45FC0803809F0BBC05BC0803B09F42C
:1009B00084C038F4803A09F466C0883A09F47DC0EE
:1009C000AFC0803C09F4A3C0883C09F4A0C0883BB8
:1009D00009F486C0A5C080912A0310C09091290314
:1009E00080912803981770F5E091290381E08E0F1C
:1009F00080932903F0E0E85FFC4F80818093BB0087
:100A000085EC82C0809304038AC0E091290381E0D1
:100A10008E0F809329038091BB00F0E0E85FFC4FCC
:100A2000808390912903809128036AC0E091290373
:100A300081E08E0F809329038091BB00F0E0E85F96
:100A4000FC4F808380910703811169C081E080930E
:100A5000060384EA5DC083E08093050310920303DC
:100A6000CFCF80910303803208F04DC0E0910303A3
:100A700081E08E0F809303038091BB00F0E0ED5185
:100A8000FD4F8083BDCF85EC8093BC0010920503A1
:100A900080910303803230F4E0910303F0E0ED51E4
:100AA000FD4F10826091030370E083EE92E0E0E07E
:100AB000F0E019951092030333C084E0809305039E
:100AC0001092E2021092E102E0E0F0E019958091CC
:100AD000E102811105C081E08093E1021092C10220
:100AE000E091E20281E08E0F8093E202F0E0EF53AA
:100AF000FD4F80818093BB009091E2028091E102E2
:100B0000981708F47DCF85E88093BC0009C085EC78
:100B10008093BC001092050303C010920403C7DC4D
:100B2000FF91EF91BF91AF919F918F917F916F91C5
:100B30005F914F913F912F910F900BBE0F900FBE81
:100B40000F901F901895FC012FB7F89480913D03EA
:100B500090913E03A0913F03B09140032FBF80834B
:100B60009183A283B3838FB7F89440913D03509152
:100B70003E0360913F03709140038FBF8085918554
:100B8000A285B385840F951FA61FB71F4481558189
:100B900066817781841B950BA60BB70B80879187A5
:100BA000A287B3878FEF9FEFDC0184839583A683B1
:100BB000B78308950F931F93CF93DF938C01EC01BC
:100BC0002D96CE019AD2693E73408105910574F14C
:100BD000CE0193D26C3D7540810591055CF4F8011E
:100BE00083A194A1DC01ED91FC910280F381E02DC1
:100BF00061E011C0CE0181D2603D77408105910551
:100C00007CF4F80183A194A1DC01ED91FC910280B8
:100C1000F381E02D60E0DF91CF911F910F91199446
:100C2000CE01DF91CF911F910F918DCFDF91CF91A9
:100C30001F910F9108958F929F92AF92BF92CF9282
:100C4000DF92EF92FF920F931F93CF93DF93CDB775
:100C5000DEB7A1970FB6F894DEBF0FBECDBF8C01F3
:100C6000DC019196ED91FC919297C480D580E28051
:100C7000F38083E592E030D2C7012ED286E592E080
:100C80002BD20D2C000CEE08FF08F7FE23C06DE2FE
:100C90008EED93E0CCD022273327A9012C193D09F2
:100CA0004E095F0919A2FE01B1967F019AE0892ED3
:100CB000912CA12CB12CCA01B901A501940194D5A4
:100CC000605DD7016E937D01211531054105510508
:100CD00091F719C0A701960119A2FE01B1967F01F3
:100CE0008AE0882E912CA12CB12CCA01B901A50152
:100CF00094017AD5605DD7016E937D012115310590
:100D00004105510591F7C701E7D18EE592E0E4D1A5
:100D10001092320381E692E0DFD183E692E0DCD1EB
:100D200088E692E0D9D18CE692E0D6D188E792E0CD
:100D3000D3D1F80181A192A1DC01ED91FC91028057
:100D4000F381E02D6FEF1995C8010D96FCDEA19699
:100D50000FB6F894DEBF0FBECDBFDF91CF911F91CC
:100D60000F91FF90EF90DF90CF90BF90AF909F904A
:100D70008F900895FC01842F738362834091300328
:100D800050913103BA016F5F7F4F709331036093CD
:100D900030035583448349E252E051834083868384
:100DA00027831086622F47CBFC01538D448D252F5E
:100DB00030E0842F90E0821B930B541710F0CF96F5
:100DC000089501970895FC01918D828D981761F027
:100DD000828DDF01A80FB11D5D968C91928D9F5F72
:100DE0009F73928F90E008958FEF9FEF0895FC011D
:100DF000918D828D981731F0828DE80FF11D858DD0
:100E000090E008958FEF9FEF089581E493E050DA2A
:100E100021E0892B09F420E0822F08958EED93E0E4
:100E200047DA21E0892B09F420E0822F0895EF9220
:100E3000FF920F931F93CF93DF93EC0181E0888F94
:100E40009B8D8C8D981305C0E889F989808185FD7B
:100E500025C0F62E0B8D10E00F5F1F4F0F7311276B
:100E6000E02E8C8DE8120BC00FB607FCFACFE88994
:100E7000F989808185FFF5CFCE01CCDCF2CF8B8D57
:100E8000FE01E80FF11DE35AFF4FF0829FB7F8947F
:100E90000B8FEA89FB89808180620AC09FB7F89432
:100EA000EE89FF896083E889F98980818370806495
:100EB00080839FBF81E090E0DF91CF911F910F91E0
:100EC000FF90EF900895CF93DF93EC01888D8823F6
:100ED000C1F0EA89FB89808185FD05C0A889B989AF
:100EE0008C9186FD0EC00FB607FCF5CF808185FF83
:100EF000F2CFA889B9898C9185FFEDCFCE018ADC2C
:100F0000E8CFDF91CF9108951F920F920FB60F9205
:100F100011240BB60F922F933F934F935F936F93D0
:100F20007F938F939F93AF93BF93EF93FF9381E44E
:100F300093E070DCFF91EF91BF91AF919F918F9102
:100F40007F916F915F914F913F912F910F900BBEC9
:100F50000F900FBE0F901F9018951F920F920FB613
:100F60000F9211240BB60F922F938F939F93EF93B1
:100F7000FF93E0915103F09152038081E091570378
:100F8000F091580382FD12C0908180915A038F5FC7
:100F90008F7320915B03821751F0E0915A03F0E0C8
:100FA000EF5BFC4F958F80935A0301C08081FF91C6
:100FB000EF919F918F912F910F900BBE0F900FBECD
:100FC0000F901F9018951F920F920FB60F92112439
:100FD0000BB60F922F933F934F935F936F937F9333
:100FE0008F939F93AF93BF93EF93FF938EED93E017
:100FF00011DCFF91EF91BF91AF919F918F917F9104
:101000006F915F914F913F912F910F900BBE0F9079
:101010000FBE0F901F9018951F920F920FB60F9250
:1010200011240BB60F922F938F939F93EF93FF93FF
:10103000E091EE03F091EF038081E091F403F091F1
:10104000F50382FD12C090818091F7038F5F8F734B
:101050002091F803821751F0E091F703F0E0E2529B
:10106000FC4F958F8093F70301C08081FF91EF9132
:101070009F918F912F910F900BBE0F900FBE0F90ED
:101080001F901895CF92DF92EF92FF920F931F93CC
:10109000CF93DF936C017A018B01C0E0D0E0CE15D5
:1010A000DF0581F0D8016D918D01D601ED91FC91A4
:1010B0000190F081E02DC6011995892B11F0219640
:1010C000EECF7E01C701DF91CF911F910F91FF906D
:1010D000EF90DF90CF900895009761F0FC010190B0
:1010E0000020E9F73197AF01481B590BBC018EED89
:1010F00093E0C8CF80E090E008950F931F93FC0128
:1011000084819581A681B7818F3F2FEF9207A20737
:10111000B20759F42FB7F89480913D0390913E03A4
:10112000A0913F03B09140032FBF00811181228124
:101130003381BC01CD01601B710B820B930B1F919E
:101140000F910895FC01A089B18982E08C93A48558
:10115000B5851C92A685B7858FEC8C93108EA489DB
:10116000B58986E08C93A289B3898C9180618C9338
:10117000A289B3898C9188608C93A289B3898C9160
:1011800080688C930288F389E02D80818F7D808335
:101190000895FC01DB0112964D915D916D917C915A
:1011A0001597428353836483758389E292E0918328
:1011B000808316968C911697868317968C91179735
:1011C000878318968C9180870895CF93DF93CDB74E
:1011D000DEB762970FB6F894DEBF0FBECDBF78942E
:1011E00084B5826084BD84B5816084BD85B582602C
:1011F00085BD85B5816085BD80916E0081608093DD
:101200006E00109281008091810082608093810045
:101210008091810081608093810080918000816055
:10122000809380008091B10084608093B1008091B0
:10123000B00081608093B0008091910082608093C3
:101240009100809191008160809391008091900045
:101250008160809390008091A10082608093A100C2
:101260008091A10081608093A1008091A0008160A5
:101270008093A00080912101826080932101809160
:101280002101816080932101809120018160809300
:10129000200180917A00846080937A0080917A00A6
:1012A000826080937A0080917A00816080937A00D6
:1012B00080917A00806880937A001092C10087E262
:1012C00090E0BCD28C01DC011C961C921C9785E13D
:1012D00092E08D939C93F801158616861786108AE6
:1012E0008FEF9FEFDC01818B928BA38BB48B158AE0
:1012F000168A178A108EC8010D9625DC8EED93E0B4
:1013000021DF89E090E09AD27C0120E043E26BE7A4
:1013100072E030DDF801F28EE18E89E090E08ED24D
:101320007C0120E04BE167E872E024DDD8015C96A7
:10133000FC92EE925B9789E090E080D27C0120E005
:1013400041E262E972E016DDF801F68EE58E89E091
:1013500090E074D27C0120E045E262EA72E00ADDAE
:10136000D8019096FC92EE925F978AE090E066D268
:10137000FC0181EB92E09383828380913003909112
:1013800031039C012F5F3F4F309331032093300393
:10139000958384838BE092E0918380838DE08683C4
:1013A00081E0878311861086D8019296FC93EE9394
:1013B000919789E090E042D27C0121E04EE167EB19
:1013C00072E0D8DCF801F4A2E3A28BE090E036D220
:1013D0007C018BEB92E0D70113969C938E9312972E
:1013E00080913003909131039C012F5F3F4F3093E8
:1013F00031032093300315969C938E9314978FE1BD
:1014000092E011969C938E9316961C9216971796BF
:101410001C92179718961C92189781E493E01A96DD
:101420009C938E9319978EDEF801F6A2E5A2818D2A
:10143000928D938382839583848381A192A1DC0121
:10144000ED91FC910280F381E02D6AE019951093F3
:101450003C0300933B03FF24F394809132038330D9
:1014600009F44EC100913B0310913C03F8016281E5
:101470007381CE010A968DDECE84DF84D801149666
:101480006D917C911597CE01019683DE8D819E81B1
:10149000F80162817381C816D90609F462C0CE01D1
:1014A000019677DECE01019685D9209139033091DE
:1014B0003A038217930711F1D80112966D917C912E
:1014C0001397CE01019665DECE01019673D99093F4
:1014D0003A0380933903F80162817381CE0101964A
:1014E00058DECE01019666D9892B09F476C0D80161
:1014F0001C96FC921C97ED91FC9164C0F8016481EC
:101500007581CE01019645DECE01019653D9209119
:101510003703309138038217930709F45EC0D8016E
:1015200014966D917C911597CE01019632DECE0115
:10153000019640D99093380380933703F801648172
:101540007581CE01019625DECE01019633D9892B16
:1015500009F443C0D8011C961C921C97ED91FC9194
:1015600037C0CE01019615DECE01019623D9209118
:10157000390330913A038217930779F1F8016281B8
:101580007381CE01019605DECE01019613D99093A9
:101590003A0380933903D80112966D917C91139789
:1015A000CE010196F6DDCE01019604D9892BA9F072
:1015B000F80184850190F081E02DD801811106C0E9
:1015C0001C96FC920190F081E02D05C01C961C92A7
:1015D0000280F381E02DC801199500913B03109121
:1015E0003C03F80166817781CE010A96D2DDCE8474
:1015F000DF84D80118966D917C911997CE010196E0
:10160000C8DD8D819E81F80166817781C816D90673
:1016100009F445C0CE010196BCDDCE010196CAD8C1
:101620002091350330913603D8018217930791F04A
:1016300016966D917C911797CE010196AADDCE0189
:101640000196B8D89093360380933503F8016681EC
:10165000778144C018966D917C911997CE010196BF
:1016600098DDCE010196A6D8209133033091340342
:101670008217930709F438C0F80160857185CE019F
:10168000019687DDCE01019695D89093340380931F
:101690003303D80118966D917C9119971FC0CE0124
:1016A000019677DDCE01019685D8209135033091E2
:1016B000360382179307C1F0F80166817781CE0166
:1016C000019667DDCE01019675D89093360380931D
:1016D0003503D80116966D917C911797CE0101962E
:1016E00058DDCE01019666D8F8018485882341F043
:1016F0000190F081E02D0480F581E02DC80119955D
:101700000E946401AACEE1E4F3E01382128288EE23
:1017100093E0A0E0B0E084839583A683B78323E3BE
:1017200032E03183208345E351E05587448744E329
:1017300051E05787468740E351E0518B408B41E3AE
:1017400051E0538B428B42E351E0558B448B46E38F
:1017500051E0578B468B118E128E138E148EEEED48
:10176000F3E01382128284839583A683B783318347
:10177000208325EC30E03587248724EC30E0378760
:10178000268720EC30E0318B208B21EC30E0338B4E
:10179000228B22EC30E0358B248B26EC30E0378B2B
:1017A000268B118E128E138E148EEBE7F4E01682C8
:1017B0001782108611861286138614861586168661
:1017C0001786108A118A128A138A148A158AE3EC02
:1017D000F4E01382128284839583A683B78385E421
:1017E00092E0918380830895A1E21A2EAA1BBB1B6D
:1017F000FD010DC0AA1FBB1FEE1FFF1FA217B307DD
:10180000E407F50720F0A21BB30BE40BF50B661FF2
:10181000771F881F991F1A9469F7609570958095B6
:1018200090959B01AC01BD01CF010895EE0FFF1F04
:10183000881F8BBF0790F691E02D19940F931F938B
:10184000CF93DF938230910510F482E090E0E09135
:10185000D104F091D20420E030E0A0E0B0E0309775
:1018600019F1408151810281138148175907C8F04D
:101870008417950769F4109731F012960C9312971C
:1018800013961C9327C00093D1041093D20422C056
:101890002115310519F04217530718F49A01BD01BB
:1018A000EF01DF01F801DBCF21153105F9F0281B2D
:1018B000390B2430310580F48A819B8161157105D3
:1018C00021F0FB019383828304C09093D204809320
:1018D000D104FE01329644C0FE01E20FF31F819352
:1018E000919322503109398328833AC02091CF0443
:1018F0003091D004232B41F4209103023091040253
:101900003093D0042093CF04209101023091020241
:101910002115310541F42DB73EB740910502509194
:101920000602241B350BE091CF04F091D004E2179E
:10193000F307A0F42E1B3F0B2817390778F0AC01F2
:101940004E5F5F4F2417350748F04E0F5F1F5093CF
:10195000D0044093CF048193919302C0E0E0F0E083
:10196000CF01DF91CF911F910F910895CF93DF9316
:10197000009709F481C0FC01329713821282A09172
:10198000D104B091D204109781F420813181820F6B
:10199000931F2091CF043091D0042817390751F5B7
:1019A000F093D004E093CF0467C0ED0120E030E075
:1019B000CE17DF0740F44A815B819E014115510536
:1019C000F1F0EA01F5CFD383C28340815181840FC6
:1019D000951FC817D90759F488819981840F951FDD
:1019E0000296918380838A819B81938382832115D0
:1019F000310529F4F093D204E093D1043DC0E9010C
:101A0000FB83EA8349915991C40FD51FEC17FD0759
:101A100061F480819181840F951F0296E901998379
:101A20008883828193819B838A83E0E0F0E0129631
:101A30008D919C911397009719F0FD01DC01F7CF70
:101A40008D919C9111979D012E5F3F4F820F931FA7
:101A50002091CF043091D0042817390769F43097CA
:101A600029F41092D2041092D10402C0138212827F
:101A7000B093D004A093CF04DF91CF91089581E07B
:0A1A800090E0F89400C0F894FFCF46
:101A8A00010000D304800000000000A303D302CEAB
:101A9A0002000000001B06B502DA0500000000D1B2
:101AAA0003D103CE0300000000DA03D603D20300F9
:101ABA0000000017074208D40663075801E306F737
:101ACA000600000000A1029702B202890290028D6C
:101ADA00028A025B220022202849443A2000295D1A
:101AEA00005B002E2E2E2E005D3A20004A7573747C
:101AFA0020612074657374000D0A00537461727456
:101B0A00427574746F6E0053746F70427574746F9B
:101B1A006E005374617274436F6D6D427574746FA5
:101B2A006E0053746F70436F6D6D427574746F6E8F
:101B3A00005374617475734C454400436F6D6D00B6
:020000023000CC
:10E000000D9489F10D94B2F10D94B2F10D94B2F129
:10E010000D94B2F10D94B2F10D94B2F10D94B2F1F0
:10E020000D94B2F10D94B2F10D94B2F10D94B2F1E0
:10E030000D94B2F10D94B2F10D94B2F10D94B2F1D0
:10E040000D94B2F10D94B2F10D94B2F10D94B2F1C0
:10E050000D94B2F10D94B2F10D94B2F10D94B2F1B0
:10E060000D94B2F10D94B2F10D94B2F10D94B2F1A0
:10E070000D94B2F10D94B2F10D94B2F10D94B2F190
:10E080000D94B2F10D94B2F10D94B2F10D94B2F180
:10E090000D94B2F10D94B2F10D94B2F10D94B2F170
:10E0A0000D94B2F10D94B2F10D94B2F10D94B2F160
:10E0B0000D94B2F10D94B2F10D94B2F10D94B2F150
:10E0C0000D94B2F10D94B2F10D94B2F10D94B2F140
:10E0D0000D94B2F10D94B2F10D94B2F10D94B2F130
:10E0E0000D94B2F141546D656761323536300041AF
:10E0F000726475696E6F206578706C6F72657220DE
:10E1000073746B3530305632206279204D4C530099
:10E11000426F6F746C6F616465723E004875683F52
:10E1200000436F6D70696C6564206F6E203D200048
:10E130004350552054797065202020203D20005FF9
:10E140005F4156525F415243485F5F3D2000415658
:10E1500052204C696243205665723D20004743437C
:10E160002056657273696F6E203D20004350552024
:10E1700049442020202020203D20004C6F7720663D
:10E18000757365202020203D20004869676820665F
:10E190007573652020203D200045787420667573D6
:10E1A00065202020203D20004C6F636B2066757336
:10E1B000652020203D20004D617220203720323024
:10E1C000313300312E362E3800342E332E350056A2
:10E1D00023202020414444522020206F7020636F70
:10E1E00064652020202020696E73747275637469E1
:10E1F0006F6E2061646472202020496E74657272B3
:10E20000757074006E6F20766563746F7200726A49
:10E210006D702020006A6D70200057686174207056
:10E220006F72743A00506F7274206E6F7420737541
:10E2300070706F72746564004D7573742062652030
:10E2400061206C6574746572002000577269747483
:10E25000696E672045450052656164696E672045B7
:10E26000450045452065727220636E743D00504F35
:10E27000525400303D5A65726F2061646472003FF1
:10E280003D43505520737461747300403D454550C3
:10E29000524F4D207465737400423D426C696E6B41
:10E2A000204C454400453D44756D70204545505215
:10E2B0004F4D00463D44756D7020464C415348001B
:10E2C000483D48656C70004C3D4C69737420492F83
:10E2D0004F20506F72747300513D51756974005234
:10E2E0003D44756D702052414D00563D73686F7707
:10E2F00020696E7465727275707420566563746FF0
:10E30000727300593D506F727420626C696E6B00BD
:10E310002A0011241FBECFEFD1E2DEBFCDBF01E046
:10E320000CBF12E0A0E0B2E0EEE1FDEF03E00BBFB6
:10E3300002C007900D92A030B107D9F712E0A0E01B
:10E34000B2E001C01D92AE30B107E1F70F9460F367
:10E350000D948DFE01E20EBF0FEF0DBF11241FBE05
:10E360000D9460F30D9400F020E030E040ED57E0B4
:10E3700005C0FA013197F1F72F5F3F4F2817390792
:10E38000C0F308959C01260F311DC901A0E0B0E043
:10E390002F5F3F4FABBFFC018791882361F08093D3
:10E3A000C6008091C00086FFFCCF8091C0008064D1
:10E3B0008093C000EACF08958DE08093C6008091DD
:10E3C000C00086FFFCCF8091C00080648093C000B5
:10E3D0008AE08093C6008091C00086FFFCCF8091C8
:10E3E000C00080648093C00008950F94C2F10F9420
:10E3F000DCF10895FC019081992359F09093C600B7
:10E400008091C00086FFFCCF8091C0008064809323
:10E41000C0003196992379F70895282F982F929567
:10E420009F70892F805D8A3308F0895F8093C600D2
:10E430008091C00086FFFCCF8091C00080648093F3
:10E44000C000822F8F70982F905D9A3308F0995FEB
:10E450009093C6008091C00086FFFCCF8091C000E1
:10E4600080648093C00008959C01FB01853691056E
:10E470001CF46330710594F0C90164E670E00F94F8
:10E480002EFE605D7F4F6093C6008091C00086FFC6
:10E49000FCCF8091C00080648093C0002B30310598
:10E4A00014F43297B4F0C90164E670E00F942EFEC4
:10E4B0006AE070E00F942EFE605D7F4F6093C600AF
:10E4C0008091C00086FFFCCF8091C0008064809363
:10E4D000C000C9016AE070E00F942EFEC0968093E0
:10E4E000C6008091C00086FFFCCF8091C000806490
:10E4F0008093C00008951F93182F8EE692EE60E07F
:10E500000F94C2F11093C6008091C00086FFFCCF2B
:10E510008091C00080648093C0000F94DCF11F9153
:10E5200008952F923F924F925F926F927F928F92B7
:10E530009F92AF92BF92CF92DF92EF92FF920F9392
:10E540001F93DF93CF93CDB7DEB762970FB6F894E2
:10E55000DEBF0FBECDBF382E622ECA01DB015C01CB
:10E560006D01772420E2222E2E010894411C511CBB
:10E570008BC081E0A81680E0B80681E0C80680E084
:10E58000D80628F0C601AA27BB270F940DF2BB2797
:10E59000AD2D9C2D8B2D0F940DF28A2D0F940DF225
:10E5A0002092C6008091C00086FFFCCF8091C00001
:10E5B00080648093C0009DE29093C6008091C0006B
:10E5C00086FFFCCF8091C00080648093C0002092C1
:10E5D000C6008091C00086FFFCCF8091C00080649F
:10E5E0008093C00019828601750188249924A1E0D6
:10E5F0003A1651F03A1620F0B2E03B1661F409C029
:10E600000BBFF701779007C0C7010F9477FE782EF4
:10E6100002C0F7017080872D0F940DF22092C60082
:10E620008091C00086FFFCCF8091C0008064809301
:10E63000C000872D8052F401EF70F0708F3520F408
:10E64000E40DF51D708204C0E40DF51D8EE280839B
:10E650000894E11CF11C011D111D0894811C911CE2
:10E6600090E18916910409F0C2CF80E190E0A0E02A
:10E67000B0E0A80EB91ECA1EDB1E198AC2010F9493
:10E68000FAF10F94DCF16A94662009F072CF629679
:10E690000FB6F894DEBF0FBECDBFCF91DF911F91B3
:10E6A0000F91FF90EF90DF90CF90BF90AF909F9031
:10E6B0008F907F906F905F904F903F902F90089534
:10E6C0002F923F924F925F926F927F928F929F9282
:10E6D000AF92BF92CF92DF92EF92FF920F931F9370
:10E6E000DF93CF93CDB7DEB7CD53D1400FB6F894BB
:10E6F000DEBF0FBECDBF01E20EBF0FEF0DBF94B75F
:10E70000F894A89514BE80916000886180936000A1
:10E7100010926000789493FF05C0E0910002F091A0
:10E7200001021995279A2F9A8091C00082608093E8
:10E73000C00080E18093C40088E18093C1000000A4
:10E74000EE24FF24870144E0A42EB12CCC24DD2448
:10E7500024C0C5010197F1F70894E11CF11C011DCB
:10E76000111D21E2E2162EE4F20620E0020720E06D
:10E77000120718F031E0C32ED12CC801B70127ECE5
:10E780003BE140E050E00F9441FE611571058105C9
:10E79000910519F485B1805885B98091C00087FD35
:10E7A00003C0C114D104A9F2A6014F5F5F4FC25E3E
:10E7B000DE4F59834883CE51D140C25EDE4F8881FF
:10E7C0009981CE51D140019711F00D9410FEC05D9A
:10E7D000DE4F19821882C053D14060E0C15DDE4F28
:10E7E0001882CF52D14088249924C35DDE4F19820C
:10E7F0001882CD52D140C05EDE4F188219821A8233
:10E800001B82C052D140CE5CDE4F188219821A8220
:10E810001B82C253D140EE24FF2487010BBFF701B6
:10E8200007911691C45CDE4F19830883CC53D14005
:10E830000D940BFEC25EDE4F28813981CE51D1404E
:10E840002130310509F52091C600C25EDE4F1982E4
:10E850001882CE51D14022C02F5F3F4F4F4F5F4FA4
:10E86000213082E138078AE7480780E0580780F0C6
:10E87000C45CDE4FE881F981CC53D140EF5FFF4F9C
:10E8800019F0EE27FF27099420E030E040E050E047
:10E890008091C00087FFE0CF2091C600C35DDE4FAE
:10E8A00048815981CD52D1404F5F5F4FC35DDE4FEC
:10E8B00059834883CD52D140213209F063C64A3092
:10E8C000510508F05FC60894811C911C53E0851621
:10E8D000910409F059C600E010E018C081E280936D
:10E8E000C6008091C00086FFFCCF8091C00080648C
:10E8F0008093C0002F5F3F4F2931310579F70F9486
:10E90000DCF10F5F1F4F0530110519F020E030E0FA
:10E91000E5CF10920A0210920B0210920C02109294
:10E920000D02109206021092070210920802109235
:10E930000902109202021092030210920402109235
:10E9400005028FEE90EE60E00F94F5F180E191EE1C
:10E9500060E00F94C2F18091C00087FFFCCF9091DE
:10E96000C600903608F09F759032B8F09093C600BC
:10E970008091C00086FFFCCF8091C00080648093AE
:10E98000C000A0E2A093C6008091C00086FFFCCF2B
:10E990008091C00080648093C000983409F4D7C18E
:10E9A0009934B8F4923409F459C1933458F490333B
:10E9B00019F1903308F4E3C59F33A1F1903409F0C5
:10E9C000DEC5BDC0953409F470C1963409F0D7C5D1
:10E9D00098C1923509F42BC2933538F49C3409F46C
:10E9E000F5C1913509F0CBC518C2963509F445C279
:10E9F000993509F0C4C567C483E792EE62E00F94CD
:10EA0000F5F110920602109207021092080210927D
:10EA1000090210920A0210920B0210920C0210923C
:10EA20000D0213C18FE792EE62E00F94F5F18FEEC5
:10EA300090EE60E00F94F5F181E291EE60E00F94CA
:10EA4000C2F187EB91EE60E00F94F5F180E391EE77
:10EA500060E00F94C2F184EE90EE60E00F94F5F167
:10EA60008FE391EE60E00F94C2F186E090E061E008
:10EA700070E00F9434F20F94DCF18DE591EE60E0DC
:10EA80000F94C2F189EC91EE60E00F94F5F18EE401
:10EA900091EE60E00F94C2F183EC91EE60E00F9490
:10EAA000F5F18CE691EE60E00F94C2F18EE10F94E7
:10EAB0000DF288E90F940DF281E00F940DF20F949E
:10EAC000DCF18BE791EE60E00F94C2F119E0E0E039
:10EAD000F0E010935700E4918E2F0F940DF20F94F5
:10EAE000DCF18AE891EE60E00F94C2F1E3E0F0E03F
:10EAF00010935700E4918E2F0F940DF20F94DCF1D8
:10EB000089E991EE60E00F94C2F1E2E0F0E0109349
:10EB10005700E4918E2F0F940DF20F94DCF188EAE8
:10EB200091EE60E00F94C2F1E1E0F0E01093570045
:10EB30001491812F0F940DF20F94DCF107CF8BE825
:10EB400092EE62E00F94F5F18BE492EE60E00F94A8
:10EB5000F5F10F94DCF100E010E019C0C8016F2D51
:10EB60000F947FFEFF2031F489E492EE60E00F9471
:10EB7000C2F10BC0F092C6008091C00086FFFCCFAE
:10EB80008091C00080648093C0000F5F1F4FC80158
:10EB900081519F41A0E0B0E0ABBFFC01F790BAE229
:10EBA000FB1621F0E2E000301E07C1F60F94DCF105
:10EBB0000F94DCF187E592EE60E00F94F5F10F948D
:10EBC000DCF1CC24DD2400E010E01EC0C8010F946D
:10EBD00077FEF82E882331F489E492EE60E00F94FA
:10EBE000C2F10BC08093C6008091C00086FFFCCFAD
:10EBF0008091C00080648093C000FE1419F00894D6
:10EC0000C11CD11C0F5F1F4FC80181519F41A0E063
:10EC1000B0E0ABBFFC01E790FAE2EF1621F022E092
:10EC20000030120799F60F94DCF10F94DCF182E6C4
:10EC300092EE60E00F94C2F1C60161E070E00F94C3
:10EC400034F20F94DCF10F94DCF110920202109276
:10EC50000302109204021092050278CE89E992EE26
:10EC600062E00F94F5F1279A2F9A16C02F9880E052
:10EC700090E0E0EDF7E03197F1F7019684369105E9
:10EC8000C1F72F9A80E090E0E0EDF7E03197F1F7DF
:10EC9000019684369105C1F78091C00087FFE6CFC9
:10ECA0008091C00087FFFCCF64C485EA92EE62E0E9
:10ECB0000F94F5F140910202509103026091040219
:10ECC0007091050281E020E10F9491F2809102029F
:10ECD00090910302A0910402B091050280509F4FD1
:10ECE000AF4FBF4F8093020290930302A0930402A0
:10ECF000B093050280509041A040B04008F426CE69
:10ED0000A4CF83EB92EE62E00F94F5F140910602FE
:10ED100050910702609108027091090280E020E1A1
:10ED20000F9491F28091060290910702A09108023F
:10ED3000B091090280509F4FAF4FBF4F80930602A2
:10ED400090930702A0930802B0930902FFCD80ECD4
:10ED500092EE62E00F94F5F183E792EE60E00F949B
:10ED6000F5F18FE792EE60E00F94F5F18BE892EE0B
:10ED700060E00F94F5F189E992EE60E00F94F5F10F
:10ED800085EA92EE60E00F94F5F183EB92EE60E09D
:10ED90000F94F5F180EC92EE60E00F94F5F187ECC2
:10EDA00092EE60E00F94F5F188ED92EE60E00F9442
:10EDB000F5F18FED92EE60E00F94F5F18AEE92EEB0
:10EDC00060E00F94F5F183E093EEBDCD87EC92EE19
:10EDD00062E00F94F5F181E40F947BF282E40F94EA
:10EDE0007BF283E40F947BF284E40F947BF285E45E
:10EDF0000F947BF286E40F947BF287E40F947BF20E
:10EE000088E40F947BF28AE40F947BF28BE40F94F6
:10EE10007BF28CE40F947BF299CD88ED92EE62E068
:10EE20000F94F5F1772473948824992409C48FED05
:10EE300092EE62E00F94F5F140910A0250910B02BC
:10EE400060910C0270910D0282E020E10F9491F22A
:10EE500080910A0290910B02A0910C02B0910D02D8
:10EE600080509F4FAF4FBF4F80930A0290930B0289
:10EE7000A0930C02B0930D0269CD8AEE92EE62E08F
:10EE80000F94F5F184EE90EE60E00F94F5F18FECC5
:10EE900091EE60E00F94F5F1662477244301CC5D98
:10EEA000DE4F19821882C452D140D401C301B695F5
:10EEB000A79597958795CA5DDE4F88839983AA8326
:10EEC000BB83C652D140CC5DDE4FA881B981C4520C
:10EED000D1401196CC5DDE4FB983A883C452D14096
:10EEE000CD0162E070E00F9434F2B0E2B093C6005E
:10EEF0008091C00086FFFCCF8091C0008064809329
:10EF0000C000EDE2E093C6008091C00086FFFCCF18
:10EF10008091C00080648093C000F0E2F093C6004E
:10EF20008091C00086FFFCCF8091C00080648093F8
:10EF3000C000CA5DDE4FE880F9800A811B81C6529D
:10EF4000D140BB27A12F902F8F2D0F940DF2CA5DBA
:10EF5000DE4F8881C652D1400F940DF2B0E2FB2EF5
:10EF6000F092C6008091C00086FFFCCF8091C00067
:10EF700080648093C0000DE30093C6008091C000C0
:10EF800086FFFCCF8091C00080648093C00010E2B7
:10EF90001093C6008091C00086FFFCCF8091C00016
:10EFA00080648093C0008BBEF3012791C65DDE4F65
:10EFB0002883CA52D140A22EBB24CC24DD2408943D
:10EFC000611C711C811C911C8BBEF3018791282E42
:10EFD0003324442455240894611C711C811C911C09
:10EFE0008BBEF3013791C55DDE4F3883CB52D140E4
:10EFF0000894611C711C811C911C8BBEF30147910C
:10F00000C45DDE4F4883CC52D140ADEFEA2EAFEF66
:10F01000FA2EAFEF0A2FAFEF1A2F6E0C7F1C801E57
:10F02000911E142D032DF22CEE24EA0CFB1C0C1D5A
:10F030001D1D0F940DF220E22093C6008091C000A8
:10F0400086FFFCCF8091C00080648093C000C65DC5
:10F05000DE4F8881CA52D1400F940DF230E23093D6
:10F06000C6008091C00086FFFCCF8091C000806404
:10F070008093C000C45DDE4F8881CC52D1400F9494
:10F080000DF240E24093C6008091C00086FFFCCFA5
:10F090008091C00080648093C000C55DDE4F888190
:10F0A000CB52D1400F940DF250E25093C6008091A4
:10F0B000C00086FFFCCF8091C00080648093C000B8
:10F0C0008FEFE8168FEFF80680E0080780E018075A
:10F0D00031F484E092EE60E00F94C2F1DFC0D80119
:10F0E000C7018070907CA070B0708050904CA040A0
:10F0F000B040D1F52FEF3FE340E050E0E222F322B1
:10F1000004231523CA5DDE4FA880B980CA80DB8046
:10F11000C652D140AE0CBF1CC01ED11EAA0CBB1CD7
:10F12000CC1CDD1C8EE092EE60E00F94C2F1BB2798
:10F13000A12F902F8F2D0F940DF28E2D0F940DF285
:10F1400030E23093C6008091C00086FFFCCF8091F2
:10F15000C00080648093C0004EE34093C60080915D
:10F16000C00086FFFCCF87C08EE09EEFA0E0B0E03D
:10F17000E822F9220A231B239CE0E91694E9F90608
:10F1800090E0090790E0190709F088C0C45DDE4FE0
:10F19000A881CC52D140EA2EFF2400E010E0102FCD
:10F1A0000F2DFE2CEE24C55DDE4FB881CB52D14031
:10F1B000EB0EF11C011D111DD601C501817090706F
:10F1C000A070B070DC0199278827E80EF91E0A1F8D
:10F1D0001B1F20EF30E040E050E0A222B322C42207
:10F1E000D52241E1AA0CBB1CCC1CDD1C4A95D1F7F1
:10F1F000EA0CFB1C0C1D1D1D81E090E0A0E0B0E0BE
:10F20000282239224A225B2235E1220C331C441C7D
:10F21000551C3A95D1F7E20CF31C041D151D57013E
:10F220006801AA0CBB1CCC1CDD1C85E192EE60E0E1
:10F230000F94C2F1C801AA27BB270F940DF2BB2778
:10F24000A12F902F8F2D0F940DF28E2D0F940DF274
:10F2500090E29093C6008091C00086FFFCCF809121
:10F26000C00080648093C000AEE3A093C60080918C
:10F27000C00086FFFCCF8091C00080648093C000F6
:10F28000C601AA27BB270F940DF2BB27AD2D9C2DDD
:10F290008B2D0F940DF28A2D0F940DF20F94DCF14B
:10F2A000CC5DDE4FE881F981C452D140F99709F471
:10F2B0004DCBF4E0EF2EF12C012D112D6E0C7F1CA7
:10F2C000801E911EF2CD83E093EE62E00F94F5F183
:10F2D0008AE192EE60E00F94C2F18091C00087FF56
:10F2E000FCCF1091C6001F751093C6008091C0001E
:10F2F00086FFFCCF8091C00080648093C0000F9493
:10F30000DCF1812F81548A3108F036C1163409F4BA
:10F3100095C0173490F4133409F44EC0143430F40B
:10F320001134F1F0123409F01DC130C0143409F465
:10F3300059C0153409F016C16BC01A3409F4C4C0A1
:10F340001B3438F4173409F48FC0183409F00AC19B
:10F35000A1C01B3409F4D2C01C3409F003C1E8C0B9
:10F360008FEF81B90DC082B1809582B980E090E0C5
:10F37000E0EDF7E03197F1F70196883C9105C1F790
:10F380008091C00087FFEFCF12B8EFC08FEF84B934
:10F390000DC085B1809585B980E090E0E0EDF7E0A3
:10F3A0003197F1F70196883C9105C1F78091C00033
:10F3B00087FFEFCF15B8D9C08FEF87B90DC088B1DF
:10F3C000809588B980E090E0E0EDF7E03197F1F7C3
:10F3D0000196883C9105C1F78091C00087FFEFCF6F
:10F3E00018B8C3C08FEF8AB90DC08BB180958BB9A7
:10F3F00080E090E0E0EDF7E03197F1F70196883C8E
:10F400009105C1F78091C00087FFEFCF1BB8ADC059
:10F410008FEF8DB90DC08EB180958EB980E090E0F0
:10F42000E0EDF7E03197F1F70196883C9105C1F7DF
:10F430008091C00087FFEFCF1EB897C08FEF80BBD1
:10F440000DC081B3809581BB80E090E0E0EDF7E0F6
:10F450003197F1F70196883C9105C1F78091C00082
:10F4600087FFEFCF11BA81C08FEF83BB0DC084B38C
:10F47000809584BB80E090E0E0EDF7E03197F1F714
:10F480000196883C9105C1F78091C00087FFEFCFBE
:10F4900014BA6BC08FEF809301010FC080910201FD
:10F4A00080958093020180E090E0E0EDF7E03197F5
:10F4B000F1F70196883C9105C1F78091C00087FF64
:10F4C000EDCF1092020151C08FEF809304010FC065
:10F4D0008091050180958093050180E090E0E0ED4A
:10F4E000F7E03197F1F70196883C9105C1F78091DB
:10F4F000C00087FFEDCF1092050137C08FEF8093DA
:10F5000007010FC08091080180958093080180E079
:10F5100090E0E0EDF7E03197F1F70196883C910536
:10F52000C1F78091C00087FFEDCF109208011DC088
:10F530008FEF80930A010FC080910B01809580931B
:10F540000B0180E090E0E0EDF7E03197F1F70196F4
:10F55000883C9105C1F78091C00087FFEDCF1092E4
:10F560000B0103C085E292EEEEC98091C00087FFD7
:10F57000FCCF8091C600EAC988E392EEE4C98CE131
:10F5800091EEE1C988249924933011F1943028F444
:10F59000913089F09230B8F408C0953061F195301F
:10F5A000F0F0963009F048C043C02B3109F042C951
:10F5B00091E06BE13FC96227C15DDE4F2883CF52E6
:10F5C000D14092E037C9B22FA0E0622793E032C960
:10F5D000822F90E0A82BB92B622794E02BC92E3004
:10F5E00009F039C3622795E0C05DDE4F19821882A9
:10F5F000C053D1401FC9E1E0F0E0EC0FFD1FC05D3A
:10F60000DE4F08811981C053D140E00FF11F2083E4
:10F610000F5F1F4FC05DDE4F19830883C053D14079
:10F6200062270A171B0709F005C9D80196E002C92D
:10F63000261709F010C303C0973009F0FBC87724E0
:10F640009981933109F412C19431C8F4963009F4C8
:10F65000D8C0973050F4923009F406C1933009F4C1
:10F660006DC0913009F059C253C0913109F477C08F
:10F67000923108F0BBC0903109F04FC2F5C098310B
:10F6800009F487C0993150F4953109F4EFC09531F0
:10F6900008F4C6C1963109F040C2C2C19A3109F4DA
:10F6A0006CC09A3108F491C09B3109F45BC09D3164
:10F6B00009F033C29D81903359F48F81882311F46E
:10F6C0009EE11CC0813011F091E018C098E916C08D
:10F6D000892F807591F0903539F4E0E0F0E089E011
:10F6E0008093570094910AC0983539F4E3E0F0E034
:10F6F00089E080935700949101C090E01A821B82A8
:10F700008D818C831D829E831F8227E030E009C299
:10F710001A8288E08B8381E48C8386E58D8382E581
:10F720008E8389E48F8383E5888780E589878FE5E9
:10F730008A8782E38B872BE030E0F3C18A818139AD
:10F7400041F0823941F0803911F48FE005C080E04A
:10F7500003C082E001C08AE01A828B8344C0772410
:10F76000739482C08D81882311F48EE12CC0813086
:10F7700011F081E028C088E926C01A82E1E0F0E0BB
:10F7800089E08093570084918B831C8224E030E0D1
:10F79000C8C18B81803589F48C81883039F4E2E0EE
:10F7A000F0E089E08093570084910DC0E0E0F0E044
:10F7B00089E080935700849106C0E3E0F0E089E09F
:10F7C0008093570084911A82DFCF8D81836C99E0FA
:10F7D000E1E0F0E0082E90935700E89507B600FCB2
:10F7E000FDCF1A821B8223E030E09BC180EC8A832C
:10F7F000CE5CDE4F188219821A821B82C253D1401E
:10F800008EC18A8190E0A0E0B0E0582F44273327D2
:10F8100022278B8190E0A0E0B0E0DC0199278827C7
:10F82000282B392B4A2B5B2B8D8190E0A0E0B0E098
:10F83000282B392B4A2B5B2B8C8190E0A0E0B0E089
:10F84000BA2FA92F982F8827282B392B4A2B5B2BCF
:10F85000220F331F441F551FC05EDE4F288339839C
:10F860004A835B83C052D1401A8259C13A81C95C34
:10F87000DE4F3883C753D140CA5CDE4F1882C6536F
:10F88000D1408B81C82EDD24CA5CDE4F488159816E
:10F89000C653D140C42AD52A933109F082C0CE5C28
:10F8A000DE4F88819981AA81BB81C253D1408050AB
:10F8B000904CA340B04030F583E0CE5CDE4FE88052
:10F8C000F9800A811B81C253D140F70100935B008C
:10F8D00080935700E89507B600FCFDCFCE5CDE4F65
:10F8E000088119812A813B81C253D14000501F4FAA
:10F8F0002F4F3F4FCE5CDE4F088319832A833B8313
:10F90000C253D140C05EDE4F488159816A817B81FC
:10F91000C052D140DE011B9631E08C9111962C91A2
:10F9200011971296C75CDE4F2883C953D140C85C3B
:10F93000DE4F1882C853D14090E0C85CDE4FE881AA
:10F94000F981C853D1408E2B9F2B0C01FA01609393
:10F950005B0030935700E89511244E5F5F4F6F4F67
:10F960007F4F0EEFE02E0FEFF02ECE0CDF1CC114F8
:10F97000D10499F685E0C05EDE4F088119812A81A5
:10F980003B81C052D140F80120935B008093570027
:10F99000E89507B600FCFDCF81E180935700E8951C
:10F9A00035C0C05EDE4F88819981AA81BB81C0527B
:10F9B000D140B695A795979587957C018601ABE0D8
:10F9C000AA2EB12CAC0EBD1E0BC0D5016D915D01F0
:10F9D000C7010F947FFE0894E11CF11C01501040F8
:10F9E0000115110591F7A60160E070E0440F551F65
:10F9F000661F771FC05EDE4FE880F9800A811B8199
:10FA0000C052D1404E0D5F1D601F711F1A82C05E33
:10FA1000DE4F488359836A837B83C052D1407FC0C5
:10FA2000FA80C55CDE4FF882CB53D140C65CDE4F16
:10FA30001882CA53D1408B81C82EDD24C65CDE4FAC
:10FA400008811981CA53D140C02AD12A1A828981DA
:10FA5000BE016D5F7F4F843121F59601C05EDE4FA0
:10FA6000E880F9800A811B81C052D1400BBFF701A9
:10FA700087919691DB018C9311969C936E5F7F4FDB
:10FA8000D801C7010296A11DB11DC05EDE4F88835B
:10FA90009983AA83BB83C052D14022503040F1F6F3
:10FAA00036C0C05EDE4F288139814A815B81C052F9
:10FAB000D1400894C108D108760100E010E0089414
:10FAC000C11CD11C0894E11CF11C011D111DE20E8A
:10FAD000F31E041F151F21BDBB27A52F942F832FB5
:10FAE00082BD2F5F3F4F4F4F5F4FF89A80B5DB01CC
:10FAF0008D93BD012E153F054007510761F7C05E8C
:10FB0000DE4F288339834A835B83C052D1409601FC
:10FB10002D5F3F4FFB01108204C080EC8A8322E0FE
:10FB200030E08BE18093C6008091C00086FFFCCF5F
:10FB30008091C00080648093C000C15DDE4FF88179
:10FB4000CF52D140F093C6008091C00086FFFCCF19
:10FB50008091C00080648093C000432F3093C60022
:10FB60008091C00086FFFCCF8091C00080648093AC
:10FB7000C000922F2093C6008091C00086FFFCCF6A
:10FB80008091C00080648093C0008EE08093C600A6
:10FB90008091C00086FFFCCF8091C000806480937C
:10FBA000C00065E1C15DDE4FE880CF52D1406E25D7
:10FBB00069276427FE01319610C090819093C6009A
:10FBC0008091C00086FFFCCF31968091C000806498
:10FBD0008093C0006927215030402115310569F715
:10FBE0006093C6008091C00086FFFCCF8091C0006A
:10FBF00080648093C00085B1805885B9772081F4F6
:10FC0000C15DDE4F0881CF52D1400F5FC15DDE4F35
:10FC10000883CF52D14090E0A0E0B0E00D941AF4F8
:10FC200027982F9880E090E020ED37E0F901319798
:10FC3000F1F7019684369105C9F700008091C00064
:10FC40008D7F8093C00081E180935700E895EE2777
:10FC5000FF270994FFCF90E00D941AF497FB092E2B
:10FC600007260AD077FD04D02ED006D000201AF443
:10FC7000709561957F4F0895F6F7909581959F4F08
:10FC80000895A1E21A2EAA1BBB1BFD010DC0AA1FDD
:10FC9000BB1FEE1FFF1FA217B307E407F50720F0F5
:10FCA000A21BB30BE40BF50B661F771F881F991F70
:10FCB0001A9469F760957095809590959B01AC01B9
:10FCC000BD01CF010895AA1BBB1B51E107C0AA1FAC
:10FCD000BB1FA617B70710F0A61BB70B881F991FED
:10FCE0005A95A9F780959095BC01CD010895F99991
:10FCF000FECF92BD81BDF89A992780B50895262F31
:10FD0000F999FECF1FBA92BD81BD20BD0FB6F89400
:0EFD1000FA9AF99A0FBE01960895F894FFCF63
:040000033000E000E9
:00000001FF