:100000000C949D000C94C5000C94C5000C94C50084
:100010000C94C5000C94C5000C94C5000C94C5004C
:100020000C94C5000C94C5000C94C5000C94C5003C
:100030000C94C5000C94C5000C94C5000C94C5002C
:100040000C94CC030C94C5000C949A030C94740388
:100050000C94C5000C94C5000C94C5000C94C5000C
:100060000C94C5000C94C5000C94C5000C94C500FC
:100070000C94C5000C94C5000C94C5000C94C500EC
:100080000C94C5000C94C5000C94C5000C94C500DC
:100090000C94C5000C94C5000C94C5000C94C500CC
:1000A0000C9416040C94C5000C94C5000C94C50067
:1000B0000C94C500ED00F000E300E7001101110110
:1000C000F400F800FE000201110108010C0100001B
:1000D0000000240027002A002D0000000000250059
:1000E00028002B002E00040404040404040402026B
:1000F00002020202030303030303020203050505D0
:1001000005010204081020408001020408102001AB
:100110000204081020408040010204080A0D0E0964
:1001200000030200000405080000000000000000B9
:100130000000000000000000440511241FBECFEFA6
:10014000D8E0DEBFCDBF22E0A8E3B1E001C01D9240
:10015000AC3DB207E1F711E0A0E0B1E0EAEEF3E177
:1001600002C005900D92A833B107D9F710E0CDE990
:10017000D0E004C02197FE010E94C708CC39D10706
:10018000C9F70E948F050C94F3090C94000090E0CD
:10019000FC01E45EFE4F4491FC01EF5FFE4F2491B1
:1001A000FC01EA51FF4F8491882309F448C044239D
:1001B000C1F150E0FA013297ED30F10590F5E65AC1
:1001C000FF4F0C94C708909180009F7703C09091D7
:1001D00080009F7D9093800024C094B59F7702C0DB
:1001E00094B59F7D94BD1DC09091B0009F7703C0D2
:1001F0009091B0009F7D9093B00013C090919000BB
:100200009F7703C0909190009F7D9093900009C0CC
:100210009091A0009F7703C09091A0009F7D909344
:10022000A000E82FF0E0EE0FFF1FE652FF4FA59170
:10023000B4918FB7F894EC91E22BEC938FBF0895B3
:10024000CF92DF92EF92FF920F931F932FB7F89404
:10025000C090E301D090E401E090E501F090E60168
:100260002FBFDC01CB018C0D9D1DAE1DBF1D4FB7F7
:10027000F8940091E3011091E4012091E50130919F
:10028000E6014FBF0C151D052E053F0528F0801710
:100290009107A207B30758F71F910F91FF90EF90B6
:1002A000DF90CF900895CF92DF92EF92FF920F935D
:1002B0001F93CF93DF936C017A018B01C0E0D0E0F4
:1002C000CE15DF0581F0D8016D918D01D601ED913C
:1002D000FC910190F081E02DC6010995892B11F068
:1002E0002196EECF7E01C701DF91CF911F910F9133
:1002F000FF90EF90DF90CF9008950895E091D101A5
:10030000F091D201309729F01092C8011092C701E4
:1003100009940895CF93DF93AC01E091CF01F09160
:10032000D0013097F1F09091CA018091C9019817DE
:10033000C0F090E0292F30E02617370754F4D90198
:10034000A85CBE4FEA01C20FD31F28812C939F5F88
:10035000F1CF1092CA016093C901CB01DF91CF9117
:100360000994DF91CF9108950895FC01918D828DBC
:10037000981761F0828DDF01A80FB11D5D968C91F9
:10038000928D9F5F9F73928F90E008958FEF9FEF04
:100390000895FC01918D828D981731F0828DE80FC0
:1003A000F11D858D90E008958FEF9FEF0895FC017A
:1003B000918D228D892F90E0805C9F4F821B910947
:1003C0008F739927089587EE91E00E94D70121E06D
:1003D000892B09F420E0822F0895FC01848DDF0130
:1003E000A80FB11DA35ABF4F2C91848D90E00196A8
:1003F0008F739927848FA689B7892C93A089B18997
:100400008C9180648C93938D848D981306C00288A0
:10041000F389E02D80818F7D80830895EF92FF9294
:100420000F931F93CF93DF93EC0181E0888F9B8D17
:100430008C8D981305C0E889F989808185FD24C0D9
:10044000F62E0B8D10E00F5F1F4F0F731127E02E5C
:100450008C8DE8120CC00FB607FCFACFE889F98939
:10046000808185FFF5CFCE010E94ED01F1CF8B8D0C
:10047000FE01E80FF11DE35AFF4FF0820B8FEA896E
:10048000FB898081806207C0EE89FF896083E889EB
:10049000F98980818064808381E090E0DF91CF9151
:1004A0001F910F91FF90EF900895CF93DF93EC0190
:1004B000888D8823C9F0EA89FB89808185FD05C084
:1004C000A889B9898C9186FD0FC00FB607FCF5CFBE
:1004D000808185FFF2CFA889B9898C9185FFEDCF06
:1004E000CE010E94ED01E7CFDF91CF91089580E02A
:1004F00090E0892B21F00E94E30181110DC080E082
:1005000090E0892B71F080E090E0892B51F00E94FF
:100510000000811104C008950E940000F0CF0C94E7
:1005200000000895883048F092EF980F9B3040F01B
:10053000893128F09DEE980F03C0982F01C09FEFDE
:100540009770906490937C0080917A00806480938F
:100550007A0080917A0086FDFCCF8091780020910E
:10056000790090E0922B089585ED8093DC008091D6
:10057000DC0084FDFCCF1092C6010895613298F42E
:100580002091C601243089F460937801282FA8E5D2
:10059000B1E0FC018E2F821B861718F481918D9398
:1005A000F9CF80E0089581E0089582E00895E09118
:1005B000CA018091C901E81730F4F0E0E85CFE4F11
:1005C000808190E008958FEF9FEF08959091CA0188
:1005D0008091C901981750F4E92FF0E0E85CFE4FD4
:1005E000208130E09F5F9093CA0102C02FEF3FEF60
:1005F000C90108958091C90190E02091CA01821B30
:1006000091090895CF93DF93CB01EA01642F0E94F3
:10061000BE02CE01DF91CF910895CF93DF931F9259
:10062000CDB7DEB7698361E0CE0101960E94BE02BC
:1006300081E090E00F90DF91CF910895E3EDF1E03C
:1006400027E030E060E0A191B19111968C91022EEB
:1006500001C0880F0A94EAF7682B2150310998F7F6
:100660008CEC92E00C940D030F931F93CF93DF93C8
:10067000EC010AE010E088810E9492022A813B810D
:10068000820F931F9B838A8301501109A1F76AE0AF
:1006900070E00E94B30880E090E00E94820720E0B2
:1006A00030E040E05FE30E9411080E947D087B83F8
:1006B0006A83DF91CF911F910F910895CF93DF93BC
:1006C000EC0188810E9492022A813B812A563F4F89
:1006D0002817390718F481E0898301C01982DF9156
:1006E000CF9108950E94EE091F920F920FB60F92BC
:1006F00011242F933F934F935F936F937F938F9327
:100700009F93AF93BF93EF93FF9387EE91E00E9487
:10071000ED01FF91EF91BF91AF919F918F917F91EB
:100720006F915F914F913F912F910F900FBE0F905E
:100730001F9018951F920F920FB60F9211242F93AE
:100740008F939F93EF93FF93E091F701F091F8015E
:100750008081E091FD01F091FE0182FD12C0908147
:10076000809100028F5F8F7320910102821751F0F8
:10077000E0910002F0E0E951FE4F958F8093000276
:1007800001C08081FF91EF919F918F912F910F90E8
:100790000FBE0F901F9018951F920F920FB60F92D9
:1007A00011242F933F938F939F93AF93BF93809187
:1007B000E3019091E401A091E501B091E60130914F
:1007C000C30126E0230F2D3720F40296A11DB11D91
:1007D00005C029E8230F0396A11DB11D2093C30175
:1007E0008093E3019093E401A093E501B093E601C7
:1007F0008091BF019091C001A091C101B091C2014F
:100800000196A11DB11D8093BF019093C001A093DB
:10081000C101B093C201BF91AF919F918F913F9160
:100820002F910F900FBE0F901F9018951F920F924F
:100830000FB60F9211242F933F934F935F936F93B3
:100840007F938F939F93AF93BF93EF93FF93809189
:10085000D900887F803609F49CC068F5883209F495
:100860005BC090F4803109F454C038F4882309F453
:10087000F6C0883009F44DC0F6C0883109F44CC088
:10088000803209F45DC0EFC0803409F468C048F4D8
:10089000803309F455C0883309F0E5C080939B018B
:1008A000D8C0803509F44FC0883509F45DC088345C
:1008B00009F0D9C0D6C0883909F4C7C0A8F4883770
:1008C00009F467C038F4883609F463C0803709F446
:1008D00060C0C9C0883809F4B8C0803909F45FC065
:1008E000803809F0C0C05BC0803B09F486C038F492
:1008F000803A09F466C0883A09F47FC0B4C0803CED
:1009000009F4A7C0883C09F4A4C0883B09F48AC054
:10091000AAC08091BE0110C09091BD018091BC0120
:10092000981770F5E091BD0181E08E0F8093BD01B5
:10093000F0E0E456FE4F80818093DB0085EC86C0BA
:1009400080939B018EC0E091BD0181E08E0F80936A
:10095000BD018091DB00F0E0E456FE4F8083909172
:10096000BD018091BC016EC0E091BD0181E08E0FA0
:100970008093BD018091DB00F0E0E456FE4F808360
:100980008091C50181116DC081E08093C40184EA2A
:1009900061C083E08093C60110929A01CFCF80910D
:1009A0009A01803208F051C0E0919A0181E08E0FE7
:1009B00080939A018091DB00F0E0E658FE4F80833F
:1009C000BDCF85EC8093DC001092C60180919A0126
:1009D000803230F4E0919A01F0E0E658FE4F108248
:1009E00060919A0170E0E091CB01F091CC018AE72F
:1009F00091E0099510929A0136C084E08093C60177
:100A00001092790110927801E091CD01F091CE0120
:100A1000099580917801811105C081E0809378016A
:100A200010925801E091790181E08E0F8093790155
:100A3000F0E0E85AFE4F80818093DB0090917901CD
:100A400080917801981708F479CF85E88093DC00CD
:100A50000AC085EC8093DC001092C60104C010929D
:100A60009B010E94B402FF91EF91BF91AF919F91C2
:100A70008F917F916F915F914F913F912F910F9047
:100A80000FBE0F901F901895E7EEF1E013821282CF
:100A900088EE93E0A0E0B0E084839583A683B783DB
:100AA0002AE031E03183208325EC30E0358724874C
:100AB00024EC30E03787268720EC30E0318B208B28
:100AC00021EC30E0338B228B22EC30E0358B248B11
:100AD00026EC30E0378B268B118E128E138E148EFF
:100AE000E4E8F2E0168217821086118612861386D9
:100AF0001486158616861786108A118A128A138A1A
:100B0000148A158AECECF2E01382128284839583B6
:100B1000A683B7838AE191E09183808308957894D6
:100B200084B5826084BD84B5816084BD85B58260F2
:100B300085BD85B5816085BD80916E0081608093A3
:100B40006E0010928100809181008260809381000C
:100B5000809181008160809381008091800081601C
:100B6000809380008091B10084608093B100809177
:100B7000B00081608093B00080919100826080938A
:100B8000910080919100816080939100809190000C
:100B90008160809390008091A10082608093A10089
:100BA0008091A10081608093A1008091A00081606C
:100BB0008093A00080917A00846080937A00809175
:100BC0007A00826080937A0080917A008E7F809391
:100BD0007A0080917A00806880937A001092C10038
:100BE0001092C8021092C9021092CA021092CB024F
:100BF0001092860210928702109288021092890247
:100C000068EB7BE080E090E00E94200187EE91E0BD
:100C10009093C7028093C602E091F701F091F8012A
:100C200082E08083E091F301F091F4011082E09181
:100C3000F501F091F60188E080831092FF01E091C8
:100C4000FB01F091FC0186E08083E091F901F091D5
:100C5000FA01808180618083E091F901F091FA01CD
:100C6000808188608083E091F901F091FA018081B0
:100C700080688083E091F901F091FA0180818F7D95
:100C800080832FB7F8948091E3019091E401A091C3
:100C9000E501B091E6012FBF809386029093870211
:100CA000A0938802B09389028091C6029091C702F6
:100CB000DC01ED91FC910280F381E02D41E150E0F7
:100CC00066E271E009956AE070E080E090E00E94E1
:100CD000200181E080939A0210E11093DA002EE760
:100CE00031E03093CE012093CD012AE831E03093FA
:100CF000CC012093CB011092CA011092C90110922D
:100D0000C8011092C7011092C6018093C5011092CC
:100D1000C40187E10E94C70088E10E94C70080915A
:100D2000D9008E7F8093D9008091D9008D7F8093E8
:100D3000D90080E28093D80085E48093DC008DE7C1
:100D400091E09093D0018093CF018EE193E0909356
:100D5000D2018093D10184E090E00E94CD08EC01A3
:100D60008EE0888319821B821A82CE010E9434038E
:100D7000D093D401C093D30184E090E00E94CD08C9
:100D8000EC018FE0888319821B821A82CE010E94B7
:100D90003403D093D601C093D50184E090E00E9443
:100DA000CD08EC01188319821B821A820E94340339
:100DB000D093D801C093D70184E090E00E94CD0881
:100DC000EC0181E1888319821B821A82CE010E9484
:100DD0003403D093DA01C093D90184E090E00E94FB
:100DE000CD08EC0182E1888319821B821A82CE0130
:100DF0000E943403D093DC01C093DB0184E090E0D7
:100E00000E94CD08EC0183E1888319821B821A823B
:100E1000CE010E943403D093DE01C093DD0184E053
:100E200090E00E94CD08EC0189E1888319821B8241
:100E30001A82CE010E943403D093E001C093DF01F7
:100E400084E090E00E94CD08EC018AE18883198259
:100E50001B821A82CE010E943403D093E201C09318
:100E6000E101EEE0F1E02491E3EFF0E084918823EA
:100E700099F090E0880F991FFC01E253FF4FA59174
:100E8000B491FC01E652FF4F859194918FB7F8948D
:100E9000EC91E22BEC938FBF8DE00E94C700809114
:100EA000D3019091D4010E945E038091D50190916D
:100EB000D6010E945E038091D7019091D8010E94D3
:100EC0005E038091D9019091DA010E945E038091C6
:100ED000DB019091DC010E945E038091DD01909125
:100EE000DE010E945E038091DF019091E0010E948B
:100EF0005E038091E1019091E2010E945E030E94F5
:100F00007702CDCFE89409C097FB3EF49095809589
:100F1000709561957F4F8F4F9F4F9923A9F0F92FBF
:100F200096E9BB279395F695879577956795B7953D
:100F3000F111F8CFFAF4BB0F11F460FF1BC06F5F23
:100F40007F4F8F4F9F4F16C0882311F096E911C035
:100F5000772321F09EE8872F762F05C0662371F056
:100F600096E8862F70E060E02AF09A95660F771F6A
:100F7000881FDAF7880F9695879597F9089597F95E
:100F80009F6780E870E060E008959FEF80EC08952F
:100F900000240A9416161706180609060895002458
:100FA0000A9412161306140605060895092E0394D2
:100FB000000C11F4882352F0BB0F40F4BF2B11F446
:100FC00060FF04C06F5F7F4F8F4F9F4F089557FDA5
:100FD0009058440F551F59F05F3F71F04795880FA7
:100FE00097FB991F61F09F3F79F08795089512163E
:100FF00013061406551FF2CF4695F1DF08C01616EA
:1010000017061806991FF1CF86957105610508949A
:101010000895E894BB2766277727CB0197F90895B1
:101020005058BB27AA270E9428080C94D6070E9474
:10103000C80738F00E94CF0720F039F49F3F19F419
:1010400026F40C94C5070EF4E095E7FB0C94BF075B
:10105000E92F0E94E70758F3BA176207730784075E
:10106000950720F079F4A6F50C9409080EF4E095A4
:101070000B2EBA2FA02D0B01B90190010C01CA0152
:10108000A0011124FF27591B99F0593F50F4503EFD
:1010900068F11A16F040A22F232F342F4427585FEF
:1010A000F3CF469537952795A795F0405395C9F707
:1010B0007EF41F16BA0B620B730B840BBAF09150BF
:1010C000A1F0FF0FBB1F661F771F881FC2F70EC05E
:1010D000BA0F621F731F841F48F487957795679531
:1010E000B795F7959E3F08F0B0CF9395880F08F01D
:1010F0009927EE0F9795879508950E948408689424
:10110000B1110C940A0808950E94EF0788F09F57C8
:1011100098F0B92F9927B751B0F0E1F0660F771F1B
:10112000881F991F1AF0BA95C9F714C0B13091F011
:101130000E940908B1E008950C940908672F782FE0
:101140008827B85F39F0B93FCCF3869577956795D6
:10115000B395D9F73EF490958095709561957F4F42
:101160008F4F9F4F0895AA1BBB1B51E107C0AA1FB9
:10117000BB1FA617B70710F0A61BB70B881F991F38
:101180005A95A9F780959095BC01CD010895EE0F71
:10119000FF1F0590F491E02D09940F931F93CF93B7
:1011A000DF938230910510F482E090E0E091DA0262
:1011B000F091DB0220E030E0A0E0B0E0309719F1E0
:1011C000408151810281138148175907C8F0841763
:1011D000950769F4109731F012960C9312971396B5
:1011E0001C9327C00093DA021093DB0222C0211562
:1011F000310519F04217530718F49A01BD01EF01A8
:10120000DF01F801DBCF21153105F9F0281B390B7F
:101210002430310580F48A819B816115710521F0AC
:10122000FB019383828304C09093DB028093DA02F4
:10123000FE01329644C0FE01E20FF31F81939193A9
:1012400022503109398328833AC02091D802309145
:10125000D902232B41F420910201309103013093F4
:10126000D9022093D802209100013091010121156B
:10127000310541F42DB73EB740910401509105016D
:10128000241B350BE091D802F091D902E217F30745
:10129000A0F42E1B3F0B2817390778F0AC014E5FE6
:1012A0005F4F2417350748F04E0F5F1F5093D90248
:1012B0004093D8028193919302C0E0E0F0E0CF0127
:1012C000DF91CF911F910F910895CF93DF930097F6
:1012D00009F481C0FC01329713821282A091DA02D4
:1012E000B091DB02109781F420813181820F931F2E
:1012F0002091D8023091D9022817390751F5F0937F
:10130000D902E093D80267C0ED0120E030E0CE17AB
:10131000DF0740F44A815B819E0141155105F1F0E0
:10132000EA01F5CFD383C28340815181840F951F99
:10133000C817D90759F488819981840F951F02969F
:10134000918380838A819B819383828321153105D8
:1013500029F4F093DB02E093DA023DC0E901FB835C
:10136000EA8349915991C40FD51FEC17FD0761F429
:1013700080819181840F951F0296E901998388836A
:10138000828193819B838A83E0E0F0E012968D91C5
:101390009C911397009719F0FD01DC01F7CF8D9117
:1013A0009C9111979D012E5F3F4F820F931F2091BB
:1013B000D8023091D9022817390769F4309729F4F7
:1013C0001092DB021092DA0202C013821282B093F2
:1013D000D902A093D802DF91CF91089581E090E0E7
:0A13E000F8940C94F309F894FFCF81
:1013EA000000DC028000000000000E025301D70159
:1013FA00B501C9015502000000000D030203FA02FB
:10140A00E602D702B401564D4450565F317C315F33
:08141A00564D4450560D0A0026
:0200000002C03C
:00000001FF