:100000000C949D000C94C5000C94C5000C94C50084
:100010000C94C5000C94C5000C94C5000C94C5004C
:100020000C94C5000C94C5000C94C5000C94C5003C
:100030000C94C5000C94C5000C94C5000C94C5002C
:100040000C94FA040C94C5000C94C5000C94C500E3
:100050000C94C5000C94C5000C94C5000C94C5000C
:100060000C94C5000C94C5000C94C5000C94C500FC
:100070000C94C5000C94C5000C94C5000C94C500EC
:100080000C94C5000C94C5000C94C5000C94C500DC
:100090000C94C5000C94C5000C94C5000C94C500CC
:1000A0000C94EF020C94C5000C94C5000C94C50090
:1000B0000C94C50058045B044E0452047C047C0478
:1000C0005F04630469046D047C04730477040A0DFF
:1000D0000E090003020000040508000000000000F3
:1000E0000000000000000000000102040810204091
:1000F0008001020408102001020408102040804002
:1001000001020408040404040404040402020202B8
:1001100002020303030303030202030505050500AE
:10012000000000250028002B002E00000000002405
:100130000027002A002D0000960211241FBECFEFD9
:10014000D8E0DEBFCDBF11E0A0E0B1E0E0E5FEE029
:1001500002C005900D92A831B107D9F721E0A8E1BE
:10016000B1E001C01D92A93FB207E1F710E0CDE96F
:10017000D0E004C02197FE010E94FF05CC39D107D1
:10018000C9F70E94E9040C9426070C940000089516
:10019000CF93DF93EC0188810E941C04BC01990F6E
:1001A000880B990B0E94A00520E030E048E453E45E
:1001B0000E94990587FF03C081E0898301C01982ED
:1001C000DF91CF910895CF93DF9364E070E089E2EF
:1001D00091E00E948A0267EC70E089E291E00E945F
:1001E0008C0269E871E089E291E00E94910282E06C
:1001F00090E00E94F8042EE0FC0120831182C8E107
:10020000D1E09983888382E090E00E94F8042FE097
:10021000FC01208311829B838A8382E090E00E940C
:10022000F80420E1FC01208311829D838C8382E00D
:1002300090E00E94F80421E1FC01208311829F8359
:100240008E8382E090E00E94F80422E1FC0120838A
:1002500011829987888782E090E00E94F80423E168
:10026000FC01208311829B878A8782E090E00E94B4
:10027000F80429E1FC01208311829D878C8782E0AC
:1002800090E00E94F8042AE1FC01208311829F87FC
:100290008E8761E08DE00E947D0461E087E00E942E
:1002A0007D0461E08DE00E94B90461E087E0DF91A8
:1002B000CF910C94B904CF93DF93C8E1D1E088814A
:1002C00099810E94C8008A819B810E94C8008C810C
:1002D0009D810E94C8008E819F810E94C8008885F0
:1002E00099850E94C8008A859B850E94C8008C85DC
:1002F0009D850E94C8008E859F850E94C8008091C0
:1003000028018F5F80932801DF91CF9108950C948D
:100310005B01E8E1F1E027E030E060E0A191B1911C
:1003200011968C91022E01C0880F0A94EAF7682B6F
:100330002150310998F789E291E00C942E028091C6
:100340005C0190E020915D01821B910908959091DC
:100350005D0180915C01981750F4E92FF0E0E25ABA
:10036000FE4F208130E09F5F90935D0102C02FEF30
:100370003FEFC9010895E0915D0180915C01E817AC
:1003800030F4F0E0E25AFE4F808190E008958FEF64
:100390009FEF08950895CF93DF93EC01E09135012D
:1003A000F09136013097F1F090915D0180915C0100
:1003B0009817C0F090E0292F30E02617370754F443
:1003C000DE01A20FB31F4C91D901A25ABE4F4C932C
:1003D0009F5FF1CF10925D0160935C01CB01DF91D3
:1003E000CF910994DF91CF910895E0913701F09179
:1003F0003801309729F010923B0110923A0109948C
:100400000895CF92DF92EF92FF920F931F93CF93B5
:10041000DF937C01CB018A0120913901222389F0ED
:10042000EB016B01C40ED51ECC15DD0569F0699199
:10043000D701ED91FC910190F081E02DC701099564
:10044000F3CF642F0E94BC02C801DF91CF911F91AE
:100450000F91FF90EF90DF90CF900895CF93DF93AF
:100460001F92CDB7DEB76983209139012223D1F0E5
:1004700020913A01203240F021E030E0FC0133834A
:10048000228380E090E015C080913B01E82FF0E0EE
:10049000E45CFE4F998190838F5F80933B01809352
:1004A0003A0105C061E0CE0101960E94BC0281E0E4
:1004B00090E00F90DF91CF910895FC01138212829A
:1004C00088EE93E0A0E0B0E084839583A683B783B1
:1004D0008BE091E091838083089510925D011092EA
:1004E0005C0110923B0110923A010C949A02CF9356
:1004F000DF93EC01862F0E94B80285EF91E00E9405
:10050000DA028BEC91E00E94D502CE01DF91CF910F
:100510000C946D020C947702709336016093350150
:1005200008957093380160933701089589E291E04E
:100530000C945D021092EB0181E08093E90110922E
:10054000E80161E087E10E94B90461E088E10E946E
:10055000B904E9EDF0E080818E7F808380818D7F1A
:10056000808388E48093D80085E48093DC0008953C
:10057000880F8093DA000895613298F42091EB019E
:10058000243089F46093A001282FA2EAB1E0FC0195
:100590008E2F821B861718F481918D93F9CF80E0FE
:1005A000089581E0089582E008959093E501809395
:1005B000E40108959093E7018093E601089585EDA5
:1005C0008093DC008091DC0084FDFCCF1092EB0175
:1005D000089585EC8093DC001092EB0108951F9242
:1005E0000F920FB60F9211242F933F934F935F9367
:1005F0006F937F938F939F93AF93BF93EF93FF93EB
:100600008091D900887F803609F49EC078F58832C1
:1006100009F45DC090F4803109F456C038F48823A1
:1006200009F4F5C0883009F44FC0F5C0883109F4E9
:100630004EC0803209F45FC0EEC0803409F46AC055
:1006400058F4803309F457C0883309F0E4C080932C
:100650007E010E94E902DFC0803509F44FC0883571
:1006600009F45DC0883409F0D6C0D3C0883909F4D4
:10067000C4C0A8F4883709F467C038F4883609F490
:1006800063C0803709F460C0C6C0883809F4B5C0BB
:10069000803909F45FC0803809F0BDC05BC0803B81
:1006A00009F483C038F4803A09F466C0883A09F442
:1006B0007CC0B1C0803C09F4A4C0883C09F4A1C04E
:1006C000883B09F487C0A7C08091EA0110C09091CF
:1006D000C3018091C201981770F5E091C30181E0D8
:1006E0008E0F8093C301F0E0EC53FE4F8081809326
:1006F000DB0085EC83C080937E018BC0E091C30159
:1007000081E08E0F8093C3018091DB00F0E0EC5319
:10071000FE4F80839091C3018091C2016BC0E09134
:10072000C30181E08E0F8093C3018091DB00F0E074
:10073000EC53FE4F80838091E90181116AC081E012
:100740008093E80184EA5EC083E08093EB0110921D
:100750007F01CFCF80917F01803208F04EC0E091C1
:100760007F0181E08E0F80937F018091DB00F0E0BC
:10077000E058FE4F8083BDCF0E94E90280917F0147
:10078000803230F4E0917F01F0E0E058FE4F1082BB
:1007900060917F0170E0E091E401F091E50180E873
:1007A00091E0099510927F0136C084E08093EB01BF
:1007B0001092A1011092A001E091E601F091E701F1
:1007C00009958091A001811105C081E08093A0016D
:1007D0001092A201E091A10181E08E0F8093A1010E
:1007E000F0E0EE55FE4F80818093DB009091A101F7
:1007F0008091A001981708F47CCF85E88093DC00F5
:100800000AC085EC8093DC001092EB0104C01092CA
:100810007E010E94DF02FF91EF91BF91AF919F9106
:100820008F917F916F915F914F913F912F910F9099
:100830000FBE0F901F901895883048F092EF980FD8
:100840009B3040F0893128F09DEE980F03C0982F1F
:1008500001C09FEF2091060180E4289F90011124A0
:100860009770922B90937C0080917A0080648093A3
:100870007A0080917A0086FDFCCF809178002091EB
:10088000790090E0922B089590E0FC013297ED30D2
:10089000F10590F5E65AFF4F0C94FF05809180001A
:1008A0008F7703C0809180008F7D809380000895B2
:1008B00084B58F7702C084B58F7D84BD0895809103
:1008C000B0008F7703C08091B0008F7D8093B0001F
:1008D0000895809190008F7703C0809190008F7D64
:1008E0008093900008958091A0008F7703C080913D
:1008F000A0008F7D8093A0000895CF93DF9390E0B8
:10090000FC01E751FF4F2491FC01EC5FFE4F849105
:10091000882361F190E0880F991FFC01E55DFE4F8F
:10092000C591D491FC01E15EFE4FA591B491611196
:1009300009C09FB7F8948881209582238883EC9121
:100940002E230BC0623061F49FB7F8948881322F58
:10095000309583238883EC912E2B2C939FBF06C068
:100960008FB7F894E8812E2B28838FBFDF91CF912A
:1009700008951F93CF93DF93282F30E0F901E253BE
:10098000FF4F8491F901E751FF4FD491F901EC5FDA
:10099000FE4FC491CC23C1F0162F81110E94440454
:1009A000EC2FF0E0EE0FFF1FE15EFE4FA591B4913A
:1009B0009FB7F894111104C08C91D095D82302C030
:1009C000EC91DE2BDC939FBFDF91CF911F910895B7
:1009D00008950E9444050E94E8040E94E300C0E0DC
:1009E000D0E00E9487012097E1F30E940000F9CF38
:1009F0000C9405061F920F920FB60F9211242F939D
:100A00003F938F939F93AF93BF938091ED0190910C
:100A1000EE01A091EF01B091F0013091EC0123E0E3
:100A2000230F2D3720F40196A11DB11D05C026E826
:100A3000230F0296A11DB11D2093EC018093ED01BF
:100A40009093EE01A093EF01B093F0018091F1013A
:100A50009091F201A091F301B091F4010196A11DD2
:100A6000B11D8093F1019093F201A093F301B09333
:100A7000F401BF91AF919F918F913F912F910F9072
:100A80000FBE0F901F901895789484B5826084BD36
:100A900084B5816084BD85B5826085BD85B5816082
:100AA00085BDEEE6F0E0808181608083E1E8F0E0E2
:100AB0001082808182608083808181608083E0E811
:100AC000F0E0808181608083E1EBF0E080818460F0
:100AD0008083E0EBF0E0808181608083E1E9F0E0F9
:100AE000808182608083808181608083E0E9F0E0A2
:100AF000808181608083E1EAF0E080818260808390
:100B0000808181608083E0EAF0E080818160808381
:100B1000EAE7F0E080818460808380818260808366
:100B20008081816080838081806880831092C10091
:100B300008950E94DB0508F481E00895E89409C057
:100B400097FB3EF490958095709561957F4F8F4F00
:100B50009F4F9923A9F0F92F96E9BB279395F69516
:100B6000879577956795B795F111F8CFFAF4BB0F94
:100B700011F460FF1BC06F5F7F4F8F4F9F4F16C0F8
:100B8000882311F096E911C0772321F09EE8872F82
:100B9000762F05C0662371F096E8862F70E060E03E
:100BA0002AF09A95660F771F881FDAF7880F9695B7
:100BB000879597F90895990F0008550FAA0BE0E85B
:100BC000FEEF16161706E807F907C0F0121613060F
:100BD000E407F50798F0621B730B840B950B39F44F
:100BE0000A2661F0232B242B252B21F408950A26B5
:100BF00009F4A140A6958FEF811D811D0895EE0F88
:100C0000FF1F0590F491E02D09940F931F93CF934C
:100C1000DF938230910510F482E090E0E091F701DB
:100C2000F091F80120E030E0A0E0B0E0309719F159
:100C3000408151810281138148175907C8F08417F8
:100C4000950769F4109731F012960C93129713964A
:100C50001C9327C00093F7011093F80122C02115BF
:100C6000310519F04217530718F49A01BD01EF013D
:100C7000DF01F801DBCF21153105F9F0281B390B15
:100C80002430310580F48A819B816115710521F042
:100C9000FB019383828304C09093F8018093F70152
:100CA000FE01329644C0FE01E20FF31F819391933F
:100CB00022503109398328833AC02091F5013091BF
:100CC000F601232B41F4209102013091030130936E
:100CD000F6012093F50120910001309101012115C9
:100CE000310541F42DB73EB7409104015091050103
:100CF000241B350BE091F501F091F601E217F307A3
:100D0000A0F42E1B3F0B2817390778F0AC014E5F7B
:100D10005F4F2417350748F04E0F5F1F5093F601C1
:100D20004093F5018193919302C0E0E0F0E0CF01A0
:100D3000DF91CF911F910F910895CF93DF9300978B
:100D400009F481C0FC01329713821282A091F7014D
:100D5000B091F801109781F420813181820F931FA7
:100D60002091F5013091F6012817390751F5F093DC
:100D7000F601E093F50167C0ED0120E030E0CE1709
:100D8000DF0740F44A815B819E0141155105F1F076
:100D9000EA01F5CFD383C28340815181840F951F2F
:100DA000C817D90759F488819981840F951F029635
:100DB000918380838A819B8193838283211531056E
:100DC00029F4F093F801E093F7013DC0E901FB83BA
:100DD000EA8349915991C40FD51FEC17FD0761F4BF
:100DE00080819181840F951F0296E9019983888300
:100DF000828193819B838A83E0E0F0E012968D915B
:100E00009C911397009719F0FD01DC01F7CF8D91AC
:100E10009C9111979D012E5F3F4F820F931F209150
:100E2000F5013091F6012817390769F4309729F454
:100E30001092F8011092F70102C013821282B0934F
:100E4000F601A093F501DF91CF910895F894FFCFBB
:100E50000000F901800001000000002E0201029F45
:080E600001A701BB01CA01005A
:0200000002C03C
:00000001FF