:100000000C949D000C94C5000C94C5000C94C50084
:100010000C94C5000C94C5000C94C5000C94C5004C
:100020000C94C5000C94C5000C94C5000C94C5003C
:100030000C94C5000C94C5000C94C5000C94C5002C
:100040000C94DE040C94C5000C94C5000C94C500FF
:100050000C94C5000C94C5000C94C5000C94C5000C
:100060000C94C5000C94C5000C94C5000C94C500FC
:100070000C94C5000C94C5000C94C5000C94C500EC
:100080000C94C5000C94C5000C94C5000C94C500DC
:100090000C94C5000C94C5000C94C5000C94C500CC
:1000A0000C94D5020C94C5000C94C5000C94C500AA
:1000B0000C94C5003E044104340438046204620414
:1000C000450449044F045304620459045D040A0DB5
:1000D0000E090003020000040508000000000000F3
:1000E0000000000000000000000102040810204091
:1000F0008001020408102001020408102040804002
:1001000001020408040404040404040402020202B8
:1001100002020303030303030202030505050500AE
:10012000000000250028002B002E00000000002405
:100130000027002A002D00007C0211241FBECFEFF3
:10014000D8E0DEBFCDBF11E0A0E0B1E0EAE0FBE027
:1001500002C005900D92A231B107D9F721E0A2E1CA
:10016000B1E001C01D92AF3FB207E1F710E0CDE969
:10017000D0E004C02197FE010E947D05CC39D10753
:10018000C9F70E94CF040C9483050C9400000895D5
:1001900064E070E083E391E00E94700267EC70E03D
:1001A00083E391E00E94720260E571E083E391E0F5
:1001B0000E94770261E08DE00E94630461E087E0C5
:1001C0000E94630461E08DE00E949F0461E087E08B
:1001D0000C949F04CF93DF938EE00E940204C2E14F
:1001E000D1E0092E000CAA0BBB0B88839983AA834C
:1001F000BB838FE00E940204092E000CAA0BBB0BEC
:100200008C839D83AE83BF8380E10E940204092E0C
:10021000000CAA0BBB0B88879987AA87BB8781E153
:100220000E940204092E000CAA0BBB0B8C879D8731
:10023000AE87BF8782E10E940204092E000CAA0B40
:10024000BB0B888B998BAA8BBB8B83E10E9402042A
:10025000092E000CAA0BBB0B8C8B9D8BAE8BBF8B1E
:1002600089E10E940204092E000CAA0BBB0B888FA7
:10027000998FAA8FBB8F8AE10E940204092E000C7D
:10028000AA0BBB0B8C8F9D8FAE8FBF8F80913201DD
:100290008F5F80933201DF91CF9108950C94EA0033
:1002A000CF92DF92EF92FF92CF93DF93CDB7DEB77D
:1002B00060970FB6F894DEBF0FBECDBF22E131E0EC
:1002C000FE013196AE014F5E5F4FBF01D901CD9067
:1002D000DD90ED90FD909D01D082C1823296E417B1
:1002E000F507A1F740E150E083E391E00E94E701C8
:1002F00060960FB6F894DEBF0FBECDBFDF91CF91F1
:10030000FF90EF90DF90CF9008958091660190E08C
:1003100020916701821B9109089590916701809156
:100320006601981750F4E92FF0E0E859FE4F20815C
:1003300030E09F5F9093670102C02FEF3FEFC9014C
:100340000895E091670180916601E81730F4F0E0CC
:10035000E859FE4F808190E008958FEF9FEF089558
:100360000895CF93DF93EC01E0913F01F0914001BC
:100370003097F1F090916701809166019817C0F075
:1003800090E0292F30E02617370754F4DE01A20F42
:10039000B31F4C91D901A859BE4F4C939F5FF1CF29
:1003A0001092670160936601CB01DF91CF910994B0
:1003B000DF91CF910895E0914101F0914201309792
:1003C00029F0109245011092440109940895CF92AA
:1003D000DF92EF92FF920F931F93CF93DF937C01F5
:1003E000CB018A0120914301222389F0EB016B01AB
:1003F000C40ED51ECC15DD0569F06991D701ED91CC
:10040000FC910190F081E02DC7010995F3CF642F95
:100410000E94A202C801DF91CF911F910F91FF901E
:10042000EF90DF90CF900895CF93DF931F92CDB7D9
:10043000DEB76983209143012223D1F0209144014A
:10044000203240F021E030E0FC013383228380E061
:1004500090E015C080914501E82FF0E0EA5BFE4F87
:10046000998190838F5F809345018093440105C0FB
:1004700061E0CE0101960E94A20281E090E00F901F
:10048000DF91CF910895FC011382128288EE93E0F0
:10049000A0E0B0E084839583A683B78385E091E0F4
:1004A00091838083089510926701109266011092E3
:1004B0004501109244010C948002CF93DF93EC012C
:1004C000862F0E949E028BED91E00E94C00281EB7C
:1004D00091E00E94BB02CE01DF91CF910C945302B8
:1004E0000C945D027093400160933F0108957093F6
:1004F000420160934101089583E391E00C9443022B
:100500001092F50181E08093F3011092F20161E015
:1005100087E10E949F0461E088E10E949F04E9ED69
:10052000F0E080818E7F808380818D7F808388E46E
:100530008093D80085E48093DC000895880F809331
:10054000DA000895613298F42091F501243089F49D
:100550006093AA01282FACEAB1E0FC018E2F821B28
:10056000861718F481918D93F9CF80E0089581E08A
:10057000089582E008959093EF018093EE0108952D
:100580009093F1018093F001089585ED8093DC0054
:100590008091DC0084FDFCCF1092F501089585EC7C
:1005A0008093DC001092F50108951F920F920FB610
:1005B0000F9211242F933F934F935F936F937F93E9
:1005C0008F939F93AF93BF93EF93FF938091D90045
:1005D000887F803609F49EC078F5883209F45DC0C2
:1005E00090F4803109F456C038F4882309F4F5C03A
:1005F000883009F44FC0F5C0883109F44EC080320C
:1006000009F45FC0EEC0803409F46AC058F4803346
:1006100009F457C0883309F0E4C0809388010E9430
:10062000CF02DFC0803509F44FC0883509F45DC0C2
:10063000883409F0D6C0D3C0883909F4C4C0A8F4FE
:10064000883709F467C038F4883609F463C0803706
:1006500009F460C0C6C0883809F4B5C0803909F40F
:100660005FC0803809F0BDC05BC0803B09F483C027
:1006700038F4803A09F466C0883A09F47CC0B1C005
:10068000803C09F4A4C0883C09F4A1C0883B09F46B
:1006900087C0A7C08091F40110C09091CD018091D6
:1006A000CC01981770F5E091CD0181E08E0F809319
:1006B000CD01F0E0E253FE4F80818093DB0085ECBA
:1006C00083C0809388018BC0E091CD0181E08E0FC3
:1006D0008093CD018091DB00F0E0E253FE4F8083F8
:1006E0009091CD018091CC016BC0E091CD0181E072
:1006F0008E0F8093CD018091DB00F0E0E253FE4F3E
:1007000080838091F30181116AC081E08093F201BE
:1007100084EA5EC083E08093F50110928901CFCF17
:1007200080918901803208F04EC0E091890181E01A
:100730008E0F809389018091DB00F0E0E657FE4F39
:100740008083BDCF0E94CF0280918901803230F436
:10075000E0918901F0E0E657FE4F10826091890137
:1007600070E0E091EE01F091EF018AE891E00995E7
:100770001092890136C084E08093F5011092AB019C
:100780001092AA01E091F001F091F1010995809198
:10079000AA01811105C081E08093AA011092AC01E9
:1007A000E091AB0181E08E0F8093AB01F0E0E45566
:1007B000FE4F80818093DB009091AB018091AA0174
:1007C000981708F47CCF85E88093DC000AC085EC9C
:1007D0008093DC001092F50104C0109288010E9401
:1007E000C502FF91EF91BF91AF919F918F917F9142
:1007F0006F915F914F913F912F910F900FBE0F908E
:100800001F901895883048F092EF980F9B3040F079
:10081000893128F09DEE980F03C0982F01C09FEFFB
:100820002091000180E4289F900111249770922B61
:1008300090937C0080917A00806480937A0080910C
:100840007A0086FDFCCF809178002091790090E0BD
:10085000922B089590E0FC013297ED30F10590F570
:10086000E65AFF4F0C947D05809180008F7703C07E
:10087000809180008F7D80938000089584B58F776C
:1008800002C084B58F7D84BD08958091B0008F77BC
:1008900003C08091B0008F7D8093B0000895809157
:1008A00090008F7703C0809190008F7D809390009F
:1008B00008958091A0008F7703C08091A0008F7D64
:1008C0008093A0000895CF93DF9390E0FC01E7515F
:1008D000FF4F2491FC01EC5FFE4F8491882361F16E
:1008E00090E0880F991FFC01E55DFE4FC591D49102
:1008F000FC01E15EFE4FA591B491611109C09FB763
:10090000F8948881209582238883EC912E230BC054
:10091000623061F49FB7F8948881322F3095832339
:100920008883EC912E2B2C939FBF06C08FB7F89431
:10093000E8812E2B28838FBFDF91CF9108951F93DD
:10094000CF93DF93282F30E0F901E253FF4F8491DA
:10095000F901E751FF4FD491F901EC5FFE4FC491CB
:10096000CC23C1F0162F81110E942A04EC2FF0E055
:10097000EE0FFF1FE15EFE4FA591B4919FB7F89473
:10098000111104C08C91D095D82302C0EC91DE2BBC
:10099000DC939FBFDF91CF911F91089508950E942E
:1009A00028050E94CE040E94C800C0E0D0E00E944A
:1009B0004E012097E1F30E940000F9CF1F920F92A1
:1009C0000FB60F9211242F933F938F939F93AF9362
:1009D000BF938091F7019091F801A091F901B09136
:1009E000FA013091F60123E0230F2D3720F4019610
:1009F000A11DB11D05C026E8230F0296A11DB11D42
:100A00002093F6018093F7019093F801A093F901E8
:100A1000B093FA018091FB019091FC01A091FD013E
:100A2000B091FE010196A11DB11D8093FB01909331
:100A3000FC01A093FD01B093FE01BF91AF919F9186
:100A40008F913F912F910F900FBE0F901F9018958F
:100A5000789484B5826084BD84B5816084BD85B599
:100A6000826085BD85B5816085BDEEE6F0E0808160
:100A700081608083E1E8F0E0108280818260808381
:100A8000808181608083E0E8F0E080818160808304
:100A9000E1EBF0E0808184608083E0EBF0E0808136
:100AA00081608083E1E9F0E08081826080838081E1
:100AB00081608083E0E9F0E0808181608083E1EA09
:100AC000F0E0808182608083808181608083E0EAC1
:100AD000F0E0808181608083EAE7F0E080818460DB
:100AE0008083808182608083808181608083808137
:100AF000806880831092C1000895EE0FFF1F05905B
:0A0B0000F491E02D0994F894FFCF62
:100B0A0001000000001402E70185018D01A101B076
:020B1A000100D8
:00000001FF
