:100000000C949D000C94C5000C94C5000C94C50084
:100010000C94C5000C94C5000C94C5000C94C5004C
:100020000C94C5000C94C5000C94C5000C94C5003C
:100030000C94C5000C94C5000C94C5000C94C5002C
:100040000C9464020C94C5000C94C5000C94C5007B
:100050000C94C5000C94C5000C94C5000C94C5000C
:100060000C94C5000C94C5000C94C5000C94C500FC
:100070000C94C5000C94C5000C94C5000C94C500EC
:100080000C94C5000C94C5000C94C5000C94C500DC
:100090000C94C5000C94C5000C94C5000C94C500CC
:1000A0000C94AE020C94C5000C94C5000C94C500D1
:1000B0000C94C500ED00F000E300E7001101110110
:1000C000F400F800FE000201110108010C0100001B
:1000D0000000240027002A002D0000000000250059
:1000E00028002B002E00040404040404040402026B
:1000F00002020202030303030303020203050505D0
:1001000005010204081020408001020408102001AB
:100110000204081020408040010204080A0D0E0964
:1001200000030200000405080000000000000000B9
:100130000000000000000000580511241FBECFEF92
:10014000D8E0DEBFCDBF11E0A0E0B1E0E8EBFFE01A
:1001500002C005900D92A631B107D9F721E0A6E1C2
:10016000B1E001C01D92A53DB207E1F710E0CDE975
:10017000D0E004C02197FE010E94AE06CC39D10721
:10018000C9F70E94DC030C94DA070C94000090E09D
:10019000FC01E45EFE4F4491FC01EF5FFE4F2491B1
:1001A000FC01EA51FF4F8491882309F448C044239D
:1001B000C1F150E0FA013297ED30F10590F5E65AC1
:1001C000FF4F0C94AE06909180009F7703C09091F2
:1001D00080009F7D9093800024C094B59F7702C0DB
:1001E00094B59F7D94BD1DC09091B0009F7703C0D2
:1001F0009091B0009F7D9093B00013C090919000BB
:100200009F7703C0909190009F7D9093900009C0CC
:100210009091A0009F7703C09091A0009F7D909344
:10022000A000E82FF0E0EE0FFF1FE652FF4FA59170
:10023000B4918FB7F894EC91E22BEC938FBF0895B3
:10024000CF92DF92EF92FF920F931F93CF93DF93A2
:100250006C017A018B01C0E0D0E0CE15DF0581F0A2
:10026000D8016D918D01D601ED91FC910190F08145
:10027000E02DC6010995892B11F02196EECF7E0164
:10028000C701DF91CF911F910F91FF90EF90DF9009
:10029000CF9008950895E091AA01F091AB013097B5
:1002A00029F01092A1011092A00109940895CF9312
:1002B000DF93AC01E091A801F091A9013097F1F032
:1002C0009091A3018091A2019817C0F090E0292F8E
:1002D00030E02617370754F4D901AA5EBE4FEA0171
:1002E000C20FD31F28812C939F5FF1CF1092A301DF
:1002F0006093A201CB01DF91CF910994DF91CF915F
:100300000895883048F092EF980F9B3040F0893183
:1003100028F09DEE980F03C0982F01C09FEF9770B3
:10032000906490937C0080917A00806480937A003E
:1003300080917A0086FDFCCF809178002091790031
:1003400090E0922B089585ED8093DC008091DC0095
:1003500084FDFCCF10929F010895613298F42091A2
:100360009F01243089F460935601282FA6E3B1E061
:10037000FC018E2F821B861718F481918D93F9CF83
:1003800080E0089581E0089582E008950895E09165
:10039000A3018091A201E81730F4F0E0EA5EFE4F7D
:1003A000808190E008958FEF9FEF08959091A301D1
:1003B0008091A201981750F4E92FF0E0EA5EFE4F19
:1003C000208130E09F5F9093A30102C02FEF3FEFA9
:1003D000C90108958091A20190E02091A301821BA0
:1003E00091090895CF93DF93CB01EA01642F0E9416
:1003F000AD01CE01DF91CF910895CF93DF931F928E
:10040000CDB7DEB7698361E0CE0101960E94AD01F0
:1004100081E090E00F90DF91CF910895E8EBF1E05B
:1004200027E030E060E0A191B19111968C91022E0D
:1004300001C0880F0A94EAF7682B2150310998F718
:100440008CEA91E00C94FD010F931F93CF93DF93FF
:10045000EC010AE010E088810E9481012A813B8141
:10046000820F931F9B838A8301501109A1F76AE0D1
:1004700070E00E949A0680E090E00E940C0620E066
:1004800030E040E05FE30E946A050E94D6057B836E
:100490006A83DF91CF911F910F910895CF93DF93DE
:1004A000EC0188810E9481012A813B8128533F4FC2
:1004B0002817390718F481E0898301C01982DF9178
:1004C000CF9108950E94D5071F920F920FB60F92F9
:1004D00011242F933F938F939F93AF93BF9380915A
:1004E000CD019091CE01A091CF01B091D00130917A
:1004F000CC0123E0230F2D3720F40196A11DB11D5F
:1005000005C026E8230F0296A11DB11D2093CC0142
:100510008093CD019093CE01A093CF01B093D001F1
:100520008091C8019091C901A091CA01B091CB01FD
:100530000196A11DB11D8093C8019093C901A0939C
:10054000CA01B093CB01BF91AF919F918F913F9121
:100550002F910F900FBE0F901F9018951F920F9222
:100560000FB60F9211242F933F934F935F936F9386
:100570007F938F939F93AF93BF93EF93FF9380915C
:10058000D900887F803609F49CC068F5883209F468
:100590005BC090F4803109F454C038F4882309F426
:1005A000F6C0883009F44DC0F6C0883109F44CC05B
:1005B000803209F45DC0EFC0803409F468C048F4AB
:1005C000803309F455C0883309F0E5C08093790180
:1005D000D8C0803509F44FC0883509F45DC088342F
:1005E00009F0D9C0D6C0883909F4C7C0A8F4883743
:1005F00009F467C038F4883609F463C0803709F419
:1006000060C0C9C0883809F4B8C0803909F45FC037
:10061000803809F0C0C05BC0803B09F486C038F464
:10062000803A09F466C0883A09F47FC0B4C0803CBF
:1006300009F4A7C0883C09F4A4C0883B09F48AC027
:10064000AAC080919C0110C090919B0180919A0159
:10065000981770F5E0919B0181E08E0F80939B01CC
:10066000F0E0E658FE4F80818093DB0085EC86C089
:10067000809379018EC0E0919B0181E08E0F809381
:100680009B018091DB00F0E0E658FE4F8083909163
:100690009B0180919A016EC0E0919B0181E08E0FD9
:1006A00080939B018091DB00F0E0E658FE4F808351
:1006B00080919E0181116DC081E080939D0184EA4B
:1006C00061C083E080939F0110927801CFCF809129
:1006D0007801803208F051C0E091780181E08E0FFE
:1006E000809378018091DB00F0E0E85AFE4F808330
:1006F000BDCF85EC8093DC0010929F018091780142
:10070000803230F4E0917801F0E0E85AFE4F108238
:100710006091780170E0E091A401F091A50188E575
:1007200091E009951092780136C084E080939F0192
:100730001092570110925601E091A601F091A70185
:10074000099580915601811105C081E08093560181
:1007500010923601E091570181E08E0F809357018E
:10076000F0E0EA5CFE4F80818093DB0090915701BE
:1007700080915601981708F479CF85E88093DC00C2
:100780000AC085EC8093DC0010929F0104C0109297
:1007900079010E94A301FF91EF91BF91AF919F91C9
:1007A0008F917F916F915F914F913F912F910F901A
:1007B0000FBE0F901F901895789484B5826084BD09
:1007C00084B5816084BD85B5826085BD85B5816055
:1007D00085BD80916E00816080936E0010928100D3
:1007E000809181008260809381008091810081608E
:1007F000809381008091800081608093800080914F
:10080000B10084608093B1008091B00081608093DA
:10081000B00080919100826080939100809191005E
:10082000816080939100809190008160809390001E
:100830008091A10082608093A1008091A1008160DD
:100840008093A1008091A00081608093A00080919E
:100850007A00846080937A0080917A00826080932D
:100860007A0080917A00816080937A0080917A008A
:10087000806880937A001092C10010E11093DA0032
:100880008BE491E09093A7018093A60187E591E026
:100890009093A5018093A4011092A3011092A2014C
:1008A0001092A1011092A00110929F0181E080930B
:1008B0009E0110929D0187E10E94C70088E10E947D
:1008C000C7008091D9008E7F8093D9008091D90094
:1008D0008D7F8093D90088E48093D80085E480934D
:1008E000DC008AE491E09093A9018093A8018EE056
:1008F00092E09093AB018093AA0184E090E00E9483
:10090000B406EC018EE0888319821B821A82CE0124
:100910000E942402D093B901C093B80184E090E012
:100920000E94B406EC018FE0888319821B821A8230
:10093000CE010E942402D093BB01C093BA0184E08F
:1009400090E00E94B406EC01188319821B821A827F
:100950000E942402D093BD01C093BC0184E090E0CA
:100960000E94B406EC0181E1888319821B821A82FD
:10097000CE010E942402D093BF01C093BE0184E047
:1009800090E00E94B406EC0182E1888319821B8208
:100990001A82CE010E942402D093C101C093C001EB
:1009A00084E090E00E94B406EC0183E18883198220
:1009B0001B821A82CE010E942402D093C301C093ED
:1009C000C20184E090E00E94B406EC0189E18883D2
:1009D00019821B821A82CE010E942402D093C50183
:1009E000C093C40184E090E00E94B406EC018AE167
:1009F000888319821B821A82CE010E942402D0931E
:100A0000C701C093C601EEE0F1E02491E3EFF0E00E
:100A10008491882399F090E0880F991FFC01E2539C
:100A2000FF4FA591B491FC01E652FF4F859194913F
:100A30008FB7F894EC91E22BEC938FBF8DE00E947E
:100A4000C700C0E0D0E08091B8019091B9010E9448
:100A50004E028091BA019091BB010E944E0280919A
:100A6000BC019091BD010E944E028091BE01909107
:100A7000BF010E944E028091C0019091C1010E946D
:100A80004E028091C2019091C3010E944E0280915A
:100A9000C4019091C5010E944E028091C6019091BF
:100AA000C7010E944E02209771F20E940000CBCF36
:100AB000ECEAF1E01382128288EE93E0A0E0B0E06D
:100AC00084839583A683B7838AE091E091838083B2
:100AD00008955058BB27AA270E9481050C946006F0
:100AE0000E94520638F00E94590620F039F49F3FC8
:100AF00019F426F40C944F060EF4E095E7FB0C94E1
:100B00004906E92F0E94710658F3BA176207730766
:100B10008407950720F079F4A6F50C9493060EF45B
:100B2000E0950B2EBA2FA02D0B01B90190010C01FD
:100B3000CA01A0011124FF27591B99F0593F50F415
:100B4000503E68F11A16F040A22F232F342F44276D
:100B5000585FF3CF469537952795A795F040539565
:100B6000C9F77EF41F16BA0B620B730B840BBAF035
:100B70009150A1F0FF0FBB1F661F771F881FC2F7A0
:100B80000EC0BA0F621F731F841F48F487957795B4
:100B90006795B795F7959E3F08F0B0CF9395880F6E
:100BA00008F09927EE0F9795879508950E94DD0527
:100BB0006894B1110C94940608950E94790688F007
:100BC0009F5798F0B92F9927B751B0F0E1F0660F11
:100BD000771F881F991F1AF0BA95C9F714C0B13052
:100BE00091F00E949306B1E008950C949306672F4C
:100BF000782F8827B85F39F0B93FCCF38695779581
:100C00006795B395D9F73EF4909580957095619569
:100C10007F4F8F4F9F4F0895E89409C097FB3EF494
:100C200090958095709561957F4F8F4F9F4F992339
:100C3000A9F0F92F96E9BB279395F69587957795B7
:100C40006795B795F111F8CFFAF4BB0F11F460FF77
:100C50001BC06F5F7F4F8F4F9F4F16C0882311F0CF
:100C600096E911C0772321F09EE8872F762F05C0E3
:100C7000662371F096E8862F70E060E02AF09A957E
:100C8000660F771F881FDAF7880F9695879597F973
:100C9000089597F99F6780E870E060E008959FEFFE
:100CA00080EC089500240A94161617061806090603
:100CB000089500240A9412161306140605060895D2
:100CC000092E0394000C11F4882352F0BB0F40F45A
:100CD000BF2B11F460FF04C06F5F7F4F8F4F9F4F9A
:100CE000089557FD9058440F551F59F05F3F71F01C
:100CF0004795880F97FB991F61F09F3F79F0879583
:100D00000895121613061406551FF2CF4695F1DF0B
:100D100008C0161617061806991FF1CF869571059B
:100D2000610508940895E894BB2766277727CB01CF
:100D300097F90895AA1BBB1B51E107C0AA1FBB1F4F
:100D4000A617B70710F0A61BB70B881F991F5A9557
:100D5000A9F780959095BC01CD010895EE0FFF1F76
:100D60000590F491E02D09940F931F93CF93DF9397
:100D70008230910510F482E090E0E091D301F0918F
:100D8000D40120E030E0A0E0B0E0309719F14081DC
:100D900051810281138148175907C8F084179507BC
:100DA00069F4109731F012960C93129713961C93D6
:100DB00027C00093D3011093D40122C0211531051F
:100DC00019F04217530718F49A01BD01EF01DF0132
:100DD000F801DBCF21153105F9F0281B390B243040
:100DE000310580F48A819B816115710521F0FB0139
:100DF0009383828304C09093D4018093D301FE0136
:100E0000329644C0FE01E20FF31F8193919322506A
:100E10003109398328833AC02091D1013091D20120
:100E2000232B41F420910201309103013093D20130
:100E30002093D1012091000130910101211531054C
:100E400041F42DB73EB74091040150910501241B98
:100E5000350BE091D101F091D201E217F307A0F434
:100E60002E1B3F0B2817390778F0AC014E5F5F4F00
:100E70002417350748F04E0F5F1F5093D20140935F
:100E8000D1018193919302C0E0E0F0E0CF01DF91C6
:100E9000CF911F910F910895CF93DF93009709F49D
:100EA00081C0FC01329713821282A091D301B091CC
:100EB000D401109781F420813181820F931F2091FA
:100EC000D1013091D2012817390751F5F093D201A1
:100ED000E093D10167C0ED0120E030E0CE17DF07DD
:100EE00040F44A815B819E0141155105F1F0EA0110
:100EF000F5CFD383C28340815181840F951FC817DA
:100F0000D90759F488819981840F951F029691839E
:100F100080838A819B81938382832115310529F403
:100F2000F093D401E093D3013DC0E901FB83EA8350
:100F300049915991C40FD51FEC17FD0761F48081C9
:100F40009181840F951F0296E9019983888382819C
:100F500093819B838A83E0E0F0E012968D919C91CF
:100F60001397009719F0FD01DC01F7CF8D919C914B
:100F700011979D012E5F3F4F820F931F2091D1014A
:100F80003091D2012817390769F4309729F410926B
:100F9000D4011092D30102C013821282B093D20105
:100FA000A093D101DF91CF91089581E090E0F89472
:080FB0000C94DA07F894FFCF5E
:100FB8000000D501800000000000FD01F201EA01F7
:060FC800D601C701C601BD
:00000001FF
