:100000000C949D000C94C5000C94C5000C94C50084
:100010000C94C5000C94C5000C94C5000C94C5004C
:100020000C94C5000C94C5000C94C5000C94C5003C
:100030000C94C5000C94C5000C94C5000C94C5002C
:100040000C9400040C94C5000C94CE030C94A803EB
:100050000C94C5000C94C5000C94C5000C94C5000C
:100060000C94C5000C94C5000C94C5000C94C500FC
:100070000C94C5000C94C5000C94C5000C94C500EC
:100080000C94C5000C94C5000C94C5000C94C500DC
:100090000C94C5000C94C5000C94C5000C94C500CC
:1000A0000C944A040C94C5000C94C5000C94C50033
:1000B0000C94C5007F02820275027902A302A3029A
:1000C00086028A0290029402A3029A029E020A0DFC
:1000D0000E090003020000040508000000000000F3
:1000E00000000000000000000000000000250028C3
:1000F000002B002E0000000000240027002A002D05
:1001000000040404040404040402020202020203C0
:1001100003030303030202030505050501020408A6
:100120001020408001020408102001020408102061
:100130004080400102040800780511241FBECFEF63
:10014000D8E0DEBFCDBF22E0A2E3B1E001C01D9246
:10015000A33EB207E1F711E0A0E0B1E0E2E6FFE084
:1001600002C005900D92A233B107D9F710E0CDE996
:10017000D0E004C02197FE010E94A407CC39D1072A
:10018000C9F70E94C3050C94AF070C94000090E0DF
:10019000FC01E45EFE4F2491FC01EF5FFE4F849171
:1001A000882399F090E0880F991FFC01EB50FF4FD6
:1001B000A591B491FC01E751FF4F859194918FB7C0
:1001C000F894EC91E22BEC938FBF0895CF92DF92DD
:1001D000EF92FF920F931F932FB7F894C090EE0108
:1001E000D090EF01E090F001F090F1012FBFDC0121
:1001F000CB018C0D9D1DAE1DBF1D4FB7F894009116
:10020000EE011091EF012091F0013091F1014FBF0B
:100210000C151D052E053F0528F080179107A20734
:10022000B30758F71F910F91FF90EF90DF90CF9099
:100230000895CF92DF92EF92FF920F931F93CF9387
:10024000DF936C017A018B01C0E0D0E0CE15DF05B1
:1002500081F0D8016D918D01D601ED91FC91019055
:10026000F081E02DC6010995892B11F02196EECF82
:100270007E01C701DF91CF911F910F91FF90EF9009
:10028000DF90CF9008950895E091CB01F091CC01DB
:10029000309729F01092C2011092C101099408957B
:1002A000CF93DF93AC01E091C901F091CA0130977F
:1002B000F1F09091C4018091C3019817C0F090E0D3
:1002C000292F30E02617370754F4D901AE5CBE4F12
:1002D000EA01C20FD31F28812C939F5FF1CF1092A8
:1002E000C4016093C301CB01DF91CF910994DF91E9
:1002F000CF9108950895FC01918D828D981761F03A
:10030000828DDF01A80FB11D5D968C91928D9F5F4C
:100310009F73928F90E008958FEF9FEF0895FC01F7
:10032000918D828D981731F0828DE80FF11D858DAA
:1003300090E008958FEF9FEF0895FC01918D228D3D
:10034000892F90E0805C9F4F821B91098F739927C2
:10035000089582EF91E00E949D0121E0892B09F42C
:1003600020E0822F0895FC01848DDF01A80FB11DCC
:10037000A35ABF4F2C91848D90E001968F739927DB
:10038000848FA689B7892C93A089B1898C918064C8
:100390008C93938D848D981306C00288F389E02D89
:1003A00080818F7D80830895EF92FF920F931F933A
:1003B000CF93DF93EC0181E0888F9B8D8C8D981318
:1003C00005C0E889F989808185FD24C0F62E0B8D52
:1003D00010E00F5F1F4F0F731127E02E8C8DE81276
:1003E0000CC00FB607FCFACFE889F989808185FF38
:1003F000F5CFCE010E94B301F1CF8B8DFE01E80F46
:10040000F11DE35AFF4FF0820B8FEA89FB8980814F
:10041000806207C0EE89FF896083E889F98980815D
:100420008064808381E090E0DF91CF911F910F91F4
:10043000FF90EF900895CF93DF93EC01888D882390
:10044000C9F0EA89FB89808185FD05C0A889B98941
:100450008C9186FD0FC00FB607FCF5CF808185FF1C
:10046000F2CFA889B9898C9185FFEDCFCE010E948A
:10047000B301E7CFDF91CF91089580E090E0892B21
:1004800021F00E94A90181110DC080E090E0892B2C
:1004900071F080E090E0892B51F00E940000811102
:1004A00004C008950E940000F0CF0C94000008954D
:1004B000362F90E0FC01E253FF4F4491FC01E45ED3
:1004C000FE4F2491FC01EF5FFE4F8491882309F4D5
:1004D0004EC04423C1F150E0FA013297ED30F105EE
:1004E00090F5E65AFF4F0C94A407909180009F77F7
:1004F00003C0909180009F7D9093800024C094B5AC
:100500009F7702C094B59F7D94BD1DC09091B000AF
:100510009F7703C09091B0009F7D9093B00013C06F
:10052000909190009F7703C0909190009F7D909351
:10053000900009C09091A0009F7703C09091A00007
:100540009F7D9093A000E82FF0E0EE0FFF1FE75192
:10055000FF4FA591B4919FB7F894311104C08C91CD
:100560002095282302C0EC912E2B2C939FBF089539
:10057000883048F092EF980F9B3040F0893128F096
:100580009DEE980F03C0982F01C09FEF9770906465
:1005900090937C0080917A00806480937A008091AF
:1005A0007A0086FDFCCF809178002091790090E060
:1005B000922B08953FB7F8948091BA019091BB01B6
:1005C000A091BC01B091BD0126B5A89B05C02F3FED
:1005D00019F00196A11DB11D3FBFBA2FA92F982F69
:1005E0008827820F911DA11DB11DBC01CD0143E0E3
:1005F000660F771F881F991F4A95D1F7089585EDDB
:100600008093DC008091DC0084FDFCCF1092C0015F
:100610000895613298F42091C001243089F46093E8
:100620007201282FA2E5B1E0FC018E2F821B8617F4
:1006300018F481918D93F9CF80E0089581E00895B9
:1006400082E00895E091C4018091C301E81730F47D
:10065000F0E0EE5CFE4F808190E008958FEF9FEF19
:1006600008959091C4018091C301981750F4E92F27
:10067000F0E0EE5CFE4F208130E09F5F9093C4017C
:1006800002C02FEF3FEFC90108958091C30190E0B0
:100690002091C401821B91090895CF93DF93CB0170
:1006A000EA01642F0E940903CE01DF91CF910895E2
:1006B000CF92DF92EF92FF92CF93DF93CDB7DEB769
:1006C00060970FB6F894DEBF0FBECDBF60E08DE03F
:1006D0000E9458022DEC31E0FE013196AE014F5ED2
:1006E0005F4FBF01D901CD90DD90ED90FD909D0150
:1006F000D082C1823296E417F507A1F740E150E0BD
:1007000087ED92E00E944D0361E08DE00E94580267
:1007100060960FB6F894DEBF0FBECDBFDF91CF91CC
:10072000FF90EF90DF90CF900895CF93DF931F92CB
:10073000CDB7DEB7698361E0CE0101960E9409035F
:1007400081E090E00F90DF91CF9108950E94AA0779
:100750001F920F920FB60F9211242F933F934F9336
:100760005F936F937F938F939F93AF93BF93EF9319
:10077000FF9382EF91E00E94B301FF91EF91BF914F
:10078000AF919F918F917F916F915F914F913F9129
:100790002F910F900FBE0F901F9018951F920F92E0
:1007A0000FB60F9211242F938F939F93EF93FF9384
:1007B000E0910202F09103028081E0910802F09141
:1007C000090282FD12C0908180910B028F5F8F73AE
:1007D00020910C02821751F0E0910B02F0E0EE50F4
:1007E000FE4F958F80930B0201C08081FF91EF91A6
:1007F0009F918F912F910F900FBE0F901F90189582
:100800001F920F920FB60F9211242F933F938F9345
:100810009F93AF93BF938091EE019091EF01A091D0
:10082000F001B091F1013091B90126E0230F2D378D
:1008300020F40296A11DB11D05C029E8230F0396DF
:10084000A11DB11D2093B9018093EE019093EF019A
:10085000A093F001B093F1018091BA019091BB0196
:10086000A091BC01B091BD010196A11DB11D809365
:10087000BA019093BB01A093BC01B093BD01BF919D
:10088000AF919F918F913F912F910F900FBE0F903D
:100890001F9018951F920F920FB60F9211242F934D
:1008A0003F934F935F936F937F938F939F93AF93F8
:1008B000BF93EF93FF938091D900887F803609F42E
:1008C0009CC068F5883209F45BC090F4803109F46B
:1008D00054C038F4882309F4F6C0883009F44DC0B8
:1008E000F6C0883109F44CC0803209F45DC0EFC015
:1008F000803409F468C048F4803309F455C0883363
:1009000009F0E5C080939501D8C0803509F44FC047
:10091000883509F45DC0883409F0D9C0D6C088395B
:1009200009F4C7C0A8F4883709F467C038F48836DA
:1009300009F463C0803709F460C0C9C0883809F47D
:10094000B8C0803909F45FC0803809F0C0C05BC00E
:10095000803B09F486C038F4803A09F466C0883ACE
:1009600009F47FC0B4C0803C09F4A7C0883C09F4F6
:10097000A4C0883B09F48AC0AAC08091B80110C005
:100980009091B7018091B601981770F5E091B70189
:1009900081E08E0F8093B701F0E0EA56FE4F808130
:1009A0008093DB0085EC86C0809395018EC0E0913A
:1009B000B70181E08E0F8093B7018091DB00F0E0FA
:1009C000EA56FE4F80839091B7018091B6016EC0C8
:1009D000E091B70181E08E0F8093B7018091DB0039
:1009E000F0E0EA56FE4F80838091BF0181116DC017
:1009F00081E08093BE0184EA61C083E08093C001FE
:100A000010929401CFCF80919401803208F051C0B0
:100A1000E091940181E08E0F809394018091DB003E
:100A2000F0E0EC58FE4F8083BDCF85EC8093DC0076
:100A30001092C00180919401803230F4E0919401D1
:100A4000F0E0EC58FE4F10826091940170E0E0916C
:100A5000C501F091C60184E791E0099510929401D7
:100A600036C084E08093C00110927301109272012D
:100A7000E091C701F091C80109958091720181113F
:100A800005C081E08093720110925201E0917301E0
:100A900081E08E0F80937301F0E0EE5AFE4F80816B
:100AA0008093DB009091730180917201981708F494
:100AB00079CF85E88093DC000AC085EC8093DC0068
:100AC0001092C00104C0109295010E94FF02FF9194
:100AD000EF91BF91AF919F918F917F916F915F91B6
:100AE0004F913F912F910F900FBE0F901F9018952F
:100AF000E2EFF1E01382128288EE93E0A0E0B0E032
:100B000084839583A683B78324E031E031832083F7
:100B100025EC30E03587248724EC30E037872687C2
:100B200020EC30E0318B208B21EC30E0338B228BBA
:100B300022EC30E0358B248B26EC30E0378B268B93
:100B4000118E128E138E148EEFE8F2E01682178249
:100B500010861186128613861486158616861786C9
:100B6000108A118A128A138A148A158AE7EDF2E034
:100B70001382128284839583A683B78384E191E0F4
:100B8000918380830895789484B5826084BD84B510
:100B9000816084BD85B5826085BD85B5816085BD78
:100BA00080916E00816080936E0010928100809130
:100BB00081008260809381008091810081608093B8
:100BC0008100809180008160809380008091B100DD
:100BD00084608093B1008091B00081608093B00008
:100BE000809191008260809391008091910081605A
:100BF000809391008091900081608093900080911B
:100C0000A10082608093A1008091A1008160809307
:100C1000A1008091A00081608093A00080917A0063
:100C2000846080937A0080917A00826080937A0059
:100C300080917A008E7F80937A0080917A0080681C
:100C400080937A001092C1001092D3021092D402C5
:100C50001092D5021092D602109291021092920236
:100C6000109293021092940268EB7BE080E090E097
:100C70000E94E60082EF91E09093D2028093D1022D
:100C8000E0910202F091030282E08083E091FE0194
:100C9000F091FF011082E0910002F091010288E0E2
:100CA000808310920A02E0910602F091070286E02A
:100CB0008083E0910402F09105028081806180834D
:100CC000E0910402F0910502808188608083E091C8
:100CD0000402F0910502808180688083E091040223
:100CE000F091050280818F7D80832FB7F8948091E9
:100CF000EE019091EF01A091F001B091F1012FBFB1
:100D00008093910290939202A0939302B0939402E5
:100D10008091D1029091D202DC01ED91FC91028090
:100D2000F381E02D41E150E060E271E009956AE075
:100D300070E080E090E00E94E60081E08093A502F0
:100D400094E09093DA0024E431E03093C8012093DA
:100D5000C70120E531E03093C6012093C501109210
:100D6000C4011092C3011092C2011092C1011092ED
:100D7000C0018093BF011092BE0161E087E10E9433
:100D8000580261E088E10E9458028091D9008E7F6C
:100D90008093D9008091D9008D7F8093D90080E223
:100DA0008093D80085E48093DC0083E491E0909305
:100DB000CA018093C90188E593E09093CC018093A8
:100DC000CB018DE00E94C70087E00E94C70061E070
:100DD0008DE00E94580261E087E00E945802CFEF48
:100DE0008091ED01863084F160E087E00E94580236
:100DF0000E94DA024B015C0182E0C82ED12CE12C6A
:100E0000F12C0E94DA02DC01CB0188199909AA09A8
:100E1000BB09883E9340A105B10598F3B1E0CB1A18
:100E2000D108E108F10828EE820E23E0921EA11CF1
:100E3000B11CC114D104E104F10419F761E087E0A9
:100E40000E945802C093ED018091ED018F5F809365
:100E5000ED018EE00E94B802092E000CAA0BBB0B1C
:100E60008093CD019093CE01A093CF01B093D00198
:100E70008FE00E94B802092E000CAA0BBB0B8093D6
:100E8000D1019093D201A093D301B093D40180E11A
:100E90000E94B802092E000CAA0BBB0B8093D5014F
:100EA0009093D601A093D701B093D80181E10E941D
:100EB000B802092E000CAA0BBB0B8093D9019093AA
:100EC000DA01A093DB01B093DC0182E10E94B80259
:100ED000092E000CAA0BBB0B8093DD019093DE0161
:100EE000A093DF01B093E00183E10E94B802092ED4
:100EF000000CAA0BBB0B8093E1019093E201A0933D
:100F0000E301B093E40189E10E94B802092E000CCC
:100F1000AA0BBB0B8093E5019093E601A093E70138
:100F2000B093E8018AE10E94B802092E000CAA0BD6
:100F3000BB0B8093E9019093EA01A093EB01B0937E
:100F4000EC010E943D024CCFEE0FFF1F0590F49183
:100F5000E02D099481E090E0F8940C94AF07F894A8
:020F6000FFCFC1
:100F620000000000D40119019D017B018F011B02C9
:100F72000000000095034D034503310322037A016B
:100F8200564D4450565F317C315F564D4450560D9C
:020F92000A0053
:00000001FF
